:100000000C94A4040C94C3040C94C3040C94E62430
:100010000C94C3040C94C3040C94C3040C94C30444
:100020000C94C3040C94C3040C94C3040C94C30434
:100030000C94C3040C94C3040C94C3040C94C30424
:100040000C94C3040C94C3040C94C3040C94C30414
:100050000C94C6240C94C3040C94C3040C947C2408
:100060000C94C3040C94C3040C94C3040C94C304F4
:100070000C94C3040C94C3040C94C3040C94C304E4
:100080000C94C3040C94C3040C94C3040C94C304D4
:100090000C94C3040C94C3040C94C3040C94C304C4
:1000A0000C94C3040C94C3040C94C3040C94C304B4
:1000B0000C94C3040C94C3040C94C3040C94C304A4
:1000C0000C94C3040C94C3040C94C3040C94C30494
:1000D0000C94C3040C94C3040C94C3040C94C30484
:1000E0000C94C3040C94C3040C94C3040C94C30474
:1000F0000C94C3040C94C3040C94C3040C94C30464
:100100000C94C3040C94C3040C94C3040C94C30453
:100110000C94C3040C94C3040C94C3040C94C30443
:10012000084AD73B3BCE016E84BCBFFDC12F3D6C5E
:1001300074319ABD56833DDA3D00C77F11BED9E4C4
:10014000BB4C3E916BAAAABE000000803F076342F1
:1001500036B79BD8A71A39685618AEBAAB558C1D5E
:100160003CB7CC5763BD6DEDFD753EF6177231BFE0
:10017000000000803F05A84CCDB2D44EB93836A956
:10018000020C50B9918688083CA6AAAA2ABE000093
:1001900000803F08000000BE922449123EABAAAA8C
:1001A0002ABECDCCCC4C3E00000080BEABAAAAAA91
:1001B0003E00000000BF000000803F000000000083
:1001C000084178D3BB4387D1133D190E3CC3BD42D0
:1001D00082AD2B3E68EC8276BED98FE1A93E4C8081
:1001E000EFFFBE01C4FF7F3F000000000000696E0A
:1001F0006600494E46006E616E004E414E004E4113
:100200004E494E495459494E46CDCCCC3D0AD72390
:100210003C17B7D13877CC2B329595E6241FB14FD8
:100220000A000020410000C84200401C4620BCBE1D
:100230004CCA1B0E5AAEC59D7400407A10F35A008A
:10024000A0724E18090010A5D4E80000E8764817FF
:100250000000E40B54020000CA9A3B000000E1F5E4
:1002600005000080969800000040420F000000A0AA
:100270008601000000102700000000E803000000D5
:10028000006400000000000A0000000000010000FF
:100290000000002C76D888DC674F0823DFC1DFAE72
:1002A00059E1B1B796E5E3E453C63AE6519976963B
:1002B000E8E6C28426EB898C9B62ED407C6FFCEF04
:1002C000BC9C9F40F2BAA56FA5F490055A2AF75C32
:1002D000936B6CF9676DC11BFCE0E40D47FEF520E4
:1002E000E6B500D0ED902E030094357705008084AC
:1002F0001E080000204E0A000000C80C33333333C0
:100300000F986E12831141EF8D2114893BE655162B
:10031000CFFEE6DB18D1844B381BF77C1D901DA463
:10032000BBE424203284725E228100C9F124ECA156
:10033000E53D274572726F72204C6F6164696E678C
:10034000004572726F7220536176696E6700426178
:100350006420706172616D65746572004572726FC0
:100360007220696E2056414C20696E70757400428F
:10037000616420737472696E6720696E64657800C9
:1003800042616420617272617920696E64657800EF
:1003900057726F6E672061727261792064696D7344
:1003A0000052455455524E20776974686F75742019
:1003B000474F535542004D697373696E6720544827
:1003C000454E20696E2049460053544F50207374A7
:1003D0006174656D656E74004E455854207769747C
:1003E000686F757420464F5200427265616B2070D1
:1003F00072657373656400426164206C696E652088
:100400006E756D6265720042616420636F6D6D612F
:100410006E64005661726961626C65206E6F742053
:10042000666F756E6400446976206279207A657221
:100430006F004F7574206F66206D656D6F72790067
:100440004C696E65206E756D62657220746F6F20E9
:1004500062696700537472696E67206578707220F4
:100460006578706563746564004E756D6572696367
:1004700020657870722065787065637465640045E6
:1004800072726F7220696E2065787072004D6973A8
:1004900073696E6720627261636B657400556E7478
:1004A00065726D696E6174656420737472696E67DC
:1004B00000556E657870656374656420696E70754B
:1004C00074004C696E6520746F6F206C6F6E6700EE
:1004D000426164206E756D626572004F4B000101D0
:1004E000637801110128633203C0F80002C30402DB
:1004F000C40502D01D02B30002B58B0138023A02D6
:1005000002360002B09F05F01212121201200129DA
:1005100000000000000000260029002C002F0032FF
:1005200000000000000000000000000000000000CB
:1005300000000000000000000000000000000000BB
:10054000000000CB0200CD0200CF0200D10200D398
:100550000200D50200E00200DA0200D70200D90250
:1005600000DC0200DF0200E20240E40200E60200DA
:10057000E802C03603C0EC0240F00240F60240FA46
:100580000240FF02400303400803400C03401103F4
:10059000401703401C03401F03C02403092803091C
:1005A0002C0300F202013003053503400503C03976
:1005B00003C03E03404303C04703404B0340510385
:1005C000405803405C030E62030E69030F6E034044
:1005D0007203407803408103408503408D0300CFC0
:1005E0000340D503409303019B0301A40340A803E8
:1005F00040AF0301B30301B70301BB0301BE030115
:10060000C20301C60301CA0340CE0340D40340DA4B
:100610000300DF0301E30300000000090A0B0000F0
:1006200003070000000000000000000200000000BE
:1006300000000000000000000000040500000000B1
:1006400000000000065F0600000703000703002407
:100650007E247E2400242B6A120000631308646346
:1006600000364956205000000703000000003E41BC
:1006700000000000413E000000083E1C3E0800084B
:10068000083E08080000E0600000000808080808AC
:10069000000060600000002010080402003E514984
:1006A000453E0000427F4000006251494946002219
:1006B00049494936001814127F10002F4949493121
:1006C000003C4A4949300001710905030036494997
:1006D000493600064949291E00006C6C00000000E4
:1006E000EC6C00000008142241000024242424247F
:1006F000000041221408000201590906003E415D34
:10070000551E007E1111117E007F49494936003E79
:1007100041414122007F4141413E007F49494941D9
:10072000007F09090901003E4149497A007F080814
:10073000087F0000417F410000304040403F007F83
:1007400008142241007F40404040007F0204027FA5
:10075000007F0204087F003E4141413E007F0909BD
:100760000906003E4151215E007F090919660026F5
:10077000494949320001017F0101003F4040403FAB
:10078000001F2040201F003F403C403F00631408F2
:100790001463000708700807007149454300000012
:1007A0007F414100000204081020000041417F0009
:1007B00000040201020400808080808000000307A2
:1007C0000000002054545478007F444444380038DA
:1007D0004444442800384444447F00385454540866
:1007E00000087E0909000018A4A4A47C007F04046A
:1007F00078000000007D4000004080847D00007F84
:10080000102844000000007F4000007C0418047899
:10081000007C0404780000384444443800FC44441C
:1008200044380038444444FC004478440408000838
:100830005454542000043E442400003C40207C00DA
:10084000001C2040201C003C6030603C006C1010FC
:100850006C00009CA0603C00006454544C000008F4
:100860003E414100000000770000000041413E0889
:10087000000201020100003C2623263C62797465D7
:100880007320667265650000000000250000002BE3
:10089000002E0031003400000000000000000000C5
:1008A0000000000000240000002A002D003000336A
:1008B000000000000000000000000005050505051F
:1008C00005050502020202020204040707070704E5
:1008D00004040404040606060606060606020201CF
:1008E00002040810204080201001040802020101C7
:1008F0000204200408102040800102040810204057
:1009000080408041726475696E6F20424153494353
:1009100000DB04D004C204B1049D048D047F04698B
:1009200004540440043204260413040704F703E9C2
:1009300003D803C903B603A103900380036F035CCC
:10094000034E03410333030011241FBECFEFD1E454
:10095000DEBFCDBF13E0A0E0B2E0E0E0FDE600E0E6
:100960000BBF02C007900D92A83EB107D9F725E250
:10097000A8EEB3E001C01D92A13AB207E1F70E94D0
:10098000F5240C947E360C9400008150823108F0DE
:1009900058C0E82FF0E0E153FB4F0C940333EF0411
:1009A000F304E104E704EB042105F604FC0400056C
:1009B00006050A050E051405180521051C05220566
:1009C0002605809180008F77809380000895809124
:1009D00080008F7DF9CF80918000877FF5CF84B52F
:1009E0008F7784BD089584B58F7DFBCF8091B00053
:1009F0008F778093B00008958091B0008F7DF9CFFC
:100A0000809190008F77809390000895809190005E
:100A10008F7DF9CF80919000877FF5CF8091A000E6
:100A20008F778093A00008958091A0008F7DF9CFEB
:100A30008091A000877FF5CF809120018F778093F0
:100A400020010895809120018F7DF9CF80912001B0
:100A5000877FF5CFCF93DF9390E0FC01E152F74F12
:100A600024918554974FFC0184918823C9F090E02C
:100A7000880F991FFC01EF55F74FA591B491FC0128
:100A8000E957F74FC591D49161110DC09FB7F89404
:100A90008C91209582238C938881282328839FBF63
:100AA000DF91CF910895623051F49FB7F8943C9153
:100AB000822F809583238C93E8812E2BEFCF8FB7E5
:100AC000F894EC912E2B2C938FBFEACF3FB7F8947C
:100AD00080912B0590912C05A0912D05B0912E05AC
:100AE00026B5A89B05C02F3F19F00196A11DB11D89
:100AF0003FBFBA2FA92F982F8827BC01CD01620FC5
:100B0000711D811D911D42E0660F771F881F991F7F
:100B10004A95D1F708958F929F92AF92BF92CF924C
:100B2000DF92EF92FF926B017C010E9466054B0100
:100B30005C01C114D104E104F104B9F00E9466051E
:100B4000681979098A099B09683E734081059105F6
:100B500080F321E0C21AD108E108F10888EE880E7E
:100B600083E0981EA11CB11CE4CFFF90EF90DF90B2
:100B7000CF90BF90AF909F908F90089580914C251B
:100B800090914D259C012751310922303105F8F013
:100B90008E309105F9F081319105E1F0285F3F4FEA
:100BA00022303105D0F02350310922303105A8F030
:100BB000285F3F4F2230310598F022503109223012
:100BC000310510F08E9779F488E290E0089585E081
:100BD00090E008958AE090E0089584E190E008951F
:100BE0008EE190E008958FEF9FEF089580910B04C0
:100BF00090910C04FC01E55CFA4F208131812E5F5D
:100C00003F4F821B930B90930C0480930B04835CE7
:100C10009A4F089580910B0490910C04049790933F
:100C20000C0480930B04835C9A4FFC0160817181FA
:100C30008281938108958F929F92AF92BF92CF92BB
:100C4000DF92EF92FF920F931F93CF93DF93EC010C
:100C50005B01E881F981C190D190F983E8830E941A
:100C60000A060E94BB3084E190E0C616D706B9F5AB
:100C7000F12CE12C88248394912C10E000E0EC14FA
:100C8000FD0444F50E940A060E94BB30E881F98108
:100C9000A191B191F983E883161617066CF5A61792
:100CA000B70754F1AB0141505109489D9001499D4E
:100CB000300D589D300D1124020F131FC4018A9F5F
:100CC00040018B9F900C9A9F900C11249FEFE91A82
:100CD000F90AD5CFF5011183008390E080E0DF9120
:100CE000CF911F910F91FF90EF90DF90CF90BF9029
:100CF000AF909F908F90089585E190E0F0CF409164
:100D00000B0450910C049A012C5F3F4FE0913B057E
:100D1000F0913C05E217F30770F0FA01E35CFA4F3B
:100D2000608371838283938330930C0420930B043C
:100D300081E090E0089590E080E00895CF93DF9304
:100D40001F92CDB7DEB7898389818EBD00000DB4B7
:100D500007FEFDCF8EB50F90DF91CF910895982FAC
:100D6000FB01DA018770907F903D29F128F4903AD9
:100D700041F0903BA1F00895903E49F1903F99F1E8
:100D80000895232B49F424E330E02D933C9323E38F
:100D900030E031832083089522E330E0F6CF232B27
:100DA00039F425E230E02D933C9324E230E0F1CF9A
:100DB00023E230E0F8CF232B39F42BE230E02D93FF
:100DC0003C932AE230E0E5CF29E230E0F8CF232B54
:100DD00039F42EE230E02D933C932DE230E0D9CF70
:100DE0002CE230E0F8CF232B39F421E330E02D93CF
:100DF0003C9320E330E0CDCF2FE230E0F8CF1F93DB
:100E0000CF93DF9300D000D0CDB7DEB7162F30E000
:100E100020E0AE014F5F5F4FBE016D5F7F4F0E94CC
:100E2000AF06E981FA81111115C0408121E030E05F
:100E3000B90102C0660F771F8A95E2F7CB01809552
:100E4000842380830F900F900F900F90DF91CF91AC
:100E50001F910895908121E030E001C0220F8A9512
:100E6000EAF7892F822BEDCF1F93CF93DF93C72F04
:100E7000D82F60E083ED0E94FF0685E00E949E0669
:100E800080E00E949E06182F61E083ED0E94FF061D
:100E900010FD3BC060E083ED0E94FF0686E00E94EB
:100EA0009E0661E083ED0E94FF0660E083ED0E94F4
:100EB000FF0680E20E949E068D2F0E949E068C2FC8
:100EC0000E949E0680E00E949E0661E083ED0E94E3
:100ED000FF0660E083ED0E94FF06C8E7D0E011E066
:100EE00010FF16C085E00E949E0680E00E949E06CC
:100EF000182F61E070E080E090E00E948B05219760
:100F000079F761E083ED0E94FF0690E080E006C083
:100F100061E083ED0E94FF0681E090E0DF91CF91D8
:100F20001F9108951F93CF93DF93EB01182F60E07B
:100F300083ED0E94FF0683E00E949E06812F0E949F
:100F40009E068D2F0E949E068C2F0E949E0680E09A
:100F50000E949E06C82F61E083ED0E94FF068C2F41
:100F6000DF91CF911F910895FF920F931F93CF931D
:100F7000DF93C72FD82F8A0160E083ED0E94FF0620
:100F800085E00E949E0680E00E949E06F82E61E0A9
:100F900083ED0E94FF06F0FC51C060E083ED0E94EB
:100FA000FF0681E00E949E0680E00E949E0661E0AE
:100FB00083ED0E94FF0660E083ED0E94FF0686E05D
:100FC0000E949E0661E083ED0E94FF0660E083EDD3
:100FD0000E94FF0682E00E949E068D2F0E949E06C0
:100FE0008C2F0E949E0680E00E949E06E8011395C9
:100FF00089910E949E06C017D107D1F761E083ED69
:101000000E94FF0660E083ED0E94FF06C4E1D0E08D
:1010100011E010FF16C085E00E949E0680E00E944D
:101020009E06182F61E070E080E090E00E948B0542
:10103000219779F761E083ED0E94FF0690E080E060
:1010400006C061E083ED0E94FF0681E090E0DF9141
:10105000CF911F910F91FF9008951F93CF93DF932E
:10106000182FC091310560E08C2F0E94FF06D091AF
:10107000300560E08D2F0E94FF06812F0E949E06A2
:1010800061E08D2F0E94FF0661E08C2FDF91CF91F0
:101090001F910C94FF06DF92EF92FF920F931F9324
:1010A000CF93DF93D82EE92E8B01F090310560E0CD
:1010B0008F2D0E94FF06CD2DDE2D0C0F1D1F899157
:1010C0000E949E06C017D107D1F761E08F2DDF91F6
:1010D000CF911F910F91FF90EF90DF900C94FF063E
:1010E000CF92DF92EF92FF920F931F93CF93DF93F4
:1010F00000D000D0CDB7DEB78C01E62E6A01F22E0B
:101100008AE20E942D08198223E030E0C801B9016B
:101110000E94EF326A831B82C8018C0D9D1D0197CE
:10112000B9010E94EF326C8364E070E0CE01019659
:101130000E944B088BE20E942D081982EA821B82D2
:10114000FA94FE0CFC8264E070E0CE0101960E94ED
:101150004B088CE20E942D080F900F900F900F907B
:10116000DF91CF911F910F91FF90EF90DF90CF9083
:1011700008951F93CF93DF9300D000D0CDB7DEB793
:10118000162F30E020E0AE014F5F5F4FBE016D5F74
:101190007F4F0E94AF06EB81FC81113029F1408125
:1011A00021E030E0B90102C0660F771F8A95E2F7AF
:1011B000CB01123059F08095842380830F900F90DB
:1011C0000F900F90DF91CF911F910895942F982B3E
:1011D0009083E981FA819081982B9083EB81FC8147
:1011E000908180958923E9CF908121E030E001C092
:1011F000220F8A95EAF7892F822BDFCF7F928F9279
:101200009F92AF92BF92CF92DF92EF92FF920F9395
:101210001F93CF93DF9300D000D0CDB7DEB702ECA1
:1012200012E062E0F80181918F010E94B908F2E0BA
:10123000083C1F07B1F78AE0E2EFF3E0A8EEB3E065
:1012400001900D928A95E1F792EFE92E93E0F92E45
:1012500028EBA22E22E0B22E8701F8011082F501C0
:1012600071905F0161E0872D0E94B90860E0872DD1
:101270000E94FF0682EC882E82E0982ED12CC12C91
:1012800021E030E0AE014D5F5F4FBE016F5F7F4FE9
:10129000F40181914F010E94AF06EB81FC81208116
:1012A00030E002C0359527958A95E2F720FD0BC006
:1012B00021E030E00C2C01C0220F0A94EAF7F8017B
:1012C0008081822B8083FFEFCF1ADF0A86E0C81669
:1012D000D104B1F661E0872D0E94FF0660E0872D02
:1012E0000E94B9080F5F1F4FE3E00C3F1E0709F093
:1012F000B4CF7091F203172F18707071A8EEB3E09D
:1013000030E020E080E00AE0F701D1907F0150E07A
:1013100040E061E0C22E9D2D962396131DC09C9146
:101320009623D1F4C11004C09DEF940F9230A0F029
:1013300088E792E0111106C080E092E0711102C0CE
:101340008CE392E0049FF001059FF00D1124E80F5B
:10135000F91FE20FF31F8081660F4F5F5F4F46302A
:101360005105C9F62F5F3F4F11962A30310561F6BE
:101370000F900F900F900F90DF91CF911F910F91D1
:10138000FF90EF90DF90CF90BF90AF909F908F90A5
:101390007F900895DF92EF92FF920F931F93CF9368
:1013A000DF93CDB7DEB7C058D1090FB6F894DEBFD2
:1013B0000FBECDBF20EA30E040E851E070E060E0D1
:1013C00090E080E00E94700800EA10E080E8D82EEB
:1013D000CE0101967C01F7018D2D11928A95E9F7D6
:1013E00060E870E0C7010E944B080150110999F7AD
:1013F000C058DF4F0FB6F894DEBF0FBECDBFDF91F0
:10140000CF911F910F91FF90EF90DF90089540E0F2
:1014100051E060E270E081E294E00E94573348E0DE
:1014200050E061E070E089E194E00E94573310924F
:10143000240510922305109222051092210508958B
:1014400010923E2510923D2510920C0410920B0430
:1014500080E090E290930A0480930904909308043A
:1014600080930704909306048093050490933C05B1
:1014700080933B05EDE3F5E0DF019C011D922150D7
:101480003040E1F710920404109203041092020419
:10149000109201041092512510925025089580EE6B
:1014A000E1E4F4E0A1E2B4E001900D928A95E1F765
:1014B00040E250E060E270E081E095E00E94573346
:1014C00048E050E061E070E089E194E00E94573329
:1014D0008091210590912205019790932205809398
:1014E00021050895CF93DF931092240510922305D0
:1014F0008091210590912205019690932205809379
:101500002105089711F40E944F0AC0912105D0913E
:101510002205CE0125E0880F991F2A95E1F740E2C8
:1015200050E060E270E08F5D9B4F0E945733C75ED2
:10153000DB4F81E08883DF91CF910895CF93DF93D4
:10154000C0912105D091220525E0CC0FDD1F2A9501
:10155000E1F72091230530912405C20FD31F9E018E
:10156000D7FF02C0215E3F4F95E0359527959A95AC
:10157000E1F7F901E75EFB4F91E090839E012F5F59
:101580003F4FFE01EF5DFB4F80832F3F310531F070
:101590002CF00E944F0A9E012F513109C90160E2CF
:1015A00070E00E94EF32909324058093230537FF6B
:1015B00002C0215E3F4F85E0359527958A95E1F77A
:1015C0003093220520932105DF91CF9108952F922A
:1015D0003F924F925F926F927F928F929F92AF92C3
:1015E000BF92CF92DF92EF92FF920F931F93CF9310
:1015F000DF938B01382E292E6B01E82EF92ED0E0D7
:10160000C0E0812C912C540183942AE0422E512C6D
:10161000612C712C2196AAE0B0E0A50194010E94F2
:101620004C2F4B015C01C701B601A30192010E943E
:101630002D2F69017A01C114D104E104F10451F79D
:10164000F12CE12C8AE0482E512C612C712CC50123
:10165000B401A30192010E942D2F49015A01B80142
:10166000832D922D0E942D2FCA01B901A301920151
:101670000E942D2F80E3860F0E949E0A8FEFE81AAA
:10168000F80ACE15DF0519F7CE01DF91CF911F9132
:101690000F91FF90EF90DF90CF90BF90AF909F9011
:1016A0008F907F906F905F904F903F902F90089514
:1016B000CF93DF93EC01FE0184912196882319F0EA
:1016C0000E949E0AF8CFDF91CF910895CF93DF93C8
:1016D000EC010E94720ABE0190E080E00E94E70ADD
:1016E00080E20E949E0A8CE798E0DF91CF910C94F3
:1016F000580BFF920F931F93CF93DF93C091210557
:10170000D091220525E0CC0FDD1F2A95E1F720912D
:10171000230530912405C20FD31F8C01FF24F394BD
:10172000F80181918F019E01D7FF02C0215E3F4FDA
:1017300095E0359527959A95E1F78823B9F0275ECE
:101740003B4FF901F082CE010196F80131972081DB
:10175000FE01EF5DFB4F20838F3F910529F024F0C0
:101760000E944F0ACE014F97EC01DACFCE0160E222
:1017700070E00E94EF32909324058093230530930C
:10178000220520932105DF91CF911F910F91FF90AA
:101790000895CF93DF93FC0120813181C0913B05F7
:1017A000D0913C05CE01835C9A4FC20FD31F8E1798
:1017B0009F0739F4D0933C05C0933B05DF91CF914F
:1017C0000895AF01481B590BBC01820F931F0E9463
:1017D0004533F0CFCF92DF92EF92FF920F931F939A
:1017E000CF93DF9300910B0410910C04F801E55C9A
:1017F000FA4F208131817C014FEFE41AF40AE2169E
:10180000F306F4F4EC01C9010296081B190B1093BE
:101810000C0400930B04C801835C9A4F6C01CE0C3E
:10182000DF1C672BB1F4F60131971082F601F182CB
:10183000E08223960C0F1D1F10930C0400930B04E1
:10184000DF91CF911F910F91FF90EF90DF90CF909C
:101850000895B9016E197F09680F791FA7010E94C9
:101860004533E4CF8F929F92AF92BF92CF92DF9297
:10187000EF92FF920F931F93CF93DF934B015C0185
:10188000EA0120E030E0A9010E94422C811111C040
:1018900080E388831982CE01DF91CF911F910F9150
:1018A000FF90EF90DF90CF90BF90AF909F908F9080
:1018B000089575016401E894F7F827E137EB41EDED
:1018C00058E3C701B6010E94422C87FD0AC020E000
:1018D00034E244E759E4C701B6010E94AF3118165B
:1018E00044F400E026E0AE01C501B4010E94B32734
:1018F000D2CFC701B6010E94F6310E94F13020E03C
:1019000030E040E85FE30E946F2F0E94BB3027E089
:1019100030E07901E61AF70A8E012E2D41E0C5016B
:10192000B4010E943528FE01EF2809F4B4CF9F01CD
:101930002F5F3F4F8081811108C0DF011197FD01AA
:101940008C91803321F41C92F8CFF901F0CF8E32C4
:1019500009F0A1CF10829FCF0F931F93CF93DF93F6
:10196000C0914E25D0914F25D093FF03C093FE0325
:10197000FE013196F0934F25E0934E25088110E04B
:1019800010934D2500934C250130110531F5AEE043
:10199000B4E030E020E08191A9014F5F5F4F87FD07
:1019A00003C08D939A01F7CFF0934F25E0934E2516
:1019B0008058225F3B4FF901808391E0843209F027
:1019C00090E090930D04425F5B4FFA011082C801D2
:1019D000DF91CF911F910F9108950330110591F47C
:1019E00089819A81AB81BC81809348259093492558
:1019F000A0934A25B0934B252596D0934F25C093AD
:101A00004E25E5CF0230110579F469817A818B8109
:101A10009C810E94492C60934825709349258093AE
:101A20004A2590934B25E8CF0430110581F6F093B9
:101A3000FD03E093FC0301900020E9F7F0934F25AC
:101A4000E0934E25C4CF2F923F924F925F926F92B8
:101A50007F928F929F92AF92BF92CF92DF92EF923E
:101A6000FF920F931F93CF93DF93CDB7DEB7C65688
:101A7000D1090FB6F894DEBF0FBECDBF99E1492E54
:101A800094E0592E912C812CD12CC12C7E012DE576
:101A9000E20EF11CCE018F5B9F4FA2969FAF8EAFDF
:101AA000A297F20181912F0181110DC0809125052E
:101AB000882309F406C180912105909122058C1597
:101AC0009D0509F0FEC0960184E0220F331F8A9520
:101AD000E1F7A6963FAF2EAFA697C4018F5D9B4F4F
:101AE000A4969FAF8EAFA497B12CA12CA4962EAD37
:101AF0003FADA4972819390921523440A496EEAD80
:101B0000FFADA4978191A496FFAFEEAFA49780326A
:101B10000CF480E2409123055091240542175307AD
:101B200079F420912105309122052C153D0541F4D1
:101B300090912505992321F09091170491118FE53B
:101B4000282F082E000C330B3F938F9328EC32E0A4
:101B50003F932F931F9282E08F93FF92EF920E9408
:101B60009A333501F70101900020E9F731978F0191
:101B70000E191F092CE0209FC001219F900D1124F8
:101B80008A0D9B1D0FB6F894DEBF0FBECDBF813806
:101B900091404CF080E891E08A199B096CE070E07C
:101BA0000E94EF328B011701C1018E199F09801726
:101BB00091070CF07AC0F10181911F018052990BBD
:101BC000F6E0F89FB001F99F700D1124645C794F25
:101BD00046E050E0CE018B5A9F4F0E941A2C669629
:101BE000AFAD669767962FAD6797A7962FAFA7976C
:101BF00068964FAD689769965FAD69976A966FADC5
:101C00006A976B967FAD6B97FE01319681E0982FB6
:101C10009A2320E009F02CEFA7969FADA797982371
:101C200009F43FC0236090EEB82FB42309F09F6100
:101C30002483208395839183982F952320E009F0B6
:101C40002CEF982F962379F1236090EEB82FB723CD
:101C500009F09F6126832283978393833896880FA8
:101C6000A2962EAD3FADA297E217F30781F630E8BA
:101C7000631631E073065CF420E130E04CE050E0A4
:101C8000A6966EAD7FADA697C3010E94700860E472
:101C900070E0CE0101960E944B088CE0680E711C2A
:101CA00083CF90E0C1CF90E0D1CF9CE0A90EB11CD2
:101CB000E0E8AE16E1E0BE0609F018CFF201319778
:101CC0001082FFEFCF1ADF0A20E2820E911C38E06B
:101CD000C316D10409F0E5CECA59DF4F0FB6F89408
:101CE000DEBF0FBECDBFDF91CF911F910F91FF904F
:101CF000EF90DF90CF90BF90AF909F908F907F90AC
:101D00006F905F904F903F902F900895CF92DF9209
:101D1000EF92FF920F931F93CF93DF9381E0809315
:101D200025058091230590912405892B09F064C035
:101D3000809121059091220575E0880F991F7A9571
:101D4000E1F740E250E060E270E08F5D9B4F0E945F
:101D50005733C0912105D091220555E0CC0FDD1FEE
:101D60005A95E1F78091230590912405C80FD91F5A
:101D70008E01D12CCC24C39460E2E62EF12C0E947B
:101D8000FE08882309F465C09E01D7FF02C0215ECA
:101D90003F4F45E0359527954A95E1F7F901E75E14
:101DA000FB4FC08290EE980F9F3548F5FE01EF5D26
:101DB000FB4F80832196CE01B7010E94EF329093B2
:101DC000240580932305CE01D7FD4F9635E09595E8
:101DD00087953A95E1F7909322058093210508971E
:101DE00041F400321105DCF000521109A0970E9465
:101DF0004F0AC0921804C3CF0E94720AAACF823041
:101E000049F40C171D07BCF62197FE01EF5DFB4F4F
:101E10001082D1CF8D3079F6DD24D394CCCF2197A9
:101E2000FE01EF5DFB4F1082CE01B7010E94EF3241
:101E30009093240580932305CE01D7FD4F9625E08E
:101E4000959587952A95E1F7909322058093210532
:101E5000D0CF8091180481110E94230DDD2009F458
:101E60008ECFCF5DDB4F188210922505E0912105C2
:101E7000F0912205E75EFB4F81E080830E94230DF5
:101E8000C8018F5D9B4FDF91CF911F910F91FF9004
:101E9000EF90DF90CF900895EF92FF920F931F93F2
:101EA000CF93DF9300D000D0CDB7DEB78EEDE82E14
:101EB00084E0F82EC7010196F7010491033659F426
:101EC000F2E0EF0EF11CFC01649170E090E080E024
:101ED0000E948B05EFCF0023C1F0F2E0EF0EF11C62
:101EE000FC0184910E942D08015021F310E0A8010B
:101EF000B701CE0101960E941A2CE00EF11EB80126
:101F0000CE0101960E944B08D5CF0F900F900F90F5
:101F10000F90DF91CF911F910F91FF90EF90089557
:101F2000CF92DF92EF92FF920F931F93CF93DF93A5
:101F3000EC0109900020E9F72197C81BD90B6E012D
:101F40002FEFC21AD20AE0900B04F0900C04970114
:101F50002C0D3D1D2F5F3F4F40913B0550913C059F
:101F600024173507F4F4BC018701035C1A4FC8013C
:101F70000E948533F801EC0DFD1DD182C0822396AD
:101F8000CE0DDF1DD0930C04C0930B0481E090E0D4
:101F9000DF91CF911F910F91FF90EF90DF90CF9045
:101FA000089590E080E0F4CFCF92DF92EF92FF921D
:101FB0000F931F93CF93DF937C016B01C0913B057F
:101FC000D0913C05C35CDA4F0091050410910604E2
:101FD000035C1A4FC017D10790F48A8190E08C21DE
:101FE0009D21892B39F0B701CE0103960E945E3303
:101FF000892B39F088819981C80FD91FEBCFD0E0A8
:10200000C0E0CE01DF91CF911F910F91FF90EF9033
:10201000DF90CF9008958F929F92AF92BF92EF92F0
:10202000FF920F931F93CF93DF937C014A015B01D3
:10203000EC0109900020E9F72197C81BD90B63E058
:1020400070E00E94D40F009799F0C80FD91F8C82BE
:102050009D82AE82BF8281E090E0DF91CF911F919F
:102060000F91FF90EF90BF90AF909F908F90089549
:10207000CE010896E0913B05F0913C05E81BF90B79
:1020800020910B0430910C04E217F307C4F0F09395
:102090003C05E0933B05E35CFA4F918380838F011D
:1020A0000D5F1F4F81E08283B701C8010E94853315
:1020B000C00FD11F89829A82AB82BC82CCCF90E0C4
:1020C00080E0CBCF8F929F92AF92BF92CF92DF9260
:1020D000EF92FF920F931F93CF93DF93CDB7DEB7AD
:1020E0002B970FB6F894DEBF0FBECDBFC09038055A
:1020F000D0903905D601BD908D01EB2CF12CC70194
:102100000E94112C892B89F5D0923905C09238058F
:10211000B1102DC0E0913605F0913705CF01019641
:102120009093370580933605108280913405909105
:10213000350501979093350580933405EE24EA9494
:10214000FE2CC7012B960FB6F894DEBF0FBECDBF95
:10215000DF91CF911F910F91FF90EF90DF90CF9083
:10216000BF90AF909F908F9008956801C3CFC70133
:10217000C0970A9718F0BEE2BB1291C0FE013196DB
:1021800090E080E0F12CE12C8F014C2D3D2DD6010B
:102190002D916D012E32B1F4E114F10481F04093E0
:1021A000380530933905CDCF8A30910571F7D0923B
:1021B0003905C0923805EE24E394F12CC2CFEE2409
:1021C000E394F12C01962193D6012C91622F605358
:1021D000770B6A30710540F32E3231F3D092390516
:1021E000C0923805800F911FDC011C92809134054C
:1021F00090913505863091050CF454C10597909364
:10220000350580933405E114F10431F54AE050E0DE
:1022100070E060E0C8010E940B2A4B015C01B1E054
:102220008B1A9108A108B0E8BB0AEEEF8E16EFEF0B
:102230009E06AE06BE0680F4E0913605F0913705A5
:1022400022E0208361837283838394833596F093A5
:102250003705E093360575CFE0903605F0903705E9
:10226000C7010196909337058093360583E0D70127
:102270008C9370E060E0C8010E94AD28F701618393
:1022800072838383948380913605909137050496F9
:102290009093370580933605F12CE12C52CFC7017E
:1022A0000E9434337C01892B09F4E1C01093390575
:1022B00000933805B982CC24C394D12CD801BD90A9
:1022C0007D018B2D90E00E942733892B19F4B4E215
:1022D000BB1211C0E8E0CE16D1045CF4E1E0F0E0FE
:1022E000EC0FFD1FEC0DFD1DB082A6014F5F5F4F8F
:1022F0006A018701E3CF1093390500933805E1E0C7
:10230000F0E0EC0FFD1FEC0DFD1D108250E7852E57
:1023100055E0952E67E1A62EB12CF40165917491DC
:10232000CE0101960E945E337C01892B09F050C0DA
:102330008091340590913505823091050CF4B2C03E
:1023400001979093350580933405E0913605F0911F
:102350003705CF0101969093370580933605A0820B
:102360005FE1A516B10409F0ECCE6F0162E0C60E84
:10237000D11CD0923705C092360584E08183580184
:102380007FEFA71AB70AD8018C9190E00E94112C18
:102390007C01892B89F41093390500933805F601E7
:1023A000402F312FD8012D918D01BFEFCB1ADB0AC1
:1023B000222321F02083F3CF8501E1CF409338051C
:1023C00030933905D0923705C09236051082B9CEC8
:1023D000EFEFAE1ABE0AF3E08F0E911C2FE4A216A7
:1023E000B10409F09ACF64E270E0CE0101960E9438
:1023F0007133009769F096012150310941E050E0B6
:102400004C0F5D1F240F351F8217930709F0E1C0A1
:1024100096012F5F3F4F8091340590913505281725
:1024200039070CF03FC0821B930B909335058093C6
:102430003405009136051091370578015FEFE51AF4
:10244000F50A81E0D8018C93BE016F5F7F4FC70111
:102450000E948533F801EC0DFD1D8081806880832A
:10246000CE0CDF1CD0923705C092360515CFB2E2F4
:10247000BB124CC0E0913605F0913705DF01119693
:10248000B0933705A093360584E0808380913405AE
:1024900090913505019790933505809334058230EE
:1024A000910524F442E0E42EF12C4BCEF801109378
:1024B0003905009338056D0186016081662309F4B2
:1024C0008CC0A6014F5F5F4F9C01215031096232E1
:1024D00039F4CF0101966181623209F08EC0FC01AE
:1024E0006A018081D8018C93C90131962130310570
:1024F00019F7F0933905E093380550933705409369
:1025000036053093350520933405CCCFBFE3BB129D
:102510001EC080913405909135051816190614F6E1
:10252000E0913605F09137059F012F5F3F4F3093C3
:102530003705209336052AE12083019790933505CE
:10254000809334051093390500933805FACD2DE6B4
:10255000822E25E0922E36E1A32EB12CF401A59116
:10256000B491FD0101900020E9F731978F010A1B1A
:102570001B0BF40185919491A801B6010E948C3344
:102580007C01892BD9F4E0913605F0913705CF0114
:1025900001969093370580933605A082809134058B
:1025A0009091350501979093350580933405C00EC1
:1025B000D11ED0923905C0923805C3CDE1E0AE1AE4
:1025C000B108F3E08F1A910827E0A216B10409F0D0
:1025D000C5CF83E0E82EF12CB4CDF0933905E0931C
:1025E0003805D0923705C092360590933505809313
:1025F000340594E0E92EF12CA4CD90933905809315
:1026000038055093370540933605D6011C92309318
:1026100035052093340595CD6F927F928F929F92CE
:10262000AF92BF92CF92DF92EF92FF920F931F93E0
:10263000CF93DF93CDB7DEB764970FB6F894DEBFC4
:102640000FBECDBFE0904C25F0904D256AE2E61616
:10265000F1040CF04CC078E2E716F1040CF07EC0F7
:1026600088E0E816F10409F4DEC1ECF4E4E0EE16CB
:10267000F10464F4F2E0EF16F1040CF0B6C1EA9450
:10268000EF2809F4D1C006E010E0B8C074E0E71606
:10269000F104C9F7809147258111BBC10E94AC0CA0
:1026A00000E010E1ABC087E2E816F1040CF0CEC107
:1026B00095E2E916F1040CF051C0EBE0EE16F104DE
:1026C00021F0F9E1EF16F104F1F60E94AC0C0E9442
:1026D0000C138C011F700115110509F0ECC388273C
:1026E000907F892B09F4EBC107E010E087C060E41C
:1026F000E616F10434F57EE3E716F1047CF583E396
:10270000E816F1040CF4BFCF96E3E916F10434F1B6
:10271000EBE3EE16F10409F0B6CF0E94AC0C809109
:102720004725882309F45EC160913A056111109232
:102730003A05062E000C770B880B990B0E94492C4A
:10274000FFC0FCE4EF16F10409F495C10CF04CC095
:10275000C70182549109079708F095CFF701EE0F52
:10276000FF1FEE0DFF1DE35DFA4F14910E94AC0CAC
:1027700080914C2590914D25089709F09EC3612EBC
:10278000712C0E94AC0C1370C12ED12C530133E07C
:10279000B594A7943A95E1F777E0A722BB24912C52
:1027A000812C8C149D040CF0BCC10E9493198C01E7
:1027B0009F70892B19F50027107FA0FCABC1012B5E
:1027C00009F092CFB594A7949FEF891A990A8C14B7
:1027D0009D043CF780914C2590914D25469709F03A
:1027E00052CF0E94AC0CDDCF7DE4E716F10409F472
:1027F000B5CF8EE4E816F10409F045CFC801649620
:102800000FB6F894DEBF0FBECDBFDF91CF911F9101
:102810000F91FF90EF90DF90CF90BF90AF909F907F
:102820008F907F906F90089510914725112331F07C
:102830006EE074E0CE0101960E948533E0900D04B5
:102840000E2C000CFF080E94AC0C80914C2590913E
:102850004D25089709F07AC00E94AF198C01892B89
:1028600069F680914725882309F4B9C08E010F5F6E
:102870001F4FEF28B1F160E170E0C8010E94D40F52
:102880009C8B8B8B009719F40CE010E0B7CFF8010C
:1028900001900020E9F79F01201B310B2D5F3F4F76
:1028A000820F931F9C8B8B8BBE016F5E7F4FCE017F
:1028B00043960E941B068C01892B09F09FCF298922
:1028C0003A898B899C89021713070CF05DC0FC01C3
:1028D0004081411102C00F5F1F4F01969C8B8B8B73
:1028E000F0CF64E070E0C8010E94D40F9C8B8B8B0A
:1028F000009751F2F80101900020E9F79F01201B99
:10290000310B2D5F3F4F820F931F9C8B8B8BBE0132
:102910006F5E7F4FCE0143960E941B068C01892B70
:1029200009F06CCF89899A89880F991F880F991FA0
:10293000EB89FC89E80FF91F6081718182819381A5
:102940000E947F06892B09F04DC023C0112309F492
:1029500046C08E010F5F1F4FEF28F1F068E070E076
:10296000C8010E94D40F009709F48ECFF80101909E
:102970000020E9F79F01201B310B2D5F3F4F820F95
:10298000931F009709F480CF0E94900F892B09F0C4
:1029900087CE0AE010E032CF63E070E0C8010E9409
:1029A000D40F009709F470CFF80101900020E9F7E7
:1029B0003197E01BF10BE80FF91FC480D580E6804A
:1029C000F7802FEF3FEF4FE75FE7C701B6010E94A7
:1029D000422C882309F458CFC701B601B1CFEF28A4
:1029E00009F05ECE10E000E009CF8091472581110B
:1029F00003C00E94AC0CF6CF609148257091492528
:102A000080914A2590914B250E947F06892B89F75A
:102A1000C0CF8091FC039091FD030E94900F892B01
:102A200009F03CCEB6CF0E94AC0C0E9493198C01E9
:102A30009F70892B09F0E2CE80914C2590914D2515
:102A4000099709F03AC20E94AC0CD8CE0E94AC0C97
:102A500080914725882331F20E949E28BC01990F5E
:102A6000880B990B0E94492C20E03EEF4FEF56E473
:102A70000E940F3065CF0E94AC0C80917A00806478
:102A800080937A0080917A0086FDFCCF20917800B7
:102A90008091790090914725992309F4A3CF90E084
:102AA000982F8827820F911D26E0289FB001299F2B
:102AB000700D112490E080E00E94472C41CFFBE094
:102AC000EF16F104B9F069E1E616F10409F0DBCD87
:102AD00080914725882309F485CF0E940A0620E0CB
:102AE00030E0A9010E94422C882379F060E070E078
:102AF000CB0108C080914725882309F473CF0E9439
:102B00000A0690580E947F0679CE60E070E080E867
:102B10009FE3F8CF0115104109F454CE08E010E00E
:102B20006DCE80914725882309F439C0F701B59708
:102B3000E932F10508F0A7CDE056FA4E0C940333C4
:102B4000EA153A164313C915DE154313431343130D
:102B5000431343134313431343134313A616B216ED
:102B6000BE16431343134313431343134313431337
:102B700043130C17361743134313FD1502160C1697
:102B80001C16211626162B16431343134313431307
:102B900007160E940A060E94F1300E947F0680916B
:102BA0004C2590914D25099709F087C18301102F7D
:102BB0000027110F110F0027107145CF0E940A0640
:102BC000AE014F5F5F4F0E94320C0E94900F892B25
:102BD00031F7DFCE0E94F605FC0101900020E9F7F5
:102BE0003197BF01681B790B072E000C880B990BDE
:102BF0000E94492C0E947F06EACF0E940A060E948A
:102C00008232F8CF0E940A060E940A30F3CF0E9457
:102C10000A060E94DB2FEECF0E940A0620E030E079
:102C2000A9010E94AF3118161CF40E940A06E2CFD7
:102C30000E940A069058DECF0E940A060E940632C1
:102C4000D9CF0E940A060E948930D4CF0E940A067A
:102C50000E949032CFCF0E940A060E94BB306115BD
:102C6000710511F277FF03C06FEF7FEFBDCF61E019
:102C700070E0BACF00910B0410910C04E090FE03B9
:102C8000F090FF0380913B0590913C05801B910BD8
:102C90009801235C3A4FF901329740815181F90143
:102CA000E41BF50BAF014250510950933905409395
:102CB000380530933705209336059093350580937A
:102CC00034050E9462100097E1F334F0029709F492
:102CD00060CE07E110E092CD80910B0490910C043E
:102CE000835C9A4F90934F2580934E2580913605B3
:102CF000909137058D53954090930C0480930B046D
:102D00000E94AC0C0E9493199C013F70232B21F070
:102D10000A9709F43ECEDDCF8827907F892B09F0F2
:102D2000E3CC0E940A064B015C0110930C04009353
:102D30000B040E94F605C501B4010E947F06F092C3
:102D40004F25E0924E250E94AC0C29CF0E940A0626
:102D50000E94BB30CB0170E060E097FF0CC006E141
:102D600010E04CCD0E940A060E94BB30CB0177FDDB
:102D7000F6CF61E070E00E94EA0B11CF0E940A06D4
:102D80000E94BB306B018B010E940A06D7FCE7CF83
:102D90000E94BB301616170614F720910B043091D1
:102DA0000C04F901E55CFA4F408151810F5F1F4F20
:102DB000461757070CF4BA0161507109C801860F14
:102DC000971F481759071CF48A01061B170B401759
:102DD000510709F4E4CE4E5F5F4F7901E41AF50A1A
:102DE000C701835C9A4F6C01A80141505109680FDB
:102DF000791F0E944533F601E00FF11FDF011197A3
:102E00001C92118300830E5F1F4F0E0D1F1D109328
:102E10000C0400930B04C3CE0E940A060E94BB3030
:102E20007727FB01E85EF94F8491FB01E152F74FF0
:102E300004916554774FFB01149170E060E0112319
:102E400009F4D2CE81110E94C504E12FF0E0EE0F0B
:102E5000FF1FEF5EFA4FA591B491EC910E2391E024
:102E600080E009F490E0692F782FBECE0E940A0618
:102E70000E94BB30862F6E3010F082EF860F2091BB
:102E80007B00982F9870277F922B90937B00877000
:102E9000806480937C0080917A00806480937A00C3
:102EA00080917A0086FDFCCF809178006091790056
:102EB000762F682F99CE8C01A1CC05E010E09ECC36
:102EC0002F923F924F925F926F927F928F929F923A
:102ED000AF92BF92CF92DF92EF92FF920F931F9328
:102EE000CF93DF9300D000D0CDB7DEB79A8389832C
:102EF0008B010E94BE056C0189819A81C816D90692
:102F00000CF4BDC180914C2590914D259C838B8301
:102F10000E94AC0C0E940C137C019F70892BE1F481
:102F20000E94BE05C816D9064CF4B701C601019629
:102F30000E9460177C019F70892B71F4C80188275B
:102F4000907F009709F0FDC0EE2490EFF922EF2862
:102F5000D9F096E0E92EF12CC7010F900F900F9059
:102F60000F90DF91CF911F910F91FF90EF90DF9025
:102F7000CF90BF90AF909F908F907F906F905F9019
:102F80004F903F902F900895F0904725FF2009F42F
:102F90007CC10E940A064B015C010E940A06762E43
:102FA000672E582E492E8B819C810A9709F0A0C16B
:102FB000272D362D452D542DC501B4010E946F2FAC
:102FC0000E947F0696CF8B819C810D9709F06DC181
:102FD00020E030E0A901C501B4010E94422C882301
:102FE00009F44FC1A5019401672D762D852D942DEF
:102FF0000E940F30E5CF8B819C81409789F4FF20A0
:1030000009F477CF272D362D452D542DC501B40158
:103010000E94AF311816ACF060E070E0CB01D0CF69
:103020008B819C810F9791F4FF2009F462CF272DAB
:10303000362D452D542DC501B4010E94422C87FF29
:10304000EBCF60E070E080E89FE3BACF8B819C819A
:103050000E9771F4FF2009F44CCF272D362D452D06
:10306000542DC501B4010E94422C882351F3D4CFC2
:103070008B819C81419771F4FF2009F43ACF272D71
:10308000362D452D542DC501B4010E94422C8111CD
:10309000D8CFC2CF8B819C81439771F4FF2009F474
:1030A00028CF272D362D452D542DC501B4010E9462
:1030B000AF3187FFC6CFB0CF8B819C81429779F427
:1030C000FF2009F416CF272D362D452D542DC5018F
:1030D000B4010E94422C18160CF0B3CF9DCF8B8107
:1030E0009C814797A9F4FF2009F403CF20E030E04A
:1030F000A901C501B4010E94422C81111FC050E0FA
:1031000040E030E020E0652F742F832F922F58CFBE
:103110008B819C81489709F01CCFFF2009F4E9CEF0
:1031200020E030E0A901C501B4010E94422C8823AF
:1031300029F050E040E030E82FE3E5CFA301920111
:10314000E2CF8115904109F004CFEE2480EFF82200
:10315000E11490E1F90609F0FCCE8B819C810A977D
:1031600009F041C080914725882309F4C2CE2091FF
:103170000B0430910C04F901E55CFA4F80819181D8
:103180009C838B830296281B390BB901635C7A4FB1
:10319000FB013297E080F180C70102961901281ADD
:1031A000390AC101835C9A4F6C01C70101974B81B9
:1031B0005C818C0D9D1D0E9445338B819C818E0D01
:1031C0009F1D9C838B830197F601E80FF91F918364
:1031D00080838B819C810196820D931D90930C04BA
:1031E00080930B0486CE8B819C810E97069708F006
:1031F000B0CE80914725882309F10E94F6058C0105
:103200000E94F605B8010E947C338C018B819C8161
:103210000E9741F40115110509F413CF60E070E039
:10322000CB010AC08B819C81419759F4012BB1F3EA
:1032300060E070E080E89FE30E947F0610E000E01D
:1032400058CE8B819C810F9721F41016110634F70C
:10325000EFCF8B819C81409719F417FFDFCFE8CF28
:103260008B819C81429719F417FDD8CFE1CF8B81D8
:103270009C81439799F61016110684F2D9CF7801F4
:103280006BCE8BE0E82EF12C67CE8B819C810A9768
:10329000029708F42ECE8B819C810C9709F429CEDD
:1032A0008B819C810D9709F424CE8B819C818E9714
:1032B00009F0A1CEFF2009F41CCEC501B4010E9483
:1032C000BB307C836B83CB01892BD9F2672D762DA4
:1032D000852D942D0E94BB30CB016B817C810E9497
:1032E000EF32BC01990F880B990B0E94492C68CED4
:1032F0008B819C810B9749F4A5019401672D762D54
:10330000852D942D0E946E2F5BCE8B819C810C9716
:1033100009F059CE272D362D452D542DC501B40168
:103320000E94A82C4DCE0E940C139C013F70232BB1
:1033300029F4BC0190E080E00C94601708950E948D
:1033400093199C013F70232B49F48827907F892B88
:1033500019F490E080E0089587E090E008950F93DD
:103360001F93CF93DF9380914C2590914D25089723
:1033700041F005E010E0C801DF91CF911F910F915E
:1033800008950E94AC0CD0E0C0E021960E949F19E5
:103390008C01892B81F780914C2590914D258930A6
:1033A000910529F0469729F70E94AC0CEECF0E94B8
:1033B000AC0C809147258823F1F2BE01DD0F880B0C
:1033C000990B0E94492C0E947F06892BA1F60AE0E6
:1033D00010E0D1CF4F925F926F927F928F929F9227
:1033E000AF92BF92CF92DF92EF92FF920F931F9313
:1033F000CF93DF93CDB7DEB72D970FB6F894DEBF2E
:103400000FBECDBFB82E80914725882331F06EE0E6
:1034100074E0CE0101960E948533C0900D040C2CFF
:10342000000CDD080E94AC0C80914C2590914D253C
:10343000F12CE12C089701F50E94AF198C01EE24C4
:10344000E394F12C892BC1F0C8012D960FB6F894A6
:10345000DEBF0FBECDBFDF91CF911F910F91FF90C7
:10346000EF90DF90CF90BF90AF909F908F907F9024
:103470006F905F904F900895BB2009F47BC08091BE
:103480004725882379F00E94860EC114D10409F4DF
:103490006AC00E94900F892B09F462C00E94720AD0
:1034A0000E94230D10E000E0CD2809F478C000E070
:1034B00010E10027107F0115104109F053C18091E0
:1034C0004725882309F4BBC08E010F5F1F4FA090D2
:1034D0000B04B0900C04EF2809F4E3C00E94F60539
:1034E0004C01FC0101900020E9F731973F01681A77
:1034F000790A60E170E0C8010E94D40F6C019D87D9
:103500008C87892B09F467C0F80101900020E9F746
:10351000CF01801B910B03968C0D9D1D9D878C8781
:10352000BE01665F7F4FCE010C960E941B068C0188
:10353000892B09F089CF2A853B8590E080E0EC84D7
:10354000FD84F701821793070CF07CC04081411184
:1035500001C00196FFEFEF1AFF0AFD86EC86EFCF60
:103560000AE010E071CF70E060E00E94AD280E9498
:103570007F0691CF80914C2590914D2506E010E07B
:103580000E9709F061CF0E94AC0C0E9493198C0138
:103590009F70892B09F058CFCD2809F08ACF0027DA
:1035A000107F012B09F0DBC080914725882309F4A7
:1035B00046C08E010F5F1F4FEF28B9F10E940A0627
:1035C0006B017C0164E070E0C8010E94D40F9D870C
:1035D0008C87009719F40CE010E036CFF8010190C9
:1035E0000020E9F79F01201B310B2D5F3F4F820F19
:1035F000931F9D878C87BE01665F7F4FCE010C961F
:103600000E941B068C01892B09F01ECF8A859B85A1
:10361000880F991F880F991FEC85FD85E80FF91F0A
:10362000C082D182E282F3820FCF0E940A06AB01F0
:10363000BC01C8010E940B10892B09F491CF10E046
:1036400000E002CF01900020E9F73197EE19FF0961
:103650006E1A7F0A60913B0570913C052B0146185C
:1036600057084A145B040CF4EFCEF6018081918177
:10367000860D971D91838083635C7A4FA701461B5B
:10368000570BC201835C9A4F0E944533B401C701B6
:10369000861997090E94853350923C0540923B055C
:1036A000D3CEC501835C9A4FFC01329720813181D2
:1036B000821B930B9C01225031096901F801019092
:1036C0000020E9F731977F01E01AF10AF901019032
:1036D0000020E9F74F01C7010496821A930A880E69
:1036E000991E68E070E0C8010E94D40F009789F02D
:1036F000FC012081318140913B0550913C05240F14
:10370000351F281939092A153B0508F429CF0E94CD
:10371000C90BE0913B05F0913C05E819F909EA1560
:10372000FB050CF41DCFF0933C05E0933B05E35CF7
:10373000FA4F918280825F0123E0A20EB11C88E0E3
:103740008283B801C5010E948533C7010196B60185
:103750008A0D9B1D0E9485330E94F60570CF07E0FD
:1037600010E072CE08E010E06FCE2F923F924F92A1
:103770005F926F927F928F929F92AF92BF92CF9201
:10378000DF92EF92FF920F931F93CF93DF93CDB70A
:10379000DEB7C052D1400FB6F894DEBF0FBECDBF2A
:1037A000109200041092422510924125109240255B
:1037B00010923F259E012F5F3E4FCF5FDE4F398332
:1037C0002883C150D140CE0101961C01E0904C25C8
:1037D000F0904D25E114F10411F40C947624D0906E
:1037E0004725DD2041F080913D2590913E25909325
:1037F0000C0480930B04F7013197EE34F10510F0BF
:103800000C947924EA5FF34E0C9403339E1C7924C4
:1038100079247924792479247924792479247924C0
:1038200079247924792479247924792479247924B0
:103830007924792479247924792479247924541CCD
:10384000931CB21CD21D151E2E1E9923A81C992351
:10385000331E7924792479247924792479249E1EAD
:1038600079247924901F7924992365209923BA20FB
:103870007924792479249923CE211E231E231E2303
:103880007924E721E721792479249923E7217924F0
:10389000792479247924792479247924992370222C
:1038A000CF227924792499230E94AC0CEE24E3944E
:1038B000F12C80914C2590914D25009749F144972A
:1038C00039F10E9493198C019F70892B09F01BC25A
:1038D00080914725882371F00027107F012BA9F4E0
:1038E0000E940A06A1010E94320C0E94790BEE246C
:1038F000E394F12C80914C2590914D254597C9F684
:103900000E94AC0CF12CE12CD4CF0E94F605EDCF37
:10391000809147258823C9F0EF2811F00E94720A90
:103920000E94230D12C00E94AC0C80914C259091F6
:103930004D25019719F006E010E0E5C180E00E94F6
:10394000EA198C01892B09F0DEC101E010E0ACC15D
:103950000E94AC0C80914C2590914D25019759F710
:1039600081E0EDCF0E94AC0C80914C2590914D25CB
:10397000009709F467C0449709F464C00E949F1936
:103980008C01892B09F0BFC180914725912C812C96
:10399000882329F00E940A060E94C2304B018091C0
:1039A0004C2590914D25469709F44FC0512C412C40
:1039B00080914725882349F2712C612CD12CFDE39D
:1039C000AF2EF5E0BF2E80913D2590913E25835C82
:1039D0009A4FA816B90608F0A3CFD50112966D919B
:1039E0007C918114910421F06815790508F4D4C004
:1039F0004114510421F04616570608F4CDC090E05A
:103A000080E00E94E70A80E20E949E0A7501B4E00D
:103A1000EB0EF11CCD5FDE4F19821882C350D140EE
:103A2000D701EC91EE2309F49EC0E13031F5870116
:103A30000F5F1F4FF80181918F0187FD19C00E9410
:103A40009E0AF8CF912C812CB1CF0E94AC0C0E9421
:103A50009F198C01892B09F056C180914725882335
:103A600009F473CF0E940A060E94C2302B01A0CF36
:103A700080580E949E0A7801D3CFE33079F41196E2
:103A80006D917D918D919C911497A1010E94320CB2
:103A90000E94790B87010B5F1F4FEDCFE23041F49D
:103AA000F70161817281838194810E94E70AF2CFDC
:103AB00087010F5F1F4FE43059F5CD5FDE4F28813E
:103AC0003981C350D140232B49F0C8010E94790BA2
:103AD000D8010D900020E9F78D01CDCF82E20E9440
:103AE0009E0A78018701F70181917F01882351F0B7
:103AF000823211F40E949E0AF701319780810E9460
:103B00009E0AF0CF82E20E949E0A0F5F1F4FB3CF42
:103B100023E0E29FF0011124E35DFA4FC490C7FE59
:103B200003C080E20E949E0AD701EC91B3E0EB9FB4
:103B3000F0011124E55DFA4F859194910E94790B73
:103B4000C6FE03C080E20E949E0AF70180818F3189
:103B500009F091CF21E030E0CD5FDE4F398328833B
:103B6000C350D14088CF0E94720A3FEF631A730A94
:103B700087E06816710481F491E0D91669F00E941B
:103B8000230D0E94FE088823E1F3DD24D3948032C4
:103B900009F0D12C712C612CD5018D919C91A80E2E
:103BA000B91E11CF0E94AC0C80914C2590914D25EF
:103BB00061E070E0892BA9F00E949F198C01892B8C
:103BC00009F0A1C080914725882309F4BECE0E9448
:103BD0000A060E94C2306115710519F40EE010E06A
:103BE00092C080914725882309F4AFCE80E090E20F
:103BF00090930A0480930904909308048093070427
:103C0000909306048093050490933C0580933B05B4
:103C10007093422560934125109202041092010492
:103C2000109204041092030490CE0E94AC0C0E94E7
:103C30009F198C01892B09F066C080914725882344
:103C400009F483CE0E940A060E94C23061157105F4
:103C500029F2709342256093412577CE0E94AC0CE7
:103C60000E94AC0C72CE0E94AC0C0E949F198C0179
:103C7000892B09F048C080914C2590914D2584975F
:103C800009F02BC60E94AC0C80914725882361F077
:103C90000E940A0620E030E0A9010E94422C811116
:103CA00003C081E0809300048091000481111EC64E
:103CB0008091412590914225892B09F017C680916A
:103CC0003F2590914025892B09F010C680914C2505
:103CD00090914D25009709F0EFC510E000E080912C
:103CE0004325909144250196909344258093432544
:103CF00020914525309146258217930721F0011523
:103D0000110509F463CDC801C05EDE4F0FB6F8940B
:103D1000DEBF0FBECDBFDF91CF911F910F91FF90FE
:103D2000EF90DF90CF90BF90AF909F908F907F905B
:103D30006F905F904F903F902F9008950E94AC0C31
:103D400000914C2510914D250130110509F0F3CD5E
:103D500080910D048111EFCDDD2029F06EE074E03B
:103D6000C1010E9485330E94AC0C80914C2590913A
:103D70004D250E9709F0DFCD0E94AC0C0E949F19D3
:103D8000009709F0CBC080914725882351F00E940D
:103D90000A06CF5EDE4F688379838A839B83C15195
:103DA000D14080914C2590914D258B9709F0C3CD42
:103DB0000E94AC0C0E949F19009709F0AFC080913F
:103DC0004725882351F00E940A06CB5EDE4F6883A8
:103DD00079838A839B83C551D14080914C259091F2
:103DE0004D25412C512CE0E86E2EEFE37E2E8C9772
:103DF00081F40E94AC0C0E949F19009709F08EC0BC
:103E000080914725882309F44FCF0E940A062B0191
:103E10003C0180914725882309F446CFE091432552
:103E2000F0914425CD5FDE4FF983E883C350D14044
:103E30008090502590905125F10101900020E9F7E4
:103E400031977F01E218F3086701F4E1CF0ED11C2E
:103E500063E070E0C1010E94D40F20913B053091D6
:103E60003C05A0900B04B0900C04009779F0DC01A5
:103E70004D915C91240F351F2C193D092A153B05E6
:103E800018F40AE010E03FCF0E94C90BE0913B0517
:103E9000F0913C05EC19FD09EA15FB0594F3F0934C
:103EA0003C05E0933B05E35CFA4FD182C0826F0191
:103EB000B3E0CB0ED11C82E08283B101C6010E9427
:103EC0008533EFEFEE1AFE0AF601EE0DFF1DCF5E11
:103ED000DE4F88819981AA81BB81C151D140808305
:103EE0009183A283B3834482558266827782CB5EBC
:103EF000DE4F88819981AA81BB81C551D1408087DD
:103F00009187A287B38795868486CD5FDE4FA8818F
:103F1000B981C350D140B787A687C6CE8C01F3CEF6
:103F20000E94AC0C00914C2510914D2501301105DB
:103F300009F001CD80910D048111FDCCDD2009F443
:103F4000BBC063E070E08EE094E00E94D40F009765
:103F500009F4B5C0FC012281CC24CA94DC2C7FE793
:103F6000E72EFE2C2230A9F5EEE0F4E001900020CF
:103F7000E9F7EB50F440E80FF91F80819181A281AD
:103F8000B381CB5FDE4F88839983AA83BB83C550FF
:103F9000D140C480D580E680F78080859185A28558
:103FA000B385C35FDE4F88839983AA83BB83CD50DB
:103FB000D140A485B585C15EDE4FB983A883CF51BA
:103FC000D14026853785C35EDE4F39832883CD51A6
:103FD000D1402FEF3FEF4FE75FE7CB5FDE4F6881C8
:103FE00079818A819B81C550D1400E94422C8823CF
:103FF00009F465C02FEF3FEF4FE75FE7C701B60158
:104000000E94422C882309F45DC0A7019601CB5F72
:10401000DE4F688179818A819B81C550D1400E94A1
:104020006F2F4B015C01BC01A4018EE094E00E9463
:104030000B1020E030E0A901C701B6010E94AF31AA
:1040400087FD0EC0C35FDE4F288139814A815B81C5
:10405000CD50D140C501B4010E94422C1816BCF4C9
:1040600020E030E0A901C701B6010E94422C87FF81
:1040700023C0C35FDE4F288139814A815B81CD50E7
:10408000D140C501B4010E94AF3187FD15C0C15EAA
:10409000DE4F88819981CF51D14090934225809302
:1040A0004125C35EDE4F88819981CD51D140019673
:1040B0009093402580933F250E94AC0CF5CD0CE0F9
:1040C00010E021CE00E110E01ECE0E94AC0C0E9458
:1040D0009F198C01892B09F016CE809147258823E2
:1040E00009F433CC0E940A060E94C23061157105A2
:1040F00009F474CD709342256093412520913B05CE
:1041000030913C05790194E0E91AF10880910B04A3
:1041100090910C04E816F9060CF4B3CEC090432538
:10412000D0904425A0905025B090512500910504D1
:1041300010910604C901835C9A4FA801421B530BDE
:10414000BC0104970E944533F0923C05E0923B0588
:1041500004501109109306040093050410930804F9
:1041600000930704F801E35CFA4FB182A082D38286
:10417000C282EBCB0E94AC0C00914C2510914D25D6
:104180000130110509F0D7CBDD2029F06EE074E095
:10419000C1010E948533A0910D04CD5FDE4FA8833D
:1041A000C350D1400E94AC0C0E94AF192C01009763
:1041B00009F0F2C080914725882309F475CDF101FB
:1041C00001900020E9F731979F0122193309C75F59
:1041D000DE4F39832883C950D1402A5F3F4FC75EE5
:1041E000DE4F39832883C951D1400E940A060E94BC
:1041F000BB306B01C55FDE4F79836883CB50D14004
:1042000080910B0490910C04C55EDE4F99838883E6
:10421000CB51D140B12CA12C88248394912CC55F23
:10422000DE4FA881B981CB50D140AA16BB0684F4D9
:104230000E940A060E94BB30F401E69F4001E79FFE
:10424000900CF69F900C1124FFEFAF1ABF0AE7CF36
:104250005601AA0CBB1CCD5FDE4F2881C350D14054
:1042600081E090E0211102C084E090E0889E30015E
:10427000899E700C989E700C1124C75EDE4F888159
:104280009981C951D140A80EB91EA60CB71CCD5FAB
:10429000DE4F9881C350D14060E170E0911102C0BF
:1042A00064E070E0C1010E94D40F80900B049090F4
:1042B0000C04009789F020913B0530913C052A19A8
:1042C0003B09DC014D915C91240F351F2815390500
:1042D00008F4D7CD0E94C90BE0913B05F0913C0555
:1042E000EA19FB09E815F9050CF4CBCDF0933C0570
:1042F000E0933B05E35CFA4FB182A082CD5FDE4FD5
:10430000B881C350D14080E1B11101C084E04F01B8
:1043100023E0820E911C8283B101C4010E94853387
:10432000C75FDE4F88819981C950D1400196880EC0
:10433000991ED401CD92DD924D01C55EDE4FE8811C
:10434000F981CB51D140F0930C04E0930B045D0153
:10435000C55FDE4F28813981CB50D14042165306CC
:1043600064F40E940A060E94BB30D5016D937D93D0
:104370005D01BFEF4B1A5B0AEBCFD7FE02C0D12C19
:10438000C12CCC0CDD1CA30170E060E0C4018C0DDD
:104390009D1D0E94573388CC8C01B5CC0E94AC0C7B
:1043A0000E949F198C01892B09F0ADCC8091472583
:1043B000882309F4CACA0E940A060E94BB3097FFEC
:1043C00003C008E110E09FCC0E948B05BECA0E948A
:1043D000AC0C80914C2590914D25ECE3EE16F10448
:1043E00009F03FC08A309105E1F50E94AC0C90E0E5
:1043F00081E020914725222309F4A7CA9111A5CA7B
:104400002CE3E216F10409F042C06CEF811101C007
:1044100060E090E080E00E94ED2E60913D2581E01B
:1044200090E00E94ED2E60913E2582E090E00E9497
:10443000ED2E3DE3E32E35E0F32E10E000E0809119
:104440003D2590913E25081719070CF07ECAD7012B
:104450006D917D01C80103960E94ED2E0F5F1F4FE5
:10446000EECF009791F0449781F00E9493198C0150
:104470009F70892B09F047CC0027107F0115104150
:1044800009F02EC291E080E0B4CF90E0FCCFBDE314
:10449000EB16F10409F02DC20E94200A81E090E0A1
:1044A0000E94E52EC82E82E090E00E94E52ED82ED4
:1044B000D0923E25C0923D252DE3E22E25E0F22E3E
:1044C00010E000E00C151D050CF03FCAC801039672
:1044D0000E94E52EF70181937F010F5F1F4FF2CFFE
:1044E0000E94AC0C0E949F198C01892B09F00BCC07
:1044F00080914725882309F428CA0E940A060E9451
:10450000BB306A30710508F05CCFDB0120E030E39E
:104510000E940C334B015C010E943407C501B401B9
:10452000705F8F4F9F4F0E94340775016401F0E266
:10453000DF0EE11CF11CC701B6010E9434070DE338
:1045400015E0FE013196D8018D918193CF5FDE4F4A
:1045500028813981C150D1402E173F07A9F7A10109
:10456000C501B4010E94B4073FEF931AA30AB30A2E
:10457000139585E20D33180721F700913D25109121
:104580003E2509831A83A101C701B6010E94B40721
:10459000B801110F880B990B0E94E70AD6C90E9437
:1045A000AC0C0E949F198C01892B09F0ACCB809137
:1045B0004725882309F4C9C90E940A060E94BB3016
:1045C0006B019AE0C916D10408F0FBCE0E94200AC4
:1045D000D60120E030E30E940C334B015C010E94C5
:1045E0009207C501B401705E8F4F9F4F0E949207E2
:1045F000082FC501B4016F5F7F4D8F4F9F4F0E9401
:104600009207182F10933E2500933D259DE3E92E38
:1046100095E0F92EC7018D539540801791070CF056
:10462000B7CFC501B4010E949207D7018D937D01D8
:10463000BFEF8B1A9B0AAB0ABB0AECCF0E94AC0CF3
:104640000E949F198C01892B09F05DCB80914C252C
:1046500090914D25469709F06EC90E94AC0C0E94BE
:104660009F198C01892B09F04ECB80914725882317
:1046700009F46BC90E940A060E94BB30D62EC72ED1
:10468000062F172F0E940A060E94BB30CB01E9E3D8
:10469000EE16F10411F1FAE3EF16F10409F445C046
:1046A0006032710514F08FE190E097FF02C090E056
:1046B00080E090932405809323058D2D9C2D8830D8
:1046C000910514F087E090E097FF02C090E080E051
:1046D000909322058093210538C99B013327F90166
:1046E000E85EF94F8491F901E152F74FE490F90146
:1046F000E554F74FF490FF2009F427C981110E9477
:10470000C504EF2DF0E0EE0FFF1FE957F74FA5911D
:10471000B4918FB7F894EC91012B29F4E094EE2238
:10472000EC928FBF12C9EE2AFBCF6D2D0E942A0595
:104730000CC90E94AC0CDD2009F407C921E3E21684
:10474000F10409F44EC004F582E2E816F104A1F187
:104750009FE2E916F10451F1A0E2EA16F10409F032
:10476000F4C8809150259091512590930404809332
:1047700003048091432590914425909302048093F3
:10478000010401E110E0BFCAB9E4EB16F10409F439
:1047900069C0EEE4EE16F10409F481C0F6E3EF1609
:1047A000F10409F0D2C80E94070ABAC80E94200A80
:1047B00081E080930004C9C88091030490910404AF
:1047C000009709F4C2C890934225809341258091B7
:1047D00001049091020401969093402580933F2517
:1047E000B4C8E0910704F091080480910904909105
:1047F0000A04E817F90709F476C0E35CFA4FA080D1
:10480000B180C280D3800091050410910604E0902D
:104810003B05F0903C05C701835C9A4FA8014E19F7
:104820005F09BC0104960E94453324E0E20EF11CAE
:10483000F0923C05E0923B050C5F1F4F109306047D
:10484000009305041093080400930704B0924225D6
:10485000A09241253FEFC31AD30AD0924025C092BF
:104860003F2573C888E20E942D0880E10E942D0830
:1048700010927A0052985A9AEA98809169008F7C37
:1048800080936900E29AEA9A83B7817F846083BF4C
:1048900083B7816083BF88950E944C0F56C8809172
:1048A0003B0590913C0520913D2530913E25821B92
:1048B000930B0E94660B34C8012B09F40ECA44976F
:1048C00049F40E94AC0C80914C2590914D25892B88
:1048D00009F003CA0DE010E002CA02E110E013CAB9
:1048E00008E010E010CA03E110E00DCA10E000E09B
:1048F0000ACA0DE010E007CA1F920F920FB60F927E
:1049000011242F933F938F939F93AF93BF938091E5
:10491000270590912805A0912905B0912A0530918D
:10492000260523E0230F2D3758F50196A11DB11D53
:10493000209326058093270590932805A0932905A9
:10494000B0932A0580912B0590912C05A0912D05FF
:10495000B0912E050196A11DB11D80932B0590935A
:104960002C05A0932D05B0932E05BF91AF919F917B
:104970008F913F912F910F900FBE0F901F90189520
:1049800026E8230F0296A11DB11DD2CF1F920F92D0
:104990000FB60F9211248F939F93809132059091BF
:1049A000330590938500809384009091170481E0F3
:1049B000911180E08093170481E0809318049F9107
:1049C0008F910F900FBE0F901F9018951F920F920E
:1049D0000FB60F9211248F9383B78E7F83BF8F9171
:1049E0000F900FBE0F901F901895789484B5826039
:1049F00084BD84B5816084BD85B5826085BD85B583
:104A0000816085BD80916E00816080936E00109200
:104A1000810080918100826080938100809181007B
:104A2000816080938100809180008160809380000C
:104A30008091B10084608093B1008091B00081606A
:104A40008093B0008091910082608093910080916A
:104A500091008160809391008091900081608093AB
:104A600090008091A10082608093A1008091A100BC
:104A700081608093A1008091A00081608093A0005C
:104A800080912101826080932101809121018160C8
:104A90008093210180912001816080932001809189
:104AA0007A00846080937A0080917A00826080939B
:104AB0007A0080917A00816080937A0080917A00F8
:104AC000806880937A001092C10062E082E00E94C8
:104AD0002A0582E08093390180EC80937C0087E88E
:104AE00080937A0010927B0084E58093770087E9B9
:104AF00080937A0080917A00806480937A0087EEB8
:104B00008093310586ED8093300582EA80932F05EE
:104B100061E080EB0E94FF0661E080EB0E94B90833
:104B200080E58CBD81E08DBD8DB58EB561E081EBFA
:104B30000E94B90861E082EB0E94B908C09131057A
:104B400061E08C2F0E94B90861E083ED0E94B908F2
:104B500061E08C2F0E94FF0661E0809130050E9489
:104B6000B908C0912F0561E08C2F0E94B90861E05F
:104B70008C2F0E94FF0662E370E080E090E00E94CC
:104B80008B0560E08C2F0E94FF0665E070E080E0FE
:104B900090E00E948B0561E08C2F0E94FF0666E981
:104BA00070E080E090E00E948B050E944C0F0E9414
:104BB000CA090E94CA090E94200A0E94CA09F894E0
:104BC00010928000109281008EEE95E8909333054C
:104BD00080933205909385008093840080918100BA
:104BE00084608093810080916F00816080936F006A
:104BF00078940E94070A83E099E00E94580B809104
:104C00003B0590913C0520913D2530913E25821B2E
:104C1000930B0E94660B0E94230D92E5C92E95E22C
:104C2000D92E0E94860E9093390580933805D09234
:104C30003705C09236058DE490E09093350580935A
:104C400034050E946210EC010097D9F30CF00EC1FC
:104C50000E94720AD0924F25C0924E250E94AC0C41
:104C600080914C2590914D25029709F043C06091A9
:104C700048257091492580914A2590914B250E94A5
:104C8000BB3061157105E1E08E0791050CF065C13F
:104C90007B01A0904E25B0904F250E94AC0C109245
:104CA000472510924625109245250E94B51BEC0120
:104CB000892B09F0DBC0E114F10409F472C04090C3
:104CC0004E2550904F2540913D2550913E259A010B
:104CD000235C3A4FCDE3D5E0C217D30708F05EC09E
:104CE0008A809B808E149F0450F488819981C80F1C
:104CF000D91FF2CFB12CA12CF12CE12CD0CFE8148C
:104D0000F90489F468817981461B570B50933E253D
:104D100040933D25435C5A4F4C1B5D0B6C0F7D1F30
:104D2000CE010E944533F5018081882379F14A182C
:104D30005B083201F4E06F0E711C40913D255091EB
:104D40003E251301240E351E80913B0590913C05B4
:104D5000821593050CF404C1892851F0435C5A4F25
:104D60004C1B5D0BBE01CE01860D971D0E94453385
:104D700079826882FB82EA82A201B501CE010496A3
:104D80000E943C3330923E2520923D2580E090E009
:104D9000892B09F446CF0E94000043CF912C812C2F
:104DA000C2CFD0924F25C0924E2521E020934725B7
:104DB00010925125109250250E94AC0C109244255F
:104DC000109243258091452590914625892B59F0D5
:104DD000109247250E94B51B81E0809347251092D1
:104DE0004625109245250E94B51BEC01892BF1F553
:104DF0008091412590914225209150253091512557
:104E0000232B09F04DC0009739F420913F253091B4
:104E10004025232B09F4BACF2091502530915125FC
:104E2000232B09F04CC0009709F051C020913F2579
:104E300030914025232B09F444C0D0924F25C092D5
:104E40004E2580913F2590914025009721F0909329
:104E50004625809345250E94FE08882309F4ACCF9F
:104E600080933A058B31B9F7CFE0D0E00E94720A07
:104E700060915025709151256115710539F090E0D0
:104E800080E00E94E70A8DE20E949E0AFE01EE0F7A
:104E9000FF1FEF5EF64F859194910E94580B76CFDD
:104EA000009709F0B9CF20913F2530914025232B61
:104EB00009F4B2CF1092512510925025ADCF009732
:104EC00031F420913F2530914025232BB1F02091E2
:104ED0003D2530913E25235C3A4F0DE315E0021746
:104EE000130780F4F801428153814817590750F4A1
:104EF00040815181040F151FF2CFF80120813181CB
:104F0000020F131F20913D2530913E25235C3A4F1F
:104F10000217130709F43ACFF80122813381309345
:104F2000512520935025A8014C5F5F4F50934F258A
:104F300040934E25009709F484CF40913F2550912E
:104F40004025452B09F47DCF8217930708F079CFD0
:104F50001092402510923F2574CFC9E0D0E086CF53
:104F6000CAE0D0E083CFCF92DF92EF92FF920F930F
:104F70001F93CF93DF93EA01E22EF02E122F27E04A
:104F80002E1508F417E000E0212FAE010E94392B06
:104F90009881292F2870DE0190FF39C0211137C078
:104FA00011962DE228836EEE71E092FD39C0FD016D
:104FB000319629812C93213309F09F7EEE20C1F098
:104FC000AE014E5F5F4F6F01312F2EE2DA016D911E
:104FD000AD01D6012D936D013150262FB9F7AFEFFA
:104FE000A10FAE0FBF2FB11DFD01329611966C932C
:104FF00025E4F2FE25E6208387FF28C09DE2918309
:10500000819590E38A304CF19F5F8A50FBCFF1FE8F
:1050100018C011963BE2388366EF71E0222319F243
:10502000F2FE02C06C5F7F4FCD010E94232CCE01A7
:10503000DF91CF911F910F91FF90EF90DF90CF9074
:105040000895F0FEE9CF119630E2E5CF81110AC054
:1050500094FF08C09DE2918390E39283805D8383F7
:105060001482E5CF9BE29183CCCFEF920F931F93F5
:10507000CF93DF93E80134E047FD34E1042E000CC8
:10508000550B57FF03C0519541955109E32E022F4F
:10509000242FAE010E94152DCE01DF91CF911F91DB
:1050A0000F91EF9008958F929F92AF92BF92CF92FF
:1050B000DF92EF92FF92CF93DF93EC0168817981C9
:1050C0008A819B81611571058105910521F464E256
:1050D00079ED8BE597E02DE133EF41E050E00E9460
:1050E0002D2F49015A019B01AC01A7EAB1E40E94AE
:1050F0004C2F6B017C01ACEEB4EFA50194010E9432
:105100005A2FDC01CB018C0D9D1DAE1DBF1DB7FFBD
:1051100003C00197A109B04888839983AA83BB8300
:105120009F77DF91CF91FF90EF90DF90CF90BF906E
:10513000AF909F908F9008950C94532884EB92E049
:105140000C945328B0E0A0E08093B4029093B50291
:10515000A093B602B093B70208958F929F92AF9238
:10516000BF92CF92DF92EF92FF920F931F93CF9354
:10517000DF935C017B016115710519F0DB018D93F3
:105180009C9385010F5F1F4FF501D0818D2F90E01B
:105190000E94112C6C01892BB9F5DD32B9F50F5F36
:1051A0001F4FD5011196DC91C1E05801F1E0AF1A13
:1051B000B10843E050E066E072E0C5010E942A2C8D
:1051C000892B69F5680182E0C80ED11C45E050E0EA
:1051D00061E072E0C6010E942A2C892B21F468014B
:1051E00097E0C90ED11CE114F10419F0D701CD925A
:1051F000DC9260E070E080E89FEFC111FFC060E0EA
:1052000070E080E89FE7FAC05801BBCFDB3229F499
:1052100085010E5F1F4FF501D181C0E0C6CF43E08D
:1052200050E06EEF71E0C5010E942A2C892BE9F055
:10523000F80110E000E020E030E0A9015F01B0EDEE
:105240008B2E8D0E89E08815C8F19C2E689491F8FC
:105250008C2F8870C2FF16C0811102C00F5F1F4FD4
:105260003196D501DC91C92DE9CFE114F10429F083
:105270000E5F1F4FF7011183008360E070E080EC48
:105280009FE7BCC0882311F001501109A5E0B0E0F0
:105290000E944C2F9B01AC01220F331F441F551F4E
:1052A000280D311D411D511D283999E9390749073C
:1052B00099E15907A8F2C6609C2ED2CFAEEF8A12B0
:1052C00006C0C3FD3CC09C2E689493F8C9CFDF7D17
:1052D000D534A9F580818D3239F4C061DF01129691
:1052E000818162E070E006C0DF018B32C1F311966C
:1052F00061E070E080535D01A61AB70A8A30F8F4C5
:10530000E0E8CE16ECE0DE065CF4B601660F771F2F
:10531000660F771FC60ED71ECC0CDD1CC80ED11C25
:105320005D01FFEFAF1ABF0A8C9180538A30A8F15C
:10533000C4FF03C0D194C194D1080C0D1D1DC1FF41
:1053400009C0E114F10431F081E0A81AB108D701D5
:10535000AD92BC92CA01B9010E94472CC370C33000
:1053600009F490584B015C0120E030E0A9010E9453
:10537000422C882309F440C0C5E3D2E017FF05C0E2
:10538000119501951109CDE1D2E06E01B8E1CB1A7A
:10539000D10880E2E82EF12C0FC0D501B1CFFE017B
:1053A00025913591459154910E191F09C501B401FC
:1053B0000E94A82C4B015C01D501C4010E151F05EC
:1053C00074F72497F594E794CC16DD06A9F78A2F95
:1053D000880F8B2F881F8F3F49F020E030E0A90114
:1053E000C501B4010E94422C811106C082E290E006
:1053F0009093A02580939F25C501B401DF91CF91A3
:105400001F910F91FF90EF90DF90CF90BF90AF90E2
:105410009F908F9008953F924F925F926F927F92EC
:105420008F929F92AF92BF92CF92DF92EF92FF92B4
:105430000F931F93CF93DF935C016B017A0161158A
:10544000710519F0FB0191838083E114F10451F09F
:10545000C7010297839730F040E030E020E090E011
:105460006BC05E01E5012196F5011081812F90E06E
:105470000E94112C892BA9F71D3201F52196F50107
:10548000118101E0E114F10409F4E6C0F0E1EF1646
:10549000F10409F088C0103359F488818F7D883574
:1054A00009F07CC0198122960260F0E1EF2EF12C08
:1054B000812C912CA12C88E0B82E92C01B3221F4B3
:1054C000E5012296F501118100E0DCCFEAE0EE165D
:1054D000F10409F4C7C0F0E1EF16F10409F073C05C
:1054E000E7CF78E0E72EF12C812C912CA12C60E104
:1054F000B62E76C021E0ADC0302F3170C114D1047A
:1055000031F0222371F12197F601D183C08327FF67
:105510002EC060E070E080E090E8311104C06FEFD1
:105520007FEF8FEF9FE722E230E03093A0252093BA
:105530009F25462F372F282F642F732F822FDF911F
:10554000CF911F910F91FF90EF90DF90CF90BF9080
:10555000AF909F908F907F906F905F904F903F9013
:10556000089501FF04C02297F601D183C08333233D
:1055700041F090958095709561957F4F8F4F9F4F2B
:10558000D8CF97FFD6CF82E290E09093A02580936A
:105590009F256FEF7FEF8FEF9FE7CBCF10E3E114F5
:1055A000F10409F49ECF28E0E216F10409F49CCF3F
:1055B0000CF08CCF812C912CA12CE0E4BE2E82E04B
:1055C000E816F10469F060E070E080E090E897018F
:1055D0000F2C000C440B550B0E940B2F49015A0154
:1055E00020E060E070E0CB0127010F2C000C660882
:1055F0007708FE0150ED352E310E39E0331570F489
:105600003FEB310F49EC342E3A3138F03FE9310F9E
:105610003A3108F071CF39EA332E310E3E141F04AF
:105620000CF06ACF27FD15C086169706A806B906A6
:1056300078F0A30192010E94FB2E630D711D811D64
:10564000911D61307105810520E8920708F452CF61
:105650002FEF21961081CDCF103309F41ECF2AE011
:10566000E22EF12C9CEC892E982CA82C9CE0B92ED3
:10567000B7CF283008F027E03327DA01990F311D22
:1056800087FD916000966105710539F432602E5FE7
:105690003D9330E32A95E1F708959F3F30F080383D
:1056A0007105610509F03C5F3C5F3D93913008F066
:1056B0008068911DDF93CF931F930F93FF92EF921A
:1056C000192F987F9695E92F96959695E90FFF27C4
:1056D000ED56FD4F99273327EE24FF24A701E7015C
:1056E00005900894079428F4360FE71EF81E491F0A
:1056F000511D660F771F881F991F0694A1F705900B
:10570000079428F4E70EF81E491F561FC11D770F96
:10571000881F991F661F0694A1F70590079428F427
:10572000F80E491F561FC71FD11D880F991F661FEE
:10573000771F0694A1F70590079420F4490F561F90
:10574000C71FD81F990F661F771F881F0694A9F7D8
:1057500084911095177041F0D695C7955795479548
:10576000F794E7941A95C1F7E9E3F2E0689415908D
:10577000159135916591959105907FE27395E118AA
:10578000F10A430B560BC90BD009C0F7E10CF11E0F
:10579000431F561FC91FD01D7EF4703311F48A9524
:1057A000E6CFE894015030F0080F0AF40027021702
:1057B00008F4202F2395022F7A3328F079E37D9384
:1057C0002A95E9F710C07D932A9589F60694979556
:1057D0006795379517951794E118F10A430B560B07
:1057E000C90BD00998F023957E9173957A3308F010
:1057F00070E37C932013B8F77E9170617D9330F055
:10580000839571E37D9370E32A95E1F71124EF907E
:10581000FF900F911F91CF91DF91992787FD909570
:10582000089591110C94912E803219F08950855071
:10583000C8F70895FB01DC0102C005900D924150AC
:105840005040D8F70895FB01DC0105900D9200202F
:10585000E1F70895FB01DC014150504088F08D9143
:1058600081341CF08B350CF4805E659161341CF042
:105870006B350CF4605E861B611171F3990B089512
:10588000881BFCCF0E94842C08F481E00895E894E2
:1058900009C097FB3EF490958095709561957F4F78
:1058A0008F4F9F4F9923A9F0F92F96E9BB27939526
:1058B000F695879577956795B795F111F8CFFAF436
:1058C000BB0F11F460FF1BC06F5F7F4F8F4F9F4F67
:1058D00016C0882311F096E911C0772321F09EE8C5
:1058E000872F762F05C0662371F096E8862F70E02B
:1058F00060E02AF09A95660F771F881FDAF7880F05
:105900009695879597F90895990F0008550FAA0B5A
:10591000E0E8FEEF16161706E807F907C0F01216C2
:105920001306E407F50798F0621B730B840B950BC5
:1059300039F40A2661F0232B242B252B21F408951A
:105940000A2609F4A140A6958FEF811D811D0895B7
:105950000E94BB2C0C94AB2E0E949D2E38F00E940E
:10596000A42E20F0952311F00C94942E0C949A2ED2
:1059700011240C94DF2E0E94BC2E70F3959FC1F36E
:10598000950F50E0551F629FF001729FBB27F00DED
:10599000B11D639FAA27F00DB11DAA1F649F662742
:1059A000B00DA11D661F829F2227B00DA11D621F91
:1059B000739FB00DA11D621F839FA00D611D221F4B
:1059C000749F3327A00D611D231F849F600D211D2F
:1059D000822F762F6A2F11249F5750409AF0F1F0B2
:1059E00088234AF0EE0FFF1FBB1F661F771F881F1B
:1059F00091505040A9F79E3F510580F00C94942E91
:105A00000C94DF2E5F3FE4F3983ED4F386957795B0
:105A10006795B795F795E7959F5FC1F7FE2B880FC0
:105A2000911D9695879597F908958F929F92AF92C1
:105A3000BF92CF92DF92EF92FF920F931F93CF937B
:105A4000DF93CDB7DEB729970FB6F894DEBF0FBE50
:105A5000CDBF6A01F22EB02E102FFBE3AF2EA016A1
:105A600008F41BE31F5F012F27E0AE014F5F5F4F7C
:105A70000E94392BBC018981982F9970913009F4CB
:105A80004EC09BE2E1FC04C09E2D9170E0FC49C039
:105A90005E2D5071E82FE87083FF55C084E09111AE
:105AA00001C083E0EF2DE81B8F1508F0E0E0D60180
:105AB0008E2F20E25523C9F1992329F0D6019C931A
:105AC000C60101966C0196012D5F3F4FE2FE33C087
:105AD0008EE4D6018C9391E411969C9311971296C3
