:100000000C942B060C944A060C944A060C94132C60
:100010000C944A060C944A060C944A060C944A0620
:100020000C944A060C944A060C944A060C944A0610
:100030000C944A060C944A060C944A060C944A0600
:100040000C944A060C944A060C944A060C944A06F0
:100050000C94F32B0C944A060C944A060C94A92B8E
:100060000C944A060C944A060C944A060C944A06D0
:100070000C944A060C944A060C944A060C944A06C0
:100080000C944A060C944A060C944A060C944A06B0
:100090000C944A060C944A060C944A060C944A06A0
:1000A0000C944A060C944A060C944A060C944A0690
:1000B0000C944A060C944A060C944A060C944A0680
:1000C0000C944A060C944A060C944A060C944A0670
:1000D0000C944A060C944A060C944A060C944A0660
:1000E0000C944A060C944A060C944A060C944A0650
:1000F0000C944A060C944A060C944A060C944A0640
:100100000C944A060C944A060C944A060C944A062F
:100110000C944A060C944A060C944A060C944A061F
:10012000084AD73B3BCE016E84BCBFFDC12F3D6C5E
:1001300074319ABD56833DDA3D00C77F11BED9E4C4
:10014000BB4C3E916BAAAABE000000803F076342F1
:1001500036B79BD8A71A39685618AEBAAB558C1D5E
:100160003CB7CC5763BD6DEDFD753EF6177231BFE0
:10017000000000803F05A84CCDB2D44EB93836A956
:10018000020C50B9918688083CA6AAAA2ABE000093
:1001900000803F08000000BE922449123EABAAAA8C
:1001A0002ABECDCCCC4C3E00000080BEABAAAAAA91
:1001B0003E00000000BF000000803F000000000083
:1001C000084178D3BB4387D1133D190E3CC3BD42D0
:1001D00082AD2B3E68EC8276BED98FE1A93E4C8081
:1001E000EFFFBE01C4FF7F3F000000000000696E0A
:1001F0006600494E46006E616E004E414E004E4113
:100200004E494E495459494E46CDCCCC3D0AD72390
:100210003C17B7D13877CC2B329595E6241FB14FD8
:100220000A000020410000C84200401C4620BCBE1D
:100230004CCA1B0E5AAEC59D7400407A10F35A008A
:10024000A0724E18090010A5D4E80000E8764817FF
:100250000000E40B54020000CA9A3B000000E1F5E4
:1002600005000080969800000040420F000000A0AA
:100270008601000000102700000000E803000000D5
:10028000006400000000000A0000000000010000FF
:100290000000002C76D888DC674F0823DFC1DFAE72
:1002A00059E1B1B796E5E3E453C63AE6519976963B
:1002B000E8E6C28426EB898C9B62ED407C6FFCEF04
:1002C000BC9C9F40F2BAA56FA5F490055A2AF75C32
:1002D000936B6CF9676DC11BFCE0E40D47FEF520E4
:1002E000E6B500D0ED902E030094357705008084AC
:1002F0001E080000204E0A000000C80C33333333C0
:100300000F986E12831141EF8D2114893BE655162B
:10031000CFFEE6DB18D1844B381BF77C1D901DA463
:10032000BBE424203284725E228100C9F124ECA156
:10033000E53D274572726F72204C6F6164696E678C
:10034000004572726F7220536176696E6700426178
:100350006420706172616D65746572004572726FC0
:100360007220696E2056414C20696E70757400428F
:10037000616420737472696E6720696E64657800C9
:1003800042616420617272617920696E64657800EF
:1003900057726F6E672061727261792064696D7344
:1003A0000052455455524E20776974686F75742019
:1003B000474F535542004D697373696E6720544827
:1003C000454E20696E2049460053544F50207374A7
:1003D0006174656D656E74004E455854207769747C
:1003E000686F757420464F5200427265616B2070D1
:1003F00072657373656400426164206C696E652088
:100400006E756D6265720042616420636F6D6D612F
:100410006E64005661726961626C65206E6F742053
:10042000666F756E6400446976206279207A657221
:100430006F004F7574206F66206D656D6F72790067
:100440004C696E65206E756D62657220746F6F20E9
:1004500062696700537472696E67206578707220F4
:100460006578706563746564004E756D6572696367
:1004700020657870722065787065637465640045E6
:1004800072726F7220696E2065787072004D6973A8
:1004900073696E6720627261636B657400556E7478
:1004A00065726D696E6174656420737472696E67DC
:1004B00000556E657870656374656420696E70754B
:1004C00074004C696E6520746F6F206C6F6E6700EE
:1004D000426164206E756D626572004F4B000101D0
:1004E000637801110128633203C0F80002C30402DB
:1004F000C40502D01D02B30002B58B0138023A02D6
:1005000002360002B09F05F01212121201200129DA
:1005100000000000000000260029002C002F0032FF
:1005200000000000000000000000000000000000CB
:1005300000000000000000000000000000000000BB
:100540000000005403005603005803005A03005CE7
:1005500003005E03006903000D03006003006203F3
:1005600000650300680300F502406B03006D0300A3
:100570006F03C0BD03C07303407703407D03408118
:1005800003408603408A03408F034093034098034F
:10059000409E0340A30340A603C0AB0309AF030979
:1005A000B30300790301B70305BC03408C03C0C04B
:1005B00003C0C50340CA03C0CE0340D20340D803E2
:1005C00040DF0340E3030EE9030EF0030FF50340A1
:1005D000F90340FF03400804400C04401404005693
:1005E00004405C04401A04012204012B04402F043F
:1005F000403604013A04013E04014204014504016D
:100600004904014D04015104405504405B0440611C
:1006100004006604016A04006E04407404407A0415
:10062000407F0440840400000000090A0B0000031E
:1006300007000000000000000000020000000000B1
:10064000000000000000000000040562797465737A
:1006500020667265650000000000250000002B0088
:100660002E003100340000000000000000000000F7
:1006700000000000240000002A002D00300033009C
:10068000000000000000000000000505050505054C
:100690000505020202020202040407070707040418
:1006A0000404040406060606060606060202010203
:1006B00004081020408020100104080202010102F9
:1006C000042004081020408001020408102040800B
:1006D000408041726475696E6F2042415349430006
:1006E000DB04D004C204B1049D048D047F046904BA
:1006F000540440043204260413040704F703E903F6
:10070000D803C903B603A103900380036F035C03FE
:100710004E03410333030000000000000000065FA9
:10072000060000070300070300247E247E24002423
:100730002B6A120000631308646300364956205088
:1007400000000703000000003E4100000000413EA1
:10075000000000083E1C3E080008083E0808000093
:10076000E060000000080808080800006060000061
:10077000002010080402003E5149453E0000427F1F
:100780004000006251494946002249494936001853
:1007900014127F10002F49494931003C4A49493021
:1007A00000017109050300364949493600064949E7
:1007B000291E00006C6C00000000EC6C00000008BA
:1007C000142241000024242424240000412214087F
:1007D000000201590906003E415D551E007E1111BF
:1007E000117E007F49494936003E41414122007F48
:1007F0004141413E007F49494941007F09090901C2
:10080000003E4149497A007F0808087F0000417F87
:10081000410000304040403F007F08142241007FEB
:1008200040404040007F0204027F007F0204087FB6
:10083000003E4141413E007F09090906003E415109
:10084000215E007F090919660026494949320001E5
:10085000017F0101003F4040403F001F2040201F1A
:10086000003F403C403F00631408146300070870D9
:10087000080700714945430000007F414100000224
:1008800004081020000041417F000004020102041E
:100890000080808080800000030700000020545406
:1008A0005478007F44444438003844444428003895
:1008B0004444447F00385454540800087E09090019
:1008C0000018A4A4A47C007F040478000000007D2C
:1008D0004000004080847D00007F1028440000001C
:1008E000007F4000007C04180478007C0404780039
:1008F00000384444443800FC4444443800384444FC
:1009000044FC004478440408000854545420000473
:100910003E442400003C40207C00001C2040201C61
:10092000003C6030603C006C10106C00009CA060CB
:100930003C00006454544C0000083E41410000005B
:1009400000770000000041413E0800020102010062
:10095000003C2623263C00000000000000000000B0
:10096000065F5F0600000007070007070000147F0E
:100970007F147F7F1400242E2A6B6B3A1200466688
:1009800030180C666200307A4F5D377A48000004F8
:10099000070300000000001C3E634100000000410E
:1009A000633E1C000000082A3E1C1C3E2A0800086A
:1009B000083E3E080800000080E0600000000008DB
:1009C00008080808080000000060600000006030AF
:1009D000180C060301003E7F594D477F3E00404200
:1009E0007F7F40400000627359496F6600002263B8
:1009F00049497F360000181C16537F7F5000276737
:100A000045457D3900003C7E4B49793000000303A9
:100A100071790F070000367F49497F360000064F85
:100A200049693F1E000000000066660000000000EB
:100A300080E666000000081C3663410000000014D8
:100A4000141414141400004163361C080000000242
:100A500003595D0702003E7F415D5D5F0E007C7EB5
:100A600013137E7C0000417F7F49497F36001C3E86
:100A7000634141632200417F7F41633E1C00417F0F
:100A80007F495D416300417F7F491D0103001C3E9A
:100A90006341513372007F7F08087F7F000000416F
:100AA0007F7F41000000307040417F3F0100417F67
:100AB0007F081C776300417F7F41406070007F7F2B
:100AC0000E1C0E7F7F007F7F060C187F7F001C3E70
:100AD0006341633E1C00417F7F49090F06001E3FB2
:100AE0002131617F5E00417F7F09197F6600266F9B
:100AF0004D495973320003417F7F410300007F7FDE
:100B000040407F7F00001F3F60603F1F00003F7F2D
:100B10006030607F3F0063771C081C776300074FDD
:100B200078784F070000476371594D677300007F65
:100B30007F41410000000103060C183060000041B5
:100B4000417F7F000000080C0603060C080080802F
:100B500080808080808000000307040000002074F3
:100B600054543C784000417F3F4848783000387CFE
:100B700044446C280000307848493F7F4000387C6E
:100B800054545C180000487E7F490306000098BC5E
:100B9000A4A4F87C0400417F7F08047C7800004412
:100BA0007D7D4000000060E08084FD7D0000417F8D
:100BB0007F10386C440000417F7F400000007C7C47
:100BC00018781C7C78007C7804047C780000387CE1
:100BD00044447C38000084FCF8A4243C1800183CF1
:100BE00024A4F8FC8400447C784C040C1800485C75
:100BF00054746424000004043E7F442400003C7CC0
:100C000040403C7C40001C3C60603C1C00003C7C44
:100C10006030607C3C00446C3810386C44009CBCF4
:100C2000A0A0FC7C00004C64745C4C6400000808CC
:100C30003E7741410000000000777700000041410D
:100C4000773E0808000002030103020301007078E8
:100C50004C464C78700011241FBECFEFD1E4DEBFAC
:100C6000CDBF14E0A0E0B2E0E0E6FBE700E00BBFA0
:100C700002C007900D92AA38B107D9F726E2AAE878
:100C8000B4E001C01D92A334B207E1F70E94222C08
:100C90000C94AE3D0C9400008150823108F058C095
:100CA000E82FF0E0EA5AF94F0C94473A76067A06B4
:100CB00068066E067206A8067D06830687068D0600
:100CC000910695069B069F06A806A306A906AD06F3
:100CD000809180008F7780938000089580918000BC
:100CE0008F7DF9CF80918000877FF5CF84B58F7796
:100CF00084BD089584B58F7DFBCF8091B0008F7740
:100D00008093B00008958091B0008F7DF9CF8091DD
:100D100090008F77809390000895809190008F7D50
:100D2000F9CF80919000877FF5CF8091A0008F77D9
:100D30008093A00008958091A0008F7DF9CF8091CD
:100D4000A000877FF5CF809120018F7780932001CD
:100D50000895809120018F7DF9CF80912001877FB8
:100D6000F5CFCF93DF9390E0FC01E255F94F24914A
:100D70008657994FFC0184918823C9F090E0880F31
:100D8000991FFC01E059F94FA591B491FC01EA5A71
:100D9000F94FC591D49161110DC09FB7F8948C9112
:100DA000209582238C938881282328839FBFDF91FD
:100DB000CF910895623051F49FB7F8943C91822FFF
:100DC000809583238C93E8812E2BEFCF8FB7F894F7
:100DD000EC912E2B2C938FBFEACF3FB7F8948091E4
:100DE000CD059091CE05A091CF05B091D00526B547
:100DF000A89B05C02F3F19F00196A11DB11D3FBF53
:100E0000BA2FA92F982F8827BC01CD01620F711D21
:100E1000811D911D42E0660F771F881F991F4A951B
:100E2000D1F708958F929F92AF92BF92CF92DF92A7
:100E3000EF92FF926B017C010E94ED064B015C0179
:100E4000C114D104E104F104B9F00E94ED0668195F
:100E500079098A099B09683E73408105910580F3F1
:100E600021E0C21AD108E108F10888EE880E83E07B
:100E7000981EA11CB11CE4CFFF90EF90DF90CF90A3
:100E8000BF90AF909F908F9008958091EE259091A4
:100E9000EF259C012751310922303105F8F08E30C1
:100EA0009105F9F081319105E1F0285F3F4F223043
:100EB0003105D0F02350310922303105A8F0285FE8
:100EC0003F4F2230310598F0225031092230310550
:100ED00010F08E9779F488E290E0089585E090E034
:100EE00008958AE090E0089584E190E008958EE10D
:100EF00090E008958FEF9FEF08958091AD04909159
:100F0000AE04FC01E352FA4F208131812E5F3F4F46
:100F1000821B930B9093AE048093AD0481529A4F41
:100F200008958091AD049091AE0404979093AE041F
:100F30008093AD0481529A4FFC016081718182815E
:100F4000938108958F929F92AF92BF92CF92DF923A
:100F5000EF92FF920F931F93CF93DF93EC015B010E
:100F6000E881F981C190D190F983E8830E949107CB
:100F70000E94EB3784E190E0C616D706B9F5F12C54
:100F8000E12C88248394912C10E000E0EC14FD0403
:100F900044F50E9491070E94EB37E881F981A19105
:100FA000B191F983E883161617066CF5A617B707F3
:100FB00054F1AB0141505109489D9001499D300DBC
:100FC000589D300D1124020F131FC4018A9F400148
:100FD0008B9F900C9A9F900C11249FEFE91AF90AAD
:100FE000D5CFF5011183008390E080E0DF91CF91B0
:100FF0001F910F91FF90EF90DF90CF90BF90AF9037
:101000009F908F90089585E190E0F0CF4091AD04DE
:101010005091AE049A012C5F3F4FE091DD05F091B5
:10102000DE05E217F30770F0FA01E152FA4F608330
:101030007183828393833093AE042093AD0481E067
:1010400090E0089590E080E00895CF93DF931F92A1
:10105000CDB7DEB7898389818EBD00000DB407FE50
:10106000FDCF8EB50F90DF91CF910895982FFB01A2
:10107000DA018770907F903D29F128F4903A41F091
:10108000903BA1F00895903E49F1903F99F1089569
:10109000232B49F424E330E02D933C9323E330E009
:1010A00031832083089522E330E0F6CF232B39F4F7
:1010B00025E230E02D933C9324E230E0F1CF23E2AF
:1010C00030E0F8CF232B39F42BE230E02D933C9322
:1010D0002AE230E0E5CF29E230E0F8CF232B39F4E3
:1010E0002EE230E02D933C932DE230E0D9CF2CE27C
:1010F00030E0F8CF232B39F421E330E02D933C93FB
:1011000020E330E0CDCF2FE230E0F8CF1F93CF9334
:10111000DF9300D000D0CDB7DEB7162F30E020E04F
:10112000AE014F5F5F4FBE016D5F7F4F0E9436087B
:10113000E981FA81111115C0408121E030E0B90147
:1011400002C0660F771F8A95E2F7CB018095842352
:1011500080830F900F900F900F90DF91CF911F9190
:101160000895908121E030E001C0220F8A95EAF7CE
:10117000892F822BEDCF1F93CF93DF93C72FD82FCB
:1011800060E083ED0E94860885E00E94250880E0EB
:101190000E942508182F61E083ED0E94860810FD4B
:1011A0003BC060E083ED0E94860886E00E9425082F
:1011B00061E083ED0E94860860E083ED0E9486086E
:1011C00080E20E9425088D2F0E9425088C2F0E9406
:1011D000250880E00E94250861E083ED0E948608D2
:1011E00060E083ED0E948608C8E7D0E011E010FFC0
:1011F00016C085E00E94250880E00E942508182F6F
:1012000061E070E080E090E00E941207219779F79A
:1012100061E083ED0E94860890E080E006C061E016
:1012200083ED0E94860881E090E0DF91CF911F91CD
:1012300008951F93CF93DF93EB01182F60E083EDA8
:101240000E94860883E00E942508812F0E942508BD
:101250008D2F0E9425088C2F0E94250880E00E9477
:101260002508C82F61E083ED0E9486088C2FDF914E
:10127000CF911F910895FF920F931F93CF93DF9308
:10128000C72FD82F8A0160E083ED0E94860885E091
:101290000E94250880E00E942508F82E61E083ED79
:1012A0000E948608F0FC51C060E083ED0E94860831
:1012B00081E00E94250880E00E94250861E083ED1E
:1012C0000E94860860E083ED0E94860886E00E9406
:1012D000250861E083ED0E94860860E083ED0E94AE
:1012E000860882E00E9425088D2F0E9425088C2FF9
:1012F0000E94250880E00E942508E8011395899145
:101300000E942508C017D107D1F761E083ED0E9444
:10131000860860E083ED0E948608C4E1D0E011E019
:1013200010FF16C085E00E94250880E00E94250875
:10133000182F61E070E080E090E00E941207219792
:1013400079F761E083ED0E94860890E080E006C0B6
:1013500061E083ED0E94860881E090E0DF91CF910B
:101360001F910F91FF9008951F93CF93DF93182F34
:10137000C091D30560E08C2F0E948608D091D205E1
:1013800060E08D2F0E948608812F0E94250861E071
:101390008D2F0E94860861E08C2FDF91CF911F91E5
:1013A0000C948608CF92DF92EF92FF921F93CF9317
:1013B000DF937C016B011091D30560E0812F0E94C7
:1013C0008608E701CE018E199F098C159D0524F42E
:1013D00089910E942508F6CF61E0812FDF91CF919E
:1013E0001F91FF90EF90DF90CF900C948608CF92E2
:1013F000DF92EF92FF920F931F93CF93DF9300D072
:1014000000D0CDB7DEB78C01E62E6A01F22E8AE25B
:101410000E94B409198223E030E0C801B9010E949A
:10142000333A6A831B82C8018C0D9D1D0197B90157
:101430000E94333A6C8364E070E0CE0101960E9412
:10144000D2098BE20E94B4091982EA821B82FA94C3
:10145000FE0CFC8264E070E0CE0101960E94D2098D
:101460008CE20E94B4090F900F900F900F90DF91C3
:10147000CF911F910F91FF90EF90DF90CF90089543
:101480008038E1E09E0764F4603A71054CF441381D
:10149000E1E05E072CF4213A310514F40C94F709CD
:1014A00008951F93CF93DF9300D000D0CDB7DEB760
:1014B000162F30E020E0AE014F5F5F4FBE016D5F41
:1014C0007F4F0E943608EB81FC81113029F1408169
:1014D00021E030E0B90102C0660F771F8A95E2F77C
:1014E000CB01123059F08095842380830F900F90A8
:1014F0000F900F90DF91CF911F910895942F982B0B
:101500009083E981FA819081982B9083EB81FC8113
:10151000908180958923E9CF908121E030E001C05E
:10152000220F8A95EAF7892F822BDFCF7F928F9245
:101530009F92AF92BF92CF92DF92EF92FF920F9362
:101540001F93CF93DF9300D000D0CDB7DEB702EC6E
:1015500012E062E0F80181918F010E94510AF2E0ED
:10156000083C1F07B1F78AE0E4E9F4E0AAE8B4E038
:1015700001900D928A95E1F794E9E92E94E0F92E15
:1015800028EBA22E22E0B22E8701F8011082F5018D
:1015900071905F0161E0872D0E94510A60E0872D04
:1015A0000E94860882EC882E82E0982ED12CC12CD5
:1015B00021E030E0AE014D5F5F4FBE016F5F7F4FB6
:1015C000F40181914F010E943608EB81FC8120815A
:1015D00030E002C0359527958A95E2F720FD0BC0D3
:1015E00021E030E00C2C01C0220F0A94EAF7F80148
:1015F0008081822B8083FFEFCF1ADF0A86E0C81636
:10160000D104B1F661E0872D0E94860860E0872D45
:101610000E94510A0F5F1F4FE4E00E391E0709F0C8
:10162000B4CF70919404172F18707071AAE8B4E0C9
:1016300030E020E080E00AE0F701D1907F0150E047
:1016400040E061E0C22E9D2D962396131DC09C9113
:101650009623D1F4C11004C09DEF940F9230A0F0F6
:1016600088E792E0111106C080E092E0711102C09B
:101670008CE392E0049FF001059FF00D1124E80F28
:10168000F91FE20FF31F8081660F4F5F5F4F4630F7
:101690005105C9F62F5F3F4F11962A30310561F68B
:1016A0000F900F900F900F90DF91CF911F910F919E
:1016B000FF90EF90DF90CF90BF90AF909F908F9072
:1016C0007F9008950F931F93CF93DF93C091F025E0
:1016D000D091F125D093A104C093A004FE013196CE
:1016E000F093F125E093F025088110E01093EF25A9
:1016F0000093EE250130110531F5A0EBB4E030E0A8
:1017000020E08191A9014F5F5F4F87FD03C08D935A
:101710009A01F7CFF093F125E093F02580582055FA
:101720003B4FF901808391E0843209F090E090937F
:10173000AF0440555B4FFA011082C801DF91CF9191
:101740001F910F9108950330110591F489819A81B9
:10175000AB81BC818093EA259093EB25A093EC2587
:10176000B093ED252596D093F125C093F025E5CFD4
:101770000230110579F469817A818B819C810E9404
:1017800079336093EA257093EB258093EC25909351
:10179000ED25E8CF0430110581F6F0939F04E09326
:1017A0009E0401900020E9F7F093F125E093F025E5
:1017B000C4CF2F923F924F925F926F927F928F92FF
:1017C0009F92AF92BF92CF92DF92EF92FF920F93D0
:1017D0001F93CF93DF93CDB7DEB7CC56D1090FB6A9
:1017E000F894DEBF0FBECDBF3C016F967FAF6EAFEA
:1017F0006F97FA016901D801A853BD4F9C90DA0197
:101800000D900020E9F71197A41BB50BBD01C9018C
:101810000297029708F003C10CE010E094E0A92EB3
:10182000B12C23E0C216D10429F40FE010E085E0CA
:10183000A82EB12CA09FC001A19F900DB09F900D2C
:101840001124860D971D813891403CF080E891E08D
:1018500086199709B8010E94333A250124E0440C07
:10186000551C2A95E1F7A3965FAE4EAEA3971F01D4
:101870002F01460E571EA5965FAE4EAEA597C80126
:10188000049763E070E00E941F3A6E5F7F4F2B0168
:10189000440C551CA1965FAE4EAEA1979801265000
:1018A0003109A7963FAF2EAFA797392D3C6FAD9664
:1018B0003FAFAD97692D606EA8966FAFA89734C003
:1018C00026E0289FB001299F700D11246A5E784F91
:1018D00046E050E045C0E92C79C0FF0CAA96AEADB9
:1018E000BFADAA971197AA96BFAFAEAFAA97A19620
:1018F0004EAC5FACA197840D951DAB2B09F03FC09A
:1019000020E130E0A8016F966EAD7FAD6F97C30107
:101910000E94400AA3966EAD7FADA397CE010196BB
:101920000E94D209600E711EA5964EAC5FACA597C1
:101930004214530409F478C1D1018D911D018052E4
:10194000990BB3E0CB16D10409F0BACFBC0153E038
:10195000660F771F5A95E1F76A5A764F48E050E0D4
:10196000CE018B5A9F4F0E944A33CE010196E8E088
:10197000F0E0AA96FFAFEEAFAA97FF24F394AC0174
:101980002C014A0C5B1CAC965FAE4EAEAC97FE01D0
:10199000EB5AFF4F30E020E0A7964EAC5FACA79724
:1019A000241535050CF099CFE080EF20AD968FAC73
:1019B000AD97E11001C0892CE180EF2009F48BCFB5
:1019C000682D6360862EA896EFACA89752805F20A2
:1019D00019F07E2D7F61E72EAC96AEADBFADAC9712
:1019E0008C92DA018C922630310549F0AC96AEAD7E
:1019F000BFADAC971196EC92DA011196EC924E5F66
:101A00005F4F2D5F3F4FAC966EAD7FADAC976E5F75
:101A10007F4FAC967FAF6EAFAC973396BDCF232B85
:101A200009F076C029E02A9FC0012B9F900D112458
:101A3000860D971D8138914044F080E891E0861929
:101A4000970969E070E00E94333A8F017F01E60E4A
:101A5000F71ECC24C394792D706ED72E0E151F055A
:101A600009F4E2C0D8016D918D016052770B43E01B
:101A7000660F771F4A95E1F76A5A764F48E050E0C3
:101A8000CE018B5A9F4F0E944A3330E020E0CE01B6
:101A900001965C017C2D022E01C0770F0A94EAF7B3
:101AA000FE01EB5AFF4FDC0150E040E0608167230C
:101AB00069F16D2D8180872209F06C6146305105F6
:101AC00021F08280872209F063606D934D5F5F4F44
:101AD00033964930510551F703962F5F3F4F283019
:101AE0003105C1F628E030E049E050E06F966EAD78
:101AF0007FAD6F97C3010E94400AB9E06B0E711C65
:101B000068E170E0C5010E94D209A8CF692DD2CF4B
:101B100026E02A9FC0012B9F900D1124860D971D52
:101B20008138914044F080E891E08619970966E099
:101B300070E00E94333A8F017F01E60EF71E86E0C7
:101B4000A82ECC24C394D12C892D806EB82E0E15CE
:101B50001F0509F469C0D8018D918D018052990B40
:101B6000A89EB001A99E700D11246A5E784F46E0D0
:101B700050E0CE018B5A9F4F0E944A3366967FAD4C
:101B8000669767966FAD679768963FAD6897699659
:101B9000AFAD69976A96BFAD6A976B964FAC6B977E
:101BA000FE01319650E040E05E2E8F2EC601042EDD
:101BB00001C0880F0A94EAF7272F282389F12B2DDB
:101BC000362E382209F02C61332E382209F023609A
:101BD00020832A2F282331F12B2D3B2E382209F088
:101BE0002C61842109F02360218332964F5F5F4F7F
:101BF00048305105D9F628E030E046E050E06F96D5
:101C00006EAD7FAD6F97C3010E94400AB6E06B0EC8
:101C1000711C60E170E0852D982D0E94D20997CF4C
:101C2000292DCECF292DD9CF90E080E0C459DF4FA8
:101C30000FB6F894DEBF0FBECDBFDF91CF911F91DD
:101C40000F91FF90EF90DF90CF90BF90AF909F905B
:101C50008F907F906F905F904F903F902F9008955E
:101C6000EF92FF920F931F93CF93DF9300D000D09A
:101C7000CDB7DEB78EEDE82E84E0F82EC7010196D1
:101C8000F7010491033659F4F2E0EF0EF11CFC0168
:101C9000649170E090E080E00E941207EFCF002393
:101CA000C1F0F2E0EF0EF11CFC0184910E94B40936
:101CB000015021F310E0A801B701CE0101960E9466
:101CC0004A33E00EF11EB801CE0101960E94D209FE
:101CD000D5CF0F900F900F900F90DF91CF911F9164
:101CE0000F91FF90EF900895CF93DF93FC01208137
:101CF0003181C091DD05D091DE05CE0181529A4F30
:101D0000C20FD31F8E179F0739F4D093DE05C093FF
:101D1000DD05DF91CF910895AF01481B590BBC0140
:101D2000820F931F0E94753AF0CFCF92DF92EF920D
:101D3000FF920F931F93CF93DF930091AD04109107
:101D4000AE04F801E352FA4F208131817C014FEF5C
:101D5000E41AF40AE216F306F4F4EC01C90102965F
:101D6000081B190B1093AE040093AD04C8018152F7
:101D70009A4F6C01CE0CDF1C672BB1F4F601319742
:101D80001082F601F182E08223960C0F1D1F109342
:101D9000AE040093AD04DF91CF911F910F91FF909E
:101DA000EF90DF90CF900895B9016E197F09680F09
:101DB000791FA7010E94753AE4CF80EEE3EEF4E0CC
:101DC000A3ECB4E001900D928A95E1F740E250E077
:101DD00060E270E083EA95E00E94873A48E050E0D4
:101DE00061E070E08BEB94E00E94873A8091C3053C
:101DF0009091C40501979093C4058093C3050895FD
:101E0000CF93DF931092C6051092C5058091C3054C
:101E10009091C40501969093C4058093C3050897DB
:101E200011F40E94DD0EC091C305D091C405CE010E
:101E300025E0880F991F2A95E1F740E250E060E223
:101E400070E08D539B4F0E94873AC554DB4F81E071
:101E50008883DF91CF910895CF93DF93C091C3051D
:101E6000D091C40525E0CC0FDD1F2A95E1F7209124
:101E7000C5053091C605C20FD31F9E01D7FF02C012
:101E8000215E3F4F95E0359527959A95E1F7F90149
:101E9000E554FB4F91E090839E012F5F3F4FFE0181
:101EA000ED53FB4F80832F3F310531F02CF00E9422
:101EB000DD0E9E012F513109C90160E270E00E94E0
:101EC000333A9093C6058093C50537FF02C0215E63
:101ED0003F4F85E0359527958A95E1F73093C40506
:101EE0002093C305DF91CF9108952F923F924F9297
:101EF0005F926F927F928F929F92AF92BF92CF929A
:101F0000DF92EF92FF920F931F93CF93DF938B019A
:101F1000382E292E6B01E82EF92ED0E0C0E0812C5E
:101F2000912C540183942AE0422E512C612C712C67
:101F30002196AAE0B0E0A50194010E947C364B01F5
:101F40005C01C701B601A30192010E945D366901DF
:101F50007A01C114D104E104F10451F7F12CE12C10
:101F60008AE0482E512C612C712CC501B401A301CB
:101F700092010E945D3649015A01B801832D922DCC
:101F80000E945D36CA01B901A30192010E945D362B
:101F900080E3860F0E942C0F8FEFE81AF80ACE1507
:101FA000DF0519F7CE01DF91CF911F910F91FF90BF
:101FB000EF90DF90CF90BF90AF909F908F907F90E9
:101FC0006F905F904F903F902F900895CF93DF9345
:101FD000EC01FE0184912196882319F00E942C0FB8
:101FE000F8CFDF91CF910895CF93DF93EC010E945A
:101FF000000FBE0190E080E00E94750F80E20E9419
:102000002C0F8BE496E0DF91CF910C94E60FFF92BA
:102010000F931F93CF93DF93C091C305D091C40555
:1020200025E0CC0FDD1F2A95E1F72091C505309101
:10203000C605C20FD31F8C01FF24F394F8018191D0
:102040008F019E01D7FF02C0215E3F4F95E035957D
:1020500027959A95E1F78823B9F025543B4FF9016C
:10206000F082CE010196F80131972081FE01ED53F7
:10207000FB4F20838F3F910529F024F00E94DD0E55
:10208000CE014F97EC01DACFCE0160E270E00E9402
:10209000333A9093C6058093C5053093C4052093C9
:1020A000C305DF91CF911F910F91FF90089540E0FC
:1020B00051E060E270E083EC94E00E94873A48E0EF
:1020C00050E061E070E08BEB94E00E94873A109260
:1020D000C6051092C5051092C4051092C305089557
:1020E0001092E0251092DF251092AE041092AD04FC
:1020F00080E090E29093AC048093AB049093AA04A8
:102100008093A9049093A8048093A7049093DE057C
:102110008093DD05EFEDF5E0DF019C011D9221507C
:102120003040E1F71092A6041092A5041092A40486
:102130001092A3041092F3251092F2250895EF92C5
:10214000FF920F931F93CF93DF93CDB7DEB7C058A5
:10215000D1090FB6F894DEBF0FBECDBFE82E20EA3E
:1021600030E040E851E070E060E090E080E00E9404
:10217000F70900EA10E0F12C40E850E0B701CE0189
:1021800001960E94873A60E870E0CE0101960E94B5
:10219000D2090150110981F7C058DF4F0FB6F894EA
:1021A000DEBF0FBECDBFDF91CF911F910F91FF908A
:1021B000EF9008952F923F924F925F926F927F928D
:1021C0008F929F92AF92BF92CF92DF92EF92FF9247
:1021D0000F931F93CF93DF93CDB7DEB7C059D109CB
:1021E0000FB6F894DEBF0FBECDBF69013E2D80381B
:1021F000910508F097C06838710508F093C07C011C
:10220000E40EF51E20E8E216F1040CF08BC01B0171
:102210002C0C3D1CE8E82E1631040CF083C05A014A
:102220004B012A01440C551C4A0C5B1C3C01660CFA
:10223000771C680E791E3323F9F09601A201C301C1
:102240000E94400AF12CE12C10E008531D4FEC14C1
:10225000FD040CF067C0F801608170E0A501CE01BB
:1022600001960E94873AB501CE0101960E94D209DB
:10227000FFEFEF1AFF0AEBCF21E030E0A201C3012C
:102280000E94400AE02FF0E0E853FD4F008110E08B
:10229000A501B801CE0101960E94873AB501CE0191
:1022A00001960E94D209B1016150710921E030E02C
:1022B000A201C3010E94400AA501B801CE01019606
:1022C0000E94873AB501CE0101960E94D20996017B
:1022D00043E050E0B401C3010E94400AA601B801E6
:1022E000CE0101960E94873AB601CE0101960E9466
:1022F000D20921E0E21AF108C701880F991F96015F
:1023000043E050E0B4018E0D9F1D0E94400AA601DB
:10231000B801CE0101960E94873AB601CE0101961E
:102320000E94D209C057DF4F0FB6F894DEBF0FBE30
:10233000CDBFDF91CF911F910F91FF90EF90DF9074
:10234000CF90BF90AF909F908F907F906F905F9055
:102350004F903F902F900895EF92FF921F93CF934D
:10236000DF93CDB7DEB7C059D1090FB6F894DEBF01
:102370000FBECDBF7A01122FFC01EE0FFF1F9A0195
:1023800041E050E08E0F9F1F0E94400AE12FF0E0D5
:10239000E853FD4F608170E0A701CE0101960E94D5
:1023A000873AB701CE0101960E94D209C057DF4F8C
:1023B0000FB6F894DEBF0FBECDBFDF91CF911F9156
:1023C000FF90EF900895CF92DF92EF92FF920F93DC
:1023D0001F93CF93DF93CDB7DEB7C058D1090FB6A7
:1023E000F894DEBF0FBECDBF6A01F22E440F551F19
:1023F0004C0D5D1DFC01EE0FFF1F98018E0F9F1FFE
:102400000E94400AEF2DF0E0E853FD4F608170E03C
:10241000A601CE0101960E94873AF12CE12CE0162C
:10242000F1064CF4B601CE0101960E94D2098FEF5D
:10243000E81AF80AF4CFC058DF4F0FB6F894DEBFA1
:102440000FBECDBFDF91CF911F910F91FF90EF9005
:10245000DF90CF9008958F929F92AF92BF92CF92CC
:10246000DF92EF92FF920F931F93CF93DF934B0175
:102470005C01EA0120E030E0A9010E947233811181
:1024800011C080E388831982CE01DF91CF911F9123
:102490000F91FF90EF90DF90CF90BF90AF909F9003
:1024A0008F90089575016401E894F7F827E137EB00
:1024B00041ED58E3C701B6010E94723387FD0AC09F
:1024C00020E034E244E759E4C701B6010E94DF3856
:1024D000181644F400E026E0AE01C501B4010E94E4
:1024E000E32ED2CFC701B6010E9426390E942138BF
:1024F00020E030E040E85FE30E949F360E94EB3727
:1025000027E030E07901E61AF70A8E012E2D41E02E
:10251000C501B4010E94652FFE01EF2809F4B4CF74
:102520009F012F5F3F4F8081811108C0DF0111970C
:10253000FD018C91803321F41C92F8CFF901F0CF8A
:102540008E3209F0A1CF10829FCF2F923F924F92EF
:102550005F926F927F928F929F92AF92BF92CF9233
:10256000DF92EF92FF920F931F93CF93DF9300D0F0
:102570001F92CDB7DEB79BEB492E94E0592ED12C9C
:10258000C12CF12CE12CCE0101963C01F20181918C
:102590002F0181110DC08091C705882309F460C007
:1025A0008091C3059091C4058E159F0509F058C010
:1025B000170184E0220C331C8A95E1F7C6018D5384
:1025C0009B4F4C01B12CA12C94012C193D09235C8B
:1025D0003440F40181914F0180320CF480E240914B
:1025E000C5055091C6054217530779F42091C305DC
:1025F0003091C4052E153F0541F49091C7059923EC
:1026000021F09091B90491118FE5282F082E000C2C
:10261000330B3F938F938CEC92E09F938F931F9299
:10262000F2E0FF937F926F920E94CA3A10E000E0BE
:1026300022E030E0A301B101C5010E94D90B2CE0DA
:10264000A20EB11C0FB6F894DEBF0FBECDBF90E84E
:10265000A91691E0B90609F0B7CFF20131971082BF
:10266000EFEFEE1AFE0AF0E2CF0ED11C28E0E216E0
:10267000F10409F08BCF0F900F900F90DF91CF9165
:102680001F910F91FF90EF90DF90CF90BF90AF9090
:102690009F908F907F906F905F904F903F902F9082
:1026A0000895CF92DF92EF92FF920F931F93CF93F3
:1026B000DF9381E08093C7058091C5059091C605A1
:1026C000892B09F064C08091C3059091C40575E021
:1026D000880F991F7A95E1F740E250E060E270E0E0
:1026E0008D539B4F0E94873AC091C305D091C4057A
:1026F00055E0CC0FDD1F5A95E1F78091C50590910B
:10270000C605C80FD91F8E01D12CCC24C39460E21A
:10271000E62EF12C0E94960A882309F465C09E01DA
:10272000D7FF02C0215E3F4F45E0359527954A957A
:10273000E1F7F901E554FB4FC08290EE980F9F3509
:1027400048F5FE01ED53FB4F80832196CE01B70182
:102750000E94333A9093C6058093C505CE01D7FDFC
:102760004F9635E0959587953A95E1F79093C40596
:102770008093C305089741F400321105DCF0005244
:102780001109A0970E94DD0EC092BA04C3CF0E9427
:10279000000FAACF823049F40C171D07BCF6219711
:1027A000FE01ED53FB4F1082D1CF8D3079F6DD2441
:1027B000D394CCCF2197FE01ED53FB4F1082CE0175
:1027C000B7010E94333A9093C6058093C505CE01A8
:1027D000D7FD4F9625E0959587952A95E1F790933B
:1027E000C4058093C305D0CF8091BA0481110E94A3
:1027F000A512DD2009F48ECFCD53DB4F1882109245
:10280000C705E091C305F091C405E554FB4F81E095
:1028100080830E94A512C8018D539B4FDF91CF91F9
:102820001F910F91FF90EF90DF90CF900895CF927E
:10283000DF92EF92FF920F931F93CF93DF93EC0100
:1028400009900020E9F72197C81BD90B6E012FEFE3
:10285000C21AD20AE090AD04F090AE0497012C0D9C
:102860003D1D2F5F3F4F4091DD055091DE05241740
:102870003507F4F4BC01870101521A4FC8010E94C8
:10288000B53AF801EC0DFD1DD182C0822396CE0D24
:10289000DF1DD093AE04C093AD0481E090E0DF91E2
:1028A000CF911F910F91FF90EF90DF90CF900895FF
:1028B00090E080E0F4CFCF92DF92EF92FF920F93FF
:1028C0001F93CF93DF937C016B01C091DD05D09105
:1028D000DE05C152DA4F0091A7041091A8040152FD
:1028E0001A4FC017D10790F48A8190E08C219D2166
:1028F000892B39F0B701CE0103960E948E3A892BBD
:1029000039F088819981C80FD91FEBCFD0E0C0E0A2
:10291000CE01DF91CF911F910F91FF90EF90DF904B
:10292000CF9008958F929F92AF92BF92EF92FF92B5
:102930000F931F93CF93DF937C014A015B01EC015E
:1029400009900020E9F72197C81BD90B63E070E0DC
:102950000E945B14009799F0C80FD91F8C829D824A
:10296000AE82BF8281E090E0DF91CF911F910F9105
:10297000FF90EF90BF90AF909F908F900895CE0101
:102980000896E091DD05F091DE05E81BF90B20913A
:10299000AD043091AE04E217F307C4F0F093DE0506
:1029A000E093DD05E152FA4F918380838F010D5F43
:1029B0001F4F81E08283B701C8010E94B53AC00F62
:1029C000D11F89829A82AB82BC82CCCF90E080E01A
:1029D000CBCF8F929F92AF92BF92CF92DF92EF9226
:1029E000FF920F931F93CF93DF93CDB7DEB72B9753
:1029F0000FB6F894DEBF0FBECDBFC090DA05D09001
:102A0000DB05D601BD908D01EB2CF12CC7010E9496
:102A10004133892B89F5D092DB05C092DA05B110DC
:102A20002DC0E091D805F091D905CF010196909382
:102A3000D9058093D80510828091D6059091D7054D
:102A400001979093D7058093D605EE24EA94FE2C47
:102A5000C7012B960FB6F894DEBF0FBECDBFDF9136
:102A6000CF911F910F91FF90EF90DF90CF90BF908B
:102A7000AF909F908F9008956801C3CFC701C09712
:102A80000A9718F0BEE2BB1291C0FE01319690E0A9
:102A900080E0F12CE12C8F014C2D3D2DD6012D91A4
:102AA0006D012E32B1F4E114F10481F04093DA05A6
:102AB0003093DB05CDCF8A30910571F7D092DB05DD
:102AC000C092DA05EE24E394F12CC2CFEE24E39415
:102AD000F12C01962193D6012C91622F6053770B34
:102AE0006A30710540F32E3231F3D092DB05C0928B
:102AF000DA05800F911FDC011C928091D605909120
:102B0000D705863091050CF454C105979093D705ED
:102B10008093D605E114F10431F54AE050E070E00D
:102B200060E0C8010E943B314B015C01B1E08B1AAF
:102B30009108A108B0E8BB0AEEEF8E16EFEF9E06F3
:102B4000AE06BE0680F4E091D805F091D90522E0EA
:102B5000208361837283838394833596F093D905B0
:102B6000E093D80575CFE090D805F090D905C7015E
:102B700001969093D9058093D80583E0D7018C9373
:102B800070E060E0C8010E94DD2FF701618372836D
:102B9000838394838091D8059091D905049690936E
:102BA000D9058093D805F12CE12C52CFC7010E94A2
:102BB000643A7C01892B09F4E1C01093DB05009392
:102BC000DA05B982CC24C394D12CD801BD907D0103
:102BD0008B2D90E00E94573A892B19F4B4E2BB1276
:102BE00011C0E8E0CE16D1045CF4E1E0F0E0EC0FB7
:102BF000FD1FEC0DFD1DB082A6014F5F5F4F6A0106
:102C00008701E3CF1093DB050093DA05E1E0F0E004
:102C1000EC0FFD1FEC0DFD1D108250E7852E55E0D9
:102C2000952E67E1A62EB12CF40165917491CE0129
:102C300001960E948E3A7C01892B09F050C0809148
:102C4000D6059091D705823091050CF4B2C001975A
:102C50009093D7058093D605E091D805F091D905DA
:102C6000CF0101969093D9058093D805A0825FE1AA
:102C7000A516B10409F0ECCE6F0162E0C60ED11CBE
:102C8000D092D905C092D80584E0818358017FEFA6
:102C9000A71AB70AD8018C9190E00E9441337C01B9
:102CA000892B89F41093DB050093DA05F601402F98
:102CB000312FD8012D918D01BFEFCB1ADB0A2223D2
:102CC00021F02083F3CF8501E1CF4093DA053093E3
:102CD000DB05D092D905C092D8051082B9CEEFEFAE
:102CE000AE1ABE0AF3E08F0E911C24E5A216B104C1
:102CF00009F09ACF64E270E0CE0101960E94A13AF9
:102D0000009769F096012150310941E050E04C0FE5
:102D10005D1F240F351F8217930709F0F9C0960134
:102D20002F5F3F4F8091D6059091D705281739071F
:102D30000CF03FC0821B930B9093D7058093D60570
:102D40000091D8051091D90578015FEFE51AF50AD1
:102D500081E0D8018C93BE016F5F7F4FC7010E9455
:102D6000B53AF801EC0DFD1D808180688083CE0CA2
:102D7000DF1CD092D905C092D80515CFB2E2BB12A4
:102D80004CC0E091D805F091D905DF011196B093C0
:102D9000D905A093D80584E080838091D6059091D1
:102DA000D70501979093D7058093D605823091057A
:102DB00024F442E0E42EF12C4BCEF8011093DB0515
:102DC0000093DA056D0186016081662309F4A4C0D1
:102DD000A6014F5F5F4F9C0121503109623239F4E7
:102DE000CF0101966181623209F0A6C0FC016A013F
:102DF0008081D8018C93C90131962130310519F7B2
:102E0000F093DB05E093DA055093D9054093D8059C
:102E10003093D7052093D605CCCFBFE3BB121EC09D
:102E20008091D6059091D7051816190614F6E091F1
:102E3000D805F091D9059F012F5F3F4F3093D905F9
:102E40002093D8052AE1208301979093D70580939A
:102E5000D6051093DB050093DA05FACDE7E2BE1242
:102E600015C08091D6059091D705181619060CF05B
:102E7000A0CFE091D805F091D9059F012F5F3F4F7A
:102E80003093D9052093D8052FE1DDCF2DE6822E92
:102E900025E0922E36E1A32EB12CF401A591B49138
:102EA000FD0101900020E9F731978F010A1B1B0BF0
:102EB000F40185919491A801B6010E94BC3A7C016D
:102EC000892BD9F4E091D805F091D905CF0101966D
:102ED0009093D9058093D805A0828091D6059091D2
:102EE000D70501979093D7058093D605C00ED11EC4
:102EF000D092DB05C092DA05ABCDF1E0AF1AB10894
:102F000023E0821A910847E0A416B10409F0C5CF66
:102F100083E0E82EF12C9CCDF093DB05E093DA05FD
:102F2000D092D905C092D8059093D7058093D60545
:102F300094E0E92EF12C8CCD9093DB058093DA059B
:102F40005093D9054093D805D6011C923093D705EC
:102F50002093D6057DCD6F927F928F929F92AF92F4
:102F6000BF92CF92DF92EF92FF920F931F93CF9376
:102F7000DF93CDB7DEB764970FB6F894DEBF0FBE10
:102F8000CDBFE090EE25F090EF256AE2E616F10461
:102F90000CF04CC078E2E716F1040CF07EC088E03B
:102FA000E816F10409F4DBC1ECF4E4E0EE16F104F8
:102FB00064F4F2E0EF16F1040CF0B3C1EA94EF28E8
:102FC00009F4B8C006E010E0E8C074E0E716F104C8
:102FD000C9F78091E9258111B8C10E94620B00E018
:102FE00010E1DBC087E2E816F1040CF0CBC195E2FA
:102FF000E916F1040CF051C0EBE0EE16F10421F0FB
:10300000F9E1EF16F104F1F60E94620B0E94AB1792
:103010008C011F700115110509F0E9C38827907F05
:10302000892B09F4E8C107E010E0B7C060E4E616B8
:10303000F10434F57EE3E716F1047CF583E3E8164A
:10304000F1040CF4BFCF96E3E916F10434F1EBE39D
:10305000EE16F10409F0B6CF0E94620B8091E925CB
:10306000882309F45BC16091DC0561111092DC05D5
:10307000062E000C770B880B990B0E947933FCC04D
:10308000FCE4EF16F10409F492C10CF04DC0C70145
:1030900082549109079708F095CFF701EE0FFF1FB3
:1030A000EE0DFF1DE35DFA4F14910E94620B8091BB
:1030B000EE259091EF25089709F09BC3612E712CA6
:1030C0000E94620B1370C12ED12C530133E0B594D2
:1030D000A7943A95E1F777E0A722BB24912C812CA5
:1030E0008C149D040CF0B9C10E942F1E8C019F709E
:1030F000892B09F052C00027107FA0FCA7C1012B2B
:1031000009F091CFB594A7949FEF891A990A8C146E
:103110009D0434F78091EE259091EF25469709F0B4
:1031200051CF0E94620BDCCF7DE4E716F10409F475
:10313000B4CF48CF1091E925112331F060EB74E052
:10314000CE0101960E94B53AE090AF040E2C000C1F
:10315000FF080E94620B8091EE259091EF25089761
:1031600009F090C00E94741E8C01892BB1F48091EB
:10317000E925882309F4CFC08E010F5F1F4FEF2888
:1031800009F44AC060E170E0C8010E945B149C8BA6
:103190008B8B0097C1F40CE010E0C80164960FB669
:1031A000F894DEBF0FBECDBFDF91CF911F910F917D
:1031B000FF90EF90DF90CF90BF90AF909F908F9057
:1031C0007F906F900895F80101900020E9F79F012A
:1031D000201B310B2D5F3F4F820F931F9C8B8B8BDE
:1031E000BE016F5E7F4FCE0143960E94A2078C0105
:1031F000892B99F629893A898B899C8902171307AB
:103200000CF05EC0FC014081411102C00F5F1F4FF6
:1032100001969C8B8B8BF0CF64E070E0C8010E941C
:103220005B149C8B8B8B009709F4B5CFF801019050
:103230000020E9F79F01201B310B2D5F3F4F820FCC
:10324000931F9C8B8B8BBE016F5E7F4FCE0143968D
:103250000E94A2078C01892B09F09FCF89899A8946
:10326000880F991F880F991FEB89FC89E80FF91FB8
:1032700060817181828193810E940608892B09F007
:103280004DC023C0112309F446C08E010F5F1F4FAC
:10329000EF28F1F068E070E0C8010E945B1400972D
:1032A00009F479CFF80101900020E9F79F01201B74
:1032B000310B2D5F3F4F820F931F009709F46BCFA7
:1032C0000E941714892B09F08ACE0AE010E065CF1E
:1032D00063E070E0C8010E945B14009709F45BCFC3
:1032E000F80101900020E9F73197E01BF10BE80F9E
:1032F000F91FC480D580E680F7802FEF3FEF4FE7BE
:103300005FE7C701B6010E947233882309F443CFF7
:10331000C701B601B1CFEF2809F061CE10E000E09F
:103320003CCF8091E925811103C00E94620BF6CF4A
:103330006091EA257091EB258091EC259091ED2527
:103340000E940608892B89F7C0CF80919E04909136
:103350009F040E941714892B09F03FCEB6CF0E941C
:10336000620B0E942F1E8C019F70892B09F015CFD4
:103370008091EE259091EF25099709F03AC20E94BD
:10338000620B0BCF0E94620B8091E925882331F2FA
:103390000E94CE2FBC01990F880B990B0E947933A4
:1033A00020E03EEF4FEF56E40E943F3765CF0E948A
:1033B000620B80917A00806480937A0080917A0019
:1033C00086FDFCCF20917800809179009091E925CD
:1033D000992309F4A3CF90E0982F8827820F911D9D
:1033E00026E0289FB001299F700D112490E080E015
:1033F0000E94773341CFFBE0EF16F104B9F069E1A9
:10340000E616F10409F0DECD8091E925882309F460
:1034100085CF0E94910720E030E0A9010E9472331D
:10342000882379F060E070E0CB0108C08091E92545
:10343000882309F473CF0E94910790580E940608D0
:10344000ACCE60E070E080E89FE3F8CF011510415A
:1034500009F458CE08E010E0A0CE8091E925882339
:1034600009F439C0F701B597E932F10508F0AACDA2
:10347000E45CF54E0C94473A861AD61AE217651AA0
:103480007A1AE217E217E217E217E217E217E217D9
:10349000E217E217421B4E1B5A1BE217E217E21714
:1034A000E217E217E217E217E217A81BD21BE21796
:1034B000E217991A9E1AA81AB81ABD1AC21AC71A80
:1034C000E217E217E217E217A31A0E9491070E947F
:1034D00021380E9406088091EE259091EF250997EA
:1034E00009F087C18301102F0027110F110F00274A
:1034F000107145CF0E949107AE014F5F5F4F0E9450
:103500002B120E941714892B31F7DFCE0E947D0702
:10351000FC0101900020E9F73197BF01681B790B8E
:10352000072E000C880B990B0E9479330E94060825
:10353000EACF0E9491070E94B239F8CF0E9491070A
:103540000E943A37F3CF0E9491070E940B37EECFCB
:103550000E94910720E030E0A9010E94DF38181690
:103560001CF40E949107E2CF0E9491079058DECF91
:103570000E9491070E943639D9CF0E9491070E947C
:10358000B937D4CF0E9491070E94C039CFCF0E9493
:1035900091070E94EB376115710511F277FF03C0A7
:1035A0006FEF7FEFBDCF61E070E0BACF0091AD0467
:1035B0001091AE04E090A004F090A1048091DD058C
:1035C0009091DE05801B910B980121523A4FF90131
:1035D000329740815181F901E41BF50BAF01425054
:1035E00051095093DB054093DA053093D9052093B8
:1035F000D8059093D7058093D6050E94E9140097CB
:10360000E1F334F0029709F460CE07E110E0C5CD94
:103610008091AD049091AE0481529A4F9093F12520
:103620008093F0258091D8059091D9058F5D9540C4
:103630009093AE048093AD040E94620B0E942F1EF3
:103640009C013F70232B21F00A9709F43ECEDDCF79
:103650008827907F892B09F0E6CC0E9491074B01C7
:103660005C011093AE040093AD040E947D07C50178
:10367000B4010E940608F092F125E092F0250E9424
:10368000620B29CF0E9491070E94EB37CB0170E0BB
:1036900060E097FF0CC006E110E07FCD0E9491072B
:1036A0000E94EB37CB0177FDF6CF61E070E00E941E
:1036B000950E11CF0E9491070E94EB376B018B0191
:1036C0000E9491070E94EB37D7FCE5CF161617062C
:1036D00014F72091AD043091AE04F901E352FA4F92
:1036E000408151810F5F1F4F461757070CF4BA01F5
:1036F00061507109C801860F971F481759071CF4BC
:103700008A01061B170B4017510709F4E4CE4E5FE0
:103710005F4F7901E41AF50AC70181529A4F6C0193
:10372000A80141505109680F791F0E94753AF601AE
:10373000E00FF11FDF0111971C92118300830E5FD0
:103740001F4F0E0D1F1D1093AE040093AD04C3CE8A
:103750000E9491070E94EB377727FB01E95DF94F43
:103760008491FB01E255F94F04916657794FFB01B3
:10377000149170E060E0112309F4D2CE81110E940F
:103780004C06E12FF0E0EE0FFF1FEF5EFA4FA59120
:10379000B491EC910E2391E080E009F490E0692F60
:1037A000782FBECE0E9491070E94EB37862F6E3095
:1037B00010F082EF860F20917B00982F9870277F62
:1037C000922B90937B008770806480937C00809123
:1037D0007A00806480937A0080917A0086FDFCCF25
:1037E0008091780060917900762F682F99CE8C01B6
:1037F000D4CC05E010E0D1CC2F923F924F925F9253
:103800006F927F928F929F92AF92BF92CF92DF92F0
:10381000EF92FF920F931F93CF93DF9300D000D0CE
:10382000CDB7DEB79A8389838B010E9445076C016F
:1038300089819A81C816D9060CF4BDC18091EE2504
:103840009091EF259C838B830E94620B0E94AB17A3
:103850007C019F70892BE1F40E944507C816D906A8
:103860004CF4B701C60101960E94FC1B7C019F70BD
:10387000892B71F4C8018827907F009709F0FDC05B
:10388000EE2490EFF922EF28D9F096E0E92EF12C02
:10389000C7010F900F900F900F90DF91CF911F9164
:1038A0000F91FF90EF90DF90CF90BF90AF909F90DF
:1038B0008F907F906F905F904F903F902F900895E2
:1038C000F090E925FF2009F47CC10E9491074B018B
:1038D0005C010E949107762E672E582E492E8B810F
:1038E0009C810A9709F0A0C1272D362D452D542D16
:1038F000C501B4010E949F360E94060896CF8B81B5
:103900009C810D9709F06DC120E030E0A901C5014F
:10391000B4010E947233882309F44FC1A5019401B8
:10392000672D762D852D942D0E943F37E5CF8B8115
:103930009C81409789F4FF2009F477CF272D362DFD
:10394000452D542DC501B4010E94DF381816ACF086
:1039500060E070E0CB01D0CF8B819C810F9791F418
:10396000FF2009F462CF272D362D452D542DC5019A
:10397000B4010E94723387FFEBCF60E070E080E813
:103980009FE3BACF8B819C810E9771F4FF2009F4DD
:103990004CCF272D362D452D542DC501B4010E9445
:1039A0007233882351F3D4CF8B819C81419771F47A
:1039B000FF2009F43ACF272D362D452D542DC50172
:1039C000B4010E9472338111D8CFC2CF8B819C8108
:1039D000439771F4FF2009F428CF272D362D452D6C
:1039E000542DC501B4010E94DF3887FFC6CFB0CF88
:1039F0008B819C81429779F4FF2009F416CF272D03
:103A0000362D452D542DC501B4010E947233181670
:103A10000CF0B3CF9DCF8B819C814797A9F4FF20F9
:103A200009F403CF20E030E0A901C501B4010E94F0
:103A3000723381111FC050E040E030E020E0652F7C
:103A4000742F832F922F58CF8B819C81489709F038
:103A50001CCFFF2009F4E9CE20E030E0A901C50128
:103A6000B4010E947233882329F050E040E030E82E
:103A70002FE3E5CFA3019201E2CF8115904109F038
:103A800004CFEE2480EFF822E11490E1F90609F06A
:103A9000FCCE8B819C810A9709F041C08091E92579
:103AA000882309F4C2CE2091AD043091AE04F9010F
:103AB000E352FA4F808191819C838B830296281B6D
:103AC000390BB90161527A4FFB013297E080F180E6
:103AD000C70102961901281A390AC10181529A4F69
:103AE0006C01C70101974B815C818C0D9D1D0E946B
:103AF000753A8B819C818E0D9F1D9C838B830197D2
:103B0000F601E80FF91F918380838B819C810196D8
:103B1000820D931D9093AE048093AD0486CE8B816D
:103B20009C810E97069708F0B0CE8091E9258823F6
:103B300009F10E947D078C010E947D07B8010E9457
:103B4000AC3A8C018B819C810E9741F401151105D3
:103B500009F413CF60E070E0CB010AC08B819C8137
:103B6000419759F4012BB1F360E070E080E89FE3E6
:103B70000E94060810E000E058CE8B819C810F97D0
:103B800021F41016110634F7EFCF8B819C814097FA
:103B900019F417FFDFCFE8CF8B819C81429719F48E
:103BA00017FDD8CFE1CF8B819C81439799F61016F2
:103BB000110684F2D9CF78016BCE8BE0E82EF12C80
:103BC00067CE8B819C810A97029708F42ECE8B8159
:103BD0009C810C9709F429CE8B819C810D9709F467
:103BE00024CE8B819C818E9709F0A1CEFF2009F411
:103BF0001CCEC501B4010E94EB377C836B83CB01E3
:103C0000892BD9F2672D762D852D942D0E94EB37C7
:103C1000CB016B817C810E94333ABC01990F880BE8
:103C2000990B0E94793368CE8B819C810B9749F464
:103C3000A5019401672D762D852D942D0E949E3629
:103C40005BCE8B819C810C9709F059CE272D362DA8
:103C5000452D542DC501B4010E94D8334DCE0E948C
:103C6000AB179C013F70232B29F4BC0190E080E04E
:103C70000C94FC1B08950E942F1E9C013F70232B67
:103C800049F48827907F892B19F490E080E008950B
:103C900087E090E008950F931F93CF93DF93D0E0D8
:103CA000C0E08C0101501109C017D10774F40E94C3
:103CB000620B0E943B1E009791F48091EE2590913B
:103CC000EF25469751F42196EFCF0E94620BDF91CA
:103CD000CF911F910F910C943B1E86E090E0DF91F5
:103CE000CF911F910F9108950F931F93CF93DF935F
:103CF0008091EE259091EF25089741F005E010E0C6
:103D0000C801DF91CF911F910F9108950E94620B1E
:103D1000D0E0C0E021960E943B1E8C01892B81F7E8
:103D20008091EE259091EF258930910529F04697F5
:103D300029F70E94620BEECF0E94620B8091E92569
:103D40008823F1F2BE01DD0F880B990B0E947933B5
:103D50000E940608892BA1F60AE010E0D1CF4F920D
:103D60005F926F927F928F929F92AF92BF92CF920B
:103D7000DF92EF92FF920F931F93CF93DF93CDB714
:103D8000DEB72D970FB6F894DEBF0FBECDBFB82EAD
:103D90008091E925882331F060EB74E0CE01019633
:103DA0000E94B53AC090AF040C2C000CDD080E94B4
:103DB000620B8091EE259091EF25F12CE12C089774
:103DC00001F50E94741E8C01EE24E394F12C892BE2
:103DD000C1F0C8012D960FB6F894DEBF0FBECDBF5F
:103DE000DF91CF911F910F91FF90EF90DF90CF90D7
:103DF000BF90AF909F908F907F906F905F904F900B
:103E00000895BB2009F47BC08091E925882379F0CF
:103E10000E945113C114D10409F46AC00E941714FE
:103E2000892B09F462C00E94000F0E94A51210E0C5
:103E300000E0CD2809F478C000E010E10027107FF1
:103E40000115104109F053C18091E925882309F437
:103E5000BBC08E010F5F1F4FA090AD04B090AE04A9
:103E6000EF2809F4E3C00E947D074C01FC0101909A
:103E70000020E9F731973F01681A790A60E170E0A4
:103E8000C8010E945B146C019D878C87892B09F403
:103E900067C0F80101900020E9F7CF01801B910B6A
:103EA00003968C0D9D1D9D878C87BE01665F7F4F9D
:103EB000CE010C960E94A2078C01892B09F089CFB4
:103EC0002A853B8590E080E0EC84FD84F701821731
:103ED00093070CF07CC04081411101C00196FFEFB7
:103EE000EF1AFF0AFD86EC86EFCF0AE010E071CFF3
:103EF00070E060E00E94DD2F0E94060891CF809163
:103F0000EE259091EF2506E010E00E9709F061CFC5
:103F10000E94620B0E942F1E8C019F70892B09F05A
:103F200058CFCD2809F08ACF0027107F012B09F048
:103F3000DBC08091E925882309F446C08E010F5F1C
:103F40001F4FEF28B9F10E9491076B017C0164E0DB
:103F500070E0C8010E945B149D878C87009719F45C
:103F60000CE010E036CFF80101900020E9F79F0146
:103F7000201B310B2D5F3F4F820F931F9D878C8736
:103F8000BE01665F7F4FCE010C960E94A2078C0196
:103F9000892B09F01ECF8A859B85880F991F880F72
:103FA000991FEC85FD85E80FF91FC082D182E2825E
:103FB000F3820FCF0E949107AB01BC01C8010E94A0
:103FC0009214892B09F491CF10E000E002CF019008
:103FD0000020E9F73197EE19FF096E1A7F0A609108
:103FE000DD057091DE052B01461857084A145B0465
:103FF0000CF4EFCEF60180819181860D971D91839F
:10400000808361527A4FA701461B570BC201815230
:104010009A4F0E94753AB401C701861997090E9408
:10402000B53A5092DE054092DD05D3CEC5018152EE
:104030009A4FFC01329720813181821B930B9C01A6
:10404000225031096901F80101900020E9F7319708
:104050007F01E01AF10AF90101900020E9F74F0110
:10406000C7010496821A930A880E991E68E070E0D0
:10407000C8010E945B14009789F0FC012081318106
:104080004091DD055091DE05240F351F28193909AF
:104090002A153B0508F429CF0E94740EE091DD0536
:1040A000F091DE05E819F909EA15FB050CF41DCFBE
:1040B000F093DE05E093DD05E152FA4F91828082B4
:1040C0005F0123E0A20EB11C88E08283B801C50124
:1040D0000E94B53AC7010196B6018A0D9B1D0E9448
:1040E000B53A0E947D0770CF07E010E072CE08E07D
:1040F00010E06FCE2F923F924F925F926F927F921D
:104100008F929F92AF92BF92CF92DF92EF92FF92E7
:104110000F931F93CF93DF93CDB7DEB7C452D14037
:104120000FB6F894DEBF0FBECDBF1092A20410925E
:10413000E4251092E3251092E2251092E1259E01DC
:104140002F5F3E4FCF5FDE4F39832883C150D14070
:10415000CE0101961C01E090EE25F090EF25E114D0
:10416000F10411F40C94A12BD090E925DD2041F04D
:104170008091DF259091E0259093AE048093AD046B
:10418000F7013197E335F10510F00C94A52BE553B9
:10419000FF4D0C94473A6921A52BA52BA52BA52BE8
:1041A000A52BA52BA52BA52BA52BA52BA52BA52B8F
:1041B000A52BA52BA52BA52BA52BA52BA52BA52B7F
:1041C000A52BA52BA52BA52B1E215E217C21A92289
:1041D000EC2204237528722175280923A52BA52B11
:1041E000A52BA52BA52BA52B7923A52BA52B6B24C4
:1041F000A52B7528402575289525A52BA52BA52B26
:104200007528A926FA27FA27FA27A52BC226C2263F
:10421000A52BA52B7528C226A52BA52BA52BA52B39
:10422000A52BA52BA52B75284B27AB27A52BA52B9D
:104230007528612A612A612A612A75280E94620B09
:10424000EE24E394F12C8091EE259091EF250097D8
:1042500049F1449739F10E942F1E8C019F70892BE0
:1042600009F02CC28091E925882371F00027107F86
:10427000012BA9F40E949107A1010E942B120E9418
:104280000710EE24E394F12C8091EE259091EF2518
:104290004597C9F60E94620BF12CE12CD4CF0E9405
:1042A0007D07EDCF8091E925882309F492C1EF289D
:1042B00011F00E94000F0E94A5128BC10E94620B98
:1042C0008091EE259091EF25019719F006E010E01E
:1042D000F5C180E00E94AF1E8C010115110509F4A3
:1042E00078C1ECC10E94620B8091EE259091EF2580
:1042F000019761F781E0EECF0E94620B8091EE257D
:104300009091EF25009709F468C0449709F465C0BF
:104310000E943B1E8C01892B09F0D0C18091E925B8
:10432000F12CE12C882329F00E9491070E94F2379A
:104330007B018091EE259091EF25469709F450C0BE
:10434000712C612C8091E925882309F442C1B12C9C
:10435000A12CCD5FDE4F1882C350D140AFEDCA2EE5
:10436000A5E0DA2E8091DF259091E02581529A4FC9
:10437000C816D90608F09FCFD60112966D917C9190
:10438000E114F10421F06E157F0508F4DCC061141E
:10439000710421F06616770608F4D5C090E080E03D
:1043A0000E94750F80E20E942C0F4601B4E08B0E34
:1043B000911C512C412CD401EC91EE2309F49EC0A8
:1043C000E13031F584010F5F1F4FF80181918F01BA
:1043D00087FD19C00E942C0FF8CFF12CE12CB0CF33
:1043E0000E94620B0E943B1E8C01892B09F066C162
:1043F0008091E925882309F4ECC00E9491070E946E
:10440000F2373B019FCF80580E942C0F4801D3CF39
:10441000E33079F411966D917D918D919C91149773
:10442000A1010E942B120E94071084010B5F1F4FF5
:10443000EDCFE23041F4F401618172818381948196
:104440000E94750FF2CF84010F5F1F4FE43031F5EA
:104450004114510449F0C8010E940710D8010D9081
:104460000020E9F78D01D2CF82E20E942C0F480193
:104470008401F40181914F01882351F0823211F4BB
:104480000E942C0FF401319780810E942C0FF0CFF5
:1044900082E20E942C0F0F5F1F4FB8CF23E0E29FF4
:1044A000F0011124E35DFA4F3491C95FDE4F388388
:1044B000C750D14037FF03C080E20E942C0FD401C7
:1044C000EC91B3E0EB9FF0011124E55DFA4F85918B
:1044D00094910E940710C95FDE4FE881C750D14018
:1044E000E6FF03C080E20E942C0FD4018C918F3133
:1044F00009F08CCF44244394512C88CF0E94000FA4
:10450000BFEFAB1ABB0AE7E0AE16B104E1F4CD5F32
:10451000DE4FF881C350D140F130A9F00E94A512BE
:104520000E94960A8823E1F321E0CD5FDE4F2883C5
:10453000C350D140803229F0CD5FDE4F1882C35086
:10454000D140B12CA12CD6018D919C91C80ED91EC1
:1045500009CF0E94620B8091EE259091EF2561E0DA
:1045600070E0892BA1F00E943B1E8C01892B09F081
:10457000A5C08091E925882361F10E9491070E94DE
:10458000F2376115710519F40EE010E097C08091C3
:10459000E9258823F1F0E0E0F0E2F093AC04E09349
:1045A000AB04F093AA04E093A904F093A804E09369
:1045B000A704F093DE05E093DD057093E425609396
:1045C000E3251092A4041092A3041092A604109262
:1045D000A50401E010E03FC00E94620B0E943B1E58
:1045E0008C01892B09F06AC08091E925882389F321
:1045F0000E9491070E94F2376115710529F27093AC
:10460000E4256093E325E5CF0E94620B0E94620BD4
:10461000E0CF0E94620B0E943B1E8C01892B09F0A7
:104620004DC08091EE259091EF25849711F00C9468
:10463000952B0E94620B8091E925882361F00E94EE
:10464000910720E030E0A9010E947233811103C07C
:1046500081E08093A2048091A20481110C94A12B8B
:104660008091E3259091E425892B11F00C94A12BE6
:104670008091E1259091E225892B11F00C94A12BDA
:104680008091EE259091EF25009711F00C94812BED
:1046900010E000E08091E5259091E6250196909349
:1046A000E6258093E5252091E7253091E8258217BE
:1046B000930721F00115110509F44DCDC801CC5D1A
:1046C000DE4F0FB6F894DEBF0FBECDBFDF91CF91A6
:1046D0001F910F91FF90EF90DF90CF90BF90AF9020
:1046E0009F908F907F906F905F904F903F902F9012
:1046F00008950E94620B0091EE251091EF25013084
:10470000110509F0E3CD8091AF048111DFCDDD20EB
:1047100029F060EB74E0C1010E94B53A0E94620B7F
:104720008091EE259091EF250E9709F0CFCD0E9454
:10473000620B0E943B1E009709F0CBC08091E925D7
:10474000882351F00E949107CB5EDE4F6883798306
:104750008A839B83C551D1408091EE259091EF25AE
:104760008B9709F0B3CD0E94620B0E943B1E00970D
:1047700009F0AFC08091E925882351F00E9491078C
:10478000C75EDE4F688379838A839B83C951D1409A
:104790008091EE259091EF25412C512CE0E86E2E72
:1047A000EFE37E2E8C9781F40E94620B0E943B1EE9
:1047B000009709F08EC08091E925882309F44BCF3A
:1047C0000E9491072B013C018091E925882309F47F
:1047D00042CF2091E5253091E625CD5FDE4F39832C
:1047E0002883C350D1408090F2259090F325F101A9
:1047F00001900020E9F731977F01E218F308670183
:1048000034E1C30ED11C63E070E0C1010E945B146F
:104810002091DD053091DE05A090AD04B090AE048E
:10482000009779F0DC014D915C91240F351F2C1914
:104830003D092A153B0518F40AE010E03FCF0E941D
:10484000740EE091DD05F091DE05EC19FD09EA1525
:10485000FB0594F3F093DE05E093DD05E152FA4F9A
:10486000D182C0826F01B3E0CB0ED11C82E0828383
:10487000B101C6010E94B53AEFEFEE1AFE0AF60149
:10488000EE0DFF1DCB5EDE4F88819981AA81BB8131
:10489000C551D14080839183A283B38344825582E2
:1048A00066827782C75EDE4F88819981AA81BB814B
:1048B000C951D14080879187A287B3879586848626
:1048C000CD5FDE4FA881B981C350D140B787A6879D
:1048D000C2CE8C01F3CE0E94620B0091EE251091A6
:1048E000EF250130110509F0F1CC8091AF04811161
:1048F000EDCCDD2009F4BBC063E070E080EB94E018
:104900000E945B14009709F4B5C0FC012281CC24FD
:10491000CA94DC2C7FE7E72EFE2C2230A9F5E0EBD1
:10492000F4E001900020E9F7ED5AF440E80FF91F98
:1049300080819181A281B381C55FDE4F8883998395
:10494000AA83BB83CB50D140C480D580E680F7805A
:1049500080859185A285B385CF5EDE4F888399835C
:10496000AA83BB83C151D140A485B585CD5DDE4FFF
:10497000B983A883C352D14026853785CF5DDE4FEA
:1049800039832883C152D1402FEF3FEF4FE75FE7D4
:10499000C55FDE4F688179818A819B81CB50D14090
:1049A0000E947233882309F465C02FEF3FEF4FE771
:1049B0005FE7C701B6010E947233882309F45DC026
:1049C000A7019601C55FDE4F688179818A819B814D
:1049D000CB50D1400E949F364B015C01BC01A40129
:1049E00080EB94E00E94921420E030E0A901C7011E
:1049F000B6010E94DF3887FD0EC0CF5EDE4F2881F2
:104A000039814A815B81C151D140C501B4010E9405
:104A100072331816BCF420E030E0A901C701B601DA
:104A20000E94723387FF23C0CF5EDE4F2881398119
:104A30004A815B81C151D140C501B4010E94DF3878
:104A400087FD15C0CD5DDE4F88819981C352D1406D
:104A50009093E4258093E325CF5DDE4F8881998193
:104A6000C152D14001969093E2258093E1250E94A6
:104A7000620BF1CD0CE010E021CE00E110E01ECE83
:104A80000E94620B0E943B1E8C01892B09F016CEFE
:104A90008091E925882309F49CCD0E9491070E940A
:104AA000F2376115710509F46FCD7093E4256093B9
:104AB000E3252091DD053091DE05790194E0E91AC6
:104AC000F1088091AD049091AE04E816F9060CF45B
:104AD000B3CEC090E525D090E625A090F225B09009
:104AE000F3250091A7041091A804C90181529A4F9F
:104AF000A801421B530BBC0104970E94753AF09227
:104B0000DE05E092DD05045011091093A80400931E
:104B1000A7041093AA040093A904F801E152FA4FE4
:104B2000B182A082D382C28254CD0E94620B0091D6
:104B3000EE251091EF250130110509F0C7CBDD20DE
:104B400029F060EB74E0C1010E94B53AA091AF0476
:104B5000CD5FDE4FA883C350D1400E94620B0E94FC
:104B6000741E2C01009709F0F2C08091E92588237A
:104B700009F471CDF10101900020E9F731979F010F
:104B800022193309C95FDE4F39832883C750D140CA
:104B90002A5F3F4FC35EDE4F39832883CD51D1401A
:104BA0000E9491070E94EB376B01C15FDE4F798352
:104BB0006883CF50D1408091AD049091AE04C15E26
:104BC000DE4F99838883CF51D140B12CA12C88240A
:104BD0008394912CC15FDE4FA881B981CF50D14021
:104BE000AA16BB0684F40E9491070E94EB37F401D9
:104BF000E69F4001E79F900CF69F900C1124FFEF79
:104C0000AF1ABF0AE7CF5601AA0CBB1CCD5FDE4F1F
:104C10002881C350D14081E090E0211102C084E09E
:104C200090E0889E3001899E700C989E700C112433
:104C3000C35EDE4F88819981CD51D140A80EB91E47
:104C4000A60CB71CCD5FDE4F9881C350D14060E108
:104C500070E0911102C064E070E0C1010E945B1439
:104C60008090AD049090AE04009789F02091DD050E
:104C70003091DE052A193B09DC014D915C91240F2E
:104C8000351F2815390508F4D7CD0E94740EE09120
:104C9000DD05F091DE05EA19FB09E815F9050CF4CC
:104CA000CBCDF093DE05E093DD05E152FA4FB18202
:104CB000A082CD5FDE4FB881C350D14080E1B111F9
:104CC00001C084E04F0123E0820E911C8283B10178
:104CD000C4010E94B53AC95FDE4F88819981C750EF
:104CE000D1400196880E991ED401CD92DD924D01DE
:104CF000C15EDE4FE881F981CF51D140F093AE041F
:104D0000E093AD045D01C15FDE4F28813981CF5052
:104D1000D1404216530664F40E9491070E94EB377B
:104D2000D5016D937D935D01BFEF4B1A5B0AEBCF0D
:104D3000D7FE02C0D12CC12CCC0CDD1CA30170E02D
:104D400060E0C4018C0D9D1D0E94873A84CC8C01CB
:104D5000B5CC0E94620B0E943B1E8C01892B09F08E
:104D6000ADCC8091E925882309F433CC0E949107CA
:104D70000E94EB3797FF03C008E110E09FCC0E9430
:104D8000120727CC0E94620B8091EE259091EF25AF
:104D9000ECE3EE16F10409F03FC08A309105E1F52D
:104DA0000E94620B90E081E02091E925222309F422
:104DB00010CC91110ECC2CE3E216F10409F042C0A4
:104DC0006CEF811101C060E090E080E00E941D3630
:104DD0006091DF2581E090E00E941D366091E02522
:104DE00082E090E00E941D363FEDE32E35E0F32E89
:104DF00010E000E08091DF259091E0250817190769
:104E00000CF0E7CBD7016D917D01C80103960E949C
:104E10001D360F5F1F4FEECF009791F0449781F042
:104E20000E942F1E8C019F70892B09F047CC002710
:104E3000107F0115104109F07CC491E080E0B4CFEF
:104E400090E0FCCFBDE3EB16F10409F07EC40E94B4
:104E5000701081E090E00E941536C82E82E090E04C
:104E60000E941536D82ED092E025C092DF252FED76
:104E7000E22E25E0F22E10E000E00C151D050CF0EE
:104E8000A8CBC80103960E941536F70181937F01D4
:104E90000F5F1F4FF2CF0E94620B0E943B1E8C01DE
:104EA000892B09F00BCC8091E925882309F491CB5B
:104EB0000E9491070E94EB376A30710508F05CCFC1
:104EC000DB0120E030E30E94503A4B015C010E947C
:104ED000BB08C501B401705F8F4F9F4F0E94BB0894
:104EE00075016401F0E2DF0EE11CF11CC701B6019F
:104EF0000E94BB080FED15E0FE013196D8018D919F
:104F00008193CF5FDE4F28813981C150D1402E1768
:104F10003F07A9F7A101C501B4010E943B093FEF7A
:104F2000931AA30AB30A13958FED95E280179107A0
:104F300019F70091DF251091E02509831A83A1015B
:104F4000C701B6010E943B09B801110F880B990BEC
:104F50000E94750F3ECB0E94620B0E943B1E8C018B
:104F6000892B09F0ABCB8091E925882309F431CB5B
:104F70000E9491070E94EB376B019AE0C916D10499
:104F800008F0FACE0E947010D60120E030E30E94B3
:104F9000503A4B015C010E941909C501B401705ED1
:104FA0008F4F9F4F0E941909082FC501B4016F5FF1
:104FB0007F4D8F4F9F4F0E941909182F1093E025A6
:104FC0000093DF259FEDE92E95E0F92EC7018F5D57
:104FD0009540801791070CF0B7CFC501B4010E942E
:104FE0001909D7018D937D01BFEF8B1A9B0AAB0A7C
:104FF000BB0AECCF0E94620B0E943B1E8C01892BE6
:1050000009F05CCB8091EE259091EF25469709F051
:105010005DC90E94620B0E943B1E8C01892B09F026
:105020004DCB8091E925882309F4D3CA0E949107CA
:105030000E94EB37D62EC72E062F172F0E949107FE
:105040000E94EB37CB01E9E3EE16F10411F1FAE32C
:10505000EF16F10409F445C06032710514F08FE1D8
:1050600090E097FF02C090E080E09093C6058093A7
:10507000C5058D2D9C2D8830910514F087E090E0BA
:1050800097FF02C090E080E09093C4058093C30531
:10509000A0CA9B013327F901E95DF94F8491F90119
:1050A000E255F94FE490F901E657F94FF490FF20EB
:1050B00009F48FCA81110E944C06EF2DF0E0EE0F2B
:1050C000FF1FEA5AF94FA591B4918FB7F894EC916C
:1050D000012B29F4E094EE22EC928FBF7ACAEE2ADB
:1050E000FBCF6D2D0E94B10674CA0E94620BDD20B9
:1050F00009F46FCA21E3E216F10409F476C114F54C
:1051000082E2E816F10409F45BC19FE2E916F104BA
:1051100009F450C1A0E2EA16F10409F05ACA8091DC
:10512000F2259091F3259093A6048093A504809195
:10513000E5259091E6259093A4048093A30401E1D2
:1051400010E0BCCAB9E4EB16F10409F48FC144F4D1
:10515000F6E3EF16F10409F03CCA0E945710ABC801
:105160002EE4E216F10409F49EC133E5E316F104DE
:1051700009F02FCA80E00E949F1010E000E023E0B9
:1051800030E04FEC52E062E070E08CE390E00E948F
:10519000D90B23E030E04CED52E066E170E08CE3A7
:1051A00090E00E94D90B23E030E045EE52E06AE245
:1051B00070E08CE390E00E94D90B23E030E04EEEEB
:1051C00052E06EE370E08CE390E00E94D90BEE2495
:1051D000E39401E027E830E041E150E070E060E076
:1051E00090E080E00E94DA1027E830E041E150E0F2
:1051F00070E060E08EE690E00E94DA1023E047E87D
:1052000050E070E060E081E190E00E94AC1123E0AA
:1052100047E850E070E060E08EE690E00E94AC115C
:1052200001E010E023E030E047EF52E062E070E0A0
:1052300090E080E00E94D90B23E030E04BEF52E099
:1052400060E270E090E080E00E94D90B23E030E063
:105250004FEF52E06EE370E090E080E00E94D90BE7
:1052600023E030E043E053E06CE570E090E080E064
:105270000E94D90B23E030E047E053E06AE770E09A
:1052800090E080E00E94D90B23E030E04BE053E057
:1052900062E070E080E590E00E94D90B23E030E00E
:1052A0004FE053E060E270E080E590E00E94D90BAF
:1052B00023E030E043E153E06EE370E080E590E00E
:1052C0000E94D90B23E030E047E153E06CE570E049
:1052D00080E590E00E94D90B23E030E04BE153E001
:1052E0006AE770E080E590E00E94D90BE12C03E0D2
:1052F0002FE030E04FE050E063E770E089E190E0BC
:105300000E94DA10EE24E39401E02FE030E04FE059
:1053100050E063E770E08DE290E00E94DA1002E076
:105320002FE030E04FE050E063E770E086E490E08B
:105330000E94DA1003E02FE030E04FE050E063E736
:1053400070E08AE590E00E94DA1010E000E021E0D1
:1053500030E04FE153E062E570E08CE390E00E94C2
:10536000D90B30E020E040E353E062E570E088EAEA
:1053700090E00E94D90B22E030E042E453E06CE57B
:1053800070E08CE390E00E94D90B23E04CE350E006
:105390006BE670E080E490E00E94AC1102E010E067
:1053A00023E04DE550E06BE670E081E190E00E9483
:1053B000E3110FC90E94701081E08093A20409C913
:1053C0008091A5049091A604009709F402C99093D6
:1053D000E4258093E3258091A3049091A404019691
:1053E0009093E2258093E125F4C8E091A904F0911F
:1053F000AA048091AB049091AC04E817F90709F472
:105400009CC1E152FA4FA080B180C280D38000914C
:10541000A7041091A804E090DD05F090DE05C70117
:1054200081529A4FA8014E195F09BC0104960E944F
:10543000753A84E0E80EF11CF092DE05E092DD059D
:105440000C5F1F4F1093A8040093A7041093AA04A5
:105450000093A904B092E425A092E3259FEFC91A16
:10546000D90AD092E225C092E125B3C888E20E9411
:10547000B40980E10E94B40910927A0052985A9AB5
:10548000EA98809169008F7C80936900E29AEA9A99
:1054900083B7817F846083BF83B7816083BF889532
:1054A0000E94300E96C88091DD059091DE05209116
:1054B000DF253091E025821B930B0E94F40F0C94A2
:1054C0005B21A1E5EA16F10409F495C0B2E5EB16FB
:1054D000F10409F4FDC0E0E5EE16F10409F055C051
:1054E00085E090E00E944B1E8C018091E925882385
:1054F00011F40C946D210115110509F0DFC80E940B
:105500009107CD5FDE4F688379838A839B83C35085
:10551000D1400E9491076B017C010E9491074B01D1
:105520005C010E9491072B013C010E9491070E949F
:10553000EB37C95FDE4F688379838A839B83C750CB
:10554000D140C301B2010E94EB37762EC501B401F0
:105550000E94EB374B01C701B6010E94EB376B018C
:10556000CD5FDE4F688179818A819B81C350D140B4
:105570000E94EB37CB01C95FDE4F08811981C7500C
:10558000D140272DA401B60112CF84E090E00E9403
:105590004B1E8C018091E925882311F40C946D2118
:1055A0000115110509F08AC80E9491072B013C01E1
:1055B0000E9491076B017C010E9491074B015C01E5
:1055C0000E9491070E94EB37162FC501B4010E947B
:1055D000EB374B01C701B6010E94EB376B01C301EA
:1055E000B2010E94EB37CB01212FA401B6010E942A
:1055F000AC110C94E92286E090E00E944B1E8C01D5
:105600008091E925882311F40C946D210115110571
:1056100009F054C80E949107CD5FDE4F68837983FB
:105620008A839B83C350D1400E949107C95FDE4F9C
:10563000688379838A839B83C750D1400E949107F6
:105640006B017C010E9491074B015C010E94910754
:105650002B013C010E9491070E94EB37162FC301DA
:10566000B2010E94EB37062FC501B4010E94EB374F
:105670004B01C701B6010E94EB372B01C95FDE4F1A
:10568000688179818A819B81C750D1400E94EB3724
:10569000C95FDE4F688379838A839B83C750D1407B
:1056A000CD5FDE4F688179818A819B81C350D14073
:1056B0000E94EB37CB01E12E9401A201C95FDE4FBE
:1056C00068817981C750D1400E94DA100C94E92298
:1056D00081E090E00E944B1E8C018091E925882397
:1056E00011F40C946D210115110511F00C945E2339
:1056F0000E9491070E94EB37862F0E949F100C9406
:10570000E922012B11F40C944823449751F40E9490
:10571000620B8091EE259091EF25892B11F00C946E
:1057200048230DE010E00C944A2302E110E00C94B1
:105730005E2308E010E00C945E2303E110E00C947B
:105740005E2310E000E00C945E230DE010E00C946A
:105750005E231F920F920FB60F9211242F933F9347
:105760008F939F93AF93BF938091C9059091CA0582
:10577000A091CB05B091CC053091C80523E0230F53
:105780002D3758F50196A11DB11D2093C8058093B2
:10579000C9059093CA05A093CB05B093CC05809121
:1057A000CD059091CE05A091CF05B091D005019681
:1057B000A11DB11D8093CD059093CE05A093CF057B
:1057C000B093D005BF91AF919F918F913F912F9151
:1057D0000F900FBE0F901F90189526E8230F02968A
:1057E000A11DB11DD2CF1F920F920FB60F9211249F
:1057F0008F939F938091D4059091D50590938500C8
:10580000809384009091B90481E0911180E08093AD
:10581000B90481E08093BA049F918F910F900FBEDD
:105820000F901F9018951F920F920FB60F92112490
:105830008F9383B78E7F83BF8F910F900FBE0F9092
:105840001F901895789484B5826084BD84B581607A
:1058500084BD85B5826085BD85B5816085BD80913B
:105860006E00816080936E001092810080918100B3
:1058700082608093810080918100816080938100AB
:10588000809180008160809380008091B10084606D
:105890008093B1008091B00081608093B0008091CE
:1058A000910082608093910080919100816080934B
:1058B0009100809190008160809390008091A10080
:1058C00082608093A1008091A10081608093A100FB
:1058D0008091A00081608093A0008091210182606E
:1058E0008093210180912101816080932101809129
:1058F000200181608093200180917A0084608093F0
:105900007A0080917A00826080937A0080917A0098
:10591000816080937A0080917A00806880937A0019
:105920001092C10062E082E00E94B10682E08093A2
:10593000390180EC80937C0087E880937A00109294
:105940007B0084E58093770087E980937A008091DB
:105950007A00806480937A0087EE8093D30586ED89
:105960008093D20582EA8093D10561E080EB0E94AA
:10597000860861E080EB0E94510A80E58CBD81E0E1
:105980008DBD8DB58EB561E081EB0E94510A61E05D
:1059900082EB0E94510AC091D30561E08C2F0E94D6
:1059A000510A61E083ED0E94510A61E08C2F0E9450
:1059B000860861E08091D2050E94510AC091D1050C
:1059C00061E08C2F0E94510A61E08C2F0E948608B2
:1059D00062E370E080E090E00E94120760E08C2FAC
:1059E0000E94860865E070E080E090E00E94120767
:1059F00061E08C2F0E94860866E970E080E090E00C
:105A00000E9412070E94300E80E00E949F1080E0EA
:105A10000E949F100E94701080E00E949F10F894D6
:105A200010928000109281008EEE95E89093D5053B
:105A30008093D405909385008093840080918100A9
:105A400084608093810080916F00816080936F00FB
:105A500078940E94571082ED96E00E94E60F8091A4
:105A6000DD059091DE052091DF253091E025821B38
:105A7000930B0E94F40F0E94A51294EFC92E95E299
:105A8000D92E0E9451139093DB058093DA05D092B2
:105A9000D905C092D8058DE490E09093D705809306
:105AA000D6050E94E914EC010097D9F30CF00EC161
:105AB0000E94000FD092F125C092F0250E94620B47
:105AC0008091EE259091EF25029709F043C06091F7
:105AD000EA257091EB258091EC259091ED250E94AF
