:020000040000FA
:100000000C94AA040C94C9040C94C9040C94E3271E
:100010000C94C9040C94C9040C94C9040C94C9042C
:100020000C94C9040C94C9040C94C9040C94C9041C
:100030000C94C9040C94C9040C94C9040C94C9040C
:100040000C94C9040C94C9040C94C9040C94C904FC
:100050000C94C3270C94C9040C94C9040C947927FC
:100060000C94C9040C94C9040C94C9040C94C904DC
:100070000C94C9040C94C9040C94C9040C94C904CC
:100080000C94C9040C94C9040C94C9040C94C904BC
:100090000C94C9040C94C9040C94C9040C94C904AC
:1000A0000C94C9040C94C9040C94C9040C94C9049C
:1000B0000C94C9040C94C9040C94C9040C94C9048C
:1000C0000C94C9040C94C9040C94C9040C94C9047C
:1000D0000C94C9040C94C9040C94C9040C94C9046C
:1000E0000C94C9040C94C9040C94C9040C94C9045C
:1000F0000C94C9040C94C9040C94C9040C94C9044C
:100100000C94C9040C94C9040C94C9040C94C9043B
:100110000C94C9040C94C9040C94C9040C94C9042B
:10012000084AD73B3BCE016E84BCBFFDC12F3D6C5E
:1001300074319ABD56833DDA3D00C77F11BED9E4C4
:10014000BB4C3E916BAAAABE000000803F076342F1
:1001500036B79BD8A71A39685618AEBAAB558C1D5E
:100160003CB7CC5763BD6DEDFD753EF6177231BFE0
:10017000000000803F05A84CCDB2D44EB93836A956
:10018000020C50B9918688083CA6AAAA2ABE000093
:1001900000803F08000000BE922449123EABAAAA8C
:1001A0002ABECDCCCC4C3E00000080BEABAAAAAA91
:1001B0003E00000000BF000000803F000000000083
:1001C000084178D3BB4387D1133D190E3CC3BD42D0
:1001D00082AD2B3E68EC8276BED98FE1A93E4C8081
:1001E000EFFFBE01C4FF7F3F000000000000696E0A
:1001F0006600494E46006E616E004E414E004E4113
:100200004E494E495459494E46CDCCCC3D0AD72390
:100210003C17B7D13877CC2B329595E6241FB14FD8
:100220000A000020410000C84200401C4620BCBE1D
:100230004CCA1B0E5AAEC59D7400407A10F35A008A
:10024000A0724E18090010A5D4E80000E8764817FF
:100250000000E40B54020000CA9A3B000000E1F5E4
:1002600005000080969800000040420F000000A0AA
:100270008601000000102700000000E803000000D5
:10028000006400000000000A0000000000010000FF
:100290000000002C76D888DC674F0823DFC1DFAE72
:1002A00059E1B1B796E5E3E453C63AE6519976963B
:1002B000E8E6C28426EB898C9B62ED407C6FFCEF04
:1002C000BC9C9F40F2BAA56FA5F490055A2AF75C32
:1002D000936B6CF9676DC11BFCE0E40D47FEF520E4
:1002E000E6B500D0ED902E030094357705008084AC
:1002F0001E080000204E0A000000C80C33333333C0
:100300000F986E12831141EF8D2114893BE655162B
:10031000CFFEE6DB18D1844B381BF77C1D901DA463
:10032000BBE424203284725E228100C9F124ECA156
:10033000E53D274572726F72204C6F6164696E678C
:10034000004572726F7220536176696E6700426178
:100350006420706172616D65746572004572726FC0
:100360007220696E2056414C20696E70757400428F
:10037000616420737472696E6720696E64657800C9
:1003800042616420617272617920696E64657800EF
:1003900057726F6E672061727261792064696D7344
:1003A0000052455455524E20776974686F75742019
:1003B000474F535542004D697373696E6720544827
:1003C000454E20696E2049460053544F50207374A7
:1003D0006174656D656E74004E455854207769747C
:1003E000686F757420464F5200427265616B2070D1
:1003F00072657373656400426164206C696E652088
:100400006E756D6265720042616420636F6D6D612F
:100410006E64005661726961626C65206E6F742053
:10042000666F756E6400446976206279207A657221
:100430006F004F7574206F66206D656D6F72790067
:100440004C696E65206E756D62657220746F6F20E9
:1004500062696700537472696E67206578707220F4
:100460006578706563746564004E756D6572696367
:1004700020657870722065787065637465640045E6
:1004800072726F7220696E2065787072004D6973A8
:1004900073696E6720627261636B657400556E7478
:1004A00065726D696E6174656420737472696E67DC
:1004B00000556E657870656374656420696E70754B
:1004C00074004C696E6520746F6F206C6F6E6700EE
:1004D000426164206E756D626572004F4B000101D0
:1004E000637801110128633203C0F80002C30402DB
:1004F000C40502D01D02B30002B58B0138023A02D6
:1005000002360002B09F05F01212121201200129DA
:1005100000000000000000260029002C002F0032FF
:1005200000000000000000000000000000000000CB
:1005300000000000000000000000000000000000BB
:10054000000000CF0200D10200D30200D50200D784
:100550000200D90200E40200DE0200DB0200DD023C
:1005600000E00200E30200E60240E80200EA0200C6
:10057000EC02C03A03C0F00240F40240FA0240FE2E
:1005800002400303400703400C03401003401503DF
:10059000401B03402003402303C02803092C030908
:1005A000300300F602013403053903400903C03D5E
:1005B00003C04203404703C04B03404F0340550371
:1005C000405C034060030E66030E6D030F72034030
:1005D0007603407C0340850340890340910300D3A8
:1005E0000340D903409703019F0301A80340AC03D4
:1005F00040B30301B70301BB0301BF0301C2030101
:10060000C60301CA0301CE0340D20340D80340DE33
:100610000300E30301E70300EB0340F10340F703AA
:1006200040FC0340000000090A0B00000307000023
:1006300000000000000000020000000000000000B8
:1006400000000000000004050000000000000000A1
:10065000065F060000070300070300247E247E24B3
:1006600000242B6A120000631308646300364956A5
:10067000205000000703000000003E410000000081
:10068000413E000000083E1C3E080008083E0808E5
:100690000000E06000000008080808080000606032
:1006A0000000002010080402003E5149453E0000B1
:1006B000427F40000062514949460022494949367B
:1006C000001814127F10002F49494931003C4A4953
:1006D00049300001710905030036494949360006D1
:1006E0004949291E00006C6C00000000EC6C000001
:1006F0000008142241000024242424240000412264
:100700001408000201590906003E415D551E007E95
:100710001111117E007F49494936003E4141412275
:10072000007F4141413E007F49494941007F09091D
:100730000901003E4149497A007F0808087F00000E
:10074000417F410000304040403F007F081422417B
:10075000007F40404040007F0204027F007F02048F
:10076000087F003E4141413E007F09090906003EE5
:100770004151215E007F0909196600264949493225
:100780000001017F0101003F4040403F001F204029
:10079000201F003F403C403F0063140814630007E3
:1007A0000870080700714945430000007F4141007F
:1007B000000204081020000041417F0000040201F3
:1007C0000204008080808080000003070000002079
:1007D00054545478007F44444438003844444428F6
:1007E00000384444447F00385454540800087E09BB
:1007F00009000018A4A4A47C007F04047800000071
:10080000007D4000004080847D00007F102844006F
:100810000000007F4000007C04180478007C040481
:10082000780000384444443800FC444444380038DC
:10083000444444FC004478440408000854545420C0
:1008400000043E442400003C40207C00001C20406A
:10085000201C003C6030603C006C10106C00009C60
:10086000A0603C00006454544C0000083E4141002C
:10087000000000770000000041413E080002010234
:100880000100003C2623263C627974657320667261
:1008900065650000000000250000002B002E0031DF
:1008A0000034000000000000000000000000000014
:1008B00000240000002A002D00300033000000005A
:1008C00000000000000000050505050505050502FE
:1008D00002020202020404070707070404040404D6
:1008E00004060606060606060602020102040810B1
:1008F00020408020100104080202010102042004AB
:1009000008102040800102040810204080408041EF
:10091000726475696E6F20424153494300DB04D015
:1009200004C204B1049D048D047F0469045404408E
:10093000043204260413040704F703E903D803C9A7
:1009400003B603A103900380036F035C034E0341CE
:100950000333030011241FBECFEFD1E4DEBFCDBFB0
:1009600014E0A0E0B2E0E0E0F3E700E00BBF02C07B
:1009700007900D92A230B107D9F725E2A2E0B4E0CA
:1009800001C01D92AB3BB207E1F70E94F2270C9425
:100990007E390C9400008150823108F058C0E82F55
:1009A000F0E0EB52FB4F0C940336F504F904E70436
:1009B000ED04F1042705FC04020506050C051005ED
:1009C00014051A051E052705220528052C0580910A
:1009D00080008F77809380000895809180008F7DC4
:1009E000F9CF80918000877FF5CF84B58F7784BD64
:1009F000089584B58F7DFBCF8091B0008F77809371
:100A0000B00008958091B0008F7DF9CF8091900063
:100A10008F77809390000895809190008F7DF9CF1B
:100A200080919000877FF5CF8091A0008F77809391
:100A3000A00008958091A0008F7DF9CF8091A00043
:100A4000877FF5CF809120018F77809320010895D3
:100A5000809120018F7DF9CF80912001877FF5CF94
:100A6000CF93DF9390E0FC01E551F74F2491895338
:100A7000974FFC0184918823C9F090E0880F991F5B
:100A8000FC01E355F74FA591B491FC01ED56F74FEA
:100A9000C591D49161110DC09FB7F8948C912095A8
:100AA00082238C938881282328839FBFDF91CF9155
:100AB0000895623051F49FB7F8943C91822F80954D
:100AC00083238C93E8812E2BEFCF8FB7F894EC9192
:100AD0002E2B2C938FBFEACF3FB7F894809145051A
:100AE00090914605A0914705B091480526B5A89B71
:100AF00005C02F3F19F00196A11DB11D3FBFBA2FB0
:100B0000A92F982F8827BC01CD01620F711D811D6F
:100B1000911D42E0660F771F881F991F4A95D1F7F4
:100B200008958F929F92AF92BF92CF92DF92EF92F1
:100B3000FF926B017C010E946C054B015C01C114AA
:100B4000D104E104F104B9F00E946C056819790937
:100B50008A099B09683E73408105910580F321E075
:100B6000C21AD108E108F10888EE880E83E0981EC9
:100B7000A11CB11CE4CFFF90EF90DF90CF90BF900D
:100B8000AF909F908F9008958091662590916725F2
:100B90009C012751310922303105F8F08E30910542
:100BA000F9F081319105E1F0285F3F4F22303105A6
:100BB000D0F02350310922303105A8F0285F3F4F93
:100BC0002230310598F0225031092230310510F0E1
:100BD0008E9779F488E290E0089585E090E008959A
:100BE0008AE090E0089584E190E008958EE190E03D
:100BF00008958FEF9FEF089580912504909126042A
:100C0000FC01EB5AFA4F208131812E5F3F4F821B4E
:100C1000930B9093260480932504895A9A4F089544
:100C20008091250490912604049790932604809344
:100C30002504895A9A4FFC016081718182819381D8
:100C400008958F929F92AF92BF92CF92DF92EF92D0
:100C5000FF920F931F93CF93DF93EC015B01E88129
:100C6000F981C190D190F983E8830E9410060E9417
:100C7000BB3384E190E0C616D706B9F5F12CE12C20
:100C800088248394912C10E000E0EC14FD0444F5DA
:100C90000E9410060E94BB33E881F981A191B191B5
:100CA000F983E883161617066CF5A617B70754F1F3
:100CB000AB0141505109489D9001499D300D589D0F
:100CC000300D1124020F131FC4018A9F40018B9F16
:100CD000900C9A9F900C11249FEFE91AF90AD5CF36
:100CE000F5011183008390E080E0DF91CF911F91A7
:100CF0000F91FF90EF90DF90CF90BF90AF909F90BB
:100D00008F90089585E190E0F0CF409125045091B7
:100D100026049A012C5F3F4FE0915505F09156054E
:100D2000E217F30770F0FA01E95AFA4F6083718312
:100D300082839383309326042093250481E090E0FE
:100D4000089590E080E00895CF93DF931F92CDB790
:100D5000DEB7898389818EBD00000DB407FEFDCF0B
:100D60008EB50F90DF91CF910895982FFB01DA0196
:100D70008770907F903D29F128F4903A41F0903BA4
:100D8000A1F00895903E49F1903F99F10895232BE9
:100D900049F424E330E02D933C9323E330E03183A6
:100DA0002083089522E330E0F6CF232B39F425E2A7
:100DB00030E02D933C9324E230E0F1CF23E230E0A9
:100DC000F8CF232B39F42BE230E02D933C932AE229
:100DD00030E0E5CF29E230E0F8CF232B39F42EE2E2
:100DE00030E02D933C932DE230E0D9CF2CE230E07F
:100DF000F8CF232B39F421E330E02D933C9320E30B
:100E000030E0CDCF2FE230E0F8CF1F93CF93DF93C8
:100E100000D000D0CDB7DEB7162F30E020E0AE0115
:100E20004F5F5F4FBE016D5F7F4F0E94B506E98146
:100E3000FA81111115C0408121E030E0B90102C0F2
:100E4000660F771F8A95E2F7CB0180958423808314
:100E50000F900F900F900F90DF91CF911F910895F9
:100E6000908121E030E001C0220F8A95EAF7892FB6
:100E7000822BEDCF1F93CF93DF93C72FD82F60E046
:100E800083ED0E94050785E00E94A40680E00E9491
:100E9000A406182F61E083ED0E94050710FD3BC0FA
:100EA00060E083ED0E94050786E00E94A40661E0F1
:100EB00083ED0E94050760E083ED0E94050780E254
:100EC0000E94A4068D2F0E94A4068C2F0E94A406C7
:100ED00080E00E94A40661E083ED0E94050760E0C7
:100EE00083ED0E940507C8E7D0E011E010FF16C0AF
:100EF00085E00E94A40680E00E94A406182F61E00D
:100F000070E080E090E00E949105219779F761E020
:100F100083ED0E94050790E080E006C061E083ED6C
:100F20000E94050781E090E0DF91CF911F91089525
:100F30001F93CF93DF93EB01182F60E083ED0E94A6
:100F4000050783E00E94A406812F0E94A4068D2F2E
:100F50000E94A4068C2F0E94A40680E00E94A40692
:100F6000C82F61E083ED0E9405078C2FDF91CF91A0
:100F70001F910895FF920F931F93CF93DF93C72F75
:100F8000D82F8A0160E083ED0E94050785E00E946A
:100F9000A40680E00E94A406F82E61E083ED0E9482
:100FA0000507F0FC51C060E083ED0E94050781E079
:100FB0000E94A40680E00E94A40661E083ED0E94E6
:100FC000050760E083ED0E94050786E00E94A40605
:100FD00061E083ED0E94050760E083ED0E94050754
:100FE00082E00E94A4068D2F0E94A4068C2F0E94EE
:100FF000A40680E00E94A406E801139589910E944E
:10100000A406C017D107D1F761E083ED0E94050760
:1010100060E083ED0E940507C4E1D0E011E010FF1D
:1010200016C085E00E94A40680E00E94A406182F46
:1010300061E070E080E090E00E949105219779F7EF
:1010400061E083ED0E94050790E080E006C061E06A
:1010500083ED0E94050781E090E0DF91CF911F9121
:101060000F91FF9008951F93CF93DF93182FC09196
:101070004B0560E08C2F0E940507D0914A0560E087
:101080008D2F0E940507812F0E94A40661E08D2FFD
:101090000E94050761E08C2FDF91CF911F910C9486
:1010A0000507CF92DF92EF92FF921F93CF93DF93CA
:1010B0007C016B0110914B0560E0812F0E940507B8
:1010C000E701CE018E199F098C159D0524F48991A5
:1010D0000E94A406F6CF61E0812FDF91CF911F918E
:1010E000FF90EF90DF90CF900C940507CF92DF92A6
:1010F000EF92FF920F931F93CF93DF9300D000D016
:10110000CDB7DEB78C01E62E6A01F22E8AE20E948C
:101110003308198223E030E0C801B9010E94EF359D
:101120006A831B82C8018C0D9D1D0197B9010E9425
:10113000EF356C8364E070E0CE0101960E945108A7
:101140008BE20E9433081982EA821B82FA94FE0C19
:10115000FC8264E070E0CE0101960E9451088CE2AE
:101160000E9433080F900F900F900F90DF91CF9156
:101170001F910F91FF90EF90DF90CF9008958038EE
:10118000E1E09E0764F4603A71054CF44138E1E017
:101190005E072CF4213A310514F40C947608089576
:1011A0001F93CF93DF9300D000D0CDB7DEB7162FBB
:1011B00030E020E0AE014F5F5F4FBE016D5F7F4FBB
:1011C0000E94B506EB81FC81113029F1408121E0BC
:1011D00030E0B90102C0660F771F8A95E2F7CB01B4
:1011E000123059F08095842380830F900F900F90D8
:1011F0000F90DF91CF911F910895942F982B90839A
:10120000E981FA819081982B9083EB81FC81908118
:1012100080958923E9CF908121E030E001C0220F41
:101220008A95EAF7892F822BDFCF7F928F929F9248
:10123000AF92BF92CF92DF92EF92FF920F931F93E4
:10124000CF93DF9300D000D0CDB7DEB702EC12E031
:1012500062E0F80181918F010E94D008F2E0083C21
:101260001F07B1F78AE0ECE0F4E0A2E0B4E00190FF
:101270000D928A95E1F79CE0E92E94E0F92E28EB97
:10128000A22E22E0B22E8701F8011082F5017190A2
:101290005F0161E0872D0E94D00860E0872D0E94E9
:1012A000050782EC882E82E0982ED12CC12C21E0FB
:1012B00030E0AE014D5F5F4FBE016F5F7F4FF401C5
:1012C00081914F010E94B506EB81FC81208130E0C5
:1012D00002C0359527958A95E2F720FD0BC021E0E5
:1012E00030E00C2C01C0220F0A94EAF7F80180814B
:1012F000822B8083FFEFCF1ADF0A86E0C816D10465
:10130000B1F661E0872D0E94050760E0872D0E94FD
:10131000D0080F5F1F4FE4E006311E0709F0B4CF7D
:1013200070910C04172F18707071A2E0B4E030E0D7
:1013300020E080E00AE0F701D1907F0150E040E03A
:1013400061E0C22E9D2D962396131DC09C9196237D
:10135000D1F4C11004C09DEF940F9230A0F088E743
:1013600092E0111106C080E092E0711102C08CE39E
:1013700092E0049FF001059FF00D1124E80FF91F82
:10138000E20FF31F8081660F4F5F5F4F46305105BC
:10139000C9F62F5F3F4F11962A30310561F60F9045
:1013A0000F900F900F90DF91CF911F910F91FF90B1
:1013B000EF90DF90CF90BF90AF909F908F907F90F5
:1013C0000895CF93DF93FC0120813181C0915505B1
:1013D000D0915605CE01895A9A4FC20FD31F8E174E
:1013E0009F0739F4D0935605C0935505DF91CF91EF
:1013F0000895AF01481B590BBC01820F931F0E9437
:101400004536F0CFCF92DF92EF92FF920F931F936A
:10141000CF93DF930091250410912604F801EB5A35
:10142000FA4F208131817C014FEFE41AF40AE21671
:10143000F306F4F4EC01C9010296081B190B109392
:10144000260400932504C801895A9A4F6C01CE0CDA
:10145000DF1C672BB1F4F60131971082F601F1829F
:10146000E08223960C0F1D1F109326040093250481
:10147000DF91CF911F910F91FF90EF90DF90CF9070
:101480000895B9016E197F09680F791FA7010E949D
:101490004536E4CF80EEEBE5F4E0ABE3B4E0019059
:1014A0000D928A95E1F740E250E060E270E08BE156
:1014B00095E00E94573648E050E061E070E083E339
:1014C00094E00E94573680913B0590913C0501972E
:1014D00090933C0580933B050895CF93DF93109242
:1014E0003E0510923D0580913B0590913C0501968B
:1014F00090933C0580933B05089711F40E944A0A9B
:10150000C0913B05D0913C05CE0125E0880F991F85
:101510002A95E1F740E250E060E270E0855C9B4F85
:101520000E945736CD5CDB4F81E08883DF91CF91FD
:101530000895CF93DF93C0913B05D0913C0525E002
:10154000CC0FDD1F2A95E1F720913D0530913E0536
:10155000C20FD31F9E01D7FF02C0215E3F4F95E00F
:10156000359527959A95E1F7F901ED5CFB4F91E0F0
:1015700090839E012F5F3F4FFE01E55CFB4F808310
:101580002F3F310531F02CF00E944A0A9E012F5165
:101590003109C90160E270E00E94EF3590933E0589
:1015A00080933D0537FF02C0215E3F4F85E03595B2
:1015B00027958A95E1F730933C0520933B05DF9111
:1015C000CF9108952F923F924F925F926F927F92A8
:1015D0008F929F92AF92BF92CF92DF92EF92FF9243
:1015E0000F931F93CF93DF938B01382E292E6B011E
:1015F000E82EF92ED0E0C0E0812C912C5401839488
:101600002AE0422E512C612C712C2196AAE0B0E0E8
:10161000A50194010E944C324B015C01C701B60147
:10162000A30192010E942D3269017A01C114D104F3
:10163000E104F10451F7F12CE12C8AE0482E512C01
:10164000612C712CC501B401A30192010E942D32BD
:1016500049015A01B801832D922D0E942D32CA01F1
:10166000B901A30192010E942D3280E3860F0E94EE
:10167000990A8FEFE81AF80ACE15DF0519F7CE019F
:10168000DF91CF911F910F91FF90EF90DF90CF905E
:10169000BF90AF909F908F907F906F905F904F9092
:1016A0003F902F900895CF93DF93EC01FE0184913A
:1016B0002196882319F00E94990AF8CFDF91CF91E3
:1016C0000895CF93DF93EC010E946D0ABE0190E074
:1016D00080E00E94E20A80E20E94990A88E898E08D
:1016E000DF91CF910C94530BFF920F931F93CF93E5
:1016F000DF93C0913B05D0913C0525E0CC0FDD1F69
:101700002A95E1F720913D0530913E05C20FD31F88
:101710008C01FF24F394F80181918F019E01D7FF82
:1017200002C0215E3F4F95E0359527959A95E1F7E8
:101730008823B9F02D5C3B4FF901F082CE01019670
:10174000F80131972081FE01E55CFB4F20838F3F3C
:10175000910529F024F00E944A0ACE014F97EC012E
:10176000DACFCE0160E270E00E94EF3590933E0543
:1017700080933D0530933C0520933B05DF91CF914D
:101780001F910F91FF90089540E051E060E270E0FA
:101790008BE394E00E94573648E050E061E070E04F
:1017A00083E394E00E94573610923E0510923D0567
:1017B00010923C0510923B05089510925825109206
:1017C0005725109226041092250480E090E2909311
:1017D0002404809323049093220480932104909303
:1017E000200480931F049093560580935505E7E5E8
:1017F000F5E0DF019C011D9221503040E1F710928D
:101800001E0410921D0410921C0410921B041092CE
:101810006B2510926A250895EF92FF920F931F9304
:10182000CF93DF93CDB7DEB7C058D1090FB6F89488
:10183000DEBF0FBECDBFE82E20EA30E040E851E029
:1018400070E060E090E080E00E94760800EA10E03E
:10185000F12C40E850E0B701CE0101960E945736C6
:1018600060E870E0CE0101960E9451080150110914
:1018700081F7C058DF4F0FB6F894DEBF0FBECDBF63
:10188000DF91CF911F910F91FF90EF9008958F926C
:101890009F92AF92BF92CF92DF92EF92FF920F93FF
:1018A0001F93CF93DF934B015C01EA0120E030E00E
:1018B000A9010E94422F811111C080E388831982FF
:1018C000CE01DF91CF911F910F91FF90EF90DF90AC
:1018D000CF90BF90AF909F908F9008957501640155
:1018E000E894F7F827E137EB41ED58E3C701B6017B
:1018F0000E94422F87FD0AC020E034E244E759E409
:10190000C701B6010E94AF34181644F400E026E087
:10191000AE01C501B4010E94B32AD2CFC701B601FE
:101920000E94F6340E94F13320E030E040E85FE3AB
:101930000E946F320E94BB3327E030E07901E61A43
:10194000F70A8E012E2D41E0C501B4010E94352B0E
:10195000FE01EF2809F4B4CF9F012F5F3F4F808134
:10196000811108C0DF011197FD018C91803321F4B2
:101970001C92F8CFF901F0CF8E3209F0A1CF10827E
:101980009FCF0F931F93CF93DF93C0916825D09182
:101990006925D0931904C0931804FE013196F09381
:1019A0006925E0936825088110E01093672500936E
:1019B00066250130110531F5A8E2B4E030E020E001
:1019C0008191A9014F5F5F4F87FD03C08D939A01FD
:1019D000F7CFF0936925E09368258058285D3B4F49
:1019E000F901808391E0843209F090E0909327041C
:1019F000485D5B4FFA011082C801DF91CF911F91C2
:101A00000F9108950330110591F489819A81AB817A
:101A1000BC818093622590936325A0936425B09345
:101A200065252596D0936925C0936825E5CF0230BA
:101A3000110579F469817A818B819C810E94492FFB
:101A40006093622570936325809364259093652548
:101A5000E8CF0430110581F6F0931704E0931604E3
:101A600001900020E9F7F0936925E0936825C4CF41
:101A70002F923F924F925F926F927F928F929F929E
:101A8000AF92BF92CF92DF92EF92FF920F931F938C
:101A9000CF93DF93CDB7DEB7C656D1090FB6F89412
:101AA000DEBF0FBECDBF93E3492E94E0592E912C9B
:101AB000812CD12CC12C7E012DE5E20EF11CCE0132
:101AC0008F5B9F4FA2969FAF8EAFA297D2018D9151
:101AD0002D0181110DC080913F05882309F401C1BA
:101AE00080913B0590913C058C159D0509F0F9C04E
:101AF000F60184E0EE0FFF1F8A95E1F7A696FFAF8F
:101B0000EEAFA6979401255C3B4FA4963FAF2EAF56
:101B1000A497B12CA12CA4962EAD3FADA497281963
:101B200039092B533440A496AEADBFADA4978D9127
:101B3000A496BFAFAEAFA49780320CF480E2409180
:101B40003D0550913E054217530779F420913B051E
:101B500030913C052C153D0541F490913F059923AA
:101B600021F09091310491118FE5282F082E000C5F
:101B7000330B3F938F93ECECF2E0FF93EF931F92C4
:101B800082E08F93FF92EF920E949A363501F7011F
:101B900001900020E9F731978F010E191F092CE001
:101BA000209FC001219F900D11248A0D9B1D0FB60F
:101BB000F894DEBF0FBECDBF813891404CF080E875
:101BC00091E08A199B096CE070E00E94EF358B016F
:101BD0001701C1018E199F09801791070CF075C07C
:101BE000F10181911F018052990BF6E0F89FB0013D
:101BF000F99F700D1124685B794F46E050E0CE01EB
:101C00008B5A9F4F0E941A2F66967FAD66976796F4
:101C10004FAD679768962FAD6897A7962FAFA79798
:101C200069965FAD69976A966FAD6A976B963FAD9F
:101C30006B97FE01319681E0982F972320E009F001
:101C40002CEF982F942309F43CC0236090EEA796C4
:101C5000BFADA797B82309F09F61248320839583A4
:101C60009183982F952320E009F02CEF982F96234D
:101C700051F1236090EEB32FB82309F09F612683C2
:101C80002283978393833896880FA296AEADBFAD1B
:101C9000A297EA17FB0781F620E130E04CE050E024
:101CA000A6966EAD7FADA697C3010E94BF0860E403
:101CB00070E0CE0101960E945108BCE06B0E711CD1
:101CC00088CF90E0C4CF90E0D6CFECE0AE0EB11C50
:101CD000F0E8AF16F1E0BF0609F01DCFF201319731
:101CE00010822FEFC21AD20A30E2830E911C88E0D4
:101CF000C816D10409F0EACECA59DF4F0FB6F894DE
:101D0000DEBF0FBECDBFDF91CF911F910F91FF902E
:101D1000EF90DF90CF90BF90AF909F908F907F908B
:101D20006F905F904F903F902F900895CF92DF92E9
:101D3000EF92FF920F931F93CF93DF9381E08093F5
:101D40003F0580913D0590913E05892B09F064C0C7
:101D500080913B0590913C0575E0880F991F7A951D
:101D6000E1F740E250E060E270E0855C9B4F0E944A
:101D70005736C0913B05D0913C0555E0CC0FDD1F97
:101D80005A95E1F780913D0590913E05C80FD91F06
:101D90008E01D12CCC24C39460E2E62EF12C0E945B
:101DA0001509882309F465C09E01D7FF02C0215E92
:101DB0003F4F45E0359527954A95E1F7F901ED5CF0
:101DC000FB4FC08290EE980F9F3548F5FE01E55C11
:101DD000FB4F80832196CE01B7010E94EF3590938F
:101DE0003E0580933D05CE01D7FD4F9635E0959594
:101DF00087953A95E1F790933C0580933B050897CA
:101E000041F400321105DCF000521109A0970E9444
:101E10004A0AC0923204C3CF0E946D0AAACF823010
:101E200049F40C171D07BCF62197FE01E55CFB4F3A
:101E30001082D1CF8D3079F6DD24D394CCCF219789
:101E4000FE01E55CFB4F1082CE01B7010E94EF3529
:101E500090933E0580933D05CE01D7FD4F9625E03A
:101E6000959587952A95E1F790933C0580933B05DE
:101E7000D0CF8091320481110E94380DDD2009F409
:101E80008ECFC55CDB4F188210923F05E0913B0579
:101E9000F0913C05ED5CFB4F81E080830E94380DA2
:101EA000C801855C9B4FDF91CF911F910F91FF90EF
:101EB000EF90DF90CF900895EF92FF920F931F93D2
:101EC000CF93DF9300D000D0CDB7DEB78EEDE82EF4
:101ED00084E0F82EC7010196F7010491033659F406
:101EE000F2E0EF0EF11CFC01649170E090E080E004
:101EF0000E949105EFCF0023C1F0F2E0EF0EF11C3C
:101F0000FC0184910E943308015021F310E0A801E4
:101F1000B701CE0101960E941A2FE00EF11EB80102
:101F2000CE0101960E945108D5CF0F900F900F90CF
:101F30000F90DF91CF911F910F91FF90EF90089537
:101F4000CF92DF92EF92FF920F931F93CF93DF9385
:101F5000EC0109900020E9F72197C81BD90B6E010D
:101F60002FEFC21AD20AE0902504F09026049701C0
:101F70002C0D3D1D2F5F3F4F40915505509156054B
:101F800024173507F4F4BC018701095A1A4FC80118
:101F90000E948536F801EC0DFD1DD182C08223968A
:101FA000CE0DDF1DD0932604C093250481E090E080
:101FB000DF91CF911F910F91FF90EF90DF90CF9025
:101FC000089590E080E0F4CFCF92DF92EF92FF92FD
:101FD0000F931F93CF93DF937C016B01C091550545
:101FE000D0915605C95ADA4F00911F041091200470
:101FF000095A1A4FC017D10790F48A8190E08C21BA
:102000009D21892B39F0B701CE0103960E945E36DF
:10201000892B39F088819981C80FD91FEBCFD0E087
:10202000C0E0CE01DF91CF911F910F91FF90EF9013
:10203000DF90CF9008958F929F92AF92BF92EF92D0
:10204000FF920F931F93CF93DF937C014A015B01B3
:10205000EC0109900020E9F72197C81BD90B63E038
:1020600070E00E94E40F009799F0C80FD91F8C828E
:102070009D82AE82BF8281E090E0DF91CF911F917F
:102080000F91FF90EF90BF90AF909F908F90089529
:10209000CE010896E0915505F0915605E81BF90B25
:1020A0002091250430912604E217F307C4F0F09341
:1020B0005605E0935505E95AFA4F918380838F01C5
:1020C0000D5F1F4F81E08283B701C8010E948536F2
:1020D000C00FD11F89829A82AB82BC82CCCF90E0A4
:1020E00080E0CBCF8F929F92AF92BF92CF92DF9240
:1020F000EF92FF920F931F93CF93DF93CDB7DEB78D
:102100002B970FB6F894DEBF0FBECDBFC09052051F
:10211000D0905305D601BD908D01EB2CF12CC70159
:102120000E94112F892B89F5D0925305C092520538
:10213000B1102DC0E0915005F0915105CF010196ED
:102140009093510580935005108280914E05909197
:102150004F05019790934F0580934E05EE24EA9426
:10216000FE2CC7012B960FB6F894DEBF0FBECDBF75
:10217000DF91CF911F910F91FF90EF90DF90CF9063
:10218000BF90AF909F908F9008956801C3CFC70113
:10219000C0970A9718F0BEE2BB1291C0FE013196BB
:1021A00090E080E0F12CE12C8F014C2D3D2DD601EB
:1021B0002D916D012E32B1F4E114F10481F04093C0
:1021C000520530935305CDCF8A30910571F7D092E7
:1021D0005305C0925205EE24E394F12CC2CFEE24B5
:1021E000E394F12C01962193D6012C91622F605338
:1021F000770B6A30710540F32E3231F3D0925305DC
:10220000C0925205800F911FDC011C9280914E05F7
:1022100090914F05863091050CF454C10597909329
:102220004F0580934E05E114F10431F54AE050E08A
:1022300070E060E0C8010E940B2D4B015C01B1E031
:102240008B1A9108A108B0E8BB0AEEEF8E16EFEFEB
:102250009E06AE06BE0680F4E0915005F091510551
:1022600022E0208361837283838394833596F09385
:102270005105E093500575CFE0905005F090510561
:10228000C7010196909351058093500583E0D701D3
:102290008C9370E060E0C8010E94AD2BF701618370
:1022A00072838383948380915005909151050496A5
:1022B0009093510580935005F12CE12C52CFC7012A
:1022C0000E9434367C01892B09F4E1C01093530538
:1022D00000935205B982CC24C394D12CD801BD906F
:1022E0007D018B2D90E00E942736892B19F4B4E2F2
:1022F000BB1211C0E8E0CE16D1045CF4E1E0F0E0DE
:10230000EC0FFD1FEC0DFD1DB082A6014F5F5F4F6E
:102310006A018701E3CF1093530500935205E1E072
:10232000F0E0EC0FFD1FEC0DFD1D108250E7852E37
:1023300055E0952E67E1A62EB12CF40165917491BC
:10234000CE0101960E945E367C01892B09F050C0B7
:1023500080914E0590914F05823091050CF4B2C0EA
:10236000019790934F0580934E05E0915005F091B1
:102370005105CF0101969093510580935005A0829D
:102380005FE1A516B10409F0ECCE6F0162E0C60E64
:10239000D11CD0925105C092500584E08183580130
:1023A0007FEFA71AB70AD8018C9190E00E94112FF5
:1023B0007C01892B89F41093530500935205F60193
:1023C000402F312FD8012D918D01BFEFCB1ADB0AA1
:1023D000222321F02083F3CF8501E1CF40935205E2
:1023E00030935305D0925105C09250051082B9CE5A
:1023F000EFEFAE1ABE0AF3E08F0E911C23E5A21692
:10240000B10409F09ACF64E270E0CE0101960E9417
:102410007136009769F096012150310941E050E092
:102420004C0F5D1F240F351F8217930709F0F9C069
:1024300096012F5F3F4F80914E0590914F052817D1
:1024400039070CF03FC0821B930B90934F0580938C
:102450004E05009150051091510578015FEFE51A86
:10246000F50A81E0D8018C93BE016F5F7F4FC701F1
:102470000E948536F801EC0DFD1D80818068808307
:10248000CE0CDF1CD0925105C092500515CFB2E2A0
:10249000BB124CC0E0915005F0915105DF0111963F
:1024A000B0935105A093500584E0808380914E0540
:1024B00090914F05019790934F0580934E05823080
:1024C000910524F442E0E42EF12C4BCEF801109358
:1024D0005305009352056D0186016081662309F45E
:1024E000A4C0A6014F5F5F4F9C01215031096232A9
:1024F00039F4CF0101966181623209F0A6C0FC0176
:102500006A018081D8018C93C9013196213031054F
:1025100019F7F0935305E0935205509351054093FA
:10252000500530934F0520934E05CCCFBFE3BB122F
:102530001EC080914E0590914F051816190614F68D
:10254000E0915005F09151059F012F5F3F4F30936F
:102550005105209350052AE12083019790934F0560
:1025600080934E051093530500935205FACDE7E290
:10257000BE1215C080914E0590914F051816190690
:102580000CF0A0CFE0915005F09151059F012F5F15
:102590003F4F30935105209350052FE1DDCF2DE6BD
:1025A000822E25E0922E36E1A32EB12CF401A591C6
:1025B000B491FD0101900020E9F731978F010A1BCA
:1025C0001B0BF40185919491A801B6010E948C36F1
:1025D0007C01892BD9F4E0915005F0915105CF0190
:1025E00001969093510580935005A08280914E05ED
:1025F00090914F05019790934F0580934E05C00E23
:10260000D11ED0925305C0925205ABCDF1E0AF1A66
:10261000B10823E0821A910847E0A416B10409F03A
:10262000C5CF83E0E82EF12C9CCDF0935305E093C9
:102630005205D0925105C092500590934F0580935A
:102640004E0594E0E92EF12C8CCD909353058093A8
:1026500052055093510540935005D6011C9230937A
:102660004F0520934E057DCD6F927F928F929F9262
:10267000AF92BF92CF92DF92EF92FF920F931F9390
:10268000CF93DF93CDB7DEB764970FB6F894DEBF74
:102690000FBECDBFE0906625F09067256AE2E61692
:1026A000F1040CF04CC078E2E716F1040CF07EC0A7
:1026B00088E0E816F10409F4DEC1ECF4E4E0EE167B
:1026C000F10464F4F2E0EF16F1040CF0B6C1EA9400
:1026D000EF2809F4D1C006E010E0B8C074E0E716B6
:1026E000F104C9F7809161258111BBC10E94C10C21
:1026F00000E010E1ABC087E2E816F1040CF0CEC1B7
:1027000095E2E916F1040CF051C0EBE0EE16F1048D
:1027100021F0F9E1EF16F104F1F60E94C10C0E94DC
:1027200034138C011F700115110509F0ECC38827C3
:10273000907F892B09F4EBC107E010E087C060E4CB
:10274000E616F10434F57EE3E716F1047CF583E345
:10275000E816F1040CF4BFCF96E3E916F10434F166
:10276000EBE3EE16F10409F0B6CF0E94C10C8091A4
:102770006125882309F45EC16091540561111092AE
:102780005405062E000C770B880B990B0E94492FDD
:10279000FFC0FCE4EF16F10409F495C10CF04CC045
:1027A000C70182549109079708F095CFF701EE0F02
:1027B000FF1FEE0DFF1DE35DFA4F14910E94C10C47
:1027C0008091662590916725089709F09EC3612E38
:1027D000712C0E94C10C1370C12ED12C530133E017
:1027E000B594A7943A95E1F777E0A722BB24912C02
:1027F000812C8C149D040CF0BCC10E94BB198C016F
:102800009F70892B19F50027107FA0FCABC1012B0D
:1028100009F092CFB594A7949FEF891A990A8C1466
:102820009D043CF78091662590916725469709F0B5
:1028300052CF0E94C10CDDCF7DE4E716F10409F40C
:10284000B5CF8EE4E816F10409F045CFC8016496CF
:102850000FB6F894DEBF0FBECDBFDF91CF911F91B1
:102860000F91FF90EF90DF90CF90BF90AF909F902F
:102870008F907F906F90089510916125112331F012
:1028800068E274E0CE0101960E948536E09027044C
:102890000E2C000CFF080E94C10C809166259091BF
:1028A0006725089709F07AC00E94001A8C01892BCD
:1028B00069F680916125882309F4B9C08E010F5F04
:1028C0001F4FEF28B1F160E170E0C8010E94E40FF2
:1028D0009C8B8B8B009719F40CE010E0B7CFF801BC
:1028E00001900020E9F79F01201B310B2D5F3F4F26
:1028F000820F931F9C8B8B8BBE016F5E7F4FCE012F
:1029000043960E9421068C01892B09F09FCF2989CB
:102910003A898B899C89021713070CF05DC0FC0172
:102920004081411102C00F5F1F4F01969C8B8B8B22
:10293000F0CF64E070E0C8010E94E40F9C8B8B8BA9
:10294000009751F2F80101900020E9F79F01201B48
:10295000310B2D5F3F4F820F931F9C8B8B8BBE01E2
:102960006F5E7F4FCE0143960E9421068C01892B1A
:1029700009F06CCF89899A89880F991F880F991F50
:10298000EB89FC89E80FF91F608171818281938155
:102990000E948506892B09F04DC023C0112309F43C
:1029A00046C08E010F5F1F4FEF28F1F068E070E026
:1029B000C8010E94E40F009709F48ECFF80101903E
:1029C0000020E9F79F01201B310B2D5F3F4F820F45
:1029D000931F009709F480CF0E94A00F892B09F064
:1029E00087CE0AE010E032CF63E070E0C8010E94B9
:1029F000E40F009709F470CFF80101900020E9F787
:102A00003197E01BF10BE80FF91FC480D580E680F9
:102A1000F7802FEF3FEF4FE75FE7C701B6010E9456
:102A2000422F882309F458CFC701B601B1CFEF2850
:102A300009F05ECE10E000E009CF809161258111A0
:102A400003C00E94C10CF6CF60916225709163258E
:102A500080916425909165250E948506892B89F7D0
:102A6000C0CF80911604909117040E94A00F892B6B
:102A700009F03CCEB6CF0E94C10C0E94BB198C015C
:102A80009F70892B09F0E2CE809166259091672591
:102A9000099709F03AC20E94C10CD8CE0E94C10C1D
:102AA00080916125882331F20E949E2BBC01990FF1
:102AB000880B990B0E94492F20E03EEF4FEF56E420
:102AC0000E940F3365CF0E94C10C80917A00806410
:102AD00080937A0080917A0086FDFCCF2091780067
:102AE0008091790090916125992309F4A3CF90E01A
:102AF000982F8827820F911D26E0289FB001299FDB
:102B0000700D112490E080E00E94472F41CFFBE040
:102B1000EF16F104B9F069E1E616F10409F0DBCD36
:102B200080916125882309F485CF0E94100620E05A
:102B300030E0A9010E94422F882379F060E070E024
:102B4000CB0108C080916125882309F473CF0E94CE
:102B5000100690580E94850679CE60E070E080E80B
:102B60009FE3F8CF0115104109F454CE08E010E0BE
:102B70006DCE80916125882309F439C0F701B5979E
:102B8000E932F10508F0A7CDE853FA4E0C9403366C
:102B9000121662166B13F11506166B136B136B137B
:102BA0006B136B136B136B136B136B13CE16DA165D
:102BB000E6166B136B136B136B136B136B136B13A7
:102BC0006B1334175E176B136B1325162A16341606
:102BD000441649164E1653166B136B136B136B1377
:102BE0002F160E9410060E94F1330E9485068091E4
:102BF000662590916725099709F087C18301102FF9
:102C00000027110F110F0027107145CF0E941006E9
:102C1000AE014F5F5F4F0E94470C0E94A00F892BAF
:102C200031F7DFCE0E94FC05FC0101900020E9F79E
:102C30003197BF01681B790B072E000C880B990B8D
:102C40000E94492F0E948506EACF0E9410060E942A
:102C50008235F8CF0E9410060E940A33F3CF0E94FB
:102C600010060E94DB32EECF0E94100620E030E01A
:102C7000A9010E94AF3418161CF40E941006E2CF7E
:102C80000E9410069058DECF0E9410060E94063562
:102C9000D9CF0E9410060E948933D4CF0E9410061B
:102CA0000E949035CFCF0E9410060E94BB33611561
:102CB000710511F277FF03C06FEF7FEFBDCF61E0C9
:102CC00070E0BACF0091250410912604E09018041A
:102CD000F09019048091550590915605801B910B39
:102CE0009801295A3A4FF901329740815181F901EF
:102CF000E41BF50BAF01425051095093530540932B
:102D00005205309351052093500590934F058093C1
:102D10004E050E9472100097E1F334F0029709F417
:102D200060CE07E110E092CD8091250490912604B9
:102D3000895A9A4F90936925809368258091500510
:102D400090915105875595409093260480932504D2
:102D50000E94C10C0E94BB199C013F70232B21F0E3
:102D60000A9709F43ECEDDCF8827907F892B09F0A2
:102D7000E3CC0E9410064B015C01109326040093E3
:102D800025040E94FC05C501B4010E948506F0924D
:102D90006925E09268250E94C10C29CF0E94100687
:102DA0000E94BB33CB0170E060E097FF0CC006E1EE
:102DB00010E04CCD0E9410060E94BB33CB0177FD82
:102DC000F6CF61E070E00E94020A11CF0E94100667
:102DD0000E94BB336B018B010E941006D7FCE7CF2A
:102DE0000E94BB331616170614F720912504309164
:102DF0002604F901EB5AFA4F408151810F5F1F4FB2
:102E0000461757070CF4BA0161507109C801860FC3
:102E1000971F481759071CF48A01061B170B401708
:102E2000510709F4E4CE4E5F5F4F7901E41AF50AC9
:102E3000C701895A9A4F6C01A80141505109680F86
:102E4000791F0E944536F601E00FF11FDF0111974F
:102E50001C92118300830E5F1F4F0E0D1F1D1093D8
:102E6000260400932504C3CE0E9410060E94BB33A3
:102E70007727FB01EC5DF94F8491FB01E551F74F9A
:102E800004916953774FFB01149170E060E01123C6
:102E900009F4D2CE81110E94CB04E12FF0E0EE0FB5
:102EA000FF1FEF5EFA4FA591B491EC910E2391E0D4
:102EB00080E009F490E0692F782FBECE0E941006C2
:102EC0000E94BB33862F6E3010F082EF860F209168
:102ED0007B00982F9870277F922B90937B008770B0
:102EE000806480937C0080917A00806480937A0073
:102EF00080917A0086FDFCCF809178006091790006
:102F0000762F682F99CE8C01A1CC05E010E09ECCE5
:102F10002F923F924F925F926F927F928F929F92E9
:102F2000AF92BF92CF92DF92EF92FF920F931F93D7
:102F3000CF93DF9300D000D0CDB7DEB79A838983DB
:102F40008B010E94C4056C0189819A81C816D9063B
:102F50000CF4BDC180916625909167259C838B837D
:102F60000E94C10C0E9434137C019F70892BE1F4F4
:102F70000E94C405C816D9064CF4B701C6010196D3
:102F80000E9488177C019F70892B71F4C8018827E3
:102F9000907F009709F0FDC0EE2490EFF922EF2812
:102FA000D9F096E0E92EF12CC7010F900F900F9009
:102FB0000F90DF91CF911F910F91FF90EF90DF90D5
:102FC000CF90BF90AF909F908F907F906F905F90C9
:102FD0004F903F902F900895F0906125FF2009F4C5
:102FE0007CC10E9410064B015C010E941006762EE7
:102FF000672E582E492E8B819C810A9709F0A0C11B
:10300000272D362D452D542DC501B4010E946F3258
:103010000E94850696CF8B819C810D9709F06DC12A
:1030200020E030E0A901C501B4010E94422F8823AD
:1030300009F44FC1A5019401672D762D852D942D9E
:103040000E940F33E5CF8B819C81409789F4FF204C
:1030500009F477CF272D362D452D542DC501B40108
:103060000E94AF341816ACF060E070E0CB01D0CF16
:103070008B819C810F9791F4FF2009F462CF272D5B
:10308000362D452D542DC501B4010E94422F87FFD6
:10309000EBCF60E070E080E89FE3BACF8B819C814A
:1030A0000E9771F4FF2009F44CCF272D362D452DB6
:1030B000542DC501B4010E94422F882351F3D4CF6F
:1030C0008B819C81419771F4FF2009F43ACF272D21
:1030D000362D452D542DC501B4010E94422F81117A
:1030E000D8CFC2CF8B819C81439771F4FF2009F424
:1030F00028CF272D362D452D542DC501B4010E9412
:10310000AF3487FFC6CFB0CF8B819C81429779F4D3
:10311000FF2009F416CF272D362D452D542DC5013E
:10312000B4010E94422F18160CF0B3CF9DCF8B81B3
:103130009C814797A9F4FF2009F403CF20E030E0F9
:10314000A901C501B4010E94422F81111FC050E0A6
:1031500040E030E020E0652F742F832F922F58CF6E
:103160008B819C81489709F01CCFFF2009F4E9CEA0
:1031700020E030E0A901C501B4010E94422F88235C
:1031800029F050E040E030E82FE3E5CFA3019201C1
:10319000E2CF8115904109F004CFEE2480EFF822B0
:1031A000E11490E1F90609F0FCCE8B819C810A972D
:1031B00009F041C080916125882309F4C2CE209195
:1031C000250430912604F901EB5AFA4F8081918150
:1031D0009C838B830296281B390BB901695A7A4F5D
:1031E000FB013297E080F180C70102961901281A8D
:1031F000390AC101895A9A4F6C01C70101974B8165
:103200005C818C0D9D1D0E9445368B819C818E0DAD
:103210009F1D9C838B830197F601E80FF91F918313
:1032200080838B819C810196820D931D909326044F
:103230008093250486CE8B819C810E97069708F09B
:10324000B0CE80916125882309F10E94FC058C0194
:103250000E94FC05B8010E947C368C018B819C8108
:103260000E9741F40115110509F413CF60E070E0E9
:10327000CB010AC08B819C81419759F4012BB1F39A
:1032800060E070E080E89FE30E94850610E000E0C7
:1032900058CE8B819C810F9721F41016110634F7BC
:1032A000EFCF8B819C81409719F417FFDFCFE8CFD8
:1032B0008B819C81429719F417FDD8CFE1CF8B8188
:1032C0009C81439799F61016110684F2D9CF7801A4
:1032D0006BCE8BE0E82EF12C67CE8B819C810A9718
:1032E000029708F42ECE8B819C810C9709F429CE8D
:1032F0008B819C810D9709F424CE8B819C818E97C4
:1033000009F0A1CEFF2009F41CCEC501B4010E9432
:10331000BB337C836B83CB01892BD9F2672D762D50
:10332000852D942D0E94BB33CB016B817C810E9443
:10333000EF35BC01990F880B990B0E94492F68CE7D
:103340008B819C810B9749F4A5019401672D762D03
:10335000852D942D0E946E325BCE8B819C810C97C3
:1033600009F059CE272D362D452D542DC501B40118
:103370000E94A82F4DCE0E9434139C013F70232B36
:1033800029F4BC0190E080E00C94881708950E9415
:10339000BB199C013F70232B49F48827907F892B10
:1033A00019F490E080E0089587E090E008950F938D
:1033B0001F93CF93DF93D0E0C0E08C01015011093F
:1033C000C017D10774F40E94C10C0E94C71900975E
:1033D00091F48091662590916725469751F4219646
:1033E000EFCF0E94C10CDF91CF911F910F910C94F0
:1033F000C71986E090E0DF91CF911F910F9108955A
:103400000F931F93CF93DF9380916625909167254B
:10341000089741F005E010E0C801DF91CF911F91BE
:103420000F9108950E94C10CD0E0C0E021960E9447
:10343000C7198C01892B81F78091662590916725AA
:103440008930910529F0469729F70E94C10CEECFEB
:103450000E94C10C809161258823F1F2BE01DD0F2D
:10346000880B990B0E94492F0E948506892BA1F693
:103470000AE010E0D1CF4F925F926F927F928F92CD
:103480009F92AF92BF92CF92DF92EF92FF920F93F3
:103490001F93CF93DF93CDB7DEB72D970FB6F89478
:1034A000DEBF0FBECDBFB82E80916125882331F0DD
:1034B00068E274E0CE0101960E948536C090270430
:1034C0000C2C000CDD080E94C10C809166259091A7
:1034D0006725F12CE12C089701F50E94001A8C0158
:1034E000EE24E394F12C892BC1F0C8012D960FB680
:1034F000F894DEBF0FBECDBFDF91CF911F910F912A
:10350000FF90EF90DF90CF90BF90AF909F908F9003
:103510007F906F905F904F900895BB2009F47BC01F
:1035200080916125882379F00E94960EC114D10400
:1035300009F46AC00E94A00F892B09F462C00E949E
:103540006D0A0E94380D10E000E0CD2809F478C023
:1035500000E010E10027107F0115104109F053C170
:1035600080916125882309F4BBC08E010F5F1F4F36
:10357000A0902504B0902604EF2809F4E3C00E942F
:10358000FC054C01FC0101900020E9F731973F0157
:10359000681A790A60E170E0C8010E94E40F6C01CA
:1035A0009D878C87892B09F467C0F8010190002062
:1035B000E9F7CF01801B910B03968C0D9D1D9D8714
:1035C0008C87BE01665F7F4FCE010C960E9421065C
:1035D0008C01892B09F089CF2A853B8590E080E01A
:1035E000EC84FD84F701821793070CF07CC04081C6
:1035F000411101C00196FFEFEF1AFF0AFD86EC862C
:10360000EFCF0AE010E071CF70E060E00E94AD2BD8
:103610000E94850691CF809166259091672506E0EE
:1036200010E00E9709F061CF0E94C10C0E94BB19F7
:103630008C019F70892B09F058CFCD2809F08ACFD3
:103640000027107F012B09F0DBC0809161258823C2
:1036500009F446C08E010F5F1F4FEF28B9F10E9499
:1036600010066B017C0164E070E0C8010E94E40F69
:103670009D878C87009719F40CE010E036CFF80195
:1036800001900020E9F79F01201B310B2D5F3F4F78
:10369000820F931F9D878C87BE01665F7F4FCE018F
:1036A0000C960E9421068C01892B09F01ECF8A8579
:1036B0009B85880F991F880F991FEC85FD85E80F62
:1036C000F91FC082D182E282F3820FCF0E941006DE
:1036D000AB01BC01C8010E941B10892B09F491CFDA
:1036E00010E000E002CF01900020E9F73197EE19D9
:1036F000FF096E1A7F0A60915505709156052B01DE
:10370000461857084A145B040CF4EFCEF60180818A
:103710009181860D971D91838083695A7A4FA70105
:10372000461B570BC201895A9A4F0E944536B40175
:10373000C701861997090E94853650925605409216
:103740005505D3CEC501895A9A4FFC013297208185
:103750003181821B930B9C01225031096901F801D0
:1037600001900020E9F731977F01E01AF10AF90191
:1037700001900020E9F74F01C7010496821A930ACD
:10378000880E991E68E070E0C8010E94E40F00975F
:1037900089F0FC01208131814091550550915605F9
:1037A000240F351F281939092A153B0508F429CF9C
:1037B0000E94E109E0915505F0915605E819F909D3
:1037C000EA15FB050CF41DCFF0935605E093550563
:1037D000E95AFA4F918280825F0123E0A20EB11C68
:1037E00088E08283B801C5010E948536C701019631
:1037F000B6018A0D9B1D0E9485360E94FC0570CF84
:1038000007E010E072CE08E010E06FCE2F923F92FA
:103810004F925F926F927F928F929F92AF92BF92E0
:10382000CF92DF92EF92FF920F931F93CF93DF938C
:10383000CDB7DEB7C253D1400FB6F894DEBF0FBE8E
:10384000CDBF10921A0410925C2510925B25109245
:103850005A25109259259E012F5F3F4F2901CE0115
:103860008F5F9E4FCF5FDE4F99838883C150D140D9
:1038700000916625109167250115110511F40C942E
:103880007027F0906125FF2041F08091572590919D
:1038900058259093260480932504F8013197E1354B
:1038A000F10510F00C947427E85AF34E0C9403368B
:1038B000F41C7427742774277427742774277427BB
:1038C0007427742774277427742774277427742720
:1038D0007427742774277427742774277427742710
:1038E0007427A91CE81C071D281E6D1E851EFB23BE
:1038F000FD1CFB238A1E74277427742774277427E2
:103900007427FA1E74277427EF1F7427FB23C9201E
:10391000FB231E21742774277427FB233422822360
:103920008223822374274E224E2274277427FB237E
:103930004E227427742774277427742774277427DA
:10394000FB23D422332374277427FB23B824B82401
:10395000B8240E94C10C01E010E08091662590918E
:103960006725009749F1449739F10E94BB191C0162
:103970009F70892B09F023C280916125882371F003
:10398000222490EF39222328A1F40E941006A201DC
:103990000E94470C0E94740B01E010E080916625A4
:1039A000909167254597C9F60E94C10C10E000E090
:1039B000D4CF0E94FC05EECF80916125882309F4C5
:1039C00088C1012B11F00E946D0A0E94380D81C13F
:1039D0000E94C10C8091662590916725019721F086
:1039E00026E0222E312CEBC180E00E943B1A1C0104
:1039F0002114310409F46DC1E2C10E94C10C80910F
:103A0000662590916725019759F781E0EECF0E94D6
:103A1000C10C8091662590916725009709F468C0D4
:103A2000449709F465C00E94C7191C01892B09F04D
:103A3000C6C180916125F12CE12C882329F00E94D8
:103A400010060E94C2337B01809166259091672504
:103A5000469709F450C0312C212C80916125882390
:103A600009F437C1712C612C912C37E5C32E35E058
:103A7000D32E8091572590915825895A9A4FC81670
:103A8000D90608F0A2CFD60112966D917C91E1146F
:103A9000F10421F06E157F0508F4D4C0211431041F
:103AA00021F02616370608F4CDC090E080E00E9491
:103AB000E20A80E20E94990A5601B4E0AB0EB11C02
:103AC000CD5FDE4F19821882C350D140D501EC91F1
:103AD000EE2309F49EC0E13031F585010F5F1F4FE1
:103AE000F80181918F0187FD19C00E94990AF8CFD2
:103AF000F12CE12CB0CF0E94C10C0E94C7191C010F
:103B0000892B09F05CC180916125882309F4E1C00B
:103B10000E9410060E94C2331B019FCF80580E9452
:103B2000990A5801D3CFE33079F411966D917D91C4
:103B30008D919C911497A2010E94470C0E94740BD6
:103B400085010B5F1F4FEDCFE23041F4F50161813C
:103B50007281838194810E94E20AF2CF85010F5F16
:103B60001F4FE43059F5CD5FDE4F28813981C350B6
:103B7000D140232B49F0C8010E94740BD8010D904D
:103B80000020E9F78D01CDCF82E20E94990A580109
:103B90008501F50181915F01882351F0823211F492
:103BA0000E94990AF501319780810E94990AF0CF0D
:103BB00082E20E94990A0F5F1F4FB3CF23E0E29F7A
:103BC000F0011124E35DFA4F849087FE03C080E288
:103BD0000E94990AD501EC91B3E0EB9FF00111240A
:103BE000E55DFA4F859194910E94740B86FE03C0A7
:103BF00080E20E94990AF50180818F3109F091CF0E
:103C000021E030E0CD5FDE4F39832883C350D140BF
:103C100088CF0E946D0A3FEF631A730A87E0681627
:103C2000710481F491E0991669F00E94380D0E94A8
:103C300015098823E1F399249394803209F0912C9B
:103C4000712C612CD6018D919C91C80ED91E11CF7B
:103C50000E94C10C809166259091672561E070E01B
:103C6000892BA9F00E94C7191C01892B09F0A7C054
:103C700080916125882369F10E9410060E94C23359
:103C80006115710521F42EE0222E312C98C080910F
:103C900061258823F1F080E090E2909324048093E2
:103CA0002304909322048093210490932004809312
:103CB0001F04909356058093550570935C2560937F
:103CC0005B2510921C0410921B0410921E0410928B
:103CD0001D0422242394312C3FC00E94C10C0E9459
:103CE000C7191C01892B09F06AC0809161258823BE
:103CF00081F30E9410060E94C2336115710519F20A
:103D000070935C2560935B25E4CF0E94C10C0E94F8
:103D1000C10CDFCF0E94C10C0E94C7191C01892B66
:103D200009F04DC08091662590916725849711F028
:103D30000C9461270E94C10C80916125882361F059
:103D40000E94100620E030E0A9010E94422F81115C
:103D500003C081E080931A0480911A0481110C94AD
:103D6000702780915B2590915C25892B11F00C9434
:103D700070278091592590915A25892B11F00C9428
:103D800070278091662590916725009711F00C941B
:103D90004C27312C212C80915D2590915E25019638
:103DA00090935E2580935D2520915F25309160255D
:103DB0008217930721F02114310409F459CDC10170
:103DC000CE5CDE4F0FB6F894DEBF0FBECDBFDF91E5
:103DD000CF911F910F91FF90EF90DF90CF90BF9008
:103DE000AF909F908F907F906F905F904F903F909B
:103DF0002F9008950E94C10C209066253090672571
:103E0000B1E02B16310409F0EBCD8091270481112C
:103E1000E7CDFF2029F068E274E0C2010E948536F8
:103E20000E94C10C80916625909167250E9709F03C
:103E3000D7CD0E94C10C0E94C719009709F0CDC0D0
:103E400080916125882351F00E941006CF5DDE4FDE
:103E5000688379838A839B83C152D1408091662590
:103E6000909167258B9709F0BBCD0E94C10C0E94F1
:103E7000C719009709F0B1C080916125882351F0DE
:103E80000E941006CB5DDE4F688379838A839B8313
:103E9000C552D14080916625909167258C9709F095
:103EA0004CC00E94C10C0E94C719009709F095C030
:103EB00080916125882309F44FCF0E9410064B01A1
:103EC0005C0180916125882309F446CFE0915D254E
:103ED000F0915E25CD5FDE4FF983E883C350D1407A
:103EE00060906A2570906B25F20101900020E9F73F
:103EF00031978F01041915097801F4E1EF0EF11CD7
:103F000063E070E0C2010E94E40F209155053091FA
:103F10005605C0902504D09026040097B9F0DC0126
:103F20004D915C91240F351F2E193F092C153D052D
:103F300058F44AE0242E312C42CF812C912C90E869
:103F4000A92E9FE3B92EBDCF0E94E109E09155054E
:103F5000F0915605EE19FF09EC15FD0554F3F093A9
:103F60005605E0935505E95AFA4FF182E0827F0148
:103F7000B3E0EB0EF11C82E08283B201C7010E9424
:103F800085360F5F1F4FF701E00FF11FCF5DDE4F4A
:103F900088819981AA81BB81C152D140808391835C
:103FA000A283B38384829582A682B782CB5DDE4FE3
:103FB00088819981AA81BB81C552D1408087918730
:103FC000A287B38775866486CD5FDE4FA881B981ED
:103FD000C350D140B787A687BFCE1C01F0CE0E9448
:103FE000C10C2090662530906725B1E02B16310476
:103FF00009F0F6CC809127048111F2CCFF2009F45E
:10400000B6C063E070E088E294E00E94E40F00979D
:1040100009F4B7C0FC012281223009F0ABC0E8E20C
:10402000F4E001900020E9F7E552F440E80FF91FB1
:1040300080819181A281B381C95EDE4F888399839B
:10404000AA83BB83C751D140C480D580E680F78066
:1040500080859185A285B385C55EDE4F888399836F
:10406000AA83BB83CB51D140A485B585CF5CDE4FFD
:10407000B983A883C153D14026853785C15DDE4F02
:1040800039832883CF52D1402FEF3FEF4FE75FE7CF
:10409000C95EDE4F688179818A819B81C751D14099
:1040A0000E94422F882309F46CC02FEF3FEF4FE7A7
:1040B0005FE7C701B6010E94422F882309F465C05B
:1040C000A7019601C95EDE4F688179818A819B8153
:1040D000C751D1400E946F324B015C01BC01A40169
:1040E00088E294E00E941B1020E030E0A901C701A3
:1040F000B6010E94AF3487FD0EC0C55EDE4F288139
:1041000039814A815B81CB51D140C501B4010E9404
:10411000422F1816BCF420E030E0A901C701B60117
:104120000E94422F87FF23C0C55EDE4F2881398160
:104130004A815B81CB51D140C501B4010E94AF34AB
:1041400087FD15C0CF5CDE4F88819981C153D14076
:1041500090935C2580935B25C15DDE4F88819981BA
:10416000CF52D140019690935A25809359250E94B1
:10417000C10CF2CDCC24CA94DC2C8FE7E82EFE2CA7
:1041800083CF0CE0202E312C1ACE10E1212E312CC1
:1041900016CE0E94C10C0E94C7191C01892B09F080
:1041A0000ECE80916125882309F493CD0E941006DC
:1041B0000E94C2336115710509F465CD70935C25C9
:1041C00060935B252091550530915605790194E067
:1041D000E91AF1088091250490912604E816F90661
:1041E0000CF4A7CEC0905D25D0905E25A0906A25E6
:1041F000B0906B2500911F0410912004C901895AC9
:104200009A4FA801421B530BBC0104970E944536EC
:10421000F0925605E09255050450110910932004C0
:1042200000931F041093220400932104F801E95A1B
:10423000FA4FB182A082D382C2824BCD0E94C10CC0
:104240002090662530906725A1E02A16310409F0F8
:10425000C7CBFF2029F068E274E0C2010E948536D6
:10426000B0912704CD5FDE4FB883C350D1400E9488
:10427000C10C0E94001A3C01009709F0F3C0809124
:104280006125882309F468CDF20101900020E9F747
:1042900031979F0124193509C95FDE4F398328837F
:1042A000C750D1402A5F3F4FC15FDE4F398328831B
:1042B000CF50D1400E9410060E94BB336B01C55FF6
:1042C000DE4F79836883CB50D14080912504909153
:1042D0002604CF5EDE4F99838883C151D140B12C33
:1042E000A12C01E010E0C55FDE4FA881B981CB5061
:1042F000D140AA16BB0684F40E9410060E94BB336C
:10430000F801E69F8001E79F100DF69F100D112424
:10431000FFEFAF1ABF0AE7CF9601220F331FCD5F21
:10432000DE4F8881C350D140882309F489C081E0E1
:1043300090E0089F4001099F900C189F900C112459
:10434000C15FDE4F08811981CF50D140020F131F8A
:10435000080D191DCD5FDE4F9881C350D14060E13B
:1043600070E0911102C064E070E0C2010E94E40FAD
:10437000A0902504B0902604009789F0209155055F
:1043800030915605201B310BDC014D915C91240FBF
:10439000351F2A153B0508F4CCCD0E94E109E091B8
:1043A0005505F0915605E01BF10BEA15FB050CF4E1
:1043B000C0CDF0935605E0935505E95AFA4F1183A5
:1043C0000083CD5FDE4FB881C350D14080E1B11191
:1043D00001C084E05F0123E0A20EB11C8283B20120
:1043E000C5010E948536C95FDE4F88819981C7501B
:1043F000D1400196A80EB91ED501CD92DD925D0186
:10440000CF5EDE4FE881F981C151D140F09326049F
:10441000E09325048D01C55FDE4F28813981CB50A3
:10442000D140621673067CF40E9410060E94BB33D2
:10443000D8016D937D938D01BFEF6B1A7B0AEBCF93
:1044400084E090E076CFD7FE02C0D12CC12CCC0CFA
:10445000DD1CA40170E060E0C5018C0D9D1D0E9473
:1044600057367ACC1C01ABCC0E94C10C0E94C719F4
:104470001C01892B09F0A3CC80916125882309F4C4
:1044800028CC0E9410060E94BB3397FF04C0F8E1BD
:104490002F2E312C94CC0E9491051BCC0E94C10C74
:1044A00080916625909167250C331105E9F58A30D6
:1044B0009105D1F50E94C10C90E081E02091612529
:1044C000222309F406CC911104CC0C33110509F018
:1044D00043C06CEF811101C060E090E080E00E9479
:1044E000ED316091572581E090E00E94ED316091BF
:1044F000582582E090E00E94ED3107E515E0F12CAF
:10450000E12C8091572590915825E816F9060CF07A
:10451000E0CBD8016D918D01C70103960E94ED316A
:10452000BFEFEB1AFB0AEDCF0097A1F0449791F093
:104530000E94BB191C019F70892B09F040CC2224DA
:10454000E0EF3E222114F0E13F0609F0BFC491E004
:1045500080E0B4CF90E0FCCF0D33110509F0C4C466
:104560000E94DD0B81E090E00E94E531E82E82E0C0
:1045700090E00E94E531F82EF0925825E092572500
:10458000E7E5CE2EE5E0DE2E10E000E00E151F057B
:104590000CF09FCBC80103960E94E531F601819390
:1045A0006F010F5F1F4FF2CF0E94C10C0E94C7190D
:1045B0001C01892B09F003CC80916125882309F423
:1045C00088CB0E9410060E94BB336A30710508F048
:1045D0005ECFDB0120E030E30E940C366B017C01F2
:1045E0000E943A07C701B601705F8F4F9F4F0E942C
:1045F0003A0746015701F0E29F0EA11CB11CC5010C
:10460000B4010E943A0707E515E0FE013196D80192
:104610008D918193CF5FDE4F28813981C150D14088
:104620002E173F07A9F7A201C701B6010E94BA07DA
:104630003FEFD31AE30AF30A139585E2073518070B
:1046400021F7009157251091582509831A83A2015B
:10465000C501B4010E94BA07B801110F880B990B6C
:104660000E94E20A36CB0E94C10C0E94C7191C01AD
:10467000892B09F0A4CB80916125882309F429CBEB
:104680000E9410060E94BB336B019AE0C916D10448
:1046900008F0FDCE0E94DD0BD60120E030E30E9441
:1046A0000C366B017C010E949807C701B601705E51
:1046B0008F4F9F4F0E949807082FC701B6016F5F69
:1046C0007F4D8F4F9F4F0E949807182F10935825AA
:1046D0000093572577E5A72E75E0B72EC5018755BE
:1046E0009540801791070CF0B7CFC701B6010E9423
:1046F0009807D5018D935D01BFEFCB1ADB0AEB0A5A
:10470000FB0AECCF0E94C10C0E94C7191C01892B27
:1047100009F055CB8091662590916725469709F061
:104720005FC90E94C10C0E94C7191C01892B09F0A6
:1047300046CB80916125882309F4CBCA0E941006DC
:104740000E94BB33D62EC72EE62EF72E0E941006EF
:104750000E94BB33CB010933110509F10A3311055E
:1047600009F445C06032710514F08FE190E097FFC5
:1047700002C090E080E090933E0580933D058D2D32
:104780009C2D8830910514F087E090E097FF02C0DF
:1047900090E080E090933C0580933B059ACA9B0192
:1047A0003327F901EC5DF94F8491F901E551F74F99
:1047B0000491F901E953F74F1491112309F489CABF
:1047C00081110E94CB04E12FF0E0EE0FFF1FED56A8
:1047D000F74FA591B4918FB7F894EC91EF2829F495
:1047E00000950E230C938FBF74CA0E2BFBCF6D2D3B
:1047F0000E9430056ECA0E94C10CFF2009F469CAEC
:104800000133110509F449C0F4F40232110581F1B4
:104810000F32110539F10032110509F05ACA8091A1
:104820006A2590916B2590931E0480931D048091BE
:104830005D2590915E2590931C0480931B0451E1AB
:10484000252E312CBCCA0934110509F467C00E3479
:10485000110509F480C00633110509F03ACA0E9417
:10486000C40BB3C80E94DD0B81E080931A0431CAE7
:1048700080911D0490911E04009709F42ACA909318
:104880005C2580935B2580911B0490911C0401960C
:1048900090935A25809359251CCAE0912104F091E8
:1048A00022048091230490912404E817F90709F465
:1048B00012C3E95AFA4FA080B180C280D380009120
:1048C0001F0410912004E0905505F0905605C70193
:1048D000895A9A4FA8014E195F09BC0104960E949B
:1048E0004536E4E0EE0EF11CF0925605E0925505D7
:1048F0000C5F1F4F1093200400931F041093220499
:1049000000932104B0925C25A0925B25FFEFCF1AA3
:10491000DF0AD0925A25C0925925DBC988E20E944D
:10492000330880E10E94330810927A0052985A9A14
:10493000EA98809169008F7C80936900E29AEA9AF4
:1049400083B7817F846083BF83B7816083BF88958D
:104950000E945C0FBEC9809155059091560520912B
:10496000572530915825821B930B0E94610B2DC84F
:104970000035110509F463C00135110509F4EEC0D5
:1049800084E090E00E94D7191C0180916125882362
:1049900009F42EC82114310409F011CA0E9410062E
:1049A000CD5FDE4F688379838A839B83C350D14078
:1049B0000E9410064B015C010E9410060E94BB334E
:1049C0006B010E941006C95FDE4F688379838A837A
:1049D0009B83C750D140C501B4010E94BB334B013A
:1049E000CD5FDE4F688179818A819B81C350D14040
:1049F0000E94BB339B01220F331FC901860F971FF3
:104A0000960141E050E0B4010E94BF08C95FDE4F4B
:104A1000688179818A819B81C750D1400E94BB33D4
:104A2000772768537D4FDB016C9170E0A601C201CE
:104A30000E945736B601C2010E9451084AC985E05A
:104A400090E00E94D7191C0180916125882311F400
:104A50000C94F81C2114310409F0B1C90E9410060D
:104A6000C95FDE4F688379838A839B83C750D140B7
:104A70000E9410064B015C010E9410060E94BB338D
:104A80006B013B010E941006C55FDE4F688379838E
:104A90008A839B83CB50D1400E9410060E94BB3377
:104AA000CD5FDE4F688379838A839B83C350D14077
:104AB000CD5FDE4F28813981C350D140C15FDE4FC9
:104AC00039832883CF50D1408601000F111F0C0D70
:104AD0001D1DC501B4010E94BB334B01C95FDE4FF0
:104AE000688179818A819B81C750D1400E94BB3304
:104AF0009B01220F331FC901860F971FCD5FDE4F29
:104B000028813981C350D140A801B4010E94BF0857
:104B1000C55FDE4F688179818A819B81CB50D1400E
:104B20000E94BB33772768537D4FDB016C9170E0A7
:104B3000A601C2010E945736C15FDE4FE881F981AC
:104B4000CF50D1402E163F060CF0C3C8B301C201AE
:104B50000E945108FFEF2F1A3F0AEECF86E090E047
:104B60000E94D7191C0180916125882311F40C94AF
:104B7000F81C2114310409F022C90E9410060E9479
:104B8000BB33C55FDE4F688379838A839B83CB50B9
:104B9000D140C55FDE4F08811981CB50D1400E94C2
:104BA0001006CD5FDE4F688379838A839B83C35071
:104BB000D1400E9410064B015C010E9410066B015F
:104BC0007C010E941006CD5EDE4F688379838A8364
:104BD0009B83C351D1400E941006C55DDE4F6883A0
:104BE00079838A839B83CB52D1400038110508F02A
:104BF00070C8CD5FDE4F688179818A819B81C35007
:104C0000D1400E94BB33C95FDE4F688379838A83BA
:104C10009B83C750D140C95FDE4FE881F981C750FF
:104C2000D140E838F10508F054C8C501B4010E942C
:104C3000BB33CD5FDE4F688379838A839B83C35008
:104C4000D140CD5FDE4F28813981C350D140C15F53
:104C5000DE4F39832883CF50D140C901C55FDE4F75
:104C6000A881B981CB50D1408A0F9B1FCF5EDE4F08
:104C700099838883C151D140803891050CF029C8AF
:104C8000C701B6010E94BB334B01C75DDE4F79837C
:104C90006883C952D140C95FDE4FE881F981C750AE
:104CA000D140E60FF71FC15EDE4FF983E883CF5195
:104CB000D140E838F10514F00C94691ECD5EDE4F4A
:104CC000688179818A819B81C351D1400E94BB3325
:104CD0006B01CD5EDE4F79836883C351D140CD5FD8
:104CE000DE4F08811981C350D140000F111FCD5FE5
:104CF000DE4F28813981C350D140020F131FC55F99
:104D0000DE4F68807980CB50D140660C771CC55F40
:104D1000DE4F88819981CB50D140680E791EC55DE8
:104D2000DE4F688179818A819B81CB52D1400E947C
:104D3000BB336623C1F19401A801C95FDE4F6881CE
:104D40007981C750D140C3010E94BF08CD5EDE4FBC
:104D500008811981C351D140112708531D4FC75DE8
:104D6000DE4FA881B981C952D1402A163B0614F002
:104D70000C94691EF801608170E0C15FDE4F4881CC
:104D80005981CF50D140C2010E945736C15FDE4FDA
:104D900068817981CF50D140C2010E945108FFEF54
:104DA0002F1A3F0ADCCF21E030E0A801C95FDE4FB7
:104DB00068817981C750D140C3010E94BF08F601C4
:104DC000FF27E853FD4FE080F12CCD5FDE4F488197
:104DD0005981C350D140B701C2010E945736CD5FFF
:104DE000DE4F68817981C350D140C2010E945108D1
:104DF000C15EDE4F68817981CF51D1406150710928
:104E000021E030E0A801C3010E94BF08CD5FDE4F62
:104E100048815981C350D140B701C2010E94573621
:104E2000CD5FDE4F68817981C350D140C2010E94BD
:104E30005108940143E050E0C95FDE4F68817981F9
:104E4000C750D140C3010E94BF08A401B701C201ED
:104E50000E945736B401C2010E945108CF5EDE4F56
:104E600088819981C151D1400197FC01EE0FFF1F4C
:104E7000940143E050E0C95FDE4F68817981C750FB
:104E8000D1408E0F9F1F0E94BF08A401B701C2012D
:104E90000E945736B401CFCD232811F40C94C91EBB
:104EA000449751F40E94C10C80916625909167252A
:104EB000892B11F00C94C91E6DE0262E312C0C9418
:104EC000CB1E52E1252E312C0C94DF1E38E0232E10
:104ED000312C0C94DF1E93E1292E312C0C94DF1E13
:104EE000312C212C0C94DF1E8DE0282E312C0C94BB
:104EF000DF1E1F920F920FB60F9211242F933F9334
:104F00008F939F93AF93BF938091410590914205FA
:104F1000A0914305B09144053091400523E0230F53
:104F20002D3758F50196A11DB11D209340058093A2
:104F3000410590934205A0934305B09344058091A9
:104F4000450590914605A0914705B0914805019609
:104F5000A11DB11D8093450590934605A09347057B
:104F6000B0934805BF91AF919F918F913F912F9141
:104F70000F900FBE0F901F90189526E8230F0296F2
:104F8000A11DB11DD2CF1F920F920FB60F92112407
:104F90008F939F9380914C0590914D059093850040
:104FA000809384009091310481E0911180E080939E
:104FB000310481E0809332049F918F910F900FBE56
:104FC0000F901F9018951F920F920FB60F921124F9
:104FD0008F9383B78E7F83BF8F910F900FBE0F90FB
:104FE0001F901895789484B5826084BD84B58160E3
:104FF00084BD85B5826085BD85B5816085BD8091A4
:105000006E00816080936E0010928100809181001B
:105010008260809381008091810081608093810013
:10502000809180008160809380008091B1008460D5
:105030008093B1008091B00081608093B000809136
:1050400091008260809391008091910081608093B3
:105050009100809190008160809390008091A100E8
:1050600082608093A1008091A10081608093A10063
:105070008091A00081608093A000809121018260D6
:105080008093210180912101816080932101809191
:10509000200181608093200180917A008460809358
:1050A0007A0080917A00826080937A0080917A0001
:1050B000816080937A0080917A00806880937A0082
:1050C0001092C10062E082E00E94300582E080938D
:1050D000390180EC80937C0087E880937A001092FD
:1050E0007B0084E58093770087E980937A00809144
:1050F0007A00806480937A0087EE80934B0586ED7A
:1051000080934A0582EA8093490561E080EB0E9422
:10511000050761E080EB0E94D00880E58CBD81E04E
:105120008DBD8DB58EB561E081EB0E94D00861E048
:1051300082EB0E94D008C0914B0561E08C2F0E9449
:10514000D00861E083ED0E94D00861E08C2F0E94BE
:10515000050761E080914A050E94D008C091490589
:1051600061E08C2F0E94D00861E08C2F0E9405071F
:1051700062E370E080E090E00E94910560E08C2F97
:105180000E94050765E070E080E090E00E949105D4
:1051900061E08C2F0E94050766E970E080E090E0F6
:1051A0000E9491050E945C0F80E00E940C0C80E040
:1051B0000E940C0C0E94DD0B80E00E940C0CF89405
:1051C00010928000109281008EEE95E890934D052C
:1051D00080934C059093850080938400809181009A
:1051E00084608093810080916F00816080936F0064
:1051F00078940E94C40B8FE099E00E94530B809139
:105200005505909156052091572530915825821BC0
:10521000930B0E94610B0E94380D9CE6C92E95E20B
:10522000D92E0E94960E9093530580935205D092EA
:105230005105C09250058DE490E090934F05809306
:105240004E050E947210EC010097D9F30CF00EC1CC
:105250000E946D0AD0926925C09268250E94C10CF7
:105260008091662590916725029709F043C060916F
:1052700062257091632580916425909165250E9437
:10528000BB3361157105E1E08E0791050CF065C136
:105290007B01A0906825B09069250E94C10C1092F6
:1052A00061251092602510925F250E94061CEC017A
:1052B000892B09F0DBC0E114F10409F472C04090BD
:1052C00068255090692540915725509158259A019D
:1052D000295A3A4FC7E5D5E0C217D30708F05EC098
:1052E0008A809B808E149F0450F488819981C80F16
:1052F000D91FF2CFB12CA12CF12CE12CD0CFE81486
:10530000F90489F468817981461B570B509358251D
:1053100040935725495A5A4F4C1B5D0B6C0F7D1F0C
:10532000CE010E944536F5018081882379F14A1823
:105330005B083201F4E06F0E711C409157255091CB
:1053400058251301240E351E809155059091560560
:10535000821593050CF404C1892851F0495A5A4F1B
:105360004C1B5D0BBE01CE01860D971D0E9445367C
:1053700079826882FB82EA82A201B501CE0104969D
:105380000E943C36309258252092572580E090E0CC
:10539000892B09F446CF0E94000043CF912C812C29
:1053A000C2CFD0926925C092682521E02093612563
:1053B00010926B2510926A250E94C10C10925E25F6
:1053C00010925D2580915F2590916025892B59F081
:1053D000109261250E94061C81E080936125109245
:1053E000602510925F250E94061CEC01892BF1F5C7
:1053F00080915B2590915C2520916A2530916B25E9
:10540000232B09F04DC0009739F420915925309194
:105410005A25232B09F4BACF20916A2530916B25A8
:10542000232B09F04CC0009709F051C02091592559
:1054300030915A25232B09F444C0D0926925C0929B
:1054400068258091592590915A25009721F09093D5
:10545000602580935F250E941509882309F4ACCF4D
:10546000809354058B31B9F7CFE0D0E00E946D0AEC
:1054700060916A2570916B256115710539F090E096
:1054800080E00E94E20A8DE20E94990AFE01EE0F7E
:10549000FF1FE35EF64F859194910E94530B76CFE8
:1054A000009709F0B9CF2091592530915A25232B27
:1054B00009F4B2CF10926B2510926A25ADCF0097F8
:1054C00031F42091592530915A25232BB1F02091A8
:1054D000572530915825295A3A4F07E515E002170C
:1054E000130780F4F801428153814817590750F49B
:1054F00040815181040F151FF2CFF80120813181C5
:10550000020F131F2091572530915825295A3A4FE1
:105510000217130709F43ACFF8012281338130933F
:105520006B2520936A25A8014C5F5F4F5093692536
:1055300040936825009709F484CF409159255091F4
:105540005A25452B09F47DCF8217930708F079CFB0
:1055500010925A251092592574CFC9E0D0E086CF19
:10556000CAE0D0E083CFCF92DF92EF92FF920F9309
:105570001F93CF93DF93EA01E22EF02E122F27E044
:105580002E1508F417E000E0212FAE010E94392EFD
:105590009881292F2870DE0190FF39C0211137C072
:1055A00011962DE228836EEE71E092FD39C0FD0167
:1055B000319629812C93213309F09F7EEE20C1F092
:1055C000AE014E5F5F4F6F01312F2EE2DA016D9118
:1055D000AD01D6012D936D013150262FB9F7AFEFF4
:1055E000A10FAE0FBF2FB11DFD01329611966C9326
:1055F00025E4F2FE25E6208387FF28C09DE2918303
:10560000819590E38A304CF19F5F8A50FBCFF1FE89
:1056100018C011963BE2388366EF71E0222319F23D
:10562000F2FE02C06C5F7F4FCD010E94232FCE019E
:10563000DF91CF911F910F91FF90EF90DF90CF906E
:105640000895F0FEE9CF119630E2E5CF81110AC04E
:1056500094FF08C09DE2918390E39283805D8383F1
:105660001482E5CF9BE29183CCCFEF920F931F93EF
:10567000CF93DF93E80134E047FD34E1042E000CC2
:10568000550B57FF03C0519541955109E32E022F49
:10569000242FAE010E941530CE01DF91CF911F91D2
:1056A0000F91EF9008958F929F92AF92BF92CF92F9
:1056B000DF92EF92FF92CF93DF93EC0168817981C3
:1056C0008A819B81611571058105910521F464E250
:1056D00079ED8BE597E02DE133EF41E050E00E945A
:1056E0002D3249015A019B01AC01A7EAB1E40E94A5
:1056F0004C326B017C01ACEEB4EFA50194010E9429
:105700005A32DC01CB018C0D9D1DAE1DBF1DB7FFB4
:1057100003C00197A109B04888839983AA83BB83FA
:105720009F77DF91CF91FF90EF90DF90CF90BF9068
:10573000AF909F908F9008950C94532B84EB92E040
:105740000C94532BB0E0A0E08093B4029093B50288
:10575000A093B602B093B70208958F929F92AF9232
:10576000BF92CF92DF92EF92FF920F931F93CF934E
:10577000DF935C017B016115710519F0DB018D93ED
:105780009C9385010F5F1F4FF501D0818D2F90E015
:105790000E94112F6C01892BB9F5DD32B9F50F5F2D
:1057A0001F4FD5011196DC91C1E05801F1E0AF1A0D
:1057B000B10843E050E066E072E0C5010E942A2F84
:1057C000892B69F5680182E0C80ED11C45E050E0E4
:1057D00061E072E0C6010E942A2F892B21F4680142
:1057E00097E0C90ED11CE114F10419F0D701CD9254
:1057F000DC9260E070E080E89FEFC111FFC060E0E4
:1058000070E080E89FE7FAC05801BBCFDB3229F493
:1058100085010E5F1F4FF501D181C0E0C6CF43E087
:1058200050E06EEF71E0C5010E942A2F892BE9F04C
:10583000F80110E000E020E030E0A9015F01B0EDE8
:105840008B2E8D0E89E08815C8F19C2E689491F8F6
:105850008C2F8870C2FF16C0811102C00F5F1F4FCE
:105860003196D501DC91C92DE9CFE114F10429F07D
:105870000E5F1F4FF7011183008360E070E080EC42
:105880009FE7BCC0882311F001501109A5E0B0E0EA
:105890000E944C329B01AC01220F331F441F551F45
:1058A000280D311D411D511D283999E93907490736
:1058B00099E15907A8F2C6609C2ED2CFAEEF8A12AA
:1058C00006C0C3FD3CC09C2E689493F8C9CFDF7D11
:1058D000D534A9F580818D3239F4C061DF0112968B
:1058E000818162E070E006C0DF018B32C1F3119666
:1058F00061E070E080535D01A61AB70A8A30F8F4BF
:10590000E0E8CE16ECE0DE065CF4B601660F771F29
:10591000660F771FC60ED71ECC0CDD1CC80ED11C1F
:105920005D01FFEFAF1ABF0A8C9180538A30A8F156
:10593000C4FF03C0D194C194D1080C0D1D1DC1FF3B
:1059400009C0E114F10431F081E0A81AB108D701CF
:10595000AD92BC92CA01B9010E94472FC370C330F7
:1059600009F490584B015C0120E030E0A9010E944D
:10597000422F882309F440C0C5E3D2E017FF05C0D9
:10598000119501951109CDE1D2E06E01B8E1CB1A74
:10599000D10880E2E82EF12C0FC0D501B1CFFE0175
:1059A00025913591459154910E191F09C501B401F6
:1059B0000E94A82F4B015C01D501C4010E151F05E3
:1059C00074F72497F594E794CC16DD06A9F78A2F8F
:1059D000880F8B2F881F8F3F49F020E030E0A9010E
:1059E000C501B4010E94422F811106C082E290E0FD
:1059F0009093BA258093B925C501B401DF91CF9169
:105A00001F910F91FF90EF90DF90CF90BF90AF90DC
:105A10009F908F9008953F924F925F926F927F92E6
:105A20008F929F92AF92BF92CF92DF92EF92FF92AE
:105A30000F931F93CF93DF935C016B017A01611584
:105A4000710519F0FB0191838083E114F10451F099
:105A5000C7010297839730F040E030E020E090E00B
:105A60006BC05E01E5012196F5011081812F90E068
:105A70000E94112F892BA9F71D3201F52196F501FE
:105A8000118101E0E114F10409F4E6C0F0E1EF1640
:105A9000F10409F088C0103359F488818F7D88356E
:105AA00009F07CC0198122960260F0E1EF2EF12C02
:105AB000812C912CA12C88E0B82E92C01B3221F4AD
:105AC000E5012296F501118100E0DCCFEAE0EE1657
:105AD000F10409F4C7C0F0E1EF16F10409F073C056
