:020000040000FA
:100000000C94A5040C94C4040C94C4040C94CC2447
:100010000C94C4040C94C4040C94C4040C94C40440
:100020000C94C4040C94C4040C94C4040C94C40430
:100030000C94C4040C94C4040C94C4040C94C40420
:100040000C94C4040C94C4040C94C4040C94C40410
:100050000C94AC240C94C4040C94C4040C9462243A
:100060000C94C4040C94C4040C94C4040C94C404F0
:100070000C94C4040C94C4040C94C4040C94C404E0
:100080000C94C4040C94C4040C94C4040C94C404D0
:100090000C94C4040C94C4040C94C4040C94C404C0
:1000A0000C94C4040C94C4040C94C4040C94C404B0
:1000B0000C94C4040C94C4040C94C4040C94C404A0
:1000C0000C94C4040C94C4040C94C4040C94C40490
:1000D0000C94C4040C94C4040C94C4040C94C40480
:1000E0000C94C4040C94C4040C94C4040C94C40470
:1000F0000C94C4040C94C4040C94C4040C94C40460
:100100000C94C4040C94C4040C94C4040C94C4044F
:100110000C94C4040C94C4040C94C4040C94C4043F
:10012000084AD73B3BCE016E84BCBFFDC12F3D6C5E
:1001300074319ABD56833DDA3D00C77F11BED9E4C4
:10014000BB4C3E916BAAAABE000000803F076342F1
:1001500036B79BD8A71A39685618AEBAAB558C1D5E
:100160003CB7CC5763BD6DEDFD753EF6177231BFE0
:10017000000000803F05A84CCDB2D44EB93836A956
:10018000020C50B9918688083CA6AAAA2ABE000093
:1001900000803F08000000BE922449123EABAAAA8C
:1001A0002ABECDCCCC4C3E00000080BEABAAAAAA91
:1001B0003E00000000BF000000803F000000000083
:1001C000084178D3BB4387D1133D190E3CC3BD42D0
:1001D00082AD2B3E68EC8276BED98FE1A93E4C8081
:1001E000EFFFBE01C4FF7F3F000000000000696E0A
:1001F0006600494E46006E616E004E414E004E4113
:100200004E494E495459494E46CDCCCC3D0AD72390
:100210003C17B7D13877CC2B329595E6241FB14FD8
:100220000A000020410000C84200401C4620BCBE1D
:100230004CCA1B0E5AAEC59D7400407A10F35A008A
:10024000A0724E18090010A5D4E80000E8764817FF
:100250000000E40B54020000CA9A3B000000E1F5E4
:1002600005000080969800000040420F000000A0AA
:100270008601000000102700000000E803000000D5
:10028000006400000000000A0000000000010000FF
:100290000000002C76D888DC674F0823DFC1DFAE72
:1002A00059E1B1B796E5E3E453C63AE6519976963B
:1002B000E8E6C28426EB898C9B62ED407C6FFCEF04
:1002C000BC9C9F40F2BAA56FA5F490055A2AF75C32
:1002D000936B6CF9676DC11BFCE0E40D47FEF520E4
:1002E000E6B500D0ED902E030094357705008084AC
:1002F0001E080000204E0A000000C80C33333333C0
:100300000F986E12831141EF8D2114893BE655162B
:10031000CFFEE6DB18D1844B381BF77C1D901DA463
:10032000BBE424203284725E228100C9F124ECA156
:10033000E53D274572726F72204C6F6164696E678C
:10034000004572726F7220536176696E6700426178
:100350006420706172616D65746572004572726FC0
:100360007220696E2056414C20696E70757400428F
:10037000616420737472696E6720696E64657800C9
:1003800042616420617272617920696E64657800EF
:1003900057726F6E672061727261792064696D7344
:1003A0000052455455524E20776974686F75742019
:1003B000474F535542004D697373696E6720544827
:1003C000454E20696E2049460053544F50207374A7
:1003D0006174656D656E74004E455854207769747C
:1003E000686F757420464F5200427265616B2070D1
:1003F00072657373656400426164206C696E652088
:100400006E756D6265720042616420636F6D6D612F
:100410006E64005661726961626C65206E6F742053
:10042000666F756E6400446976206279207A657221
:100430006F004F7574206F66206D656D6F72790067
:100440004C696E65206E756D62657220746F6F20E9
:1004500062696700537472696E67206578707220F4
:100460006578706563746564004E756D6572696367
:1004700020657870722065787065637465640045E6
:1004800072726F7220696E2065787072004D6973A8
:1004900073696E6720627261636B657400556E7478
:1004A00065726D696E6174656420737472696E67DC
:1004B00000556E657870656374656420696E70754B
:1004C00074004C696E6520746F6F206C6F6E6700EE
:1004D000426164206E756D626572004F4B000101D0
:1004E000637801110128633203C0F80002C30402DB
:1004F000C40502D01D02B30002B58B0138023A02D6
:1005000002360002B09F05F01212121201200129DA
:1005100000000000000000260029002C002F0032FF
:1005200000000000000000000000000000000000CB
:1005300000000000000000000000000000000000BB
:10054000000000CB0200CD0200CF0200D10200D398
:100550000200D50200E00200DA0200D70200D90250
:1005600000DC0200DF0200E20240E40200E60200DA
:10057000E802C03603C0EC0240F00240F60240FA46
:100580000240FF02400303400803400C03401103F4
:10059000401703401C03401F03C02403092803091C
:1005A0002C0300F202013003053503400503C03976
:1005B00003C03E03404303C04703404B0340510385
:1005C000405803405C030E62030E69030F6E034044
:1005D0007203407803408103408503408D0300CFC0
:1005E0000340D503409303019B0301A40340A803E8
:1005F00040AF0301B30301B70301BB0301BE030115
:10060000C20301C60301CA0340CE0340D40340DA4B
:100610000300DF0301E30300E70340000000090AD1
:100620000B000003070000000000000000000200B3
:1006300000000000000000000000000000040500B1
:1006400000000000000000065F060000070300072E
:100650000300247E247E2400242B6A1200006313EE
:10066000086463003649562050000007030000006C
:10067000003E4100000000413E000000083E1C3EDC
:10068000080008083E08080000E0600000000808B4
:100690000808080000606000000020100804020044
:1006A0003E5149453E0000427F40000062514949A9
:1006B00046002249494936001814127F10002F497C
:1006C000494931003C4A494930000171090503009C
:1006D000364949493600064949291E00006C6C001C
:1006E000000000EC6C0000000814224100002424EB
:1006F00024242400004122140800020159090600A4
:100700003E415D551E007E1111117E007F49494911
:1007100036003E41414122007F4141413E007F4938
:10072000494941007F09090901003E4149497A00D0
:100730007F0808087F0000417F41000030404040B2
:100740003F007F08142241007F40404040007F026C
:1007500004027F007F0204087F003E4141413E00C9
:100760007F09090906003E4151215E007F090919F0
:10077000660026494949320001017F0101003F40DE
:1007800040403F001F2040201F003F403C403F00B2
:100790006314081463000708700807007149454393
:1007A0000000007F414100000204081020000041C9
:1007B000417F0000040201020400808080808000EC
:1007C0000003070000002054545478007F44444440
:1007D0003800384444442800384444447F003854A6
:1007E00054540800087E0909000018A4A4A47C0041
:1007F0007F040478000000007D4000004080847D7C
:1008000000007F102844000000007F4000007C04AE
:10081000180478007C04047800003844444438000C
:10082000FC444444380038444444FC0044784404C4
:100830000800085454542000043E442400003C4066
:10084000207C00001C2040201C003C6030603C00EC
:100850006C10106C00009CA0603C00006454544C70
:100860000000083E41410000000077000000004108
:10087000413E08000201020100003C2623263C62A2
:1008800079746573206672656500000000002500BC
:1008900000002B002E00310034000000000000009A
:1008A0000000000000000000240000002A002D00CD
:1008B00030003300000000000000000000000505CB
:1008C00005050505050502020202020204040707E8
:1008D00007070404040404040606060606060606C2
:1008E00002020102040810204080201001040802C6
:1008F00002010102042004081020408001020408C3
:1009000010204080408041726475696E6F204241C2
:1009100053494300DB04D004C204B1049D048D0498
:100920007F046904540440043204260413040704B9
:10093000F703E903D803C903B603A10390038003B7
:100940006F035C034E034103330311241FBECFEF3B
:10095000D1E4DEBFCDBF13E0A0E0B2E0ECECFCE6FA
:1009600000E00BBF02C007900D92AA3EB107D9F775
:1009700025E2AAEEB3E001C01D92A33AB207E1F767
:100980000E94DB240C9464360C9400008150823168
:1009900008F058C0E82FF0E0E053FB4F0C94E93228
:1009A000F004F404E204E804EC042205F704FD0476
:1009B000010507050B050F051505190522051D0580
:1009C00023052705809180008F778093800008950C
:1009D000809180008F7DF9CF80918000877FF5CF57
:1009E00084B58F7784BD089584B58F7DFBCF8091CA
:1009F000B0008F778093B00008958091B0008F7D14
:100A0000F9CF809190008F77809390000895809126
:100A100090008F7DF9CF80919000877FF5CF8091F6
:100A2000A0008F778093A00008958091A0008F7D13
:100A3000F9CF8091A000877FF5CF809120018F773B
:100A4000809320010895809120018F7DF9CF8091BE
:100A50002001877FF5CFCF93DF9390E0FC01EE512B
:100A6000F74F24918254974FFC0184918823C9F059
:100A700090E0880F991FFC01EC55F74FA591B491B8
:100A8000FC01E657F74FC591D49161110DC09FB796
:100A9000F8948C91209582238C9388812823288335
:100AA0009FBFDF91CF910895623051F49FB7F894C2
:100AB0003C91822F809583238C93E8812E2BEFCF5E
:100AC0008FB7F894EC912E2B2C938FBFEACF3FB7C2
:100AD000F89480912D0590912E05A0912F05B0914D
:100AE000300526B5A89B05C02F3F19F00196A11D22
:100AF000B11D3FBFBA2FA92F982F8827BC01CD0168
:100B0000620F711D811D911D42E0660F771F881FC6
:100B1000991F4A95D1F708958F929F92AF92BF92F5
:100B2000CF92DF92EF92FF926B017C010E946705EA
:100B30004B015C01C114D104E104F104B9F00E943D
:100B40006705681979098A099B09683E7340810520
:100B5000910580F321E0C21AD108E108F10888EE7E
:100B6000880E83E0981EA11CB11CE4CFFF90EF908B
:100B7000DF90CF90BF90AF909F908F90089580911D
:100B80004E2590914F259C01275131092230310586
:100B9000F8F08E309105F9F081319105E1F0285F90
:100BA0003F4F22303105D0F023503109223031053A
:100BB000A8F0285F3F4F2230310598F022503109CC
:100BC0002230310510F08E9779F488E290E0089594
:100BD00085E090E008958AE090E0089584E190E057
:100BE00008958EE190E008958FEF9FEF0895809132
:100BF0000D0490910E04FC01E35CFA4F20813181D9
:100C00002E5F3F4F821B930B90930E0480930D0435
:100C1000815C9A4F089580910D0490910E04049781
:100C200090930E0480930D04815C9A4FFC016081C7
:100C300071818281938108958F929F92AF92BF922A
:100C4000CF92DF92EF92FF920F931F93CF93DF9398
:100C5000EC015B01E881F981C190D190F983E883CF
:100C60000E940B060E94A13084E190E0C616D706D0
:100C7000B9F5F12CE12C88248394912C10E000E04C
:100C8000EC14FD0444F50E940B060E94A130E8819B
:100C9000F981A191B191F983E883161617066CF5D5
:100CA000A617B70754F1AB0141505109489D900177
:100CB000499D300D589D300D1124020F131FC401A2
:100CC0008A9F40018B9F900C9A9F900C11249FEF5C
:100CD000E91AF90AD5CFF5011183008390E080E08D
:100CE000DF91CF911F910F91FF90EF90DF90CF9008
:100CF000BF90AF909F908F90089585E190E0F0CFE6
:100D000040910D0450910E049A012C5F3F4FE091E9
:100D10003D05F0913E05E217F30770F0FA01E15C42
:100D2000FA4F608371838283938330930E04209300
:100D30000D0481E090E0089590E080E00895CF9365
:100D4000DF931F92CDB7DEB7898389818EBD000006
:100D50000DB407FEFDCF8EB50F90DF91CF910895B2
:100D6000982FFB01DA018770907F903D29F128F4DC
:100D7000903A41F0903BA1F00895903E49F1903FA8
:100D800099F10895232B49F424E330E02D933C930B
:100D900023E330E031832083089522E330E0F6CF6F
:100DA000232B39F425E230E02D933C9324E230E00C
:100DB000F1CF23E230E0F8CF232B39F42BE230E0FF
:100DC0002D933C932AE230E0E5CF29E230E0F8CFE2
:100DD000232B39F42EE230E02D933C932DE230E0CA
:100DE000D9CF2CE230E0F8CF232B39F421E330E0E7
:100DF0002D933C9320E330E0CDCF2FE230E0F8CFCD
:100E00001F93CF93DF9300D000D0CDB7DEB7162F5E
:100E100030E020E0AE014F5F5F4FBE016D5F7F4F5E
:100E20000E94B006E981FA81111115C0408121E0CC
:100E300030E0B90102C0660F771F8A95E2F7CB0157
:100E40008095842380830F900F900F900F90DF91F7
:100E5000CF911F910895908121E030E001C0220FD1
:100E60008A95EAF7892F822BEDCF1F93CF93DF93DB
:100E7000C72FD82F60E083ED0E94000785E00E9415
:100E80009F0680E00E949F06182F61E083ED0E947C
:100E9000000710FD3BC060E083ED0E94000786E084
:100EA0000E949F0661E083ED0E94000760E083EDF1
:100EB0000E94000780E20E949F068D2F0E949F06DD
:100EC0008C2F0E949F0680E00E949F0661E083EDC8
:100ED0000E94000760E083ED0E940007C8E7D0E0B1
:100EE00011E010FF16C085E00E949F0680E00E947E
:100EF0009F06182F61E070E080E090E00E948C0572
:100F0000219779F761E083ED0E94000790E080E08F
:100F100006C061E083ED0E94000781E090E0DF9170
:100F2000CF911F9108951F93CF93DF93EB01182F5B
:100F300060E083ED0E94000783E00E949F06812FFE
:100F40000E949F068D2F0E949F068C2F0E949F0655
:100F500080E00E949F06C82F61E083ED0E94000799
:100F60008C2FDF91CF911F910895FF920F931F93C4
:100F7000CF93DF93C72FD82F8A0160E083ED0E94C3
:100F8000000785E00E949F0680E00E949F06F82EE1
:100F900061E083ED0E940007F0FC51C060E083ED4A
:100FA0000E94000781E00E949F0680E00E949F0649
:100FB00061E083ED0E94000760E083ED0E9400077E
:100FC00086E00E949F0661E083ED0E94000760E0DA
:100FD00083ED0E94000782E00E949F068D2F0E94F1
:100FE0009F068C2F0E949F0680E00E949F06E801CA
:100FF000139589910E949F06C017D107D1F761E030
:1010000083ED0E94000760E083ED0E940007C4E1C9
:10101000D0E011E010FF16C085E00E949F0680E03E
:101020000E949F06182F61E070E080E090E00E942F
:101030008C05219779F761E083ED0E94000790E02D
:1010400080E006C061E083ED0E94000781E090E04F
:10105000DF91CF911F910F91FF9008951F93CF9330
:10106000DF93182FC091330560E08C2F0E9400079A
:10107000D091320560E08D2F0E940007812F0E94E1
:101080009F0661E08D2F0E94000761E08C2FDF91A9
:10109000CF911F910C940007DF92EF92FF920F9374
:1010A0001F93CF93DF93D82EE92E8B01F090330559
:1010B00060E08F2D0E940007CD2DDE2D0C0F1D1F2F
:1010C00089910E949F06C017D107D1F761E08F2D4B
:1010D000DF91CF911F910F91FF90EF90DF900C94D3
:1010E0000007CF92DF92EF92FF920F931F93CF935F
:1010F000DF9300D000D0CDB7DEB78C01E62E6A01B9
:10110000F22E8AE20E942E08198223E030E0C80104
:10111000B9010E94D5326A831B82C8018C0D9D1DC6
:101120000197B9010E94D5326C8364E070E0CE0172
:1011300001960E944C088BE20E942E081982EA82D6
:101140001B82FA94FE0CFC8264E070E0CE010196F2
:101150000E944C088CE20E942E080F900F900F9076
:101160000F90DF91CF911F910F91FF90EF90DF9043
:10117000CF9008951F93CF93DF9300D000D0CDB7C9
:10118000DEB7162F30E020E0AE014F5F5F4FBE01AB
:101190006D5F7F4F0E94B006EB81FC81113029F119
:1011A000408121E030E0B90102C0660F771F8A95C7
:1011B000E2F7CB01123059F08095842380830F90A1
:1011C0000F900F900F90DF91CF911F910895942F62
:1011D000982B9083E981FA819081982B9083EB8101
:1011E000FC81908180958923E9CF908121E030E0D6
:1011F00001C0220F8A95EAF7892F822BDFCF7F92D9
:101200008F929F92AF92BF92CF92DF92EF92FF9216
:101210000F931F93CF93DF9300D000D0CDB7DEB7ED
:1012200002EC12E062E0F80181918F010E94BA089D
:10123000F2E0083C1F07B1F78AE0E4EFF3E0AAEE22
:10124000B3E001900D928A95E1F794EFE92E93E0D7
:10125000F92E28EBA22E22E0B22E8701F80110828F
:10126000F50171905F0161E0872D0E94BA0860E08E
:10127000872D0E94000782EC882E82E0982ED12CC8
:10128000C12C21E030E0AE014D5F5F4FBE016F5FCA
:101290007F4FF40181914F010E94B006EB81FC81E8
:1012A000208130E002C0359527958A95E2F720FD30
:1012B0000BC021E030E00C2C01C0220F0A94EAF7A9
:1012C000F8018081822B8083FFEFCF1ADF0A86E04E
:1012D000C816D104B1F661E0872D0E94000760E0D6
:1012E000872D0E94BA080F5F1F4FE3E00E3F1E07D5
:1012F00009F0B4CF7091F403172F18707071AAEE33
:10130000B3E030E020E080E00AE0F701D1907F0117
:1013100050E040E061E0C22E9D2D962396131DC043
:101320009C919623D1F4C11004C09DEF940F92308C
:10133000A0F088E792E0111106C080E092E0711100
:1013400002C08CE392E0049FF001059FF00D112490
:10135000E80FF91FE20FF31F8081660F4F5F5F4FA9
:1013600046305105C9F62F5F3F4F11962A3031059F
:1013700061F60F900F900F900F90DF91CF911F911A
:101380000F91FF90EF90DF90CF90BF90AF909F9024
:101390008F907F900895DF92EF92FF920F931F93AB
:1013A000CF93DF93CDB7DEB7C058D1090FB6F8940D
:1013B000DEBF0FBECDBF20EA30E040E851E070E074
:1013C00060E090E080E00E94710800EA10E080E8B0
:1013D000D82ECE0101967C01F7018D2D11928A95B0
:1013E000E9F760E870E0C7010E944C08015011095C
:1013F00099F7C058DF4F0FB6F894DEBF0FBECDBFD0
:10140000DF91CF911F910F91FF90EF90DF900895A2
:1014100040E051E060E270E083E294E00E943D33FE
:1014200048E050E061E070E08BE194E00E943D33E1
:10143000109226051092250510922405109223057E
:1014400008951092402510923F2510920E0410929C
:101450000D0480E090E290930C0480930B04909331
:101460000A048093090490930804809307049093DE
:101470003E0580933D05EFE3F5E0DF019C011D9201
:1014800021503040E1F710920604109205041092AA
:1014900004041092030410925325109252250895CB
:1014A00080EEE3E4F4E0A3E2B4E001900D928A95CB
:1014B000E1F740E250E060E270E083E095E00E94F6
:1014C0003D3348E050E061E070E08BE194E00E9441
:1014D0003D33809123059091240501979093240535
:1014E000809323050895CF93DF93109226051092E1
:1014F000250580912305909124050196909324055C
:1015000080932305089711F40E94500AC091230587
:10151000D0912405CE0125E0880F991F2A95E1F787
:1015200040E250E060E270E08D5D9B4F0E943D33F1
:10153000C55EDB4F81E08883DF91CF910895CF9323
:10154000DF93C0912305D091240525E0CC0FDD1F4A
:101550002A95E1F72091250530912605C20FD31F6A
:101560009E01D7FF02C0215E3F4F95E0359527953C
:101570009A95E1F7F901E55EFB4F91E090839E01BA
:101580002F5F3F4FFE01ED5DFB4F80832F3F310505
:1015900031F02CF00E94500A9E012F513109C901EF
:1015A00060E270E00E94D532909326058093250575
:1015B00037FF02C0215E3F4F85E0359527958A951C
:1015C000E1F73093240520932305DF91CF9108950F
:1015D0002F923F924F925F926F927F928F929F9243
:1015E000AF92BF92CF92DF92EF92FF920F931F9331
:1015F000CF93DF938B01382E292E6B01E82EF92E25
:10160000D0E0C0E0812C912C540183942AE0422E3A
:10161000512C612C712C2196AAE0B0E0A501940117
:101620000E94322F4B015C01C701B601A301920158
:101630000E94132F69017A01C114D104E104F1045D
:1016400051F7F12CE12C8AE0482E512C612C712CA1
:10165000C501B401A30192010E94132F49015A014F
:10166000B801832D922D0E94132FCA01B901A30145
:1016700092010E94132F80E3860F0E949F0A8FEF32
:10168000E81AF80ACE15DF0519F7CE01DF91CF91E0
:101690001F910F91FF90EF90DF90CF90BF90AF9090
:1016A0009F908F907F906F905F904F903F902F9082
:1016B0000895CF93DF93EC01FE0184912196882356
:1016C00019F00E949F0AF8CFDF91CF910895CF9330
:1016D000DF93EC010E94730ABE0190E080E00E945B
:1016E000E80A80E20E949F0A8FE798E0DF91CF919D
:1016F0000C94590BFF920F931F93CF93DF93C091DC
:101700002305D091240525E0CC0FDD1F2A95E1F7B4
:101710002091250530912605C20FD31F8C01FF248F
:10172000F394F80181918F019E01D7FF02C0215EE1
:101730003F4F95E0359527959A95E1F78823B9F0C5
:10174000255E3B4FF901F082CE010196F8013197F9
:101750002081FE01ED5DFB4F20838F3F910529F035
:1017600024F00E94500ACE014F97EC01DACFCE014F
:1017700060E270E00E94D5329093260580932505A3
:101780003093240520932305DF91CF911F910F9172
:10179000FF900895CF93DF93FC0120813181C091A8
:1017A0003D05D0913E05CE01815C9A4FC20FD31FFB
:1017B0008E179F0739F4D0933E05C0933D05DF9106
:1017C000CF910895AF01481B590BBC01820F931FA5
:1017D0000E942B33F0CFCF92DF92EF92FF920F93C4
:1017E0001F93CF93DF9300910D0410910E04F80125
:1017F000E35CFA4F208131817C014FEFE41AF40A57
:10180000E216F306F4F4EC01C9010296081B190B69
:1018100010930E0400930D04C801815C9A4F6C0173
:10182000CE0CDF1C672BB1F4F60131971082F60164
:10183000F182E08223960C0F1D1F10930E0400937B
:101840000D04DF91CF911F910F91FF90EF90DF90EA
:10185000CF900895B9016E197F09680F791FA7010C
:101860000E942B33E4CF8F929F92AF92BF92CF9280
:10187000DF92EF92FF920F931F93CF93DF934B0171
:101880005C01EA0120E030E0A9010E94282C8111CE
:1018900011C080E388831982CE01DF91CF911F911F
:1018A0000F91FF90EF90DF90CF90BF90AF909F90FF
:1018B0008F90089575016401E894F7F827E137EBFC
:1018C00041ED58E3C701B6010E94282C87FD0AC0EC
:1018D00020E034E244E759E4C701B6010E949531A3
:1018E000181644F400E026E0AE01C501B4010E94E0
:1018F0009927D2CFC701B6010E94DC310E94D730B0
:1019000020E030E040E85FE30E94552F0E94A130C4
:1019100027E030E07901E61AF70A8E012E2D41E02A
:10192000C501B4010E941B28FE01EF2809F4B4CFC1
:101930009F012F5F3F4F8081811108C0DF01119708
:10194000FD018C91803321F41C92F8CFF901F0CF86
:101950008E3209F0A1CF10829FCF0F931F93CF93A8
:10196000DF93C0915025D0915125D0930104C093AD
:101970000004FE013196F0935125E0935025088133
:1019800010E010934F2500934E250130110531F5DD
:10199000A0E1B4E030E020E08191A9014F5F5F4F0A
:1019A00087FD03C08D939A01F7CFF0935125E09303
:1019B00050258058205F3B4FF901808391E08432AD
:1019C00009F090E090930F04405F5B4FFA011082A2
:1019D000C801DF91CF911F910F9108950330110538
:1019E00091F489819A81AB81BC8180934A2590933F
:1019F0004B25A0934C25B0934D252596D09351258A
:101A0000C0935025E5CF0230110579F469817A81C0
:101A10008B819C810E942F2C60934A2570934B25CB
:101A200080934C2590934D25E8CF0430110581F625
:101A3000F093FF03E093FE0301900020E9F7F09399
:101A40005125E0935025C4CF2F923F924F925F9241
:101A50006F927F928F929F92AF92BF92CF92DF92BE
:101A6000EF92FF920F931F93CF93DF93CDB7DEB723
:101A7000C656D1090FB6F894DEBF0FBECDBF9BE1AD
:101A8000492E94E0592E912C812CD12CC12C7E0111
:101A90002DE5E20EF11CCE018F5B9F4FA2969FAF0A
:101AA0008EAFA297F20181912F0181110DC080911B
:101AB0002705882309F406C1809123059091240508
:101AC0008C159D0509F0FEC0960184E0220F331F9E
:101AD0008A95E1F7A6963FAF2EAFA697C4018D5D1C
:101AE0009B4FA4969FAF8EAFA497B12CA12CA49628
:101AF0002EAD3FADA4972819390923523440A4963E
:101B0000EEADFFADA4978191A496FFAFEEAFA49781
:101B100080320CF480E24091250550912605421751
:101B2000530779F420912305309124052C153D05A8
:101B300041F490912705992321F090911904911176
:101B40008FE5282F082E000C330B3F938F9328EC42
:101B500032E03F932F931F9282E08F93FF92EF9298
:101B60000E9480333501F70101900020E9F7319799
:101B70008F010E191F092CE0209FC001219F900D9D
:101B800011248A0D9B1D0FB6F894DEBF0FBECDBF8A
:101B9000813891404CF080E891E08A199B096CE013
:101BA00070E00E94D5328B011701C1018E199F0987
:101BB000801791070CF07AC0F10181911F018052CA
:101BC000990BF6E0F89FB001F99F700D1124615C4C
:101BD000794F46E050E0CE018B5A9F4F0E94002C77
:101BE0006696AFAD669767962FAD6797A7962FAFAE
:101BF000A79768964FAD689769965FAD69976A96A3
:101C00006FAD6A976B967FAD6B97FE01319681E061
:101C1000982F9A2320E009F02CEFA7969FADA79765
:101C2000982309F43FC0236090EEB82FB42309F045
:101C30009F612483208395839183982F952320E0AF
:101C400009F02CEF982F962379F1236090EEB82FAE
:101C5000B72309F09F612683228397839383389665
:101C6000880FA2962EAD3FADA297E217F30781F63B
:101C700030E8631631E073065CF420E130E04CE0BC
:101C800050E0A6966EAD7FADA697C3010E94710885
:101C900060E470E0CE0101960E944C088CE0680E72
:101CA000711C83CF90E0C1CF90E0D1CF9CE0A90E12
:101CB000B11CE0E8AE16E1E0BE0609F018CFF20173
:101CC00031971082FFEFCF1ADF0A20E2820E911CBB
:101CD00038E0C316D10409F0E5CECA59DF4F0FB67C
:101CE000F894DEBF0FBECDBFDF91CF911F910F9152
:101CF000FF90EF90DF90CF90BF90AF909F908F902C
:101D00007F906F905F904F903F902F900895CF926B
:101D1000DF92EF92FF920F931F93CF93DF9381E0B7
:101D2000809327058091250590912605892B09F040
:101D300064C0809123059091240575E0880F991F58
:101D40007A95E1F740E250E060E270E08D5D9B4FF4
:101D50000E943D33C0912305D091240555E0CC0F5E
:101D6000DD1F5A95E1F78091250590912605C80F52
:101D7000D91F8E01D12CCC24C39460E2E62EF12C25
:101D80000E94FF08882309F465C09E01D7FF02C0A6
:101D9000215E3F4F45E0359527954A95E1F7F901DA
:101DA000E55EFB4FC08290EE980F9F3548F5FE012F
:101DB000ED5DFB4F80832196CE01B7010E94D532A5
:101DC0009093260580932505CE01D7FD4F9635E0EB
:101DD000959587953A95E1F790932405809323058F
:101DE000089741F400321105DCF000521109A09768
:101DF0000E94500AC0921A04C3CF0E94730AAACF4D
:101E0000823049F40C171D07BCF62197FE01ED5DE9
:101E1000FB4F1082D1CF8D3079F6DD24D394CCCF17
:101E20002197FE01ED5DFB4F1082CE01B7010E94AC
:101E3000D5329093260580932505CE01D7FD4F9688
:101E400025E0959587952A95E1F790932405809351
:101E50002305D0CF80911A0481110E94240DDD202A
:101E600009F48ECFCD5DDB4F188210922705E091EB
:101E70002305F0912405E55EFB4F81E080830E94FD
:101E8000240DC8018D5D9B4FDF91CF911F910F9164
:101E9000FF90EF90DF90CF900895EF92FF920F9315
:101EA0001F93CF93DF9300D000D0CDB7DEB78EED78
:101EB000E82E84E0F82EC7010196F701049103365D
:101EC00059F4F2E0EF0EF11CFC01649170E090E037
:101ED00080E00E948C05EFCF0023C1F0F2E0EF0E0E
:101EE000F11CFC0184910E942E08015021F310E0A6
:101EF000A801B701CE0101960E94002CE00EF11E50
:101F0000B801CE0101960E944C08D5CF0F900F90DA
:101F10000F900F90DF91CF911F910F91FF90EF9055
:101F20000895CF92DF92EF92FF920F931F93CF937A
:101F3000DF93EC0109900020E9F72197C81BD90B2A
:101F40006E012FEFC21AD20AE0900D04F0900E0439
:101F500097012C0D3D1D2F5F3F4F40913D05509146
:101F60003E0524173507F4F4BC018701015C1A4FC4
:101F7000C8010E946B33F801EC0DFD1DD182C082B7
:101F80002396CE0DDF1DD0930E04C0930D0481E087
:101F900090E0DF91CF911F910F91FF90EF90DF9034
:101FA000CF90089590E080E0F4CFCF92DF92EF924F
:101FB000FF920F931F93CF93DF937C016B01C0912E
:101FC0003D05D0913E05C15CDA4F009107041091A8
:101FD0000804015C1A4FC017D10790F48A8190E081
:101FE0008C219D21892B39F0B701CE0103960E94E7
:101FF0004433892B39F088819981C80FD91FEBCFE1
:10200000D0E0C0E0CE01DF91CF911F910F91FF9002
:10201000EF90DF90CF9008958F929F92AF92BF92F2
:10202000EF92FF920F931F93CF93DF937C014A01AE
:102030005B01EC0109900020E9F72197C81BD90B3F
:1020400063E070E00E94D50F009799F0C80FD91F88
:102050008C829D82AE82BF8281E090E0DF91CF9141
:102060001F910F91FF90EF90BF90AF909F908F9036
:102070000895CE010896E0913D05F0913E05E81BDC
:10208000F90B20910D0430910E04E217F307C4F010
:10209000F0933E05E0933D05E15CFA4F9183808328
:1020A0008F010D5F1F4F81E08283B701C8010E943D
:1020B0006B33C00FD11F89829A82AB82BC82CCCF96
:1020C00090E080E0CBCF8F929F92AF92BF92CF9261
:1020D000DF92EF92FF920F931F93CF93DF93CDB7D1
:1020E000DEB72B970FB6F894DEBF0FBECDBFC09002
:1020F0003A05D0903B05D601BD908D01EB2CF12C1B
:10210000C7010E94F72B892B89F5D0923B05C0921D
:102110003A05B1102DC0E0913805F0913905CF0195
:102120000196909339058093380510828091360589
:102130009091370501979093370580933605EE24EB
:10214000EA94FE2CC7012B960FB6F894DEBF0FBEA3
:10215000CDBFDF91CF911F910F91FF90EF90DF9056
:10216000CF90BF90AF909F908F9008956801C3CF9C
:10217000C701C0970A9718F0BEE2BB1291C0FE01DA
:10218000319690E080E0F12CE12C8F014C2D3D2D1B
:10219000D6012D916D012E32B1F4E114F10481F0DC
:1021A00040933A0530933B05CDCF8A30910571F7C6
:1021B000D0923B05C0923A05EE24E394F12CC2CFB5
:1021C000EE24E394F12C01962193D6012C91622FF9
:1021D0006053770B6A30710540F32E3231F3D092A1
:1021E0003B05C0923A05800F911FDC011C92809143
:1021F000360590913705863091050CF454C105974A
:102200009093370580933605E114F10431F54AE0E7
:1022100050E070E060E0C8010E94F1294B015C01D0
:10222000B1E08B1A9108A108B0E8BB0AEEEF8E1658
:10223000EFEF9E06AE06BE0680F4E0913805F09101
:10224000390522E0208361837283838394833596EA
:10225000F0933905E093380575CFE0903805F0909C
:102260003905C7010196909339058093380583E0BD
:10227000D7018C9370E060E0C8010E949328F701B9
:1022800061837283838394838091380590913905AB
:1022900004969093390580933805F12CE12C52CFA8
:1022A000C7010E941A337C01892B09F4E1C0109305
:1022B0003B0500933A05B982CC24C394D12CD801B4
:1022C000BD907D018B2D90E00E940D33892B19F478
:1022D000B4E2BB1211C0E8E0CE16D1045CF4E1E038
:1022E000F0E0EC0FFD1FEC0DFD1DB082A6014F5F6D
:1022F0005F4F6A018701E3CF10933B0500933A05D6
:10230000E1E0F0E0EC0FFD1FEC0DFD1D108250E749
:10231000852E55E0952E67E1A62EB12CF40165912E
:102320007491CE0101960E9444337C01892B09F0FF
:1023300050C08091360590913705823091050CF49C
:10234000B2C001979093370580933605E091380528
:10235000F0913905CF0101969093390580933805A6
:10236000A0825FE1A516B10409F0ECCE6F0162E036
:10237000C60ED11CD0923905C092380584E0818305
:1023800058017FEFA71AB70AD8018C9190E00E94FC
:10239000F72B7C01892B89F410933B0500933A05B8
:1023A000F601402F312FD8012D918D01BFEFCB1AAF
:1023B000DB0A222321F02083F3CF8501E1CF409374
:1023C0003A0530933B05D0923905C092380510820A
:1023D000B9CEEFEFAE1ABE0AF3E08F0E911C20E5E6
:1023E000A216B10409F09ACF64E270E0CE01019622
:1023F0000E945733009769F096012150310941E05E
:1024000050E04C0F5D1F240F351F8217930709F012
:10241000C5C096012F5F3F4F8091360590913705DB
:10242000281739070CF03FC0821B930B9093370598
:1024300080933605009138051091390578015FEFDA
:10244000E51AF50A81E0D8018C93BE016F5F7F4FDA
:10245000C7010E946B33F801EC0DFD1D808180687F
:102460008083CE0CDF1CD0923905C092380515CF81
:10247000B2E2BB124CC0E0913805F0913905DF01A2
:102480001196B0933905A093380584E0808380913C
:10249000360590913705019790933705809336055F
:1024A0008230910524F442E0E42EF12C4BCEF80169
:1024B00010933B0500933A056D0186016081662308
:1024C00009F470C0A6014F5F5F4F9C012150310994
:1024D000623239F4CF0101966181623209F072C033
:1024E000FC016A018081D8018C93C90131962130A9
:1024F000310519F7F0933B05E0933A055093390500
:10250000409338053093370520933605CCCF2DE620
:10251000A22E25E0B22E36E1832E912CF501A59155
:10252000B491FD0101900020E9F731978F010A1B5A
:102530001B0BF50185919491A801B6010E9472339D
:102540007C01892B01F58091360590913705823009
:1025500091050CF4A8CFE0913805F09139059F0161
:102560002F5F3F4F309339052093380580820197C4
:102570009093370580933605C00ED11ED0923B054F
:10258000C0923A05DFCDB1E08B1A9108E3E0AE1AB4
:10259000B108F7E08F16910409F0C0CF83E0E82E70
:1025A000F12CD0CDF0933B05E0933A05D09239055C
:1025B000C0923805909337058093360594E0E92E54
:1025C000F12CC0CD90933B0580933A05509339058B
:1025D00040933805D6011C92309337052093360579
:1025E000B1CD6F927F928F929F92AF92BF92CF9216
:1025F000DF92EF92FF920F931F93CF93DF93CDB7AC
:10260000DEB764970FB6F894DEBF0FBECDBFE09083
:102610004E25F0904F256AE2E616F1040CF04CC00E
:1026200078E2E716F1040CF07EC088E0E816F104C9
:1026300009F4DEC1ECF4E4E0EE16F10464F4F2E037
:10264000EF16F1040CF0B6C1EA94EF2809F4D1C0FA
:1026500006E010E0B8C074E0E716F104C9F7809115
:1026600049258111BBC10E94AD0C00E010E1ABC057
:1026700087E2E816F1040CF0CEC195E2E916F10408
:102680000CF051C0EBE0EE16F10421F0F9E1EF1689
:10269000F104F1F60E94AD0C0E94F1128C011F7042
:1026A0000115110509F0ECC38827907F892B09F4E7
:1026B000EBC107E010E087C060E4E616F10434F5F2
:1026C0007EE3E716F1047CF583E3E816F1040CF4ED
:1026D000BFCF96E3E916F10434F1EBE3EE16F10413
:1026E00009F0B6CF0E94AD0C80914925882309F4EA
:1026F0005EC160913C05611110923C05062E000CF4
:10270000770B880B990B0E942F2CFFC0FCE4EF166F
:10271000F10409F495C10CF04CC0C7018254910931
:10272000079708F095CFF701EE0FFF1FEE0DFF1D85
:10273000E35DFA4F14910E94AD0C80914E2590916B
:102740004F25089709F09EC3612E712C0E94AD0C95
:102750001370C12ED12C530133E0B594A7943A9550
:10276000E1F777E0A722BB24912C812C8C149D04E7
:102770000CF0BCC10E9478198C019F70892B19F54F
:102780000027107FA0FCABC1012B09F092CFB594BC
:10279000A7949FEF891A990A8C149D043CF78091A5
:1027A0004E2590914F25469709F052CF0E94AD0CCF
:1027B000DDCF7DE4E716F10409F4B5CF8EE4E81629
:1027C000F10409F045CFC80164960FB6F894DEBF56
:1027D0000FBECDBFDF91CF911F910F91FF90EF9072
:1027E000DF90CF90BF90AF909F908F907F906F9031
:1027F000089510914925112331F060E174E0CE0174
:1028000001960E946B33E0900F040E2C000CFF0821
:102810000E94AD0C80914E2590914F25089709F0AC
:102820007AC00E9494198C01892B69F68091492500
:10283000882309F4B9C08E010F5F1F4FEF28B1F153
:1028400060E170E0C8010E94D50F9C8B8B8B0097D4
:1028500019F40CE010E0B7CFF80101900020E9F77F
:102860009F01201B310B2D5F3F4F820F931F9C8BCD
:102870008B8BBE016F5E7F4FCE0143960E941C067C
:102880008C01892B09F09FCF29893A898B899C89F2
:10289000021713070CF05DC0FC014081411102C01A
:1028A0000F5F1F4F01969C8B8B8BF0CF64E070E025
:1028B000C8010E94D50F9C8B8B8B009751F2F801B9
:1028C00001900020E9F79F01201B310B2D5F3F4F46
:1028D000820F931F9C8B8B8BBE016F5E7F4FCE014F
:1028E00043960E941C068C01892B09F06CCF8989C4
:1028F0009A89880F991F880F991FEB89FC89E80F27
:10290000F91F60817181828193810E948006892BE9
:1029100009F04DC023C0112309F446C08E010F5F9A
:102920001F4FEF28F1F068E070E0C8010E94D50F5A
:10293000009709F48ECFF80101900020E9F79F017C
:10294000201B310B2D5F3F4F820F931F009709F41F
:1029500080CF0E94910F892B09F087CE0AE010E00A
:1029600032CF63E070E0C8010E94D50F009709F4F0
:1029700070CFF80101900020E9F73197E01BF10BCF
:10298000E80FF91FC480D580E680F7802FEF3FEF76
:102990004FE75FE7C701B6010E94282C882309F49E
:1029A00058CFC701B601B1CFEF2809F05ECE10E0D5
:1029B00000E009CF80914925811103C00E94AD0C30
:1029C000F6CF60914A2570914B2580914C259091CE
:1029D0004D250E948006892B89F7C0CF8091FE0388
:1029E0009091FF030E94910F892B09F03CCEB6CF46
:1029F0000E94AD0C0E9478198C019F70892B09F000
:102A0000E2CE80914E2590914F25099709F03AC268
:102A10000E94AD0CD8CE0E94AD0C80914925882330
:102A200031F20E948428BC01990F880B990B0E94F7
:102A30002F2C20E03EEF4FEF56E40E94F52F65CF9C
:102A40000E94AD0C80917A00806480937A0080911E
:102A50007A0086FDFCCF20917800809179009091DA
:102A60004925992309F4A3CF90E0982F8827820F56
:102A7000911D26E0289FB001299F700D112490E040
:102A800080E00E942D2C41CFFBE0EF16F104B9F05D
:102A900069E1E616F10409F0DBCD80914925882330
:102AA00009F485CF0E940B0620E030E0A9010E94C6
:102AB000282C882379F060E070E0CB0108C0809179
:102AC0004925882309F473CF0E940B0690580E9471
:102AD000800679CE60E070E080E89FE3F8CF0115D2
:102AE000104109F454CE08E010E06DCE80914925E4
:102AF000882309F439C0F701B597E932F10508F0E8
:102B0000A7CDEB57FA4E0C94E932CF151F162813B8
:102B1000AE15C315281328132813281328132813B8
:102B20002813281328138B169716A3162813281377
:102B3000281328132813281328132813F1161B17FA
:102B400028132813E215E715F115011606160B16C2
:102B500010162813281328132813EC150E940B06AF
:102B60000E94D7300E94800680914E2590914F257B
:102B7000099709F087C18301102F0027110F110F4A
:102B80000027107145CF0E940B06AE014F5F5F4FCB
:102B90000E94330C0E94910F892B31F7DFCE0E94E7
:102BA000F705FC0101900020E9F73197BF01681B90
:102BB000790B072E000C880B990B0E942F2C0E947A
:102BC0008006EACF0E940B060E946832F8CF0E946E
:102BD0000B060E94F02FF3CF0E940B060E94C12F1C
:102BE000EECF0E940B0620E030E0A9010E94953153
:102BF00018161CF40E940B06E2CF0E940B06905898
:102C0000DECF0E940B060E94EC31D9CF0E940B064A
:102C10000E946F30D4CF0E940B060E947632CFCF35
:102C20000E940B060E94A1306115710511F277FF19
:102C300003C06FEF7FEFBDCF61E070E0BACF0091CE
:102C40000D0410910E04E0900004F09001048091B6
:102C50003D0590913E05801B910B9801215C3A4FF8
:102C6000F901329740815181F901E41BF50BAF0165
:102C70004250510950933B0540933A053093390532
:102C80002093380590933705809336050E94631092
:102C90000097E1F334F0029709F460CE07E110E009
:102CA00092CD80910D0490910E04815C9A4F909387
:102CB00051258093502580913805909139058F5387
:102CC000954090930E0480930D040E94AD0C0E94D9
:102CD00078199C013F70232B21F00A9709F43ECE0E
:102CE000DDCF8827907F892B09F0E3CC0E940B066B
:102CF0004B015C0110930E0400930D040E94F70534
:102D0000C501B4010E948006F0925125E092502541
:102D10000E94AD0C29CF0E940B060E94A130CB016E
:102D200070E060E097FF0CC006E110E04CCD0E941F
:102D30000B060E94A130CB0177FDF6CF61E070E079
:102D40000E94EB0B11CF0E940B060E94A1306B0179
:102D50008B010E940B06D7FCE7CF0E94A13016160C
:102D6000170614F720910D0430910E04F901E35C6D
:102D7000FA4F408151810F5F1F4F461757070CF4E0
:102D8000BA0161507109C801860F971F481759078A
:102D90001CF48A01061B170B4017510709F4E4CEF7
:102DA0004E5F5F4F7901E41AF50AC701815C9A4FC3
:102DB0006C01A80141505109680F791F0E942B3303
:102DC000F601E00FF11FDF0111971C9211830083C0
:102DD0000E5F1F4F0E0D1F1D10930E0400930D0468
:102DE000C3CE0E940B060E94A1307727FB01E55E4F
:102DF000F94F8491FB01EE51F74F04916254774FE4
:102E0000FB01149170E060E0112309F4D2CE81112E
:102E10000E94C604E12FF0E0EE0FFF1FEF5EFA4FB5
:102E2000A591B491EC910E2391E080E009F490E03B
:102E3000692F782FBECE0E940B060E94A130862FEC
:102E40006E3010F082EF860F20917B00982F9870E3
:102E5000277F922B90937B008770806480937C0007
:102E600080917A00806480937A0080917A0086FD58
:102E7000FCCF8091780060917900762F682F99CEF1
:102E80008C01A1CC05E010E09ECC2F923F924F9296
:102E90005F926F927F928F929F92AF92BF92CF92EA
:102EA000DF92EF92FF920F931F93CF93DF9300D0A7
:102EB00000D0CDB7DEB79A8389838B010E94BF050E
:102EC0006C0189819A81C816D9060CF4BDC1809124
:102ED0004E2590914F259C838B830E94AD0C0E94C0
:102EE000F1127C019F70892BE1F40E94BF05C81686
:102EF000D9064CF4B701C60101960E9445177C0122
:102F00009F70892B71F4C8018827907F009709F082
:102F1000FDC0EE2490EFF922EF28D9F096E0E92EDB
:102F2000F12CC7010F900F900F900F90DF91CF9170
:102F30001F910F91FF90EF90DF90CF90BF90AF90D7
:102F40009F908F907F906F905F904F903F902F90C9
:102F50000895F0904925FF2009F47CC10E940B06DA
:102F60004B015C010E940B06762E672E582E492ECF
:102F70008B819C810A9709F0A0C1272D362D452D04
:102F8000542DC501B4010E94552F0E94800696CF92
:102F90008B819C810D9709F06DC120E030E0A90183
:102FA000C501B4010E94282C882309F44FC1A50152
:102FB0009401672D762D852D942D0E94F52FE5CF58
:102FC0008B819C81409789F4FF2009F477CF272DCE
:102FD000362D452D542DC501B4010E94953118168A
:102FE000ACF060E070E0CB01D0CF8B819C810F977B
:102FF00091F4FF2009F462CF272D362D452D542D55
:10300000C501B4010E94282C87FFEBCF60E070E07F
:1030100080E89FE3BACF8B819C810E9771F4FF20EB
:1030200009F44CCF272D362D452D542DC501B40163
:103030000E94282C882351F3D4CF8B819C81419707
:1030400071F4FF2009F43ACF272D362D452D542D4C
:10305000C501B4010E94282C8111D8CFC2CF8B8129
:103060009C81439771F4FF2009F428CF272D362D3A
:10307000452D542DC501B4010E94953187FFC6CF5F
:10308000B0CF8B819C81429779F4FF2009F416CF51
:10309000272D362D452D542DC501B4010E94282C15
:1030A00018160CF0B3CF9DCF8B819C814797A9F464
:1030B000FF2009F403CF20E030E0A901C501B401ED
:1030C0000E94282C81111FC050E040E030E020E039
:1030D000652F742F832F922F58CF8B819C81489717
:1030E00009F01CCFFF2009F4E9CE20E030E0A9016F
:1030F000C501B4010E94282C882329F050E040E04B
:1031000030E82FE3E5CFA3019201E2CF8115904192
:1031100009F004CFEE2480EFF822E11490E1F906E3
:1031200009F0FCCE8B819C810A9709F041C0809107
:103130004925882309F4C2CE20910D0430910E0454
:10314000F901E35CFA4F808191819C838B83029625
:10315000281B390BB901615C7A4FFB013297E08083
:10316000F180C70102961901281A390AC101815C50
:103170009A4F6C01C70101974B815C818C0D9D1D9D
:103180000E942B338B819C818E0D9F1D9C838B8392
:103190000197F601E80FF91F918380838B819C8151
:1031A0000196820D931D90930E0480930D0486CE9C
:1031B0008B819C810E97069708F0B0CE80914925AF
:1031C000882309F10E94F7058C010E94F705B801D8
:1031D0000E9462338C018B819C810E9741F4011512
:1031E000110509F413CF60E070E0CB010AC08B81B8
:1031F0009C81419759F4012BB1F360E070E080E8C5
:103200009FE30E94800610E000E058CE8B819C81F5
:103210000F9721F41016110634F7EFCF8B819C81A4
:10322000409719F417FFDFCFE8CF8B819C8142973D
:1032300019F417FDD8CFE1CF8B819C81439799F684
:103240001016110684F2D9CF78016BCE8BE0E82EF0
:10325000F12C67CE8B819C810A97029708F42ECEC1
:103260008B819C810C9709F429CE8B819C810D97D1
:1032700009F424CE8B819C818E9709F0A1CEFF208A
:1032800009F41CCEC501B4010E94A1307C836B837C
:10329000CB01892BD9F2672D762D852D942D0E9497
:1032A000A130CB016B817C810E94D532BC01990F8A
:1032B000880B990B0E942F2C68CE8B819C810B97D9
:1032C00049F4A5019401672D762D852D942D0E943A
:1032D000542F5BCE8B819C810C9709F059CE272D02
:1032E000362D452D542DC501B4010E948E2C4DCE96
:1032F0000E94F1129C013F70232B29F4BC0190E045
:1033000080E00C94451708950E9478199C013F7045
:10331000232B49F48827907F892B19F490E080E0D3
:10332000089587E090E008950F931F93CF93DF9364
:1033300080914E2590914F25089741F005E010E0CF
:10334000C801DF91CF911F910F9108950E94AD0C9C
:10335000D0E0C0E021960E9484198C01892B81F76E
:1033600080914E2590914F258930910529F04697FF
:1033700029F70E94AD0CEECF0E94AD0C809149253B
:103380008823F1F2BE01DD0F880B990B0E942F2CD0
:103390000E948006892BA1F60AE010E0D1CF4F925F
:1033A0005F926F927F928F929F92AF92BF92CF92D5
:1033B000DF92EF92FF920F931F93CF93DF93CDB7DE
:1033C000DEB72D970FB6F894DEBF0FBECDBFB82E77
:1033D00080914925882331F060E174E0CE010196A7
:1033E0000E946B33C0900F040C2C000CDD080E946F
:1033F000AD0C80914E2590914F25F12CE12C089732
:1034000001F50E9494198C01EE24E394F12C892B90
:10341000C1F0C8012D960FB6F894DEBF0FBECDBF28
:10342000DF91CF911F910F91FF90EF90DF90CF90A0
:10343000BF90AF909F908F907F906F905F904F90D4
:103440000895BB2009F47BC080914925882379F039
:103450000E94870EC114D10409F46AC00E94910F22
:10346000892B09F462C00E94730A0E94240D10E0A7
:1034700000E0CD2809F478C000E010E10027107FBB
:103480000115104109F053C180914925882309F4A1
:10349000BBC08E010F5F1F4FA0900D04B0900E04B3
:1034A000EF2809F4E3C00E94F7054C01FC010190EC
:1034B0000020E9F731973F01681A790A60E170E06E
:1034C000C8010E94D50F6C019D878C87892B09F458
:1034D00067C0F80101900020E9F7CF01801B910B34
:1034E00003968C0D9D1D9D878C87BE01665F7F4F67
:1034F000CE010C960E941C068C01892B09F089CF05
:103500002A853B8590E080E0EC84FD84F7018217FA
:1035100093070CF07CC04081411101C00196FFEF80
:10352000EF1AFF0AFD86EC86EFCF0AE010E071CFBC
:1035300070E060E00E9493280E94800691CF809105
:103540004E2590914F2506E010E00E9709F061CFCF
:103550000E94AD0C0E9478198C019F70892B09F094
:1035600058CFCD2809F08ACF0027107F012B09F012
:10357000DBC080914925882309F446C08E010F5F86
:103580001F4FEF28B9F10E940B066B017C0164E02C
:1035900070E0C8010E94D50F9D878C87009719F4B1
:1035A0000CE010E036CFF80101900020E9F79F0110
:1035B000201B310B2D5F3F4F820F931F9D878C8700
:1035C000BE01665F7F4FCE010C960E941C068C01E7
:1035D000892B09F01ECF8A859B85880F991F880F3C
:1035E000991FEC85FD85E80FF91FC082D182E28228
:1035F000F3820FCF0E940B06AB01BC01C8010E94F1
:103600000C10892B09F491CF10E000E002CF01905B
:103610000020E9F73197EE19FF096E1A7F0A6091D1
:103620003D0570913E052B01461857084A145B046E
:103630000CF4EFCEF60180819181860D971D918368
:103640008083615C7A4FA701461B570BC201815CE6
:103650009A4F0E942B33B401C701861997090E9423
:103660006B3350923E0540923D05D3CEC501815C3F
:103670009A4FFC01329720813181821B930B9C0170
:10368000225031096901F80101900020E9F73197D2
:103690007F01E01AF10AF90101900020E9F74F01DA
:1036A000C7010496821A930A880E991E68E070E09A
:1036B000C8010E94D50F009789F0FC01208131815B
:1036C00040913D0550913E05240F351F28193909B9
:1036D0002A153B0508F429CF0E94CA0BE0913D054D
:1036E000F0913E05E819F909EA15FB050CF41DCF28
:1036F000F0933E05E0933D05E15CFA4F91828082B4
:103700005F0123E0A20EB11C88E08283B801C501ED
:103710000E946B33C7010196B6018A0D9B1D0E9462
:103720006B330E94F70570CF07E010E072CE08E01F
:1037300010E06FCE2F923F924F925F926F927F92E6
:103740008F929F92AF92BF92CF92DF92EF92FF92B1
:103750000F931F93CF93DF93CDB7DEB7C052D14005
:103760000FB6F894DEBF0FBECDBF109202041092C8
:1037700044251092432510924225109241259E0126
:103780002F5F3E4FCF5FDE4F39832883C150D1403A
:10379000CE0101961C01E0904E25F0904F25E114DA
:1037A000F10411F40C945C24D0904925DD2041F003
:1037B00080913F259091402590930E0480930D04B5
:1037C000F7013197EF34F10510F00C945F24E551C7
:1037D000F44E0C94E932841C5F245F245F245F2440
:1037E0005F245F245F245F245F245F245F245F24C1
:1037F0005F245F245F245F245F245F245F245F24B1
:103800005F245F245F245F243A1C791C981CB81D38
:10381000FB1D141E7F238E1C7F23191E5F245F2433
:103820005F245F245F245F24841E5F245F24761F4F
:103830005F247F234B207F23A0205F245F245F240D
:103840007F23B4210423042304235F24CD21CD212D
:103850005F245F247F23CD215F245F245F245F24C6
:103860005F245F245F247F235622B5225F245F24D8
:103870007F233A1C0E94AD0CEE24E394F12C80913E
:103880004E2590914F25009749F1449739F10E94B8
:1038900078198C019F70892B09F01BC280914925F2
:1038A000882371F00027107F012BA9F40E940B06DA
:1038B000A1010E94330C0E947A0BEE24E394F12CB8
:1038C00080914E2590914F254597C9F60E94AD0CE9
:1038D000F12CE12CD4CF0E94F705EDCF8091492542
:1038E0008823C9F0EF2811F00E94730A0E94240D6A
:1038F00012C00E94AD0C80914E2590914F250197EA
:1039000019F006E010E0E5C180E00E94CF198C01BB
:10391000892B09F0DEC101E010E0ACC10E94AD0CC2
:1039200080914E2590914F25019759F781E0EDCF79
:103930000E94AD0C80914E2590914F25009709F47F
:1039400067C0449709F464C00E9484198C01892BD4
:1039500009F0BFC180914925912C812C882329F041
:103960000E940B060E94A8304B0180914E25909139
:103970004F25469709F44FC0512C412C8091492581
:10398000882349F2712C612CD12CFFE3AF2EF5E096
:10399000BF2E80913F2590914025815C9A4FA816BB
:1039A000B90608F0A3CFD50112966D917C918114D0
:1039B000910421F06815790508F4D4C0411451042C
:1039C00021F04616570608F4CDC090E080E00E9432
:1039D000E80A80E20E949F0A7501B4E0EB0EF11C38
:1039E000CD5FDE4F19821882C350D140D701EC91D0
:1039F000EE2309F49EC0E13031F587010F5F1F4FC0
:103A0000F80181918F0187FD19C00E949F0AF8CFAC
:103A1000912C812CB1CF0E94AD0C0E9484198C0195
:103A2000892B09F056C180914925882309F473CF69
:103A30000E940B060E94A8302B01A0CF80580E9444
:103A40009F0A7801D3CFE33079F411966D917D917F
:103A50008D919C911497A1010E94330C0E947A0BC6
:103A600087010B5F1F4FEDCFE23041F4F701618119
:103A70007281838194810E94E80AF2CF87010F5FEF
:103A80001F4FE43059F5CD5FDE4F28813981C35097
:103A9000D140232B49F0C8010E947A0BD8010D9028
:103AA0000020E9F78D01CDCF82E20E949F0A7801C4
:103AB0008701F70181917F01882351F0823211F44F
:103AC0000E949F0AF701319780810E949F0AF0CFE0
:103AD00082E20E949F0A0F5F1F4FB3CF23E0E29F55
:103AE000F0011124E35DFA4FC490C7FE03C080E2E9
:103AF0000E949F0AD701EC91B3E0EB9FF0011124E3
:103B0000E55DFA4F859194910E947A0BC6FE03C041
:103B100080E20E949F0AF70180818F3109F091CFE6
:103B200021E030E0CD5FDE4F39832883C350D140A0
:103B300088CF0E94730A3FEF631A730A87E0681602
:103B4000710481F491E0D91669F00E94240D0E945D
:103B5000FF088823E1F3DD24D394803209F0D12CCF
:103B6000712C612CD5018D919C91A80EB91E11CF9D
:103B70000E94AD0C80914E2590914F2561E070E040
:103B8000892BA9F00E9484198C01892B09F0A1C00E
:103B900080914925882309F4BECE0E940B060E941D
:103BA000A8306115710519F40EE010E092C0809103
:103BB0004925882309F4AFCE80E090E290930C046D
:103BC00080930B0490930A04809309049093080453
:103BD0008093070490933E0580933D0570934425A0
:103BE000609343251092040410920304109206047B
:103BF0001092050490CE0E94AD0C0E9484198C0195
:103C0000892B09F066C080914925882309F483CE69
:103C10000E940B060E94A8306115710529F270936D
:103C200044256093432577CE0E94AD0C0E94AD0CD5
:103C300072CE0E94AD0C0E9484198C01892B09F070
:103C400048C080914E2590914F25849709F02BC64E
:103C50000E94AD0C80914925882361F00E940B06DB
:103C600020E030E0A9010E94282C811103C081E0EE
:103C7000809302048091020481111EC68091432525
:103C800090914425892B09F017C680914125909188
:103C90004225892B09F010C680914E2590914F2521
:103CA000009709F0EFC510E000E080914525909164
:103CB00046250196909346258093452520914725DA
:103CC000309148258217930721F00115110509F459
:103CD00062CDC801C05EDE4F0FB6F894DEBF0FBEE6
:103CE000CDBFDF91CF911F910F91FF90EF90DF90AB
:103CF000CF90BF90AF909F908F907F906F905F908C
:103D00004F903F902F9008950E94AD0C00914E254A
:103D100010914F250130110509F0F3CD80910F046A
:103D20008111EFCDDD2029F060E174E0C1010E9436
:103D30006B330E94AD0C80914E2590914F250E97CC
:103D400009F0DFCD0E94AD0C0E948419009709F0A4
:103D5000CBC080914925882351F00E940B06CF5E8D
:103D6000DE4F688379838A839B83C151D1408091E0
:103D70004E2590914F258B9709F0C3CD0E94AD0C35
:103D80000E948419009709F0AFC0809149258823CB
:103D900051F00E940B06CB5EDE4F688379838A83E5
:103DA0009B83C551D14080914E2590914F25412C48
:103DB000512CE0E86E2EEFE37E2E8C9781F40E946A
:103DC000AD0C0E948419009709F08EC0809149259E
:103DD000882309F44FCF0E940B062B013C018091F0
:103DE0004925882309F446CFE0914525F0914625E1
:103DF000CD5FDE4FF983E883C350D14080905225D8
:103E000090905325F10101900020E9F731977F014F
:103E1000E218F3086701F4E1CF0ED11C63E070E013
:103E2000C1010E94D50F20913D0530913E05A09023
:103E30000D04B0900E04009779F0DC014D915C9177
:103E4000240F351F2C193D092A153B0518F40AE0EB
:103E500010E03FCF0E94CA0BE0913D05F0913E0576
:103E6000EC19FD09EA15FB0594F3F0933E05E09388
:103E70003D05E15CFA4FD182C0826F01B3E0CB0E09
:103E8000D11C82E08283B101C6010E946B33EFEF47
:103E9000EE1AFE0AF601EE0DFF1DCF5EDE4F8881A1
:103EA0009981AA81BB81C151D14080839183A28332
:103EB000B3834482558266827782CB5EDE4F8881EF
:103EC0009981AA81BB81C551D14080879187A28702
:103ED000B38795868486CD5FDE4FA881B981C350B4
:103EE000D140B787A687C6CE8C01F3CE0E94AD0C19
:103EF00000914E2510914F250130110509F001CD9B
:103F000080910F048111FDCCDD2009F4BBC063E07A
:103F100070E080E194E00E94D50F009709F4B5C0ED
:103F2000FC012281CC24CA94DC2C7FE7E72EFE2CF6
:103F30002230A9F5E0E1F4E001900020E9F7ED502E
:103F4000F440E80FF91F80819181A281B381CB5F9A
:103F5000DE4F88839983AA83BB83C550D140C48038
:103F6000D580E680F78080859185A285B385C35F83
:103F7000DE4F88839983AA83BB83CD50D140A4852B
:103F8000B585C15EDE4FB983A883CF51D140268568
:103F90003785C35EDE4F39832883CD51D1402FEF63
:103FA0003FEF4FE75FE7CB5FDE4F688179818A8122
:103FB0009B81C550D1400E94282C882309F465C0FC
:103FC0002FEF3FEF4FE75FE7C701B6010E94282CB4
:103FD000882309F45DC0A7019601CB5FDE4F68819D
:103FE00079818A819B81C550D1400E94552F4B0118
:103FF0005C01BC01A40180E194E00E940C1020E06F
:1040000030E0A901C701B6010E94953187FD0EC0BD
:10401000C35FDE4F288139814A815B81CD50D14019
:10402000C501B4010E94282C1816BCF420E030E031
:10403000A901C701B6010E94282C87FF23C0C35FD6
:10404000DE4F288139814A815B81CD50D140C50145
:10405000B4010E94953187FD15C0C15EDE4F888195
:104060009981CF51D1409093442580934325C35EDD
:10407000DE4F88819981CD51D140019690934225A0
:10408000809341250E94AD0CF5CD0CE010E021CECF
:1040900000E110E01ECE0E94AD0C0E9484198C013C
:1040A000892B09F016CE80914925882309F433CC59
:1040B0000E940B060E94A8306115710509F474CDA9
:1040C000709344256093432520913D0530913E0532
:1040D000790194E0E91AF10880910D0490910E04A1
:1040E000E816F9060CF4B3CEC0904525D0904625CD
:1040F000A0905225B0905325009107041091080418
:10410000C901815C9A4FA801421B530BBC01049763
:104110000E942B33F0923E05E0923D0504501109B8
:10412000109308040093070410930A0400930904F1
:10413000F801E15CFA4FB182A082D382C282EBCB5C
:104140000E94AD0C00914E2510914F2501301105B4
:1041500009F0D7CBDD2029F060E174E0C1010E94B5
:104160006B33A0910F04CD5FDE4FA883C350D140C5
:104170000E94AD0C0E9494192C01009709F0F2C026
:1041800080914925882309F475CDF1010190002023
:10419000E9F731979F0122193309C75FDE4F398351
:1041A0002883C950D1402A5F3F4FC75EDE4F398315
:1041B0002883C951D1400E940B060E94A1306B0197
:1041C000C55FDE4F79836883CB50D14080910D0469
:1041D00090910E04C55EDE4F99838883CB51D14008
:1041E000B12CA12C88248394912CC55FDE4FA8812B
:1041F000B981CB50D140AA16BB0684F40E940B06AD
:104200000E94A130F401E69F4001E79F900CF69FC9
:10421000900C1124FFEFAF1ABF0AE7CF5601AA0C8A
:10422000BB1CCD5FDE4F2881C350D14081E090E0C0
:10423000211102C084E090E0889E3001899E700CBC
:10424000989E700C1124C75EDE4F88819981C951F8
:10425000D140A80EB91EA60CB71CCD5FDE4F9881C9
:10426000C350D14060E170E0911102C064E070E0A1
:10427000C1010E94D50F80900D0490900E0400970C
:1042800089F020913D0530913E052A193B09DC015A
:104290004D915C91240F351F2815390508F4D7CDB1
:1042A0000E94CA0BE0913D05F0913E05EA19FB0919
:1042B000E815F9050CF4CBCDF0933E05E0933D05F0
:1042C000E15CFA4FB182A082CD5FDE4FB881C3506E
:1042D000D14080E1B11101C084E04F0123E0820EA2
:1042E000911C8283B101C4010E946B33C75FDE4F12
:1042F00088819981C950D1400196880E991ED401B8
:10430000CD92DD924D01C55EDE4FE881F981CB5142
:10431000D140F0930E04E0930D045D01C55FDE4FC4
:1043200028813981CB50D1404216530664F40E9453
:104330000B060E94A130D5016D937D935D01BFEF07
:104340004B1A5B0AEBCFD7FE02C0D12CC12CCC0C90
:10435000DD1CA30170E060E0C4018C0D9D1D0E9476
:104360003D3388CC8C01B5CC0E94AD0C0E948419E1
:104370008C01892B09F0ADCC80914925882309F463
:10438000CACA0E940B060E94A13097FF03C008E131
:1043900010E09FCC0E948C05BECA0E94AD0C80919B
:1043A0004E2590914F25ECE3EE16F10409F03FC045
:1043B0008A309105E1F50E94AD0C90E081E02091FA
:1043C0004925222309F4A7CA9111A5CA2CE3E216B4
:1043D000F10409F042C06CEF811101C060E090E08F
:1043E00080E00E94D32E60913F2581E090E00E9402
:1043F000D32E6091402582E090E00E94D32E3FE3CF
:10440000E32E35E0F32E10E000E080913F259091FF
:104410004025081719070CF07ECAD7016D917D0160
:10442000C80103960E94D32E0F5F1F4FEECF009757
:1044300091F0449781F00E9478198C019F70892B2C
:1044400009F047CC0027107F0115104109F02EC25A
:1044500091E080E0B4CF90E0FCCFBDE3EB16F10437
:1044600009F02DC20E94210A81E090E00E94CB2E2B
:10447000C82E82E090E00E94CB2ED82ED09240250C
:10448000C0923F252FE3E22E25E0F22E10E000E05F
:104490000C151D050CF03FCAC80103960E94CB2ED7
:1044A000F70181937F010F5F1F4FF2CF0E94AD0C88
:1044B0000E9484198C01892B09F00BCC809149252D
:1044C000882309F428CA0E940B060E94A1306A3092
:1044D000710508F05CCFDB0120E030E30E94F2328E
:1044E0004B015C010E943507C501B401705F8F4F1D
:1044F0009F4F0E94350775016401F0E2DF0EE11C59
:10450000F11CC701B6010E9435070FE315E0FE015B
:104510003196D8018D918193CF5FDE4F288139810B
:10452000C150D1402E173F07A9F7A101C501B40121
:104530000E94B5073FEF931AA30AB30A139585E2C9
:104540000F33180721F700913F251091402509836B
:104550001A83A101C701B6010E94B507B801110F66
:10456000880B990B0E94E80AD6C90E94AD0C0E94E4
:1045700084198C01892B09F0ACCB809149258823C3
:1045800009F4C9C90E940B060E94A1306B019AE090
:10459000C916D10408F0FBCE0E94210AD60120E002
:1045A00030E30E94F2324B015C010E949307C50187
:1045B000B401705E8F4F9F4F0E949307082FC50173
:1045C000B4016F5F7F4D8F4F9F4F0E949307182F4D
:1045D0001093402500933F259FE3E92E95E0F92EA7
:1045E000C7018F539540801791070CF0B7CFC501D5
:1045F000B4010E949307D7018D937D01BFEF8B1A01
:104600009B0AAB0ABB0AECCF0E94AD0C0E94841936
:104610008C01892B09F05DCB80914E2590914F251F
:10462000469709F06EC90E94AD0C0E9484198C0156
:10463000892B09F04ECB80914925882309F46BC959
:104640000E940B060E94A130D62EC72E062F172FD0
:104650000E940B060E94A130CB01E9E3EE16F104A3
:1046600011F1FAE3EF16F10409F445C06032710567
:1046700014F08FE190E097FF02C090E080E090930B
:104680002605809325058D2D9C2D8830910514F0ED
:1046900087E090E097FF02C090E080E090932405CF
:1046A0008093230538C99B013327F901E55EF94F53
:1046B0008491F901EE51F74FE490F901E254F74F7C
:1046C000F490FF2009F427C981110E94C604EF2D40
:1046D000F0E0EE0FFF1FE657F74FA591B4918FB7AB
:1046E000F894EC91012B29F4E094EE22EC928FBF28
:1046F00012C9EE2AFBCF6D2D0E942B050CC90E941A
:10470000AD0CDD2009F407C921E3E216F10409F438
:104710004EC004F582E2E816F104A1F19FE2E91629
:10472000F10451F1A0E2EA16F10409F0F4C8809115
:10473000522590915325909306048093050480910F
:10474000452590914625909304048093030401E14C
:1047500010E0BFCAB9E4EB16F10409F469C0EEE455
:10476000EE16F10409F481C0F6E3EF16F10409F046
:10477000D2C80E94080ABAC80E94210A81E0809328
:104780000204C9C88091050490910604009709F4B9
:10479000C2C890934425809343258091030490914F
:1047A000040401969093422580934125B4C8E0917A
:1047B0000904F0910A0480910B0490910C04E8170D
:1047C000F90709F476C0E15CFA4FA080B180C2809D
:1047D000D3800091070410910804E0903D05F0900B
:1047E0003E05C701815C9A4FA8014E195F09BC01C3
:1047F00004960E942B3324E0E20EF11CF0923E0559
:10480000E0923D050C5F1F4F1093080400930704CE
:1048100010930A0400930904B0924425A092432502
:104820003FEFC31AD30AD0924225C092412573C8E4
:1048300088E20E942E0880E10E942E0810927A00E1
:1048400052985A9AEA98809169008F7C8093690007
:10485000E29AEA9A83B7817F846083BF83B78160DD
:1048600083BF88950E944D0F56C880913D05909159
:104870003E0520913F2530914025821B930B0E94DD
:10488000670B34C8012B09F40ECA449749F40E94FF
:10489000AD0C80914E2590914F25892B09F003CACC
:1048A0000DE010E002CA02E110E013CA08E010E0D7
:1048B00010CA03E110E00DCA10E000E00ACA0DE0E2
:1048C00010E007CA1F920F920FB60F9211242F9378
:1048D0003F938F939F93AF93BF93809129059091BE
:1048E0002A05A0912B05B0912C053091280523E0D5
:1048F000230F2D3758F50196A11DB11D20932805D2
:104900008093290590932A05A0932B05B0932C053D
:1049100080912D0590912E05A0912F05B091300525
:104920000196A11DB11D80932D0590932E05A09396
:104930002F05B0933005BF91AF919F918F913F911B
:104940002F910F900FBE0F901F90189526E8230F00
:104950000296A11DB11DD2CF1F920F920FB60F92DA
:1049600011248F939F9380913405909135059093F6
:104970008500809384009091190481E0911180E07A
:104980008093190481E080931A049F918F910F9076
:104990000FBE0F901F9018951F920F920FB60F9297
:1049A00011248F9383B78E7F83BF8F910F900FBE9B
:1049B0000F901F901895789484B5826084BD84B55B
:1049C000816084BD85B5826085BD85B5816085BD0A
:1049D00080916E00816080936E00109281008091C2
:1049E000810082608093810080918100816080934A
:1049F0008100809180008160809380008091B1006F
:104A000084608093B1008091B00081608093B00099
:104A100080919100826080939100809191008160EB
:104A200080939100809190008160809390008091AC
:104A3000A10082608093A1008091A1008160809399
:104A4000A1008091A00081608093A000809121014D
:104A500082608093210180912101816080932101F6
:104A60008091200181608093200180917A00846090
:104A700080937A0080917A00826080937A0080919E
:104A80007A00816080937A0080917A0080688093B8
:104A90007A001092C10062E082E00E942B0582E061
:104AA0008093390180EC80937C0087E880937A00C2
:104AB00010927B0084E58093770087E980937A00E9
:104AC00080917A00806480937A0087EE809333052A
:104AD00086ED8093320582EA8093310561E080EBB8
:104AE0000E94000761E080EB0E94BA0880E58CBD5F
:104AF00081E08DBD8DB58EB561E081EB0E94BA0875
:104B000061E082EB0E94BA08C091330561E08C2F0E
:104B10000E94BA0861E083ED0E94BA0861E08C2F20
:104B20000E94000761E0809132050E94BA08C0919E
:104B3000310561E08C2F0E94BA0861E08C2F0E9441
:104B4000000762E370E080E090E00E948C0560E086
:104B50008C2F0E94000765E070E080E090E00E94EA
:104B60008C0561E08C2F0E94000766E970E080E010
:104B700090E00E948C050E944D0F0E94CB090E947C
:104B8000CB090E94210A0E94CB09F8941092800060
:104B9000109281008EEE95E8909335058093340550
:104BA000909385008093840080918100846080933D
:104BB000810080916F00816080936F0078940E94E3
:104BC000080A86E099E00E94590B80913D0590917A
:104BD0003E0520913F2530914025821B930B0E947A
:104BE000670B0E94240D94E5C92E95E2D92E0E94F0
:104BF000870E90933B0580933A05D0923905C09279
:104C000038058DE490E090933705809336050E9437
:104C10006310EC010097D9F30CF00EC10E94730AE7
:104C2000D0925125C09250250E94AD0C80914E2506
:104C300090914F25029709F043C060914A257091E9
:104C40004B2580914C2590914D250E94A1306115F6
:104C50007105E1E08E0791050CF065C17B01A09024
:104C60005025B09051250E94AD0C1092492510920C
:104C70004825109247250E949A1BEC01892B09F0C8
:104C8000DBC0E114F10409F472C04090502550904B
:104C9000512540913F25509140259A01215C3A4F82
:104CA000CFE3D5E0C217D30708F05EC08A809B80AF
:104CB0008E149F0450F488819981C80FD91FF2CFB8
:104CC000B12CA12CF12CE12CD0CFE814F90489F4FB
:104CD00068817981461B570B5093402540933F25AF
:104CE000415C5A4F4C1B5D0B6C0F7D1FCE010E9427
:104CF0002B33F5018081882379F14A185B08320152
:104D0000F4E06F0E711C40913F2550914025130136
:104D1000240E351E80913D0590913E058215930528
:104D20000CF404C1892851F0415C5A4F4C1B5D0BB7
:104D3000BE01CE01860D971D0E942B3379826882B9
:104D4000FB82EA82A201B501CE0104960E942233C1
:104D50003092402520923F2580E090E0892B09F495
:104D600046CF0E94000043CF912C812CC2CFD0921D
:104D70005125C092502521E02093492510925325BA
:104D8000109252250E94AD0C109246251092452596
:104D90008091472590914825892B59F010924925FB
:104DA0000E949A1B81E08093492510924825109219
:104DB00047250E949A1BEC01892BF1F58091432530
:104DC000909144252091522530915325232B09F0B1
:104DD0004DC0009739F42091412530914225232B75
:104DE00009F4BACF2091522530915325232B09F095
:104DF0004CC0009709F051C02091412530914225C7
:104E0000232B09F444C0D0925125C09250258091A3
:104E1000412590914225009721F090934825809359
:104E200047250E94FF08882309F4ACCF80933C05F6
:104E30008B31B9F7CFE0D0E00E94730A6091522520
:104E4000709153256115710539F090E080E00E9462
:104E5000E80A8DE20E949F0AFE01EE0FFF1FEC5E42
:104E6000F64F859194910E94590B76CF009709F0E7
:104E7000B9CF2091412530914225232B09F4B2CF9F
:104E80001092532510925225ADCF009731F4209106
:104E9000412530914225232BB1F020913F253091BF
:104EA0004025215C3A4F0FE315E00217130780F409
:104EB000F801428153814817590750F440815181CC
:104EC000040F151FF2CFF80120813181020F131F4B
:104ED00020913F2530914025215C3A4F021713075E
:104EE00009F43ACFF801228133813093532520937E
:104EF0005225A8014C5F5F4F509351254093502598
:104F0000009709F484CF4091412550914225452BCB
:104F100009F47DCF8217930708F079CF10924225CC
:104F20001092412574CFC9E0D0E086CFCAE0D0E02E
:104F300083CFCF92DF92EF92FF920F931F93CF9385
:104F4000DF93EA01E22EF02E122F27E02E1508F44F
:104F500017E000E0212FAE010E941F2B9881292F1E
:104F60002870DE0190FF39C0211137C011962DE263
:104F700028836EEE71E092FD39C0FD0131962981E2
:104F80002C93213309F09F7EEE20C1F0AE014E5FDD
:104F90005F4F6F01312F2EE2DA016D91AD01D60125
:104FA0002D936D013150262FB9F7AFEFA10FAE0F42
:104FB000BF2FB11DFD01329611966C9325E4F2FED0
:104FC00025E6208387FF28C09DE29183819590E3A9
:104FD0008A304CF19F5F8A50FBCFF1FE18C01196CA
:104FE0003BE2388366EF71E0222319F2F2FE02C041
:104FF0006C5F7F4FCD010E94092CCE01DF91CF91D4
:105000001F910F91FF90EF90DF90CF900895F0FEE9
:10501000E9CF119630E2E5CF81110AC094FF08C0B4
:105020009DE2918390E39283805D83831482E5CF38
:105030009BE29183CCCFEF920F931F93CF93DF939B
:10504000E80134E047FD34E1042E000C550B57FF16
:1050500003C0519541955109E32E022F242FAE0133
:105060000E94FB2CCE01DF91CF911F910F91EF9009
:1050700008958F929F92AF92BF92CF92DF92EF925C
:10508000FF92CF93DF93EC01688179818A819B81C4
:10509000611571058105910521F464E279ED8BE5D7
:1050A00097E02DE133EF41E050E00E94132F4901DA
:1050B0005A019B01AC01A7EAB1E40E94322F6B01B7
:1050C0007C01ACEEB4EFA50194010E94402FDC01FD
:1050D000CB018C0D9D1DAE1DBF1DB7FF03C00197F9
:1050E000A109B04888839983AA83BB839F77DF9106
:1050F000CF91FF90EF90DF90CF90BF90AF909F90B7
:105100008F9008950C94392884EB92E00C94392800
:10511000B0E0A0E08093B4029093B502A093B602F1
:10512000B093B70208958F929F92AF92BF92CF92A1
:10513000DF92EF92FF920F931F93CF93DF935C0167
:105140007B016115710519F0DB018D939C9385013D
:105150000F5F1F4FF501D0818D2F90E00E94F72B3C
:105160006C01892BB9F5DD32B9F50F5F1F4FD50101
:105170001196DC91C1E05801F1E0AF1AB10843E0AB
:1051800050E066E072E0C5010E94102C892B69F5A1
:10519000680182E0C80ED11C45E050E061E072E099
:1051A000C6010E94102C892B21F4680197E0C90EDA
:1051B000D11CE114F10419F0D701CD92DC9260E02A
:1051C00070E080E89FEFC111FFC060E070E080E810
:1051D0009FE7FAC05801BBCFDB3229F485010E5F8F
:1051E0001F4FF501D181C0E0C6CF43E050E06EEF24
:1051F00071E0C5010E94102C892BE9F0F80110E044
:1052000000E020E030E0A9015F01B0ED8B2E8D0EB3
:1052100089E08815C8F19C2E689491F88C2F8870CD
:10522000C2FF16C0811102C00F5F1F4F3196D5011A
:10523000DC91C92DE9CFE114F10429F00E5F1F4F75
:10524000F7011183008360E070E080EC9FE7BCC051
:10525000882311F001501109A5E0B0E00E94322F1F
:105260009B01AC01220F331F441F551F280D311D18
:10527000411D511D283999E93907490799E1590715
:10528000A8F2C6609C2ED2CFAEEF8A1206C0C3FD34
:105290003CC09C2E689493F8C9CFDF7DD534A9F526
:1052A00080818D3239F4C061DF011296818162E024
:1052B00070E006C0DF018B32C1F3119661E070E04F
:1052C00080535D01A61AB70A8A30F8F4E0E8CE16DA
:1052D000ECE0DE065CF4B601660F771F660F771F01
:1052E000C60ED71ECC0CDD1CC80ED11C5D01FFEF15
:1052F000AF1ABF0A8C9180538A30A8F1C4FF03C053
:10530000D194C194D1080C0D1D1DC1FF09C0E11439
:10531000F10431F081E0A81AB108D701AD92BC9236
:10532000CA01B9010E942D2CC370C33009F49058F2
:105330004B015C0120E030E0A9010E94282C882369
:1053400009F440C0C5E3D2E017FF05C011950195EF
:105350001109CDE1D2E06E01B8E1CB1AD10880E2AB
:10536000E82EF12C0FC0D501B1CFFE01259135916A
:10537000459154910E191F09C501B4010E948E2C4C
:105380004B015C01D501C4010E151F0574F724976C
:10539000F594E794CC16DD06A9F78A2F880F8B2F9A
:1053A000881F8F3F49F020E030E0A901C501B4011A
:1053B0000E94282C811106C082E290E09093A225E1
:1053C0008093A125C501B401DF91CF911F910F9169
:1053D000FF90EF90DF90CF90BF90AF909F908F9015
:1053E00008953F924F925F926F927F928F929F9219
:1053F000AF92BF92CF92DF92EF92FF920F931F93E3
:10540000CF93DF935C016B017A016115710519F08F
:10541000FB0191838083E114F10451F0C7010297ED
:10542000839730F040E030E020E090E06BC05E0118
:10543000E5012196F5011081812F90E00E94F72B64
:10544000892BA9F71D3201F52196F501118101E0A3
:10545000E114F10409F4E6C0F0E1EF16F10409F0FB
:1054600088C0103359F488818F7D883509F07CC05D
:10547000198122960260F0E1EF2EF12C812C912C03
:10548000A12C88E0B82E92C01B3221F4E5012296AF
:10549000F501118100E0DCCFEAE0EE16F10409F439
:1054A000C7C0F0E1EF16F10409F073C0E7CF78E070
:1054B000E72EF12C812C912CA12C60E1B62E76C028
:1054C00021E0ADC0302F3170C114D10431F022235E
:1054D00071F12197F601D183C08327FF2EC060E0D0
:1054E00070E080E090E8311104C06FEF7FEF8FEF44
:1054F0009FE722E230E03093A2252093A125462F9A
:10550000372F282F642F732F822FDF91CF911F9178
:105510000F91FF90EF90DF90CF90BF90AF909F9052
:105520008F907F906F905F904F903F90089501FF14
:1055300004C02297F601D183C083332341F09095B4
:105540008095709561957F4F8F4F9F4FD8CF97FF74
:10555000D6CF82E290E09093A2258093A1256FEFB1
:105560007FEF8FEF9FE7CBCF10E3E114F10409F455
:105570009ECF28E0E216F10409F49CCF0CF08CCF0A
:10558000812C912CA12CE0E4BE2E82E0E816F104DF
:1055900069F060E070E080E090E897010F2C000C6B
:1055A000440B550B0E94F12E49015A0120E060E0A6
:1055B00070E0CB0127010F2C000C66087708FE0174
:1055C00050ED352E310E39E0331570F43FEB310FCD
:1055D00049EC342E3A3138F03FE9310F3A3108F0D6
:1055E00071CF39EA332E310E3E141F040CF06ACF0E
:1055F00027FD15C086169706A806B90678F0A30100
:1056000092010E94E12E630D711D811D911D61307B
:105610007105810520E8920708F452CF2FEF2196FB
:105620001081CDCF103309F41ECF2AE0E22EF12CE9
:105630009CEC892E982CA82C9CE0B92EB7CF283052
:1056400008F027E03327DA01990F311D87FD9160BB
:1056500000966105710539F432602E5F3D9330E3A9
:105660002A95E1F708959F3F30F080387105610574
:1056700009F03C5F3C5F3D93913008F08068911DDC
:10568000DF93CF931F930F93FF92EF92192F987F81
:105690009695E92F96959695E90FFF27ED56FD4FC4
:1056A00099273327EE24FF24A701E70105900894EA
:1056B000079428F4360FE71EF81E491F511D660F88
:1056C000771F881F991F0694A1F70590079428F467
:1056D000E70EF81E491F561FC11D770F881F991F1F
:1056E000661F0694A1F70590079428F4F80E491F49
:1056F000561FC71FD11D880F991F661F771F06945D
:10570000A1F70590079420F4490F561FC71FD81F13
:10571000990F661F771F881F0694A9F7849110952B
:10572000177041F0D695C79557954795F794E7942C
:105730001A95C1F7E9E3F2E0689415901591359157
:105740006591959105907FE27395E118F10A430BFD
:10575000560BC90BD009C0F7E10CF11E431F561FB1
:10576000C91FD01D7EF4703311F48A95E6CFE894FA
:10577000015030F0080F0AF40027021708F4202F18
:105780002395022F7A3328F079E37D932A95E9F760
:1057900010C07D932A9589F606949795679537955D
:1057A00017951794E118F10A430B560BC90BD00952
:1057B00098F023957E9173957A3308F070E37C938B
:1057C0002013B8F77E9170617D9330F0839571E37B
:1057D0007D9370E32A95E1F71124EF90FF900F91EC
:1057E0001F91CF91DF91992787FD90950895911191
:1057F0000C94772E803219F089508550C8F708959F
:10580000FB01DC0102C005900D9241505040D8F7D9
:105810000895FB01DC0105900D920020E1F7089549
:10582000FB01DC014150504088F08D9181341CF027
:105830008B350CF4805E659161341CF06B350CF493
:10584000605E861B611171F3990B0895881BFCCF74
:105850000E946A2C08F481E00895E89409C097FB3F
:105860003EF490958095709561957F4F8F4F9F4F37
:105870009923A9F0F92F96E9BB279395F69587957B
:1058800077956795B795F111F8CFFAF4BB0F11F43E
:1058900060FF1BC06F5F7F4F8F4F9F4F16C08823E5
:1058A00011F096E911C0772321F09EE8872F762F1B
:1058B00005C0662371F096E8862F70E060E02AF05C
:1058C0009A95660F771F881FDAF7880F9695879548
:1058D00097F90895990F0008550FAA0BE0E8FEEF1D
:1058E00016161706E807F907C0F012161306E407A4
:1058F000F50798F0621B730B840B950B39F40A269D
:1059000061F0232B242B252B21F408950A2609F47A
:10591000A140A6958FEF811D811D08950E94A12CA5
:105920000C94912E0E94832E38F00E948A2E20F033
:10593000952311F00C947A2E0C94802E11240C9443
:10594000C52E0E94A22E70F3959FC1F3950F50E0D3
:10595000551F629FF001729FBB27F00DB11D639F21
:10596000AA27F00DB11DAA1F649F6627B00DA11DC7
:10597000661F829F2227B00DA11D621F739FB00D6D
:10598000A11D621F839FA00D611D221F749F3327DD
:10599000A00D611D231F849F600D211D822F762F76
:1059A0006A2F11249F5750409AF0F1F088234AF053
:1059B000EE0FFF1FBB1F661F771F881F91505040BF
:1059C000A9F79E3F510580F00C947A2E0C94C52EB9
:1059D0005F3FE4F3983ED4F3869577956795B79546
:1059E000F795E7959F5FC1F7FE2B880F911D969560
:1059F000879597F908958F929F92AF92BF92CF9219
:105A0000DF92EF92FF920F931F93CF93DF93CDB767
:105A1000DEB729970FB6F894DEBF0FBECDBF6A017F
:105A2000F22EB02E102FFBE3AF2EA01608F41BE3CE
:105A30001F5F012F27E0AE014F5F5F4F0E941F2BBA
:105A4000BC018981982F9970913009F44EC09BE276
:105A5000E1FC04C09E2D9170E0FC49C05E2D5071A8
:105A6000E82FE87083FF55C084E0911101C083E006
:105A7000EF2DE81B8F1508F0E0E0D6018E2F20E215
:105A80005523C9F1992329F0D6019C93C6010196AB
:105A90006C0196012D5F3F4FE2FE33C08EE4D601CC
:105AA0008C9391E411969C93119712968C93D90143
:105AB0008E2F90E281112AC0E20FF32FF11D108288
:105AC0008EEF9FEF29960FB6F894DEBF0FBECDBFC5
:105AD000DF91CF911F910F91FF90EF90DF90CF90CA
