:100000000C94A8040C94C7040C94C7040C94CB273C
:100010000C94C7040C94C7040C94C7040C94C70434
:100020000C94C7040C94C7040C94C7040C94C70424
:100030000C94C7040C94C7040C94C7040C94C70414
:100040000C94C7040C94C7040C94C7040C94C70404
:100050000C94AB270C94C7040C94C7040C94612730
:100060000C94C7040C94C7040C94C7040C94C704E4
:100070000C94C7040C94C7040C94C7040C94C704D4
:100080000C94C7040C94C7040C94C7040C94C704C4
:100090000C94C7040C94C7040C94C7040C94C704B4
:1000A0000C94C7040C94C7040C94C7040C94C704A4
:1000B0000C94C7040C94C7040C94C7040C94C70494
:1000C0000C94C7040C94C7040C94C7040C94C70484
:1000D0000C94C7040C94C7040C94C7040C94C70474
:1000E0000C94C7040C94C7040C94C7040C94C70464
:1000F0000C94C7040C94C7040C94C7040C94C70454
:100100000C94C7040C94C7040C94C7040C94C70443
:100110000C94C7040C94C7040C94C7040C94C70433
:10012000084AD73B3BCE016E84BCBFFDC12F3D6C5E
:1001300074319ABD56833DDA3D00C77F11BED9E4C4
:10014000BB4C3E916BAAAABE000000803F076342F1
:1001500036B79BD8A71A39685618AEBAAB558C1D5E
:100160003CB7CC5763BD6DEDFD753EF6177231BFE0
:10017000000000803F05A84CCDB2D44EB93836A956
:10018000020C50B9918688083CA6AAAA2ABE000093
:1001900000803F08000000BE922449123EABAAAA8C
:1001A0002ABECDCCCC4C3E00000080BEABAAAAAA91
:1001B0003E00000000BF000000803F000000000083
:1001C000084178D3BB4387D1133D190E3CC3BD42D0
:1001D00082AD2B3E68EC8276BED98FE1A93E4C8081
:1001E000EFFFBE01C4FF7F3F000000000000696E0A
:1001F0006600494E46006E616E004E414E004E4113
:100200004E494E495459494E46CDCCCC3D0AD72390
:100210003C17B7D13877CC2B329595E6241FB14FD8
:100220000A000020410000C84200401C4620BCBE1D
:100230004CCA1B0E5AAEC59D7400407A10F35A008A
:10024000A0724E18090010A5D4E80000E8764817FF
:100250000000E40B54020000CA9A3B000000E1F5E4
:1002600005000080969800000040420F000000A0AA
:100270008601000000102700000000E803000000D5
:10028000006400000000000A0000000000010000FF
:100290000000002C76D888DC674F0823DFC1DFAE72
:1002A00059E1B1B796E5E3E453C63AE6519976963B
:1002B000E8E6C28426EB898C9B62ED407C6FFCEF04
:1002C000BC9C9F40F2BAA56FA5F490055A2AF75C32
:1002D000936B6CF9676DC11BFCE0E40D47FEF520E4
:1002E000E6B500D0ED902E030094357705008084AC
:1002F0001E080000204E0A000000C80C33333333C0
:100300000F986E12831141EF8D2114893BE655162B
:10031000CFFEE6DB18D1844B381BF77C1D901DA463
:10032000BBE424203284725E228100C9F124ECA156
:10033000E53D274572726F72204C6F6164696E678C
:10034000004572726F7220536176696E6700426178
:100350006420706172616D65746572004572726FC0
:100360007220696E2056414C20696E70757400428F
:10037000616420737472696E6720696E64657800C9
:1003800042616420617272617920696E64657800EF
:1003900057726F6E672061727261792064696D7344
:1003A0000052455455524E20776974686F75742019
:1003B000474F535542004D697373696E6720544827
:1003C000454E20696E2049460053544F50207374A7
:1003D0006174656D656E74004E455854207769747C
:1003E000686F757420464F5200427265616B2070D1
:1003F00072657373656400426164206C696E652088
:100400006E756D6265720042616420636F6D6D612F
:100410006E64005661726961626C65206E6F742053
:10042000666F756E6400446976206279207A657221
:100430006F004F7574206F66206D656D6F72790067
:100440004C696E65206E756D62657220746F6F20E9
:1004500062696700537472696E67206578707220F4
:100460006578706563746564004E756D6572696367
:1004700020657870722065787065637465640045E6
:1004800072726F7220696E2065787072004D6973A8
:1004900073696E6720627261636B657400556E7478
:1004A00065726D696E6174656420737472696E67DC
:1004B00000556E657870656374656420696E70754B
:1004C00074004C696E6520746F6F206C6F6E6700EE
:1004D000426164206E756D626572004F4B000101D0
:1004E000637801110128633203C0F80002C30402DB
:1004F000C40502D01D02B30002B58B0138023A02D6
:1005000002360002B09F05F01212121201200129DA
:1005100000000000000000260029002C002F0032FF
:1005200000000000000000000000000000000000CB
:1005300000000000000000000000000000000000BB
:10054000000000CF0200D10200D30200D50200D784
:100550000200D90200E40200DE0200DB0200DD023C
:1005600000E00200E30200E60240E80200EA0200C6
:10057000EC02C03A03C0F00240F40240FA0240FE2E
:1005800002400303400703400C03401003401503DF
:10059000401B03402003402303C02803092C030908
:1005A000300300F602013403053903400903C03D5E
:1005B00003C04203404703C04B03404F0340550371
:1005C000405C034060030E66030E6D030F72034030
:1005D0007603407C0340850340890340910300D3A8
:1005E0000340D903409703019F0301A80340AC03D4
:1005F00040B30301B70301BB0301BF0301C2030101
:10060000C60301CA0301CE0340D20340D80340DE33
:100610000300E30301E70300EB0340F10340F703AA
:1006200040000000090A0B00000307000000000062
:1006300000000000020000000000000000000000B8
:1006400000000004050000000000000000065F0636
:100650000000070300070300247E247E2400242BCF
:100660006A12000063130864630036495620500084
:10067000000703000000003E4100000000413E0072
:100680000000083E1C3E080008083E08080000E084
:100690006000000008080808080000606000000012
:1006A0002010080402003E5149453E0000427F40B0
:1006B0000000625149494600224949493600181450
:1006C000127F10002F49494931003C4A4949300006
:1006D000017109050300364949493600064949298F
:1006E0001E00006C6C00000000EC6C0000000814A0
:1006F0002241000024242424240000412214080064
:100700000201590906003E415D551E007E1111117E
:100710007E007F49494936003E41414122007F41E8
:1007200041413E007F49494941007F0909090100D3
:100730003E4149497A007F0808087F0000417F4117
:100740000000304040403F007F08142241007F40BD
:10075000404040007F0204027F007F0204087F00C7
:100760003E4141413E007F09090906003E415121B9
:100770005E007F09091966002649494932000101D6
:100780007F0101003F4040403F001F2040201F00EC
:100790003F403C403F0063140814630007087008A2
:1007A0000700714945430000007F414100000204F9
:1007B000081020000041417F0000040201020400F3
:1007C0008080808080000003070000002054545483
:1007D00078007F4444443800384444442800384476
:1007E00044447F00385454540800087E090900002E
:1007F00018A4A4A47C007F040478000000007D40BD
:1008000000004080847D00007F102844000000002C
:100810007F4000007C04180478007C040478000009
:10082000384444443800FC44444438003844444488
:10083000FC00447844040800085454542000043E4A
:10084000442400003C40207C00001C2040201C0070
:100850003C6030603C006C10106C00009CA0603C60
:1008600000006454544C0000083E41410000000068
:10087000770000000041413E080002010201000033
:100880003C2623263C627974657320667265650098
:1008900000000000250000002B002E003100340075
:1008A0000000000000000000000000000000240024
:1008B00000002A002D00300033000000000000007E
:1008C00000000000050505050505050502020202F8
:1008D00002020404070707070404040404040606CC
:1008E00006060606060602020102040810204080E1
:1008F0002010010408020201010204200408102053
:1009000040800102040810204080408041726475DC
:10091000696E6F20424153494300DB04D004C20496
:10092000B1049D048D047F0469045404400432041E
:10093000260413040704F703E903D803C903B60325
:10094000A103900380036F035C034E034103330351
:1009500011241FBECFEFD1E4DEBFCDBF13E0A0E076
:10096000B2E0EAECF2E700E00BBF02C007900D92A4
:10097000AC3FB107D9F725E2ACEFB3E001C01D925F
:10098000A53BB207E1F70E94DA270C9463390C9477
:1009900000008150823108F058C0E82FF0E0ED529D
:1009A000FB4F0C94E835F304F704E504EB04EF0483
:1009B0002505FA04000504050A050E0512051805AB
:1009C0001C052505200526052A05809180008F77C6
:1009D000809380000895809180008F7DF9CF809171
:1009E0008000877FF5CF84B58F7784BD089584B567
:1009F0008F7DFBCF8091B0008F778093B0000895FA
:100A00008091B0008F7DF9CF809190008F77809397
:100A100090000895809190008F7DF9CF8091900093
:100A2000877FF5CF8091A0008F778093A0000895F5
:100A30008091A0008F7DF9CF8091A000877FF5CFB6
:100A4000809120018F77809320010895809120016B
:100A50008F7DF9CF80912001877FF5CFCF93DF93F2
:100A600090E0FC01E851F74F24918C53974FFC0123
:100A700084918823C9F090E0880F991FFC01E65506
:100A8000F74FA591B491FC01E057F74FC591D49170
:100A900061110DC09FB7F8948C91209582238C939F
:100AA0008881282328839FBFDF91CF9108956230EA
:100AB00051F49FB7F8943C91822F809583238C93B7
:100AC000E8812E2BEFCF8FB7F894EC912E2B2C933F
:100AD0008FBFEACF3FB7F89480913F0590914005D2
:100AE000A0914105B091420526B5A89B05C02F3FB6
:100AF00019F00196A11DB11D3FBFBA2FA92F982F44
:100B00008827BC01CD01620F711D811D911D42E03E
:100B1000660F771F881F991F4A95D1F708958F9206
:100B20009F92AF92BF92CF92DF92EF92FF926B01B2
:100B30007C010E946A054B015C01C114D104E104EF
:100B4000F104B9F00E946A05681979098A099B09BC
:100B5000683E73408105910580F321E0C21AD108F7
:100B6000E108F10888EE880E83E0981EA11CB11CF4
:100B7000E4CFFF90EF90DF90CF90BF90AF909F9029
:100B80008F90089580916025909161259C01275157
:100B9000310922303105F8F08E309105F9F08131BC
:100BA0009105E1F0285F3F4F22303105D0F023500E
:100BB000310922303105A8F0285F3F4F223031053E
:100BC00098F0225031092230310510F08E9779F4D7
:100BD00088E290E0089585E090E008958AE090E052
:100BE000089584E190E008958EE190E008958FEFFC
:100BF0009FEF089580911F0490912004FC01E15B18
:100C0000FA4F208131812E5F3F4F821B930B9093CF
:100C1000200480931F048F5A9A4F089580911F04D7
:100C20009091200404979093200480931F048F5A7E
:100C30009A4FFC01608171818281938108958F9226
:100C40009F92AF92BF92CF92DF92EF92FF920F935B
:100C50001F93CF93DF93EC015B01E881F981C19091
:100C6000D190F983E8830E940E060E94A03384E1AC
:100C700090E0C616D706B9F5F12CE12C88248394B0
:100C8000912C10E000E0EC14FD0444F50E940E06E7
:100C90000E94A033E881F981A191B191F983E883A1
:100CA000161617066CF5A617B70754F1AB0141509D
:100CB0005109489D9001499D300D589D300D1124DA
:100CC000020F131FC4018A9F40018B9F900C9A9FB3
:100CD000900C11249FEFE91AF90AD5CFF501118381
:100CE000008390E080E0DF91CF911F910F91FF9002
:100CF000EF90DF90CF90BF90AF909F908F9008952E
:100D000085E190E0F0CF40911F04509120049A01BA
:100D10002C5F3F4FE0914F05F0915005E217F3072C
:100D200070F0FA01EF5AFA4F6083718382839383E4
:100D30003093200420931F0481E090E0089590E018
:100D400080E00895CF93DF931F92CDB7DEB78983FC
:100D500089818EBD00000DB407FEFDCF8EB50F90CA
:100D6000DF91CF910895982FFB01DA018770907F72
:100D7000903D29F128F4903A41F0903BA1F008957C
:100D8000903E49F1903F99F10895232B49F424E3D3
:100D900030E02D933C9323E330E0318320830895AA
:100DA00022E330E0F6CF232B39F425E230E02D9317
:100DB0003C9324E230E0F1CF23E230E0F8CF232B64
:100DC00039F42BE230E02D933C932AE230E0E5CF7A
:100DD00029E230E0F8CF232B39F42EE230E02D93D6
:100DE0003C932DE230E0D9CF2CE230E0F8CF232B3A
:100DF00039F421E330E02D933C9320E330E0CDCF74
:100E00002FE230E0F8CF1F93CF93DF9300D000D0D4
:100E1000CDB7DEB7162F30E020E0AE014F5F5F4F59
:100E2000BE016D5F7F4F0E94B306E981FA81111107
:100E300015C0408121E030E0B90102C0660F771F84
:100E40008A95E2F7CB018095842380830F900F90E1
:100E50000F900F90DF91CF911F910895908121E025
:100E600030E001C0220F8A95EAF7892F822BEDCF5F
:100E70001F93CF93DF93C72FD82F60E083ED0E949D
:100E8000030785E00E94A20680E00E94A206182FB8
:100E900061E083ED0E94030710FD3BC060E083ED3D
:100EA0000E94030786E00E94A20661E083ED0E9493
:100EB000030760E083ED0E94030780E20E94A20620
:100EC0008D2F0E94A2068C2F0E94A20680E00E9415
:100ED000A20661E083ED0E94030760E083ED0E94BB
:100EE0000307C8E7D0E011E010FF16C085E00E94BC
:100EF000A20680E00E94A206182F61E070E080E068
:100F000090E00E948F05219779F761E083ED0E94C0
:100F1000030790E080E006C061E083ED0E940307D4
:100F200081E090E0DF91CF911F9108951F93CF93BF
:100F3000DF93EB01182F60E083ED0E94030783E04D
:100F40000E94A206812F0E94A2068D2F0E94A20657
:100F50008C2F0E94A20680E00E94A206C82F61E0AA
:100F600083ED0E9403078C2FDF91CF911F9108958D
:100F7000FF920F931F93CF93DF93C72FD82F8A0130
:100F800060E083ED0E94030785E00E94A20680E0F6
:100F90000E94A206F82E61E083ED0E940307F0FC98
:100FA00051C060E083ED0E94030781E00E94A20629
:100FB00080E00E94A20661E083ED0E94030760E0EA
:100FC00083ED0E94030786E00E94A20661E083EDA4
:100FD0000E94030760E083ED0E94030782E00E9405
:100FE000A2068D2F0E94A2068C2F0E94A20680E0EE
:100FF0000E94A206E801139589910E94A206C017DB
:10100000D107D1F761E083ED0E94030760E083ED33
:101010000E940307C4E1D0E011E010FF16C085E094
:101020000E94A20680E00E94A206182F61E070E0F4
:1010300080E090E00E948F05219779F761E083EDD1
:101040000E94030790E080E006C061E083ED0E940B
:10105000030781E090E0DF91CF911F910F91FF9006
:1010600008951F93CF93DF93182FC091450560E03B
:101070008C2F0E940307D091440560E08D2F0E94C1
:101080000307812F0E94A20661E08D2F0E940307B3
:1010900061E08C2FDF91CF911F910C940307CF92C9
:1010A000DF92EF92FF921F93CF93DF937C016B014E
:1010B0001091450560E0812F0E940307E701CE01F2
:1010C0008E199F098C159D0524F489910E94A20612
:1010D000F6CF61E0812FDF91CF911F91FF90EF90CC
:1010E000DF90CF900C940307CF92DF92EF92FF92A4
:1010F0000F931F93CF93DF9300D000D0CDB7DEB70F
:101100008C01E62E6A01F22E8AE20E9431081982D1
:1011100023E030E0C801B9010E94D4356A831B8204
:10112000C8018C0D9D1D0197B9010E94D4356C83B7
:1011300064E070E0CE0101960E944F088BE20E94AD
:1011400031081982EA821B82FA94FE0CFC8264E068
:1011500070E0CE0101960E944F088CE20E94310897
:101160000F900F900F900F90DF91CF911F910F91E3
:10117000FF90EF90DF90CF9008958038E1E09E07D8
:1011800064F4603A71054CF44138E1E05E072CF4F8
:10119000213A310514F40C94740808951F93CF93E9
:1011A000DF9300D000D0CDB7DEB7162F30E020E0BF
:1011B000AE014F5F5F4FBE016D5F7F4F0E94B30670
:1011C000EB81FC81113029F1408121E030E0B9014F
:1011D00002C0660F771F8A95E2F7CB01123059F0F3
:1011E0008095842380830F900F900F900F90DF9154
:1011F000CF911F910895942F982B9083E981FA81C4
:101200009081982B9083EB81FC819081809589233C
:10121000E9CF908121E030E001C0220F8A95EAF702
:10122000892F822BDFCF7F928F929F92AF92BF92B6
:10123000CF92DF92EF92FF920F931F93CF93DF93A2
:1012400000D000D0CDB7DEB702EC12E062E0F801CA
:1012500081918F010E94CE08F2E0083C1F07B1F790
:101260008AE0E6E0F4E0ACEFB3E001900D928A95FD
:10127000E1F796E0E92E94E0F92E28EBA22E22E089
:10128000B22E8701F8011082F50171905F0161E0D3
:10129000872D0E94CE0860E0872D0E94030782EC14
:1012A000882E82E0982ED12CC12C21E030E0AE01B6
:1012B0004D5F5F4FBE016F5F7F4FF40181914F0122
:1012C0000E94B306EB81FC81208130E002C035959D
:1012D00027958A95E2F720FD0BC021E030E00C2C29
:1012E00001C0220F0A94EAF7F8018081822B8083E3
:1012F000FFEFCF1ADF0A86E0C816D104B1F661E02D
:10130000872D0E94030760E0872D0E94CE080F5FA3
:101310001F4FE4E000311E0709F0B4CF70910604BE
:10132000172F18707071ACEFB3E030E020E080E070
:101330000AE0F701D1907F0150E040E061E0C22E69
:101340009D2D962396131DC09C919623D1F4C11018
:1013500004C09DEF940F9230A0F088E792E0111145
:1013600006C080E092E0711102C08CE392E0049F1D
:10137000F001059FF00D1124E80FF91FE20FF31F94
:101380008081660F4F5F5F4F46305105C9F62F5F72
:101390003F4F11962A30310561F60F900F900F9054
:1013A0000F90DF91CF911F910F91FF90EF90DF9001
:1013B000CF90BF90AF909F908F907F900895DF92D5
:1013C000EF92FF920F931F93CF93DF93CDB7DEB7CA
:1013D000C058D1090FB6F894DEBF0FBECDBF20EACA
:1013E00030E040E851E070E060E090E080E00E9492
:1013F000740800EA10E080E8D82ECE0101967C0146
:10140000F7018D2D11928A95E9F760E870E0C70128
:101410000E944F080150110999F7C058DF4F0FB6CD
:10142000F894DEBF0FBECDBFDF91CF911F910F911A
:10143000FF90EF90DF90089540E051E060E270E0AF
:1014400085E394E00E943C3648E050E061E070E0C3
:101450008DE294E00E943C361092380510923705D8
:10146000109236051092350508951092522510926B
:1014700051251092200410921F0480E090E2909376
:101480001E0480931D0490931C0480931B0490936E
:101490001A04809319049093500580934F05E1E559
:1014A000F5E0DF019C011D9221503040E1F71092E0
:1014B000180410921704109216041092150410923A
:1014C000652510926425089580EEE5E5F4E0A5E336
:1014D000B4E001900D928A95E1F740E250E060E2BD
:1014E00070E085E195E00E943C3648E050E061E024
:1014F00070E08DE294E00E943C3680913505909139
:101500003605019790933605809335050895CF935E
:10151000DF93109238051092370580913505909130
:10152000360501969093360580933505089711F49A
:101530000E94640AC0913505D0913605CE0125E0A0
:10154000880F991F2A95E1F740E250E060E270E0D1
:101550008B5C9B4F0E943C36C35DDB4F81E08883F0
:10156000DF91CF910895CF93DF93C0913505D0914E
:10157000360525E0CC0FDD1F2A95E1F720913705D0
:1015800030913805C20FD31F9E01D7FF02C0215EE4
:101590003F4F95E0359527959A95E1F7F901E35D81
:1015A000FB4F91E090839E012F5F3F4FFE01EB5C6C
:1015B000FB4F80832F3F310531F02CF00E94640AED
:1015C0009E012F513109C90160E270E00E94D435BB
:1015D000909338058093370537FF02C0215E3F4F57
:1015E00085E0359527958A95E1F730933605209368
:1015F0003505DF91CF9108952F923F924F925F92E0
:101600006F927F928F929F92AF92BF92CF92DF9212
:10161000EF92FF920F931F93CF93DF938B01382E9E
:10162000292E6B01E82EF92ED0E0C0E0812C912C00
:10163000540183942AE0422E512C612C712C219666
:10164000AAE0B0E0A50194010E9431324B015C0197
:10165000C701B601A30192010E94123269017A0109
:10166000C114D104E104F10451F7F12CE12C8AE01A
:10167000482E512C612C712CC501B401A30192019B
:101680000E94123249015A01B801832D922D0E9405
:101690001232CA01B901A30192010E94123280E301
:1016A000860F0E94B30A8FEFE81AF80ACE15DF05FD
:1016B00019F7CE01DF91CF911F910F91FF90EF901D
:1016C000DF90CF90BF90AF909F908F907F906F9062
:1016D0005F904F903F902F900895CF93DF93EC0150
:1016E000FE0184912196882319F00E94B30AF8CF55
:1016F000DF91CF910895CF93DF93EC010E94870A89
:10170000BE0190E080E00E94FC0A80E20E94B30AE1
:1017100085E898E0DF91CF910C946D0BFF920F93C9
:101720001F93CF93DF93C0913505D091360525E007
:10173000CC0FDD1F2A95E1F7209137053091380550
:10174000C20FD31F8C01FF24F394F80181918F0104
:101750009E01D7FF02C0215E3F4F95E0359527954A
:101760009A95E1F78823B9F0235D3B4FF901F082A8
:10177000CE010196F80131972081FE01EB5CFB4F11
:1017800020838F3F910529F024F00E94640ACE0146
:101790004F97EC01DACFCE0160E270E00E94D435C1
:1017A000909338058093370530933605209335059F
:1017B000DF91CF911F910F91FF900895CF93DF9309
:1017C000FC0120813181C0914F05D0915005CE019F
:1017D0008F5A9A4FC20FD31F8E179F0739F4D09399
:1017E0005005C0934F05DF91CF910895AF01481B7D
:1017F000590BBC01820F931F0E942A36F0CFCF9263
:10180000DF92EF92FF920F931F93CF93DF9300919C
:101810001F0410912004F801E15BFA4F208131810F
:101820007C014FEFE41AF40AE216F306F4F4EC013B
:10183000C9010296081B190B1093200400931F0482
:10184000C8018F5A9A4F6C01CE0CDF1C672BB1F484
:10185000F60131971082F601F182E08223960C0F97
:101860001D1F1093200400931F04DF91CF911F913F
:101870000F91FF90EF90DF90CF900895B9016E190E
:101880007F09680F791FA7010E942A36E4CF8F9243
:101890009F92AF92BF92CF92DF92EF92FF920F93FF
:1018A0001F93CF93DF934B015C01EA0120E030E00E
:1018B000A9010E94272F811111C080E3888319821A
:1018C000CE01DF91CF911F910F91FF90EF90DF90AC
:1018D000CF90BF90AF909F908F9008957501640155
:1018E000E894F7F827E137EB41ED58E3C701B6017B
:1018F0000E94272F87FD0AC020E034E244E759E424
:10190000C701B6010E949434181644F400E026E0A2
:10191000AE01C501B4010E94982AD2CFC701B60119
:101920000E94DB340E94D63320E030E040E85FE3E1
:101930000E9454320E94A03327E030E07901E61A79
:10194000F70A8E012E2D41E0C501B4010E941A2B29
:10195000FE01EF2809F4B4CF9F012F5F3F4F808134
:10196000811108C0DF011197FD018C91803321F4B2
:101970001C92F8CFF901F0CF8E3209F0A1CF10827E
:101980009FCF0F931F93CF93DF93C0916225D09188
:101990006325D0931304C0931204FE013196F09393
:1019A0006325E0936225088110E010936125009380
:1019B00060250130110531F5A2E2B4E030E020E00D
:1019C0008191A9014F5F5F4F87FD03C08D939A01FD
:1019D000F7CFF0936325E093622580582E5D3B4F4F
:1019E000F901808391E0843209F090E09093210422
:1019F0004E5D5B4FFA011082C801DF91CF911F91BC
:101A00000F9108950330110591F489819A81AB817A
:101A1000BC8180935C2590935D25A0935E25B09357
:101A20005F252596D0936325C0936225E5CF0230CC
:101A3000110579F469817A818B819C810E942E2F16
:101A400060935C2570935D2580935E2590935F2560
:101A5000E8CF0430110581F6F0931104E0931004EF
:101A600001900020E9F7F0936325E0936225C4CF4D
:101A70002F923F924F925F926F927F928F929F929E
:101A8000AF92BF92CF92DF92EF92FF920F931F938C
:101A9000CF93DF93CDB7DEB7C656D1090FB6F89412
:101AA000DEBF0FBECDBF9DE2492E94E0592E912C92
:101AB000812CD12CC12C7E012DE5E20EF11CCE0132
:101AC0008F5B9F4FA2969FAF8EAFA297D2018D9151
:101AD0002D0181110DC080913905882309F401C1C0
:101AE00080913505909136058C159D0509F0F9C05A
:101AF000F60184E0EE0FFF1F8A95E1F7A696FFAF8F
:101B0000EEAFA69794012B5C3B4FA4963FAF2EAF50
:101B1000A497B12CA12CA4962EAD3FADA497281963
:101B2000390925533440A496AEADBFADA4978D912D
:101B3000A496BFAFAEAFA49780320CF480E2409180
:101B40003705509138054217530779F42091350530
:101B5000309136052C153D0541F4909139059923B6
:101B600021F090912B0491118FE5282F082E000C65
:101B7000330B3F938F93ECECF2E0FF93EF931F92C4
:101B800082E08F93FF92EF920E947F363501F7013A
:101B900001900020E9F731978F010E191F092CE001
:101BA000209FC001219F900D11248A0D9B1D0FB60F
:101BB000F894DEBF0FBECDBF813891404CF080E875
:101BC00091E08A199B096CE070E00E94D4358B018A
:101BD0001701C1018E199F09801791070CF075C07C
:101BE000F10181911F018052990BF6E0F89FB0013D
:101BF000F99F700D11246B5B794F46E050E0CE01E8
:101C00008B5A9F4F0E94FF2E66967FAD6697679610
:101C10004FAD679768962FAD6897A7962FAFA79798
:101C200069965FAD69976A966FAD6A976B963FAD9F
:101C30006B97FE01319681E0982F972320E009F001
:101C40002CEF982F942309F43CC0236090EEA796C4
:101C5000BFADA797B82309F09F61248320839583A4
:101C60009183982F952320E009F02CEF982F96234D
:101C700051F1236090EEB32FB82309F09F612683C2
:101C80002283978393833896880FA296AEADBFAD1B
:101C9000A297EA17FB0781F620E130E04CE050E024
:101CA000A6966EAD7FADA697C3010E94BD0860E405
:101CB00070E0CE0101960E944F08BCE06B0E711CD3
:101CC00088CF90E0C4CF90E0D6CFECE0AE0EB11C50
:101CD000F0E8AF16F1E0BF0609F01DCFF201319731
:101CE00010822FEFC21AD20A30E2830E911C88E0D4
:101CF000C816D10409F0EACECA59DF4F0FB6F894DE
:101D0000DEBF0FBECDBFDF91CF911F910F91FF902E
:101D1000EF90DF90CF90BF90AF909F908F907F908B
:101D20006F905F904F903F902F900895CF92DF92E9
:101D3000EF92FF920F931F93CF93DF9381E08093F5
:101D400039058091370590913805892B09F064C0D9
:101D5000809135059091360575E0880F991F7A9529
:101D6000E1F740E250E060E270E08B5C9B4F0E9444
:101D70003C36C0913505D091360555E0CC0FDD1FBE
:101D80005A95E1F78091370590913805C80FD91F12
:101D90008E01D12CCC24C39460E2E62EF12C0E945B
:101DA0001309882309F465C09E01D7FF02C0215E94
:101DB0003F4F45E0359527954A95E1F7F901E35DF9
:101DC000FB4FC08290EE980F9F3548F5FE01EB5C0B
:101DD000FB4F80832196CE01B7010E94D4359093AA
:101DE000380580933705CE01D7FD4F9635E09595A0
:101DF00087953A95E1F790933605809335050897D6
:101E000041F400321105DCF000521109A0970E9444
:101E1000640AC0922C04C3CF0E94870AAACF8230E2
:101E200049F40C171D07BCF62197FE01EB5CFB4F34
:101E30001082D1CF8D3079F6DD24D394CCCF219789
:101E4000FE01EB5CFB4F1082CE01B7010E94D4353E
:101E50009093380580933705CE01D7FD4F9625E046
:101E6000959587952A95E1F79093360580933505EA
:101E7000D0CF80912C0481110E94380DDD2009F40F
:101E80008ECFCB5CDB4F188210923905E09135057F
:101E9000F0913605E35DFB4F81E080830E94380DB1
:101EA000C8018B5C9B4FDF91CF911F910F91FF90E9
:101EB000EF90DF90CF900895EF92FF920F931F93D2
:101EC000CF93DF9300D000D0CDB7DEB78EEDE82EF4
:101ED00084E0F82EC7010196F7010491033659F406
:101EE000F2E0EF0EF11CFC01649170E090E080E004
:101EF0000E948F05EFCF0023C1F0F2E0EF0EF11C3E
:101F0000FC0184910E943108015021F310E0A801E6
:101F1000B701CE0101960E94FF2EE00EF11EB8011E
:101F2000CE0101960E944F08D5CF0F900F900F90D1
:101F30000F90DF91CF911F910F91FF90EF90089537
:101F4000CF92DF92EF92FF920F931F93CF93DF9385
:101F5000EC0109900020E9F72197C81BD90B6E010D
:101F60002FEFC21AD20AE0901F04F09020049701CC
:101F70002C0D3D1D2F5F3F4F40914F055091500557
:101F800024173507F4F4BC0187010F5A1A4FC80112
:101F90000E946A36F801EC0DFD1DD182C0822396A5
:101FA000CE0DDF1DD0932004C0931F0481E090E08C
:101FB000DF91CF911F910F91FF90EF90DF90CF9025
:101FC000089590E080E0F4CFCF92DF92EF92FF92FD
:101FD0000F931F93CF93DF937C016B01C0914F054B
:101FE000D0915005CF5ADA4F0091190410911A047C
:101FF0000F5A1A4FC017D10790F48A8190E08C21B4
:102000009D21892B39F0B701CE0103960E944336FA
:10201000892B39F088819981C80FD91FEBCFD0E087
:10202000C0E0CE01DF91CF911F910F91FF90EF9013
:10203000DF90CF9008958F929F92AF92BF92EF92D0
:10204000FF920F931F93CF93DF937C014A015B01B3
:10205000EC0109900020E9F72197C81BD90B63E038
:1020600070E00E94E40F009799F0C80FD91F8C828E
:102070009D82AE82BF8281E090E0DF91CF911F917F
:102080000F91FF90EF90BF90AF909F908F90089529
:10209000CE010896E0914F05F0915005E81BF90B31
:1020A00020911F0430912004E217F307C4F0F0934D
:1020B0005005E0934F05EF5AFA4F918380838F01CB
:1020C0000D5F1F4F81E08283B701C8010E946A360D
:1020D000C00FD11F89829A82AB82BC82CCCF90E0A4
:1020E00080E0CBCF8F929F92AF92BF92CF92DF9240
:1020F000EF92FF920F931F93CF93DF93CDB7DEB78D
:102100002B970FB6F894DEBF0FBECDBFC0904C0525
:10211000D0904D05D601BD908D01EB2CF12CC7015F
:102120000E94F62E892B89F5D0924D05C0924C0560
:10213000B1102DC0E0914A05F0914B05CF010196F9
:1021400090934B0580934A051082809148059091A9
:10215000490501979093490580934805EE24EA9438
:10216000FE2CC7012B960FB6F894DEBF0FBECDBF75
:10217000DF91CF911F910F91FF90EF90DF90CF9063
:10218000BF90AF909F908F9008956801C3CFC70113
:10219000C0970A9718F0BEE2BB1291C0FE013196BB
:1021A00090E080E0F12CE12C8F014C2D3D2DD601EB
:1021B0002D916D012E32B1F4E114F10481F04093C0
:1021C0004C0530934D05CDCF8A30910571F7D092F3
:1021D0004D05C0924C05EE24E394F12CC2CFEE24C1
:1021E000E394F12C01962193D6012C91622F605338
:1021F000770B6A30710540F32E3231F3D0924D05E2
:10220000C0924C05800F911FDC011C928091480503
:1022100090914905863091050CF454C1059790932F
:10222000490580934805E114F10431F54AE050E096
:1022300070E060E0C8010E94F02C4B015C01B1E04D
:102240008B1A9108A108B0E8BB0AEEEF8E16EFEFEB
:102250009E06AE06BE0680F4E0914A05F0914B055D
:1022600022E0208361837283838394833596F09385
:102270004B05E0934A0575CFE0904A05F0904B0579
:10228000C701019690934B0580934A0583E0D701DF
:102290008C9370E060E0C8010E94922BF70161838B
:1022A00072838383948380914A0590914B050496B1
:1022B00090934B0580934A05F12CE12C52CFC70136
:1022C0000E9419367C01892B09F4E1C010934D0559
:1022D00000934C05B982CC24C394D12CD801BD9075
:1022E0007D018B2D90E00E940C36892B19F4B4E20D
:1022F000BB1211C0E8E0CE16D1045CF4E1E0F0E0DE
:10230000EC0FFD1FEC0DFD1DB082A6014F5F5F4F6E
:102310006A018701E3CF10934D0500934C05E1E07E
:10232000F0E0EC0FFD1FEC0DFD1D108250E7852E37
:1023300055E0952E67E1A62EB12CF40165917491BC
:10234000CE0101960E9443367C01892B09F050C0D2
:102350008091480590914905823091050CF4B2C0F6
:1023600001979093490580934805E0914A05F091C3
:102370004B05CF01019690934B0580934A05A082AF
:102380005FE1A516B10409F0ECCE6F0162E0C60E64
:10239000D11CD0924B05C0924A0584E0818358013C
:1023A0007FEFA71AB70AD8018C9190E00E94F62E11
:1023B0007C01892B89F410934D0500934C05F6019F
:1023C000402F312FD8012D918D01BFEFCB1ADB0AA1
:1023D000222321F02083F3CF8501E1CF40934C05E8
:1023E00030934D05D0924B05C0924A051082B9CE6C
:1023F000EFEFAE1ABE0AF3E08F0E911C22E5A21693
:10240000B10409F09ACF64E270E0CE0101960E9417
:102410005636009769F096012150310941E050E0AD
:102420004C0F5D1F240F351F8217930709F0E1C081
:1024300096012F5F3F4F80914805909149052817DD
:1024400039070CF03FC0821B930B90934905809392
:10245000480500914A0510914B0578015FEFE51A98
:10246000F50A81E0D8018C93BE016F5F7F4FC701F1
:102470000E946A36F801EC0DFD1D80818068808322
:10248000CE0CDF1CD0924B05C0924A0515CFB2E2AC
:10249000BB124CC0E0914A05F0914B05DF0111964B
:1024A000B0934B05A0934A0584E080838091480552
:1024B0009091490501979093490580934805823092
:1024C000910524F442E0E42EF12C4BCEF801109358
:1024D0004D0500934C056D0186016081662309F46A
:1024E0008CC0A6014F5F5F4F9C01215031096232C1
:1024F00039F4CF0101966181623209F08EC0FC018E
:102500006A018081D8018C93C9013196213031054F
:1025100019F7F0934D05E0934C0550934B0540930C
:102520004A053093490520934805CCCFBFE3BB1241
:102530001EC080914805909149051816190614F699
:10254000E0914A05F0914B059F012F5F3F4F30937B
:102550004B0520934A052AE1208301979093490572
:102560008093480510934D0500934C05FACD2DE658
:10257000822E25E0922E36E1A32EB12CF401A591F6
:10258000B491FD0101900020E9F731978F010A1BFA
:102590001B0BF40185919491A801B6010E9471363C
:1025A0007C01892BD9F4E0914A05F0914B05CF01CC
:1025B000019690934B0580934A05A082809148052F
:1025C0009091490501979093490580934805C00E65
:1025D000D11ED0924D05C0924C05C3CDE1E0AE1A9C
:1025E000B108F3E08F1A910827E0A216B10409F0B0
:1025F000C5CF83E0E82EF12CB4CDF0934D05E093E8
:102600004C05D0924B05C0924A05909349058093A2
:10261000480594E0E92EF12CA4CD90934D058093CC
:102620004C0550934B0540934A05D6011C923093BC
:1026300049052093480595CD6F927F928F929F9286
:10264000AF92BF92CF92DF92EF92FF920F931F93C0
:10265000CF93DF93CDB7DEB764970FB6F894DEBFA4
:102660000FBECDBFE0906025F09061256AE2E616CE
:10267000F1040CF04CC078E2E716F1040CF07EC0D7
:1026800088E0E816F10409F4DEC1ECF4E4E0EE16AB
:10269000F10464F4F2E0EF16F1040CF0B6C1EA9430
:1026A000EF2809F4D1C006E010E0B8C074E0E716E6
:1026B000F104C9F780915B258111BBC10E94C10C57
:1026C00000E010E1ABC087E2E816F1040CF0CEC1E7
:1026D00095E2E916F1040CF051C0EBE0EE16F104BE
:1026E00021F0F9E1EF16F104F1F60E94C10C0E940D
:1026F0001C138C011F700115110509F0ECC388270C
:10270000907F892B09F4EBC107E010E087C060E4FB
:10271000E616F10434F57EE3E716F1047CF583E375
:10272000E816F1040CF4BFCF96E3E916F10434F196
:10273000EBE3EE16F10409F0B6CF0E94C10C8091D4
:102740005B25882309F45EC160914E0561111092EA
:102750004E05062E000C770B880B990B0E942E2F2E
:10276000FFC0FCE4EF16F10409F495C10CF04CC075
:10277000C70182549109079708F095CFF701EE0F32
:10278000FF1FEE0DFF1DE35DFA4F14910E94C10C77
:102790008091602590916125089709F09EC3612E74
:1027A000712C0E94C10C1370C12ED12C530133E047
:1027B000B594A7943A95E1F777E0A722BB24912C32
:1027C000812C8C149D040CF0BCC10E94A3198C01B7
:1027D0009F70892B19F50027107FA0FCABC1012B3E
:1027E00009F092CFB594A7949FEF891A990A8C1497
:1027F0009D043CF78091602590916125469709F0F2
:1028000052CF0E94C10CDDCF7DE4E716F10409F43C
:10281000B5CF8EE4E816F10409F045CFC8016496FF
:102820000FB6F894DEBF0FBECDBFDF91CF911F91E1
:102830000F91FF90EF90DF90CF90BF90AF909F905F
:102840008F907F906F90089510915B25112331F048
:1028500062E274E0CE0101960E946A36E0902104A3
:102860000E2C000CFF080E94C10C809160259091F5
:102870006125089709F07AC00E94E8198C01892B1C
:1028800069F680915B25882309F4B9C08E010F5F3A
:102890001F4FEF28B1F160E170E0C8010E94E40F22
:1028A0009C8B8B8B009719F40CE010E0B7CFF801EC
:1028B00001900020E9F79F01201B310B2D5F3F4F56
:1028C000820F931F9C8B8B8BBE016F5E7F4FCE015F
:1028D00043960E941F068C01892B09F09FCF2989FE
:1028E0003A898B899C89021713070CF05DC0FC01A3
:1028F0004081411102C00F5F1F4F01969C8B8B8B53
:10290000F0CF64E070E0C8010E94E40F9C8B8B8BD9
:10291000009751F2F80101900020E9F79F01201B78
:10292000310B2D5F3F4F820F931F9C8B8B8BBE0112
:102930006F5E7F4FCE0143960E941F068C01892B4C
:1029400009F06CCF89899A89880F991F880F991F80
:10295000EB89FC89E80FF91F608171818281938185
:102960000E948306892B09F04DC023C0112309F46E
:1029700046C08E010F5F1F4FEF28F1F068E070E056
:10298000C8010E94E40F009709F48ECFF80101906E
:102990000020E9F79F01201B310B2D5F3F4F820F75
:1029A000931F009709F480CF0E94A00F892B09F094
:1029B00087CE0AE010E032CF63E070E0C8010E94E9
:1029C000E40F009709F470CFF80101900020E9F7B7
:1029D0003197E01BF10BE80FF91FC480D580E6802A
:1029E000F7802FEF3FEF4FE75FE7C701B6010E9487
:1029F000272F882309F458CFC701B601B1CFEF289C
:102A000009F05ECE10E000E009CF80915B258111D6
:102A100003C00E94C10CF6CF60915C2570915D25CA
:102A200080915E2590915F250E948306892B89F70E
:102A3000C0CF80911004909111040E94A00F892BA7
:102A400009F03CCEB6CF0E94C10C0E94A3198C01A4
:102A50009F70892B09F0E2CE8091602590916125CD
:102A6000099709F03AC20E94C10CD8CE0E94C10C4D
:102A700080915B25882331F20E94832BBC01990F42
:102A8000880B990B0E942E2F20E03EEF4FEF56E46B
:102A90000E94F43265CF0E94C10C80917A0080645C
:102AA00080937A0080917A0086FDFCCF2091780097
:102AB0008091790090915B25992309F4A3CF90E050
:102AC000982F8827820F911D26E0289FB001299F0B
:102AD000700D112490E080E00E942C2F41CFFBE08C
:102AE000EF16F104B9F069E1E616F10409F0DBCD67
:102AF00080915B25882309F485CF0E940E0620E093
:102B000030E0A9010E94272F882379F060E070E06F
:102B1000CB0108C080915B25882309F473CF0E9404
:102B20000E0690580E94830679CE60E070E080E83F
:102B30009FE3F8CF0115104109F454CE08E010E0EE
:102B40006DCE80915B25882309F439C0F701B597D4
:102B5000E932F10508F0A7CDE055FA4E0C94E835BE
:102B6000FA154A165313D915EE155313531353136D
:102B7000531353135313531353135313B616C2164D
:102B8000CE16531353135313531353135313531397
:102B900053131C174617531353130D1612161C16F6
:102BA0002C16311636163B16531353135313531367
:102BB00017160E940E060E94D6330E94830680914B
:102BC000602590916125099709F087C18301102F35
:102BD0000027110F110F0027107145CF0E940E061C
:102BE000AE014F5F5F4F0E94470C0E94A00F892BE0
:102BF00031F7DFCE0E94FA05FC0101900020E9F7D1
:102C00003197BF01681B790B072E000C880B990BBD
:102C10000E942E2F0E948306EACF0E940E060E9479
:102C20006735F8CF0E940E060E94EF32F3CF0E9464
:102C30000E060E94C032EECF0E940E0620E030E069
:102C4000A9010E94943418161CF40E940E06E2CFCB
:102C50000E940E069058DECF0E940E060E94EB34B2
:102C6000D9CF0E940E060E946E33D4CF0E940E066A
:102C70000E947535CFCF0E940E060E94A0336115C9
:102C8000710511F277FF03C06FEF7FEFBDCF61E0F9
:102C900070E0BACF00911F0410912004E09012045C
:102CA000F090130480914F0590915005801B910B7B
:102CB00098012F5A3A4FF901329740815181F90119
:102CC000E41BF50BAF014250510950934D05409361
:102CD0004C0530934B0520934A059093490580930A
:102CE00048050E9472100097E1F334F0029709F44E
:102CF00060CE07E110E092CD80911F0490912004F6
:102D00008F5A9A4F909363258093622580914A054C
:102D100090914B05815595409093200480931F041A
:102D20000E94C10C0E94A3199C013F70232B21F02B
:102D30000A9709F43ECEDDCF8827907F892B09F0D2
:102D4000E3CC0E940E064B015C011093200400931B
:102D50001F040E94FA05C501B4010E948306F09287
:102D60006325E09262250E94C10C29CF0E940E06C5
:102D70000E94A033CB0170E060E097FF0CC006E139
:102D800010E04CCD0E940E060E94A033CB0177FDCF
:102D9000F6CF61E070E00E94FF0B11CF0E940E069B
:102DA0000E94A0336B018B010E940E06D7FCE7CF77
:102DB0000E94A0331616170614F720911F043091B5
:102DC0002004F901E15BFA4F408151810F5F1F4FF1
:102DD000461757070CF4BA0161507109C801860FF4
:102DE000971F481759071CF48A01061B170B401739
:102DF000510709F4E4CE4E5F5F4F7901E41AF50AFA
:102E0000C7018F5A9A4F6C01A80141505109680FB0
:102E1000791F0E942A36F601E00FF11FDF0111979A
:102E20001C92118300830E5F1F4F0E0D1F1D109308
:102E3000200400931F04C3CE0E940E060E94A033FC
:102E40007727FB01EF5DF94F8491FB01E851F74FC4
:102E500004916C53774FFB01149170E060E01123F3
:102E600009F4D2CE81110E94C904E12FF0E0EE0FE7
:102E7000FF1FEF5EFA4FA591B491EC910E2391E004
:102E800080E009F490E0692F782FBECE0E940E06F4
:102E90000E94A033862F6E3010F082EF860F2091B3
:102EA0007B00982F9870277F922B90937B008770E0
:102EB000806480937C0080917A00806480937A00A3
:102EC00080917A0086FDFCCF809178006091790036
:102ED000762F682F99CE8C01A1CC05E010E09ECC16
:102EE0002F923F924F925F926F927F928F929F921A
:102EF000AF92BF92CF92DF92EF92FF920F931F9308
:102F0000CF93DF9300D000D0CDB7DEB79A8389830B
:102F10008B010E94C2056C0189819A81C816D9066D
:102F20000CF4BDC180916025909161259C838B83B9
:102F30000E94C10C0E941C137C019F70892BE1F43C
:102F40000E94C205C816D9064CF4B701C601019605
:102F50000E9470177C019F70892B71F4C80188272B
:102F6000907F009709F0FDC0EE2490EFF922EF2842
:102F7000D9F096E0E92EF12CC7010F900F900F9039
:102F80000F90DF91CF911F910F91FF90EF90DF9005
:102F9000CF90BF90AF909F908F907F906F905F90F9
:102FA0004F903F902F900895F0905B25FF2009F4FB
:102FB0007CC10E940E064B015C010E940E06762E1B
:102FC000672E582E492E8B819C810A9709F0A0C14B
:102FD000272D362D452D542DC501B4010E945432A4
:102FE0000E94830696CF8B819C810D9709F06DC15D
:102FF00020E030E0A901C501B4010E94272F8823F9
:1030000009F44FC1A5019401672D762D852D942DCE
:103010000E94F432E5CF8B819C81409789F4FF2098
:1030200009F477CF272D362D452D542DC501B40138
:103030000E9494341816ACF060E070E0CB01D0CF61
:103040008B819C810F9791F4FF2009F462CF272D8B
:10305000362D452D542DC501B4010E94272F87FF21
:10306000EBCF60E070E080E89FE3BACF8B819C817A
:103070000E9771F4FF2009F44CCF272D362D452DE6
:10308000542DC501B4010E94272F882351F3D4CFBA
:103090008B819C81419771F4FF2009F43ACF272D51
:1030A000362D452D542DC501B4010E94272F8111C5
:1030B000D8CFC2CF8B819C81439771F4FF2009F454
:1030C00028CF272D362D452D542DC501B4010E9442
:1030D000943487FFC6CFB0CF8B819C81429779F41F
:1030E000FF2009F416CF272D362D452D542DC5016F
:1030F000B4010E94272F18160CF0B3CF9DCF8B81FF
:103100009C814797A9F4FF2009F403CF20E030E029
:10311000A901C501B4010E94272F81111FC050E0F1
:1031200040E030E020E0652F742F832F922F58CF9E
:103130008B819C81489709F01CCFFF2009F4E9CED0
:1031400020E030E0A901C501B4010E94272F8823A7
:1031500029F050E040E030E82FE3E5CFA3019201F1
:10316000E2CF8115904109F004CFEE2480EFF822E0
:10317000E11490E1F90609F0FCCE8B819C810A975D
:1031800009F041C080915B25882309F4C2CE2091CB
:103190001F0430912004F901E15BFA4F8081918195
:1031A0009C838B830296281B390BB9016F5A7A4F87
:1031B000FB013297E080F180C70102961901281ABD
:1031C000390AC1018F5A9A4F6C01C70101974B818F
:1031D0005C818C0D9D1D0E942A368B819C818E0DF9
:1031E0009F1D9C838B830197F601E80FF91F918344
:1031F00080838B819C810196820D931D9093200486
:1032000080931F0486CE8B819C810E97069708F0D1
:10321000B0CE80915B25882309F10E94FA058C01CC
:103220000E94FA05B8010E9461368C018B819C8155
:103230000E9741F40115110509F413CF60E070E019
:10324000CB010AC08B819C81419759F4012BB1F3CA
:1032500060E070E080E89FE30E94830610E000E0F9
:1032600058CE8B819C810F9721F41016110634F7EC
:10327000EFCF8B819C81409719F417FFDFCFE8CF08
:103280008B819C81429719F417FDD8CFE1CF8B81B8
:103290009C81439799F61016110684F2D9CF7801D4
:1032A0006BCE8BE0E82EF12C67CE8B819C810A9748
:1032B000029708F42ECE8B819C810C9709F429CEBD
:1032C0008B819C810D9709F424CE8B819C818E97F4
:1032D00009F0A1CEFF2009F41CCEC501B4010E9463
:1032E000A0337C836B83CB01892BD9F2672D762D9C
:1032F000852D942D0E94A033CB016B817C810E948F
:10330000D435BC01990F880B990B0E942E2F68CEE3
:103310008B819C810B9749F4A5019401672D762D33
:10332000852D942D0E9453325BCE8B819C810C970E
:1033300009F059CE272D362D452D542DC501B40148
:103340000E948D2F4DCE0E941C139C013F70232B99
:1033500029F4BC0190E080E00C94701708950E945D
:10336000A3199C013F70232B49F48827907F892B58
:1033700019F490E080E0089587E090E008950F93BD
:103380001F93CF93DF93D0E0C0E08C01015011096F
:10339000C017D10774F40E94C10C0E94AF190097A6
:1033A00091F48091602590916125469751F4219682
:1033B000EFCF0E94C10CDF91CF911F910F910C9420
:1033C000AF1986E090E0DF91CF911F910F910895A2
:1033D0000F931F93CF93DF93809160259091612588
:1033E000089741F005E010E0C801DF91CF911F91EF
:1033F0000F9108950E94C10CD0E0C0E021960E9478
:10340000AF198C01892B81F78091602590916125FE
:103410008930910529F0469729F70E94C10CEECF1B
:103420000E94C10C80915B258823F1F2BE01DD0F63
:10343000880B990B0E942E2F0E948306892BA1F6E0
:103440000AE010E0D1CF4F925F926F927F928F92FD
:103450009F92AF92BF92CF92DF92EF92FF920F9323
:103460001F93CF93DF93CDB7DEB72D970FB6F894A8
:10347000DEBF0FBECDBFB82E80915B25882331F013
:1034800062E274E0CE0101960E946A36C090210487
:103490000C2C000CDD080E94C10C809160259091DD
:1034A0006125F12CE12C089701F50E94E8198C01A7
:1034B000EE24E394F12C892BC1F0C8012D960FB6B0
:1034C000F894DEBF0FBECDBFDF91CF911F910F915A
:1034D000FF90EF90DF90CF90BF90AF909F908F9034
:1034E0007F906F905F904F900895BB2009F47BC050
:1034F00080915B25882379F00E94960EC114D10437
:1035000009F46AC00E94A00F892B09F462C00E94CE
:10351000870A0E94380D10E000E0CD2809F478C039
:1035200000E010E10027107F0115104109F053C1A0
:1035300080915B25882309F4BBC08E010F5F1F4F6C
:10354000A0901F04B0902004EF2809F4E3C00E946B
:10355000FA054C01FC0101900020E9F731973F0189
:10356000681A790A60E170E0C8010E94E40F6C01FA
:103570009D878C87892B09F467C0F8010190002092
:10358000E9F7CF01801B910B03968C0D9D1D9D8744
:103590008C87BE01665F7F4FCE010C960E941F068E
:1035A0008C01892B09F089CF2A853B8590E080E04A
:1035B000EC84FD84F701821793070CF07CC04081F6
:1035C000411101C00196FFEFEF1AFF0AFD86EC865C
:1035D000EFCF0AE010E071CF70E060E00E94922B24
:1035E0000E94830691CF809160259091612506E02D
:1035F00010E00E9709F061CF0E94C10C0E94A31940
:103600008C019F70892B09F058CFCD2809F08ACF03
:103610000027107F012B09F0DBC080915B258823F8
:1036200009F446C08E010F5F1F4FEF28B9F10E94C9
:103630000E066B017C0164E070E0C8010E94E40F9B
:103640009D878C87009719F40CE010E036CFF801C5
:1036500001900020E9F79F01201B310B2D5F3F4FA8
:10366000820F931F9D878C87BE01665F7F4FCE01BF
:103670000C960E941F068C01892B09F01ECF8A85AB
:103680009B85880F991F880F991FEC85FD85E80F92
:10369000F91FC082D182E282F3820FCF0E940E0610
:1036A000AB01BC01C8010E941B10892B09F491CF0A
:1036B00010E000E002CF01900020E9F73197EE1909
:1036C000FF096E1A7F0A60914F05709150052B011A
:1036D000461857084A145B040CF4EFCEF6018081BB
:1036E0009181860D971D918380836F5A7A4FA70130
:1036F000461B570BC2018F5A9A4F0E942A36B401BB
:10370000C701861997090E946A3650925005409267
:103710004F05D3CEC5018F5A9A4FFC0132972081B5
:103720003181821B930B9C01225031096901F80100
:1037300001900020E9F731977F01E01AF10AF901C1
:1037400001900020E9F74F01C7010496821A930AFD
:10375000880E991E68E070E0C8010E94E40F00978F
:1037600089F0FC012081318140914F055091500535
:10377000240F351F281939092A153B0508F429CFCC
:103780000E94DE0BE0914F05F0915005E819F90910
:10379000EA15FB050CF41DCFF0935005E0934F059F
:1037A000EF5AFA4F918280825F0123E0A20EB11C92
:1037B00088E08283B801C5010E946A36C70101967C
:1037C000B6018A0D9B1D0E946A360E94FA0570CFD1
:1037D00007E010E072CE08E010E06FCE2F923F922B
:1037E0004F925F926F927F928F929F92AF92BF9211
:1037F000CF92DF92EF92FF920F931F93CF93DF93BD
:10380000CDB7DEB7C253D1400FB6F894DEBF0FBEBE
:10381000CDBF109214041092562510925525109287
:103820005425109253259E012F5F3F4F2901CE0151
:103830008F5F9E4FCF5FDE4F99838883C150D14009
:1038400000916025109161250115110511F40C946A
:103850005827F0905B25FF2041F0809151259091F1
:1038600052259093200480931F04F8013197E1358D
:10387000F10510F00C945C27E05CF34E0C94E835F5
:10388000DC1C5C275C275C275C275C275C275C27AB
:103890005C275C275C275C275C275C275C275C2710
:1038A0005C275C275C275C275C275C275C275C2700
:1038B0005C27911CD01CEF1C101E551E6D1EE323AF
:1038C000E51CE323721E5C275C275C275C275C27D2
:1038D0005C27E21E5C275C27D71F5C27E323B1200F
:1038E000E32306215C275C275C27E3231C226A2351
:1038F0006A236A235C27362236225C275C27E3236F
:1039000036225C275C275C275C275C275C275C27CA
:10391000E323BC221B235C275C27E323A024A024F1
:10392000A0240E94C10C01E010E0809160259091DC
:103930006125009749F1449739F10E94A3191C01B0
:103940009F70892B09F023C280915B25882371F039
:10395000222490EF39222328A1F40E940E06A2010E
:103960000E94470C0E948E0B01E010E080916025C0
:10397000909161254597C9F60E94C10C10E000E0C6
:10398000D4CF0E94FA05EECF80915B25882309F4FD
:1039900088C1012B11F00E94870A0E94380D81C155
:1039A0000E94C10C8091602590916125019721F0C2
:1039B00026E0222E312CEBC180E00E94231A1C014C
:1039C0002114310409F46DC1E2C10E94C10C80913F
:1039D000602590916125019759F781E0EECF0E9413
:1039E000C10C8091602590916125009709F468C011
:1039F000449709F465C00E94AF191C01892B09F096
:103A0000C6C180915B25F12CE12C882329F00E940E
:103A10000E060E94A7337B0180916025909161255D
:103A2000469709F450C0312C212C80915B258823C6
:103A300009F437C1712C612C912C31E5C32E35E08E
:103A4000D32E80915125909152258F5A9A4FC816A6
:103A5000D90608F0A2CFD60112966D917C91E1149F
:103A6000F10421F06E157F0508F4D4C0211431044F
:103A700021F02616370608F4CDC090E080E00E94C1
:103A8000FC0A80E20E94B30A5601B4E0AB0EB11CFE
:103A9000CD5FDE4F19821882C350D140D501EC9121
:103AA000EE2309F49EC0E13031F585010F5F1F4F11
:103AB000F80181918F0187FD19C00E94B30AF8CFE8
:103AC000F12CE12CB0CF0E94C10C0E94AF191C0157
:103AD000892B09F05CC180915B25882309F4E1C042
:103AE0000E940E060E94A7331B019FCF80580E94A0
:103AF000B30A5801D3CFE33079F411966D917D91DB
:103B00008D919C911497A2010E94470C0E948E0BEC
:103B100085010B5F1F4FEDCFE23041F4F50161816C
:103B20007281838194810E94FC0AF2CF85010F5F2C
:103B30001F4FE43059F5CD5FDE4F28813981C350E6
:103B4000D140232B49F0C8010E948E0BD8010D9063
:103B50000020E9F78D01CDCF82E20E94B30A58011F
:103B60008501F50181915F01882351F0823211F4C2
:103B70000E94B30AF501319780810E94B30AF0CF09
:103B800082E20E94B30A0F5F1F4FB3CF23E0E29F90
:103B9000F0011124E35DFA4F849087FE03C080E2B8
:103BA0000E94B30AD501EC91B3E0EB9FF001112420
:103BB000E55DFA4F859194910E948E0B86FE03C0BD
:103BC00080E20E94B30AF50180818F3109F091CF24
:103BD00021E030E0CD5FDE4F39832883C350D140F0
:103BE00088CF0E94870A3FEF631A730A87E068163E
:103BF000710481F491E0991669F00E94380D0E94D9
:103C000013098823E1F399249394803209F0912CCD
:103C1000712C612CD6018D919C91C80ED91E11CFAB
:103C20000E94C10C809160259091612561E070E057
:103C3000892BA9F00E94AF191C01892B09F0A7C09C
:103C400080915B25882369F10E940E060E94A733AC
:103C50006115710521F42EE0222E312C98C080913F
:103C60005B258823F1F080E090E290931E0480931E
:103C70001D0490931C0480931B0490931A0480935A
:103C800019049093500580934F05709356256093C7
:103C900055251092160410921504109218041092D3
:103CA000170422242394312C3FC00E94C10C0E948F
:103CB000AF191C01892B09F06AC080915B2588230C
:103CC00081F30E940E060E94A7336115710519F257
:103CD0007093562560935525E4CF0E94C10C0E9435
:103CE000C10CDFCF0E94C10C0E94AF191C01892BAF
:103CF00009F04DC08091602590916125849711F065
:103D00000C9449270E94C10C80915B25882361F0A7
:103D10000E940E0620E030E0A9010E94272F8111A9
:103D200003C081E0809314048091140481110C94E9
:103D300058278091552590915625892B11F00C9488
:103D400058278091532590915425892B11F00C947C
:103D500058278091602590916125009711F00C946F
:103D60003427312C212C809157259091582501968C
:103D700090935825809357252091592530915A25A5
:103D80008217930721F02114310409F459CDC101A0
:103D9000CE5CDE4F0FB6F894DEBF0FBECDBFDF9115
:103DA000CF911F910F91FF90EF90DF90CF90BF9038
:103DB000AF909F908F907F906F905F904F903F90CB
:103DC0002F9008950E94C10C2090602530906125AD
:103DD000B1E02B16310409F0EBCD80912104811163
:103DE000E7CDFF2029F062E274E0C2010E946A364A
:103DF0000E94C10C80916025909161250E9709F079
:103E0000D7CD0E94C10C0E94AF19009709F0CDC018
:103E100080915B25882351F00E940E06CF5DDE4F16
:103E2000688379838A839B83C152D14080916025C6
:103E3000909161258B9709F0BBCD0E94C10C0E9427
:103E4000AF19009709F0B1C080915B25882351F02C
:103E50000E940E06CB5DDE4F688379838A839B8345
:103E6000C552D14080916025909161258C9709F0D1
:103E70004CC00E94C10C0E94AF19009709F095C078
:103E800080915B25882309F44FCF0E940E064B01D9
:103E90005C0180915B25882309F446CFE09157258A
:103EA000F0915825CD5FDE4FF983E883C350D140B0
:103EB0006090642570906525F20101900020E9F77B
:103EC00031978F01041915097801F4E1EF0EF11C07
:103ED00063E070E0C2010E94E40F20914F05309131
:103EE0005005C0901F04D09020040097B9F0DC0169
:103EF0004D915C91240F351F2E193F092C153D055E
:103F000058F44AE0242E312C42CF812C912C90E899
:103F1000A92E9FE3B92EBDCF0E94DE0BE0914F0585
:103F2000F0915005EE19FF09EC15FD0554F3F093DF
:103F30005005E0934F05EF5AFA4FF182E0827F017E
:103F4000B3E0EB0EF11C82E08283B201C7010E9454
:103F50006A360F5F1F4FF701E00FF11FCF5DDE4F95
:103F600088819981AA81BB81C152D140808391838C
:103F7000A283B38384829582A682B782CB5DDE4F13
:103F800088819981AA81BB81C552D1408087918760
:103F9000A287B38775866486CD5FDE4FA881B9811D
:103FA000C350D140B787A687BFCE1C01F0CE0E9478
:103FB000C10C2090602530906125B1E02B163104B2
:103FC00009F0F6CC809121048111F2CCFF2009F494
:103FD000B6C063E070E082E294E00E94E40F0097D4
:103FE00009F4B7C0FC012281223009F0ABC0E2E243
:103FF000F4E001900020E9F7EF51F440E80FF91FD9
:1040000080819181A281B381C95EDE4F88839983CB
:10401000AA83BB83C751D140C480D580E680F78096
:1040200080859185A285B385C55EDE4F888399839F
:10403000AA83BB83CB51D140A485B585CF5CDE4F2D
:10404000B983A883C153D14026853785C15DDE4F32
:1040500039832883CF52D1402FEF3FEF4FE75FE7FF
:10406000C95EDE4F688179818A819B81C751D140C9
:104070000E94272F882309F46CC02FEF3FEF4FE7F2
:104080005FE7C701B6010E94272F882309F465C0A6
:10409000A7019601C95EDE4F688179818A819B8183
:1040A000C751D1400E9454324B015C01BC01A401B4
:1040B00082E294E00E941B1020E030E0A901C701D9
:1040C000B6010E94943487FD0EC0C55EDE4F288184
:1040D00039814A815B81CB51D140C501B4010E9435
:1040E000272F1816BCF420E030E0A901C701B60163
:1040F0000E94272F87FF23C0C55EDE4F28813981AC
:104100004A815B81CB51D140C501B4010E949434F6
:1041100087FD15C0CF5CDE4F88819981C153D140A6
:104120009093562580935525C15DDE4F88819981F6
:10413000CF52D140019690935425809353250E94ED
:10414000C10CF2CDCC24CA94DC2C8FE7E82EFE2CD7
:1041500083CF0CE0202E312C1ACE10E1212E312CF1
:1041600016CE0E94C10C0E94AF191C01892B09F0C8
:104170000ECE80915B25882309F493CD0E940E0614
:104180000E94A7336115710509F465CD709356251A
:104190006093552520914F0530915005790194E0A9
:1041A000E91AF10880911F0490912004E816F9069D
:1041B0000CF4A7CEC0905725D0905825A090642528
:1041C000B09065250091190410911A04C9018F5A05
:1041D0009A4FA801421B530BBC0104970E942A3638
:1041E000F0925005E0924F050450110910931A0403
:1041F0000093190410931C0400931B04F801EF5A58
:10420000FA4FB182A082D382C2824BCD0E94C10CF0
:104210002090602530906125A1E02A16310409F034
:10422000C7CBFF2029F062E274E0C2010E946A3627
:10423000B0912104CD5FDE4FB883C350D1400E94BE
:10424000C10C0E94E8193C01009709F0F3C080916D
:104250005B25882309F468CDF20101900020E9F77D
:1042600031979F0124193509C95FDE4F39832883AF
:10427000C750D1402A5F3F4FC15FDE4F398328834B
:10428000CF50D1400E940E060E94A0336B01C55F43
:10429000DE4F79836883CB50D14080911F04909189
:1042A0002004CF5EDE4F99838883C151D140B12C69
:1042B000A12C01E010E0C55FDE4FA881B981CB5091
:1042C000D140AA16BB0684F40E940E060E94A033B9
:1042D000F801E69F8001E79F100DF69F100D112455
:1042E000FFEFAF1ABF0AE7CF9601220F331FCD5F52
:1042F000DE4F8881C350D140882309F489C081E012
:1043000090E0089F4001099F900C189F900C112489
:10431000C15FDE4F08811981CF50D140020F131FBA
:10432000080D191DCD5FDE4F9881C350D14060E16B
:1043300070E0911102C064E070E0C2010E94E40FDD
:10434000A0901F04B0902004009789F020914F05A1
:1043500030915005201B310BDC014D915C91240FF5
:10436000351F2A153B0508F4CCCD0E94DE0BE091E9
:104370004F05F0915005E01BF10BEA15FB050CF41D
:10438000C0CDF0935005E0934F05EF5AFA4F1183DB
:104390000083CD5FDE4FB881C350D14080E1B111C1
:1043A00001C084E05F0123E0A20EB11C8283B20150
:1043B000C5010E946A36C95FDE4F88819981C75066
:1043C000D1400196A80EB91ED501CD92DD925D01B6
:1043D000CF5EDE4FE881F981C151D140F0932004D6
:1043E000E0931F048D01C55FDE4F28813981CB50DA
:1043F000D140621673067CF40E940E060E94A03320
:10440000D8016D937D938D01BFEF6B1A7B0AEBCFC3
:1044100084E090E076CFD7FE02C0D12CC12CCC0C2A
:10442000DD1CA40170E060E0C5018C0D9D1D0E94A3
:104430003C367ACC1C01ABCC0E94C10C0E94AF1957
:104440001C01892B09F0A3CC80915B25882309F4FA
:1044500028CC0E940E060E94A03397FF04C0F8E10A
:104460002F2E312C94CC0E948F051BCC0E94C10CA6
:1044700080916025909161250C331105E9F58A3012
:104480009105D1F50E94C10C90E081E020915B255F
:10449000222309F406CC911104CC0C33110509F048
:1044A00043C06CEF811101C060E090E080E00E94A9
:1044B000D2316091512581E090E00E94D23160912B
:1044C000522582E090E00E94D23101E515E0F12C06
:1044D000E12C8091512590915225E816F9060CF0B7
:1044E000E0CBD8016D918D01C70103960E94D231B6
:1044F000BFEFEB1AFB0AEDCF0097A1F0449791F0C4
:104500000E94A3191C019F70892B09F040CC222422
:10451000E0EF3E222114F0E13F0609F0BFC491E034
:1045200080E0B4CF90E0FCCF0D33110509F0C4C496
:104530000E94350A81E090E00E94CA31E82E82E0B4
:1045400090E00E94CA31F82EF0925225E092512557
:10455000E1E5CE2EE5E0DE2E10E000E00E151F05B1
:104560000CF09FCBC80103960E94CA31F6018193DB
:104570006F010F5F1F4FF2CF0E94C10C0E94AF1955
:104580001C01892B09F003CC80915B25882309F459
:1045900088CB0E940E060E94A0336A30710508F095
:1045A0005ECFDB0120E030E30E94F1356B017C013E
:1045B0000E943807C701B601705F8F4F9F4F0E945E
:1045C000380746015701F0E29F0EA11CB11CC5013E
:1045D000B4010E94380701E515E0FE013196D801CB
:1045E0008D918193CF5FDE4F28813981C150D140B9
:1045F0002E173F07A9F7A201C701B6010E94B8070D
:104600003FEFD31AE30AF30A139585E20135180741
:1046100021F7009151251091522509831A83A20197
:10462000C501B4010E94B807B801110F880B990B9E
:104630000E94FC0A36CB0E94C10C0E94AF191C01DB
:10464000892B09F0A4CB80915B25882309F429CB21
:104650000E940E060E94A0336B019AE0C916D10495
:1046600008F0FDCE0E94350AD60120E030E30E941A
:10467000F1356B017C010E949607C701B601705E9F
:104680008F4F9F4F0E949607082FC701B6016F5F9B
:104690007F4D8F4F9F4F0E949607182F10935225E2
:1046A0000093512571E5A72E75E0B72EC501815500
:1046B0009540801791070CF0B7CFC701B6010E9453
:1046C0009607D5018D935D01BFEFCB1ADB0AEB0A8C
:1046D000FB0AECCF0E94C10C0E94AF191C01892B70
:1046E00009F055CB8091602590916125469709F09E
:1046F0005FC90E94C10C0E94AF191C01892B09F0EF
:1047000046CB80915B25882309F4CBCA0E940E0614
:104710000E94A033D62EC72EE62EF72E0E940E063C
:104720000E94A033CB010933110509F10A331105A9
:1047300009F445C06032710514F08FE190E097FFF5
:1047400002C090E080E090933805809337058D2D6E
:104750009C2D8830910514F087E090E097FF02C00F
:1047600090E080E090933605809335059ACA9B01CE
:104770003327F901EF5DF94F8491F901E851F74FC3
:104780000491F901EC53F74F1491112309F489CAEC
:1047900081110E94C904E12FF0E0EE0FFF1FE057E6
:1047A000F74FA591B4918FB7F894EC91EF2829F4C5
:1047B00000950E230C938FBF74CA0E2BFBCF6D2D6B
:1047C0000E942E056ECA0E94C10CFF2009F469CA1E
:1047D0000133110509F449C0F4F40232110581F1E5
:1047E0000F32110539F10032110509F05ACA8091D2
:1047F0006425909165259093180480931704809107
:10480000572590915825909316048093150451E1F3
:10481000252E312CBCCA0934110509F467C00E34A9
:10482000110509F480C00633110509F03ACA0E9447
:104830001C0AB3C80E94350A81E08093140431CA6F
:104840008091170490911804009709F42ACA909354
:104850005625809355258091150490911604019654
:1048600090935425809353251CCAE0911B04F0912A
:104870001C0480911D0490911E04E817F90709F4A7
:1048800012C3EF5AFA4FA080B180C280D38000914A
:10489000190410911A04E0904F05F0905005C701DB
:1048A0008F5A9A4FA8014E195F09BC0104960E94C5
:1048B0002A36E4E0EE0EF11CF0925005E0924F052E
:1048C0000C5F1F4F10931A040093190410931C04DB
:1048D00000931B04B0925625A0925525FFEFCF1AE6
:1048E000DF0AD0925425C0925325DBC988E20E948A
:1048F000310880E10E94310810927A0052985A9A49
:10490000EA98809169008F7C80936900E29AEA9A24
:1049100083B7817F846083BF83B7816083BF8895BD
:104920000E945C0FBEC980914F0590915005209167
:10493000512530915225821B930B0E947B0B2DC871
:104940000035110509F463C00135110509F4EEC005
:1049500084E090E00E94BF191C0180915B258823B0
:1049600009F42EC82114310409F011CA0E940E0660
:10497000CD5FDE4F688379838A839B83C350D140A8
:104980000E940E064B015C010E940E060E94A0339D
:104990006B010E940E06C95FDE4F688379838A83AC
:1049A0009B83C750D140C501B4010E94A0334B0185
:1049B000CD5FDE4F688179818A819B81C350D14070
:1049C0000E94A0339B01220F331FC901860F971F3E
:1049D000960141E050E0B4010E94BD08C95FDE4F7E
:1049E000688179818A819B81C750D1400E94A03320
:1049F000772768537D4FDB016C9170E0A601C201FF
:104A00000E943C36B601C2010E944F084AC985E0A7
:104A100090E00E94BF191C0180915B25882311F44E
:104A20000C94E01C2114310409F0B1C90E940E0657
:104A3000C95FDE4F688379838A839B83C750D140E7
:104A40000E940E064B015C010E940E060E94A033DC
:104A50006B013B010E940E06C55FDE4F68837983C0
:104A60008A839B83CB50D1400E940E060E94A033C4
:104A7000CD5FDE4F688379838A839B83C350D140A7
:104A8000CD5FDE4F28813981C350D140C15FDE4FF9
:104A900039832883CF50D1408601000F111F0C0DA0
:104AA0001D1DC501B4010E94A0334B01C95FDE4F3B
:104AB000688179818A819B81C750D1400E94A0334F
:104AC0009B01220F331FC901860F971FCD5FDE4F59
:104AD00028813981C350D140A801B4010E94BD088A
:104AE000C55FDE4F688179818A819B81CB50D1403F
:104AF0000E94A033772768537D4FDB016C9170E0F3
:104B0000A601C2010E943C36C15FDE4FE881F981F7
:104B1000CF50D1402E163F060CF0C3C8B301C201DE
:104B20000E944F08FFEF2F1A3F0AEECF86E090E079
:104B30000E94BF191C0180915B25882311F40C94FD
:104B4000E01C2114310409F022C90E940E060E94C3
:104B5000A033C55FDE4F688379838A839B83CB5004
:104B6000D140C55FDE4F08811981CB50D1400E94F2
:104B70000E06CD5FDE4F688379838A839B83C350A3
:104B8000D1400E940E064B015C010E940E066B0193
:104B90007C010E940E06CD5EDE4F688379838A8396
:104BA0009B83C351D1400E940E06C55DDE4F6883D2
:104BB00079838A839B83CB52D1400038110508F05A
:104BC00070C8CD5FDE4F688179818A819B81C35037
:104BD000D1400E94A033C95FDE4F688379838A8306
:104BE0009B83C750D140C95FDE4FE881F981C75030
:104BF000D140E838F10508F054C8C501B4010E945D
:104C0000A033CD5FDE4F688379838A839B83C35053
:104C1000D140CD5FDE4F28813981C350D140C15F83
:104C2000DE4F39832883CF50D140C901C55FDE4FA5
:104C3000A881B981CB50D1408A0F9B1FCF5EDE4F38
:104C400099838883C151D140803891050CF029C8DF
:104C5000C701B6010E94A0334B01C75DDE4F7983C7
:104C60006883C952D140C95FDE4FE881F981C750DE
:104C7000D140E60FF71FC15EDE4FF983E883CF51C5
:104C8000D140E838F10514F00C94511ECD5EDE4F92
:104C9000688179818A819B81C351D1400E94A03370
:104CA0006B01CD5EDE4F79836883C351D140CD5F08
:104CB000DE4F08811981C350D140000F111FCD5F15
:104CC000DE4F28813981C350D140020F131FC55FC9
:104CD000DE4F68807980CB50D140660C771CC55F71
:104CE000DE4F88819981CB50D140680E791EC55D19
:104CF000DE4F688179818A819B81CB52D1400E94AD
:104D0000A0336623C1F19401A801C95FDE4F688119
:104D10007981C750D140C3010E94BD08CD5EDE4FEE
:104D200008811981C351D140112708531D4FC75D18
:104D3000DE4FA881B981C952D1402A163B0614F032
:104D40000C94511EF801608170E0C15FDE4F488114
:104D50005981CF50D140C2010E943C36C15FDE4F25
:104D600068817981CF50D140C2010E944F08FFEF86
:104D70002F1A3F0ADCCF21E030E0A801C95FDE4FE7
:104D800068817981C750D140C3010E94BD08F601F6
:104D9000FF27E853FD4FE080F12CCD5FDE4F4881C7
:104DA0005981C350D140B701C2010E943C36CD5F4A
:104DB000DE4F68817981C350D140C2010E944F0803
:104DC000C15EDE4F68817981CF51D1406150710958
:104DD00021E030E0A801C3010E94BD08CD5FDE4F95
:104DE00048815981C350D140B701C2010E943C366D
:104DF000CD5FDE4F68817981C350D140C2010E94EE
:104E00004F08940143E050E0C95FDE4F688179812B
:104E1000C750D140C3010E94BD08A401B701C2011F
:104E20000E943C36B401C2010E944F08CF5EDE4FA3
:104E300088819981C151D1400197FC01EE0FFF1F7C
:104E4000940143E050E0C95FDE4F68817981C7502B
:104E5000D1408E0F9F1F0E94BD08A401B701C2015F
:104E60000E943C36B401CFCD232811F40C94B11E1E
:104E7000449751F40E94C10C809160259091612566
:104E8000892B11F00C94B11E6DE0262E312C0C9460
:104E9000B31E52E1252E312C0C94C71E38E0232E70
:104EA000312C0C94C71E93E1292E312C0C94C71E73
:104EB000312C212C0C94C71E8DE0282E312C0C9403
:104EC000C71E1F920F920FB60F9211242F933F937C
:104ED0008F939F93AF93BF9380913B0590913C0537
:104EE000A0913D05B0913E0530913A0523E0230F96
:104EF0002D3758F50196A11DB11D20933A058093D9
:104F00003B0590933C05A0933D05B0933E058091F1
:104F10003F0590914005A0914105B0914205019651
:104F2000A11DB11D80933F0590934005A0934105BD
:104F3000B0934205BF91AF919F918F913F912F9177
:104F40000F900FBE0F901F90189526E8230F029622
:104F5000A11DB11DD2CF1F920F920FB60F92112437
:104F60008F939F938091460590914705909385007C
:104F70008093840090912B0481E0911180E08093D4
:104F80002B0481E080932C049F918F910F900FBE92
:104F90000F901F9018951F920F920FB60F92112429
:104FA0008F9383B78E7F83BF8F910F900FBE0F902B
:104FB0001F901895789484B5826084BD84B5816013
:104FC00084BD85B5826085BD85B5816085BD8091D4
:104FD0006E00816080936E0010928100809181004C
:104FE0008260809381008091810081608093810044
:104FF000809180008160809380008091B100846006
:105000008093B1008091B00081608093B000809166
:1050100091008260809391008091910081608093E3
:105020009100809190008160809390008091A10018
:1050300082608093A1008091A10081608093A10093
:105040008091A00081608093A00080912101826006
:1050500080932101809121018160809321018091C1
:10506000200181608093200180917A008460809388
:105070007A0080917A00826080937A0080917A0031
:10508000816080937A0080917A00806880937A00B2
:105090001092C10062E082E00E942E0582E08093BF
:1050A000390180EC80937C0087E880937A0010922D
:1050B0007B0084E58093770087E980937A00809174
:1050C0007A00806480937A0087EE8093450586EDB0
:1050D0008093440582EA8093430561E080EB0E945F
:1050E000030761E080EB0E94CE0880E58CBD81E083
:1050F0008DBD8DB58EB561E081EB0E94CE0861E07B
:1051000082EB0E94CE08C091450561E08C2F0E9481
:10511000CE0861E083ED0E94CE0861E08C2F0E94F2
:10512000030761E0809144050E94CE08C0914305C9
:1051300061E08C2F0E94CE0861E08C2F0E94030753
:1051400062E370E080E090E00E948F0560E08C2FC9
:105150000E94030765E070E080E090E00E948F0508
:1051600061E08C2F0E94030766E970E080E090E028
:105170000E948F050E945C0F0E94DF090E94DF09D8
:105180000E94350A0E94DF09F89410928000109264
:1051900081008EEE95E890934705809346059093A5
:1051A00085008093840080918100846080938100D9
:1051B00080916F00816080936F0078940E941C0A38
:1051C0008CE099E00E946D0B80914F059091500505
:1051D0002091512530915225821B930B0E947B0B0D
:1051E0000E94380D96E6C92E95E2D92E0E94960EA1
:1051F00090934D0580934C05D0924B05C0924A0583
:105200008DE490E090934905809348050E947210C8
:10521000EC010097D9F30CF00EC10E94870AD092DE
:105220006325C09262250E94C10C809160259091F7
:105230006125029709F043C060915C2570915D255E
:1052400080915E2590915F250E94A03361157105C4
:10525000E1E08E0791050CF065C17B01A09062250D
:10526000B09063250E94C10C10925B2510925A25C4
:10527000109259250E94EE1BEC01892B09F0DBC02E
:10528000E114F10409F472C0409062255090632546
:1052900040915125509152259A012F5A3A4FC1E51C
:1052A000D5E0C217D30708F05EC08A809B808E14B9
:1052B0009F0450F488819981C80FD91FF2CFB12C77
:1052C000A12CF12CE12CD0CFE814F90489F46881E9
:1052D0007981461B570B50935225409351254F5AC5
:1052E0005A4F4C1B5D0B6C0F7D1FCE010E942A365E
:1052F000F5018081882379F14A185B083201F4E0D6
:105300006F0E711C40915125509152251301240EAE
:10531000351E80914F0590915005821593050CF430
:1053200004C1892851F04F5A5A4F4C1B5D0BBE01E6
:10533000CE01860D971D0E942A3679826882FB82F3
:10534000EA82A201B501CE0104960E942136309274
:1053500052252092512580E090E0892B09F446CF18
:105360000E94000043CF912C812CC2CFD0926325A4
:10537000C092622521E020935B2510926525109252
:1053800064250E94C10C10925825109257258091D7
:10539000592590915A25892B59F010925B250E942E
:1053A000EE1B81E080935B2510925A2510925925BF
:1053B0000E94EE1BEC01892BF1F58091552590910F
:1053C00056252091642530916525232B09F04DC089
:1053D000009739F42091532530915425232B09F45B
:1053E000BACF2091642530916525232B09F04CC05C
:1053F000009709F051C02091532530915425232B5B
:1054000009F444C0D0926325C0926225809153254F
:1054100090915425009721F090935A258093592517
:105420000E941309882309F4ACCF80934E058B3179
:10543000B9F7CFE0D0E00E94870A609164257091AF
:1054400065256115710539F090E080E00E94FC0A45
:105450008DE20E94B30AFE01EE0FFF1FE65EF64FDB
:10546000859194910E946D0B76CF009709F0B9CF8A
:105470002091532530915425232B09F4B2CF10925B
:10548000652510926425ADCF009731F42091532506
:1054900030915425232BB1F0209151253091522584
:1054A0002F5A3A4F01E515E00217130780F4F8016F
:1054B000428153814817590750F440815181040FAC
:1054C000151FF2CFF80120813181020F131F2091A7
:1054D0005125309152252F5A3A4F0217130709F4DC
:1054E0003ACFF801228133813093652520936425DA
:1054F000A8014C5F5F4F509363254093622500974E
:1055000009F484CF4091532550915425452B09F43B
:105510007DCF8217930708F079CF1092542510920F
:10552000532574CFC9E0D0E086CFCAE0D0E083CF66
:10553000CF92DF92EF92FF920F931F93CF93DF935F
:10554000EA01E22EF02E122F27E02E1508F417E0C4
:1055500000E0212FAE010E941E2E9881292F287075
:10556000DE0190FF39C0211137C011962DE228834A
:105570006EEE71E092FD39C0FD01319629812C93C8
:10558000213309F09F7EEE20C1F0AE014E5F5F4FE8
:105590006F01312F2EE2DA016D91AD01D6012D930D
:1055A0006D013150262FB9F7AFEFA10FAE0FBF2F0E
:1055B000B11DFD01329611966C9325E4F2FE25E6AD
:1055C000208387FF28C09DE29183819590E38A30F4
:1055D0004CF19F5F8A50FBCFF1FE18C011963BE261
:1055E000388366EF71E0222319F2F2FE02C06C5F8D
:1055F0007F4FCD010E94082FCE01DF91CF911F91E7
:105600000F91FF90EF90DF90CF900895F0FEE9CFDB
:10561000119630E2E5CF81110AC094FF08C09DE2E7
:10562000918390E39283805D83831482E5CF9BE234
:105630009183CCCFEF920F931F93CF93DF93E80129
:1056400034E047FD34E1042E000C550B57FF03C036
:10565000519541955109E32E022F242FAE010E944E
:10566000FA2FCE01DF91CF911F910F91EF90089506
:105670008F929F92AF92BF92CF92DF92EF92FF9262
:10568000CF93DF93EC01688179818A819B816115D9
:1056900071058105910521F464E279ED8BE597E0D0
:1056A0002DE133EF41E050E00E94123249015A01EE
:1056B0009B01AC01A7EAB1E40E9431326B017C018D
:1056C000ACEEB4EFA50194010E943F32DC01CB01A6
:1056D0008C0D9D1DAE1DBF1DB7FF03C00197A10915
:1056E000B04888839983AA83BB839F77DF91CF914A
:1056F000FF90EF90DF90CF90BF90AF909F908F90F2
:1057000008950C94382B84EB92E00C94382BB0E085
:10571000A0E08093B4029093B502A093B602B09338
:10572000B70208958F929F92AF92BF92CF92DF926D
:10573000EF92FF920F931F93CF93DF935C017B0156
:105740006115710519F0DB018D939C9385010F5F45
:105750001F4FF501D0818D2F90E00E94F62E6C0135
:10576000892BB9F5DD32B9F50F5F1F4FD5011196C1
:10577000DC91C1E05801F1E0AF1AB10843E050E01C
:1057800066E072E0C5010E940F2F892B69F5680160
:1057900082E0C80ED11C45E050E061E072E0C60135
:1057A0000E940F2F892B21F4680197E0C90ED11CAC
:1057B000E114F10419F0D701CD92DC9260E070E0C1
:1057C00080E89FEFC111FFC060E070E080E89FE7D4
:1057D000FAC05801BBCFDB3229F485010E5F1F4FA1
:1057E000F501D181C0E0C6CF43E050E06EEF71E03B
:1057F000C5010E940F2F892BE9F0F80110E000E0AD
:1058000020E030E0A9015F01B0ED8B2E8D0E89E024
:105810008815C8F19C2E689491F88C2F8870C2FF6F
:1058200016C0811102C00F5F1F4F3196D501DC9168
:10583000C92DE9CFE114F10429F00E5F1F4FF701E4
:105840001183008360E070E080EC9FE7BCC0882398
:1058500011F001501109A5E0B0E00E9431329B0126
:10586000AC01220F331F441F551F280D311D411D50
:10587000511D283999E93907490799E15907A8F2D3
:10588000C6609C2ED2CFAEEF8A1206C0C3FD3CC0CC
:105890009C2E689493F8C9CFDF7DD534A9F580811B
:1058A0008D3239F4C061DF011296818162E070E0CF
:1058B00006C0DF018B32C1F3119661E070E08053C6
:1058C0005D01A61AB70A8A30F8F4E0E8CE16ECE0DB
:1058D000DE065CF4B601660F771F660F771FC60EF3
:1058E000D71ECC0CDD1CC80ED11C5D01FFEFAF1A1A
:1058F000BF0A8C9180538A30A8F1C4FF03C0D194B1
:10590000C194D1080C0D1D1DC1FF09C0E114F104A3
:1059100031F081E0A81AB108D701AD92BC92CA015A
:10592000B9010E942C2FC370C33009F490584B0169
:105930005C0120E030E0A9010E94272F882309F4B0
:1059400040C0C5E3D2E017FF05C0119501951109CC
:10595000CDE1D2E06E01B8E1CB1AD10880E2E82EA9
:10596000F12C0FC0D501B1CFFE01259135914591A4
:1059700054910E191F09C501B4010E948D2F4B01CE
:105980005C01D501C4010E151F0574F72497F59429
:10599000E794CC16DD06A9F78A2F880F8B2F881F76
:1059A0008F3F49F020E030E0A901C501B4010E9419
:1059B000272F811106C082E290E09093B425809356
:1059C000B325C501B401DF91CF911F910F91FF90D5
:1059D000EF90DF90CF90BF90AF909F908F90089501
:1059E0003F924F925F926F927F928F929F92AF926F
:1059F000BF92CF92DF92EF92FF920F931F93CF93BC
:105A0000DF935C016B017A016115710519F0FB01EF
:105A100091838083E114F10451F0C70102978397C9
:105A200030F040E030E020E090E06BC05E01E50146
:105A30002196F5011081812F90E00E94F62E892B8E
:105A4000A9F71D3201F52196F501118101E0E1145C
:105A5000F10409F4E6C0F0E1EF16F10409F088C0A2
:105A6000103359F488818F7D883509F07CC0198105
:105A700022960260F0E1EF2EF12C812C912CA12CCA
:105A800088E0B82E92C01B3221F4E5012296F50180
:105A9000118100E0DCCFEAE0EE16F10409F4C7C0A2
:105AA000F0E1EF16F10409F073C0E7CF78E0E72EDC
:105AB000F12C812C912CA12C60E1B62E76C021E036
:105AC000ADC0302F3170C114D10431F0222371F1F7
:105AD0002197F601D183C08327FF2EC060E070E0DC
